:020000041000EA
:10000000002008205D0100101B0100101D010010E0
:100010001101001011010010110100101101001058
:100020001901001019010010190100101F01001022
:10003000110100101901001021010010230100100E
:100040001101001011010010110100101101001028
:100050001101001011010010110100101101001018
:100060001101001011010010110100101101001008
:1000700011010010110100101101001011010010F8
:1000800011010010110100101101001011010010E8
:1000900011010010110100101101001011010010D8
:1000A00011010010110100101101001011010010C8
:1000B00011010010110100101101001011010010B8
:1000C00011010010110100101101001011010010A8
:1000D0001101001011010010110100101101001098
:1000E0001101001011010010110100101101001088
:1000F0001101001011010010110100101101001078
:100100001101001011010010110100101101001067
:10011000EFF30580103800BE00BE00BE00BE00BE7A
:1001200000BE00BEF2EB887110600010306000105D
:10013000A001001090A31AE7D3DEFFFF42012110B7
:10014000FF010000B46F0000793512AB4FF00000E2
:100150001E49086006C881F3088810474FF05040D8
:10016000006810B14FF00000F2E70DA40ECC00299A
:1001700002D000F012F8F9E71549164A002000E015
:1001800001C19142FCD11449884714498847144958
:10019000884700BEFDE701C901C29A42FBD3704700
:1001A0003060001010010020CC110020EC70001015
:1001B0000000082000000820EC700010001008204B
:1001C00000100820000000007047000008ED00E06B
:1001D000CC110020F81D0020912E001035020010D7
:1001E000892E0010F8B500BF064B0749C91A8910BF
:1001F00048BF0131491003D0044B0BB101481847E7
:10020000704700BFCC110020CC110020000000007E
:1002100008B5054B1BB105490548AFF30080BDE8A3
:100220000840FFF7E1BF00BF00000000881D00206C
:10023000205C001008B502F04FFF064C00F034FFC0
:1002400002460B46204603F00DF84FF47A7000F09A
:100250009DFEF3E7205C00100FB400B583B0049C52
:10026000074802F07DFF3CB105A92046019102F04C
:10027000F1FD044802F074FF012002F003FE00BF0C
:100280002C5C00103C5C001070B58646EFF31085C6
:1002900072B6124CD4E8CF6F0120002EFAD1C4E818
:1002A000460F002EF6D1BFF35F8F4FF0010CC80848
:1002B00001F007030CFA03F31EF800C01CEA030662
:1002C00008D14CEA030C0EF800C0C4E88F6F85F328
:1002D000108870BD1046FFF7BFFF00BF0715002054
:1002E000F8B5EFF3108572B6234CD4E8CF7F012622
:1002F000002FFAD1C4E8476F002FF6D1BFF35F8F0C
:100300009A4227D80126D70810F807E002F0070C18
:1003100006FA0CFC1EEA0C0F00EBD2070DD125E00B
:100320004FEAD20E10F80EE002F0070C06FA0CFCB1
:100330001EEA0C0F00EBD20718D001329342EFD225
:100340004FF0FF300023C4E88F3F85F310889842B8
:1003500007DBF8BD0023C4E88F3F85F310884FF01A
:10036000FF300029F5D00698FFF776FF4EEA0C0E15
:10037000104687F800E0E5E707150020044A1078EA
:10038000431CDBB2182B28BF10231370704700BF2B
:100390002811002010B5054C82B001461F231822F9
:1003A00000940348FFF79CFF02B010BD405C0010B2
:1003B000181900204FF0E022936843F00053936037
:1003C000704700BF0021044B03F12002C3E88F1FD8
:1003D00001339342FAD17047FC1400204FF0E02320
:1003E0004FF08032C3F80024C3F80424C3F8082473
:1003F000C3F80C24C3F81024C3F81424C3F8182439
:10040000C3F81C24C3F82024C3F82424C3F82824E8
:10041000C3F82C24C3F8302462B67047012300F0DF
:100420001F029340400941B1800000F1604000F597
:100430006140C0F8803103607047024A203042F8C2
:100440002030704700E100E00123064A410952F8DC
:10045000212000F01F008340134214BF0120002020
:10046000704700BF00E100E001224309034900F0AA
:100470001F008240403341F82320704700E100E034
:10048000054A10309268054B52F82000C01A2F28F8
:100490008CBF00200120704700ED00E02C110020EF
:1004A000F8B50D46EFF3108772B6124ED6E8CF2F8F
:1004B0000123002AFAD1C6E8423F002AF6D1BFF351
:1004C0005F8F0D4B00F110049B680C4A53F82430E9
:1004D000934203D0994201D000F072FF064B9B6813
:1004E00043F82450BFF35F8F0023C6E88F3F87F3A4
:1004F0001088F8BD0515002000ED00E01101001086
:100500002DE9F04F81468B46164683B0EFF31083FA
:1005100072B6DFF8D0A10093DAE8CF1F01230029DB
:10052000FAD1CAE8413F0029F6D1BFF35F8F664B8D
:1005300093F90040002CC0F2A080644D04EB440706
:1005400005EB870898F8061009F110091970604B3F
:10055000BF009B6853F829006300411B2F292FD946
:100560005C49884240F0A5801C445B4B02372F4415
:10057000043BDB1BC3F34A036FEAC3434FF421413F
:100580006FEAD34325F8241005EB840463804BF60F
:100590000153A380FF2348F00100E671C4F808B0BE
:1005A000A3714B4B9B6843F82900BFF35F8F002377
:1005B000CAE88F3F009B83F3108803B0BDE8F08F3B
:1005C00020F0010E9EF80710B1422ED84FF42143BF
:1005D000EB53414BB91C2944043B04375B1A2F44AD
:1005E000AEF104013D4CC91BC1F34A012143A8F8F7
:1005F0000410C3F34A033A492343A8F802304AF6E9
:10060000AA2073465B1B5B415843000D88F80760C6
:1006100088F80600C8F808B048F00100CEF80010CD
:10062000BFE7D179B1422ED996469EF906C00CEBB0
:100630004C02BCF1000F05EB8202F2DA4BF60151DD
:100640000EF10402A8F10407BF1AC7F34A076FEAC4
:10065000C7476FEAD7478EF8064003EB0408204CE3
:1006600005EB8803AEF8047045F82840998083F8BC
:1006700006C0DE71C3F808B093E700F0A1FE124B8C
:1006800093F9004059E7BEF804100EF10402490541
:1006900014D44915023102EB410101916FF00701B9
:1006A000C91B019F491B3944C1F34A0141F4604110
:1006B000C8E7019300F084FE019B55E701F5FF11A7
:1006C00001F5FF511F31E4E7F01D00202C1100203F
:1006D00000ED00E0110100105C11002000E0FFFFC0
:1006E0000148804705150020F0B5EFF30585EDB210
:1006F000EFF3108C72B62649D1E8CF2F0123002AE0
:10070000FAD1C1E8423F002AF6D1BFF35F8F214EF4
:1007100040F0010EB4684AF6AA2354F825701E4A28
:100720000446A41A644163431B0D77455BB21BD09A
:1007300092F906409C421CD092F912409C4223D070
:1007400092F91E409C4221D092F92A409C4208BF57
:1007500003240FD0114A0024157813708571C1E865
:100760008F4F8CF31088F0BDB2680D4C42F82540D5
:10077000F0E7002404EB440402EB8402FF249471AC
:100780004BF601549480E5E70124F3E70224F1E7F6
:100790000515002000ED00E02C110020F01D0020C8
:1007A0001101001010B5074C82B00146052300224C
:1007B00000940548FFF794FD0028A8BFC0F133005E
:1007C00002B010BD5C5C0010F41D0020014B0B4416
:1007D00003607047FC1400202DE9F041134D144FC5
:1007E000BD4221D24FF0FF082C460CE0FFF7C6FDBA
:1007F00001462846FFF7EAFFA6F80480BFF35F8FA3
:10080000BC4211D22546236826460834002BEDD180
:10081000FFF7B4FD01462846FFF7D8FF86F80480AD
:10082000BFF35F8FBC42EDD3BDE8F081C41100205F
:10083000CC11002010B50446FFF7A0FD014620466C
:10084000FFF7C4FFFF232371BFF35F8F10BD00BF0D
:1008500010B504460120FFF79DFD034B03442360C0
:10086000BFF35F8F10BD00BFFC140020024B0B4490
:100870000360BFF35F8F7047FC1400200D4B1A68B4
:10088000EFF3108172B6D2E8CFCF0120BCF1000F98
:10089000F9D1C2E84C0FBCF1000FF4D1BFF35F8F68
:1008A00000221B68C3E88F2F81F3108840BF00200F
:1008B00000217047D01D00202DE9F04F2DED028B57
:1008C00085B0EFF30583DBB2103B9A0818BF012215
:1008D0004FF0010103F0030008BFAD4DAD4B18BF51
:1008E000AD4D00EB820253F8226001FA00FB05F5E2
:1008F00041539FEDA58B0190C3F804B02EE0B3885F
:10090000190440F19280B379002B40F0DC80B6F9F5
:100910000820002AC0F21B81736902EB420203EB3C
:10092000C203D3E90247B7F1FF3F08BFB4F1FF3F6D
:100930000DD0019B05EB8301AB6A0A69D21AE31A59
:10094000934203D32B6A13EA0B0F00D10C612846A4
:1009500000F0A2FBA042B941C0F2F980B6F908301C
:10096000C5F83CB0002B0093C9DBD6F8149003EB1C
:10097000430A284609EBCA07D7E9024800F08CFB76
:10098000A04271EB0801BADBB8F1000FC0F2C180E0
:10099000D7E90431814A934200F0EB807A88B6F9B6
:1009A000080092B242EA0040984702460B4652EADB
:1009B000030100F0AE80002B80F2CF80B4EB020E7A
:1009C00068EB030839F93A30C7E902E8002B96DBF7
:1009D000716903EB430201EBC202D2E90270BE452A
:1009E00078EB000C4FEA430289DBB4462CF8083F51
:1009F0000BE031F93230A446002B0DDB03EB430052
:100A000001EBC0005A00D0E90270BE451A4478EBF1
:100A1000000001EBC204ECDA29F83A30009BACF894
:100A20000030B38819043FF56EAF3369EFF31082DD
:100A300072B6D3E8CF0F01210028FAD1C3E8401FD6
:100A40000028F6D1BFF35F8F4FF6FF74B088002304
:100A5000316900B2B480C1E88F3F82F310889842B8
:100A6000FFF651AF0746A946746906F1080807EB7F
:100A7000470E04EBCE03D3E90205B6F90830C446AD
:100A8000002B13DBB246009704E034F9363094466D
:100A9000002B09DB03EB430604EBC602D2E902712B
:100AA000B84275EB0101F0DA5646009FACF80070D1
:100AB00034F93E7024F83E30002FD8DAB3794D4631
:100AC000002B3FF424AF0023B371B6F9083006F1D0
:100AD000080E5A1C3BD01A46746903E08646591C1E
:100AE0003FF417AF03EB430104EBC10047889C467A
:100AF0003F0434F93130F1D5944580ED028BEED0CE
:100B0000AEF80030328924F831206246A6F808C0D9
:100B1000E5E739F83A3033813369EFF3108272B682
:100B2000D3E8CF0F01210028FAD1C3E8401F0028E5
:100B3000F6D1BFF35F8F7388316929F83A30009B93
:100B400073800023C1E88F3F82F31088D7E640BF4F
:100B500005B0BDEC028BBDE8F08F2846CDE902233D
:100B600000F09AFA029A039B10EB020E43EB010885
:100B700028E708460B69029198470028C9D00299D6
:100B8000D1E9002313E700BFFFFFFFFFFFFFFFFFD7
:100B900000000B40A81D002000800B40B908001089
:100BA0002DE9F84F364C25692DB1BDE8F84F0A21E3
:100BB0003448FFF70BBEDFF8E4800321404600F025
:100BC00059FA0326C4F80C80FFF7D8FB4FF0504CBD
:100BD0002D4B267003442361DCF800300F21637035
:100BE000636961801D834FF00405A3F878504FF0CE
:100BF0000505A3F890504FF00605A3F8A8504FF054
:100C000007050E2108274FF6FF724FF00A0EA3F8D2
:100C1000C0504FF001094FF00C0C4FF0020B4FF099
:100C2000090A0D204FF00B05A3F868111749A2809F
:100C3000A3F808E1A160A3F848B0A3F8F0A0A3F8D6
:100C40002051A3F838C1A3F85001A3F83090A3F8BD
:100C50006060A3F8D8701A800D4B3046C8F8207039
:100C60000C49DC60FFF71CFC49463046FFF7D6FB19
:100C7000094B0A211F640348BDE8F84FFFF7A6BDE2
:100C800074110020D01D0020FC140020FFFF100074
:100C9000A81D0020B908001000200B4000000B40E8
:100CA0000048704774110020F8B59DF82070044684
:100CB00016461D4637B900F0F7F9864265EB01018B
:100CC00000295CDB2369EFF3108772B6D3E8CF1FEE
:100CD00001220029FAD1C3E8412F0029F6D1BFF340
:100CE0005F8FB4F902C063690CEB4C01BCF1000FDB
:100CF0004FEAC10203EBC10138DB985A4FF0000EF6
:100D000060802069C0E88FEF87F310880698C1E9FA
:100D1000026508610798486148880130C0F30E00F9
:100D2000012838BF0120488040EA0C402169EFF3D8
:100D3000108572B6D1E8CF7F0126002FFAD1C1E825
:100D4000476F002FF6D1BFF35F8FA1889952A4F8A7
:100D500004C02369C3E88FEF85F310880122E3689C
:100D6000217803F501538A405A60F8BD00232269B7
:100D7000C2E88F3F87F310884FF0FF30F8BD384648
:100D8000F8BD00BF0146F0B50069EFF3108772B6F9
:100D9000D0E8CF5F0124002DFAD1C0E8454F002DE7
:100DA000F6D1BFF35F8FB1F902E04C690EEB4E0C48
:100DB000BEF1000F4FEACC0504EBCC0C3DDB605BD1
:100DC000002648800869C0E88F6F87F31088BCF858
:100DD0000200CCE902230130C0F30E00012838BF25
:100DE0000120059BACF80200CCF81030069B40EACD
:100DF0000E40CCF814300B69EFF3108272B6D3E8D2
:100E0000CFCF0127BCF1000FF9D1C3E84C7FBCF173
:100E1000000FF4D1BFF35F8F8B886353A1F804E018
:100E20000B69C3E88F6F82F310880122CB680978C1
:100E300003F501538A405A60F0BD00230A69C2E8F5
:100E40008F3F87F310884FF0FF30F0BD0346408995
:100E5000B0EB214F37DD58690A1402EB420210B59E
:100E600000EBC2001C69EFF3108C72B6D4E8CFEF30
:100E70000122BEF1000FF9D1C4E84E2FBEF1000FE0
:100E8000F4D1BFF35F8F428889B292B28A4207D011
:100E900000221B69C3E88F2F8CF31088002010BD3F
:100EA00042F4004242800121002218699971C0E891
:100EB0008F2F8CF310881C78DA68084602F50153EE
:100EC000A140596010BD0020704700BF40787047B6
:100ED0002DE9F041861F41F1FF35B04271EB05036A
:100EE00038BF002682B038BF354604460F4600F0B2
:100EF000DBF8301A65EB0103012873F1000306DA11
:100F00002046394602B0BDE8F04100F0D7B800F005
:100F1000CBF8864265EB010100290ADB0021174B63
:100F20003246009316482B460191FFF72BFF00280D
:100F3000E6DB4FF0000C1348134A436A9D4204D885
:100F4000816AB142DCD29D42DAD11368EFF310819D
:100F500072B6D3E8CF8F5FF0010EB8F1000FF8D171
:100F6000C3E848EFB8F1000FF3D1BFF35F8F136808
:100F7000C3E88FCF81F3108820BFDEE77D08001023
:100F80007411002000000B40D01D002010B5044655
:100F900000F08AF84FF47A734FF0FF3C6FF0004294
:100FA000E4FB0301BDE81040844572EB01033CBF44
:100FB00060461146FFF78CBF2DE9F04306460D460B
:100FC00083B0EFF30584E4B23CB1274B586AA842E2
:100FD0001CD2002003B0BDE8F083244FD7F80C905A
:100FE00097F80080484600F057F808F1040859F8CF
:100FF00028301B1A301A65EB0101984271F100018B
:1010000011DB20BF184B586AA842E2D39B6AB34257
:1010100003D3012003B0BDE8F083401B18BF0120BB
:1010200003B0BDE8F08300F03FF8864265EB0101B4
:101030000029CADB0E4B3846CDE9003432462B4638
:10104000FFF7A0FE011EC0DD074B5A6AAA4208D373
:101050009B6AB34203D30548FFF7F8FEB5E7AA42FF
:10106000F9D120BFF7E700BF00000B40741100204A
:101070007D08001010B4054B054C064AA04214BF71
:101080001846581C5DF8044BFFF7FEB81C190020E9
:1010900000800B40785C00100346416A0A46986A5B
:1010A000596A8A42FAD17047034B596A0A46986ACC
:1010B000596A9142FAD1704700000B40074A536ABF
:1010C0009942FCD8994207D1044B02E05A6A9142F6
:1010D00002D19A6A8242F9D3704700BF00000B40E8
:1010E00000EB400C4FEA8C0C0CF1804C0CF5803C72
:1010F000F0B51646DCF80420051FB2F5803F38BF76
:101100004FF48032EDB238BFCCF80420012D0CF53D
:10111000405228D94FF400641460234C54F8202026
:10112000B2B9DCF80020012D82EA461202F0E0029A
:101130000CF58056326028D94FF4006144F8203015
:101140004FF480330CF500521160CCF80430F0BD40
:101150006769B7FBF2FE0EF1010E0EEB4E0EBEF10B
:10116000030EFCD2DDE70129D4D103241460DCF89E
:101170000820D207FBD5DCF800200B4C82EA46128F
:1011800002F0E0020CF5805632600122DCF80050DB
:101190004D4005F00305356002FA01F1DCF8082046
:1011A0000A42FBD0C8E700BF20190020014B53F8CA
:1011B000200070472019002070B4039D04682D039F
:1011C00045EA03451B4B002CB3FBF1F3B2FBF3F6EE
:1011D0001FDB194A194B90420CBF4FF400424FF4E9
:1011E0008042174C1A6003F580531A60A36832EAF4
:1011F0000303FBD1212200F54053043301608660D4
:101200001A600268002AFCDA0822C5601A6070BC05
:101210007047036803F03F038B42DAD18368C3F35E
:101220000B03B342D5D1C36803F4EE23AB42D0D154
:10123000EDE700BF001BB700008005400020024022
:101240000000024030B44FF080441C4B1C60E0B101
:101250001B4CA3F54053DC611A4C40F001004440A4
:101260001C62596298624FF080454FF0E061134B69
:101270001548164C1D60846019604AB930BC4FF0A7
:101280000042A3F580531A607047114BD861EAE71A
:101290004FF47A7303FB02F2B2F1807F2ABF6FF042
:1012A0007F4313461A464FF080410A4C084823609A
:1012B000094B426030BC1960704700BF00B00D4060
:1012C000D3C007B02D3FF84F00A00140F3FFFF014E
:1012D00000800D40801D002000A00D40012300EB88
:1012E0004000800000F1804000F584104160036000
:1012F000704700BF002370B5DB8A04460D4600220C
:1013000042E800F2520254BF1021042144F252205C
:10131000984786462B462246F446BDE870400A218F
:101320004FF48170604700BF0023DB8A002242E84F
:1013300000F2520201D4102118470421184700BFBF
:1013400008B503460846191E02DB1AB140F030000A
:10135000FFF7D0FF40F02000FAE700BF034AD2F8C1
:101360002838002BFBD0BFF35F8F704700000E4082
:101370000021044B044ABFF35F8F43F8041B9342E0
:10138000F9D170470C080E402C080E4010B44FF4F1
:101390008D704FF42A64064A064B07491460D060EA
:1013A00019605368002BFCDA5DF8044B704700BFEE
:1013B0000080044000A0044000B0FA00704700BF65
:1013C00008B50148FEF748FF9C5C001038B5054C95
:1013D000054DAC4204D254F8043B9847AC42FAD3D2
:1013E00038BD00BFD85B0010185C001010B407486F
:1013F000074C084B084A094904601A608B6832EAB6
:101400000303FBD15DF8044B704700BF002002408E
:101410007F3BEFEF00300240F6FFF3030000024095
:10142000044BDB6CB3F5004F03D14FF48022024B29
:10143000DA64704700001150002011504FF0E02294
:10144000044BD2F8881D0B43C2F8883D10EE3004DF
:10145000704700BF030330006FF06041044B054A42
:1014600019609368DB4333F06043FAD1704700BFE3
:10147000003002400000024010B545F25320FFF753
:1014800053FFBDE8104003460420184710B545F24D
:101490005320FFF749FFBDE81040034601201847DD
:1014A000FEF790BF70B51749174C184E641AA51077
:1014B000442D2A4628BF44223046920004F0BEFA4A
:1014C000B4F5867F1AD86B1C442BC5F14401104A31
:1014D00088BF012110D8B4F5867F0DD03319480894
:1014E00003EBC0001A605A6008338342FAD1CB077D
:1014F00004D521F001010D4446F82520054B9E60DE
:1015000070BD00BF0000001010010010000000209E
:101510001101001000ED00E00023F0B52B4C83B06A
:10152000C4F88430FFF732FF0122294BDA63636C81
:10153000012BFCD10321264A244B11639D6B012D05
:10154000FCD1052302271E4600242946214A2248B1
:101550000097FFF731FE29463346204A204800967F
:10156000FFF72AFE3946224604201E4BFFF7B8FD3E
:101570002946224630461C4BFFF7B2FD2246082082
:1015800021461A4BFFF7ACFD224609202146174B96
:10159000FFF7A6FD224606202146134BFFF7A0FDCC
:1015A000114B224607202146FFF79AFD0420FFF742
:1015B000FDFD0F4BA3FB0035AD0CE0B22946013415
:1015C000FFF78CFE062CF8D103B0F0BD00000140FF
:1015D00000300140002F685900000540008C86470C
:1015E00000800540001BB70080D1F008006CDC02D1
:1015F00083DE1B4386B003B451FC0804CDE902012D
:1016000051FC0904CDE9040151EC0A04CDE90601BD
:1016100003BCF047BDE800504EEC00C4BDE80050EC
:101620004EEC01C4BDE800504EEC02C400BD000009
:1016300000B5FFF7DFFF02E010FE30F4F8D441EC14
:10164000100443EC112400EE010410EE010480EEBE
:10165000200451EC1004704700B5FFF7CBFF02E007
:1016600010FE30F4F8D441EC100443EC112400EEE9
:10167000010410EE210480EE200451EC3004704788
:1016800000B5FFF7B7FF02E010FE30F4F8D410B554
:1016900041EC100443EC112451EC040453EC0524F8
:1016A000A0FB024C5FF0000EE0FB03CEE1FB02CE9C
:1016B0004CEC20440024E1FB03E444EC30E480EEF5
:1016C000200451EC5004BDE81040704700B5FFF70E
:1016D00091FF02E010FE30F4F8D441EC100443EC2A
:1016E000112451EC2104A0FB01126FEA820252FB8B
:1016F000100052FB12F252FB1000A0EBD07C53EC16
:1017000004245CFB13F153EC1524A1FB022001FB24
:10171000030053EC4424A2EB000050FB1CF24FEA00
:10172000111312EB017043EBE27140EA515020EAD1
:10173000915020F0070053EC7524A0FB023C53ECC1
:10174000752400FB03CC01FB02CC53EC0424ACEB6E
:10175000824C40EA5C70A0F1010041EC400480EE54
:10176000200451EC7004704700B5FFF743FF02E01E
:1017700010FE30F4F8D440EC700400EE010410EEDA
:10178000210480EE200451EC3004704700B5FFF7CF
:1017900031FF02E010FE30F4F8D440EC600400EEBB
:1017A000010410EE210480EE200451EC3004704757
:1017B00000B5FFF71FFF02E010FE30F4F8D441EC53
:1017C000800400EE010410EE010480EE400410EEEF
:1017D0001304704700B5FFF70DFF02E010FE30F470
:1017E000F8D441EC800400EE010410EE010480EE18
:1017F000400410EE3304704700B5FFF7FBFE02E033
:1018000010FE30F4F8D441EC100443EC112400EE47
:10181000010410EE3004C0F30070704700B5FFF70C
:10182000E9FE02E010FE30F4F8D443EC102441EC61
:10183000110400EE010410EE30F48CBF01200020F2
:10184000704700BF00B5FFF7D5FE02E010FE30F490
:10185000F8D441EC100443EC112400EE010410EE26
:1018600030F42CBF01200020704700BF00B5FFF707
:10187000C1FE02E010FE30F4F8D441EC100443EC59
:10188000112400EE010410EE30F48CBF0120002082
:10189000704700BF704700BF2DE9F04F83B09846F6
:1018A0000F9B0F4611469A070646DDF83090DDF88B
:1018B00038B012D10D9B5B450FD28A460C46ABEB7C
:1018C00003050D4452464346394620200AF1010AD9
:1018D000B047AA45F6D1214600E00D460D9B93B1D5
:1018E00009EB030404EB050A01950D46AAEB04027B
:1018F00014F8010D43463946B0474C45F6D1294608
:101900000D9B019D1D440F9B9B070CD56C1AA34595
:1019100009D92A464346394620200134B047A34519
:1019200005F10105F5D8284603B0BDE8F08F00BFEA
:101930002DE9F04F0F9FDDF824E017F0020F0A9C0D
:101940009DF82C900E9DDDE90C8629D1002D66D1E5
:10195000B44225D2202C07F0010B00F0118104F1D4
:10196000FF3C4FF0300AF44401E0202C79D00134E0
:10197000A6420CF801AFF8D8BBF1000F10D0AC4272
:101980000ED2202C73D004F1FF3C4FF0300AF44407
:1019900001E0202C22D00134AC420CF801AFF8D188
:1019A00017F0100F31D017F4806F4FD1DCB9B8F1B8
:1019B000100F00F0BF80B8F1020F00F0C980302492
:1019C0008EF800400124B9F1000F5DD17E0740F18F
:1019D0008D802B260EF80460013418E0FC067AD5C1
:1019E0007C0532D42024A64201D0AC422ED1661E02
:1019F00000F08D80B8F1100F00F0CC80B8F1020F2C
:101A000062D04FF0300C0EF806C0202CDBD1CDE9AF
:101A10000B57CDE909E4BDE8F04FFFF73DBF17F0E4
:101A2000010B3DD0B9F1000F53D117F00C0F50D17D
:101A3000B442A4D2202C92D1202D98BF07F0100CD4
:101A400015D8BCF1000FAED1E1E72024B8F1100F9A
:101A500043D0B8F1020F33D0202CD8D02646013421
:101A6000CFE7BBF1000F00F0A680202DB6D9FC0611
:101A700031D57C052FD4202E00F0AB80202DE4D171
:101A800020251F262C46B5E72D260EF804600134CC
:101A9000CDE90B57CDE909E4BDE8F04FFFF7FCBEF7
:101AA000B442BFF47DAF202C08BF07F0100C7FF4C8
:101AB00056AFBCF1000FAAD017F4806FC6D192E7E1
:101AC000202CA4D0264601344FF0620C0EF806C03C
:101AD000C2E7013DACE7202499E7BE060DD4202CD7
:101AE00095D078260EF804600134B5E73E078ED510
:101AF00020260EF80460013489E7202C87D04FF0AF
:101B0000580C0EEB040686F800C00134A4E7B8F1C7
:101B1000100F48D0B8F1020F7FF451AF62248EF855
:101B2000004030248EF801400224B9F1000F3FF448
:101B30004DAFA9E7BE0617D558248EF800403024D3
:101B40008EF801400224B9F1000F3FF43FAF9BE74C
:101B500062268EF80060302644468EF80160B9F1A6
:101B6000000F3FF433AF8FE778248EF80040302425
:101B70008EF801400224B9F1000F3FF427AF83E74C
:101B800007F0100CBBF1000F93D0BCF1000F7FF4F5
:101B90000AAF3CE7A4F1020C3446BE0607D478260F
:101BA0000EF80C605AE7BC06C6D47824B7E758266E
:101BB0000EF80C6052E717F0100F3FF428AF17F43F
:101BC000806F7FF424AF202E06D0202D7FF43EAF0F
:101BD00056E734461F260DE71F260BE700B970476E
:101BE00001F07CBA10B1D1E900311847704700BF4D
:101BF0002DE9F04F9FB09DED287BDDE92AA558EC3B
:101C0000177B83461E460D91109243463A4638464E
:101C100041468DED087B2C9CFFF7F2FD002840F03B
:101C2000D880384641464FF0FF32754BFFF722FE11
:101C3000002840F0CE80384641464FF0FF326FF426
:101C40008013FFF7EFFD002840F0C380DDE908783E
:101C50000022384641460023FFF7E4FD002840F00B
:101C6000C081CDE90A78DDE90A2390461F4614F4C5
:101C7000806308BF4FF0060A139304F4006258EA29
:101C80000703119240F0C080002A00F0A2819FED6E
:101C90005A7B00278DED0E7B4FF00008BA45CCBF74
:101CA000AAEB070A4FF0000A4746C8BF0AF1FF3AFD
:101CB00044F48064454594BF4FF00009A5EB080942
:101CC00014F00203119304D0B8F1000F18BF4FF0C5
:101CD00000093FB1DDE90A01DDE90E23FFF7FAFC57
:101CE000CDE90A01DDE9080100220023FFF79AFD92
:101CF00030B1DDE90A01024601F10043CDE90A23D2
:101D00009DED0A7BCDE902A9DDF834A024F400633F
:101D100004938DED007B334651465846109A00F0EF
:101D200097F98146B8F1000F4FD014F0200F4A46C2
:101D30000CBF6520452033465146D84709F10104C0
:101D400087EAE77C0DF1580908F1FF304B46002285
:101D5000DFF8B080ACEBE77C4FEAD77E01E0202AC9
:101D600010D0E246A8FB0C71C90801EB8107ACEB6F
:101D700047073037BAF1090F8C4602F1010203F828
:101D8000017BECD805230590069300200A230D9FC4
:101D9000CDE90330CDE9012E3346CDF8009022463F
:101DA00039465846FFF7C4FD119B81466BB1109B25
:101DB000C41AA54209D94A4633463946202001347F
:101DC000D847A54209F10109F5D848461FB0BDE83A
:101DD000F08F9DED087B33465846109A0D998DED96
:101DE000287BCDE92B54CDF8A8A01FB0BDE8F04F5B
:101DF00000F02EB9AFF300800000000000000000EA
:101E0000FFFFEF7FCDCCCCCCC7F30A50A0F2FF3060
:101E1000FFF7AEFC8AA3D3E90023FFF735FC8AA3C2
:101E2000D3E90023FFF708FCC7F31307CDE90E0140
:101E300047F07F51404600227B4B41F44011FFF7B1
:101E40000FFC6BA3D3E90023FFF71EFC02460B46F1
:101E5000DDE90E01FFF7F0FBFFF7AEFC0746FFF7E9
:101E600087FC65A3D3E9002380468946FFF70CFC75
:101E700000226E4BFFF7E0FBFFF79EFC034649464E
:101E8000404612935EA3D3E90023FFF7FDFB804693
:101E900012988946FFF76CFC5BA3D3E90023FFF798
:101EA000F3FB02460B4640464946FFF7D9FB024684
:101EB0000B4680468946FFF7E7FB42464B46CDE995
:101EC0000E0140464946FFF7B7FB0022CDE9140159
:101ED000DDE90E01564BFFF7FDFB0022554BFFF7E6
:101EE000ABFB02460B46DDE90E01FFF7F3FB0022D8
:101EF000514BFFF7A1FB02460B46DDE90E01FFF750
:101F0000E9FB42464B468046894600204FF080411F
:101F1000FFF7A6FB02460B4640464946FFF78CFBFF
:101F200002460B46DDE91401FFF7D4FB0022434BC8
:101F3000FFF782FB129B002203F2FF3C4FEA0C5397
:101F4000FFF7A2FB80468946DDE90A0142464B467F
:101F5000CDE90E89FFF766FC68BB4346494607F1A9
:101F60006302C72A119A34BF4FF004084FF00508E6
:101F7000002A3FF49FAE0B433FF48EAEDDE90A0129
:101F800023A3D3E90023FFF761FC48B1DDE90A018F
:101F900021A3D3E90023FFF745FC00287FF47CAEA2
:101FA000BAF1000F3FF486AE139B002B3FF482AED4
:101FB0000AF1FF3A7EE600221E4B40464946FFF7F3
:101FC00089FB0A4601460346CDE90E12013F114640
:101FD000C5E79FED137B17464FF004088DED0E7B90
:101FE00068E608F100430A970B933CE6AFF30080E4
:101FF00061436F63A787D23F71A379094F930A406A
:102000001655B5BBB16B0240EF39FAFE422EE63FE2
:102010002D431CEBE2361A3F0000000080842E4165
:1020200000000000000000000000F83F0000E03F5A
:1020300000002C4000002440000018400000F03F49
:10204000FB799F501344D33FB3C8608B288AC63FA7
:102050002DE9F04F97B0DDE92089CDE90401DDE9F4
:10206000224BCDE90623404642464B464946DDF821
:1020700090A0FFF7C5FB002840F0C68140464946C6
:102080004FF0FF326FF48013FFF7CCFB002840F0D5
:102090001D81404649464FF0FF32C14BFFF7EAFB36
:1020A000002840F0E380B8A3D3E900234046494626
:1020B000FFF7E0FB002840F0CB80B5A3D3E9002375
:1020C00040464946FFF7AEFB002840F0C18040463D
:1020D000494600220023FFF7A5FB002840F0E080DE
:1020E0001AF480650D9000F0E980092C40F2978188
:1020F0000EAB1A460C9330210023A4F109050133DD
:10210000202B02F8011BA4EB030600F03A81AB423E
:10211000F5D19FED9D7B8DED087B49464046FFF74D
:102120004BFB0446FFF724FB02460B46404649465C
:10213000FFF796FADDE90823FFF7A6FA02460B46F9
:10214000CDE90A23FFF74AFB0746FFF723FB0246C8
:102150000B46DDE90A01FFF783FA02460B46CDE99B
:102160000A2300228F4BFFF785FB002800F0DB805D
:1021700001373846FFF70EFBDDE90823FFF766FB62
:1021800008B100270134002E40F0B1802046FFF74F
:10219000EFFA02460B4640464946FFF761FA002235
:1021A000804B06460F46FFF73DFB40B930463946A7
:1021B00000227C4BFFF75EFB002800F016810C9B91
:1021C000691E7948194410E080FB0462C3EBA20346
:1021D00003EB8302A4EB420404F1300201351C46F8
:1021E00001F8012F002B00F0AB80202D4FEAE473A3
:1021F000EAD10AF00303012B1CD1BBF1000F19D067
:102200000D9B002B40F0FA801AF00C0F40F0F68086
:10221000AB4540F2D380202D0BD030220C996B1EA1
:102220000B4401355D4503F8012F00F08D80202D12
:10223000F7D12025DDE90623DDE904010C9CCDE979
:1022400002BA01950094FFF727FB17B0BDE8F08FA5
:10225000CDE92089DDE90623DDE90401CDE923BAD2
:10226000229417B0BDE8F04FFFF7C2BC4F4DCDF838
:102270008CA00AF0040ABAF1000F4D4C18BF2C468E
:10228000DDE90623DDE9040120940CBF03240424C6
:10229000CDF888B0219417B0BDE8F04FFFF7FCBA35
:1022A000012142464B460D9100200021FFF7D8F94D
:1022B0001AF48065804689467FF417AF9FED367B20
:1022C0000EAB06268DED087B0C9326E70424DDE992
:1022D0000623DDE90401374DCDF88CA0CDF888B098
:1022E0002095219417B0BDE8F04FFFF7D5BA0C9BAD
:1022F000681EDFF8C4C018440DE0ACFB0732D208FA
:1023000002EB8203A7EB43033033092F00F8013FB0
:1023100027D917460D46202D05F1010106F1FF369C
:10232000EBD120254BE70022DDE90A011D4BFFF729
:1023300079FA00287FF427AF002F5BD1013722E71D
:102340000AF00303012B76D0202D3FF473AF0D9BD1
:10235000BBB32D2205F158036B4403F8202C013543
:1023600068E72029DDD0AEB30C9B0E441D4430231A
:1023700001E0B1422FD00131202905F8013FF8D109
:10238000CFE71D46C5E600BF0000000065CDCD418A
:102390000000000065CDCDC10000000080842E410A
:1023A000FFFFEF7F0000E03F67666666485D001054
:1023B000505D0010585D0010CDCCCCCC202D3FF4EA
:1023C00039AF1AF0040F0ED11AF0080F3FF432AFF4
:1023D0002022BFE70E462E2206F158036B4403F875
:1023E000202C751CEBE62B22B4E7E3077FF5E7AE64
:1023F0000134E4E6FA077FF5C6AE9FE70BF1FF3B39
:10240000AB453FF608AF9FE70324DDE90623DDE98E
:1024100004010B4DCDF88CA0CDF888B060E7094BD6
:10242000264603EBC40393ED007B0EAB8DED087BDA
:1024300000250C9371E6BBF1000F85D0E0E600BFEC
:10244000545D0010605D00102DE9F04F9A46954CE8
:10245000954D0B1E18BF834625609AF80000934CDB
:102460009BB008BFA346249E0C930992002800F05D
:10247000EC824FF00009354698460AE04A4641464C
:10248000099B09F10109D8479AF80000002800F0DB
:10249000C48025280AF1010AF0D10021524612F821
:1024A000010BA0F12003102B0AD8DFE803F041094B
:1024B000093D0909090909090939093509093100DD
:1024C000A0F13003092B40F2B7802A2800F0DB800E
:1024D00000230B932E2800F0C48000230A93A0F160
:1024E0006806122E2DD8DFE816F012012C000C0120
:1024F0002C0000012C002C002C002C002C002C00A7
:102500002C0027002C002C002C002C002C00270075
:10251000924641F00101C1E7924641F00201BDE758
:10252000924641F00401B9E7924641F01001B5E747
:10253000924641F00801B1E79AF8010041F4807138
:102540000132672892464AD824285BD9A0F1250297
:10255000422A57D8DFE812F0FC0056005600560019
:1025600056005600560056005600560056005600BB
:1025700056005600560056005600560056005600AB
:10258000560056005600560056005600560056009B
:102590005600560056005600AC00E400AC00560051
:1025A000560056005600560056005600560056007B
:1025B0005600560056005600560056005600A3011D
:1025C000560056005600560056005600560056005B
:1025D0005600A3010401A301AC00E400AC00A0F18B
:1025E0006902D2B20F2A0DD8012303FA02F749F289
:1025F00041031F4040F0DB810A2A00F0EF80072AE8
:1026000000F0CA804A464146099BD8479AF8000024
:1026100009F1010900287FF43CAF4C46099B4B456A
:1026200001D803F1FF394A460020099B0C99D8478D
:1026300020461BB0BDE8F08F002300E0013203EB21
:10264000830300EB430310789246A0F13004092C79
:10265000A3F13003F2D92E280B9302F101027FF48B
:102660003CAF9AF801001646A0F13003092B41F463
:10267000806140F2F7802A2800F00581002392460D
:102680000A9301322BE755F8044B9AF80100002C0D
:10269000B8BF63429246BABF41F002010B930B945C
:1026A000013217E77C1D0020492400109518001006
:1026B000672800F06481472800F0AD81452800F0CC
:1026C000AC810B9B073503930A9B0491029325F081
:1026D00007054A46F5E8026741465846CDE90067D6
:1026E000099BFFF785FA8146CEE69AF801006C282F
:1026F0007FF424AF9AF8020041F440710AF103021A
:102700001FE79AF8010041F40071013219E79AF8C5
:102710000100682800F0928141F08001013210E749
:102720000B9B462803930A9B08BF41F02001073505
:102730000491029325F007054A46F5E802674146F1
:102740005846CDE90067099BFFF782FC81469BE66E
:102750004A4641462520099B09F10109D84793E6DD
:10276000880705F1040409F1010640F18F81099BF6
:102770004A4641462878D8470B9B012B40F20E82EF
:10278000099D994432462B46414620200136D847C0
:102790004E45F7D1254677E655F8042B002A40F040
:1027A000D48021F0100011F4806240F0210000F08C
:1027B000CE800DF1480E0A9B4A46049308230593E8
:1027C0001023CDE900E706900393002302934146CE
:1027D0005846099BFFF7ACF8814655E6AE465EF8D1
:1027E000045B0A9B2E783046002B40F0A8806FF0E7
:1027F000010C5EB10CF1010C2F46AC4401E06745C1
:1028000003D017F8013F002BF9D17F1B11F480642E
:1028100003D00A9B9F4228BF1F4611F002030D936D
:1028200000F01681002E00F0AD80002C00F0F88042
:102830000A9E4A460A97099C77464E4408E023467A
:102840004146D84715F8010F09F1010910B14A4670
:102850004E45F4D1BE460A9F0D9B002B40F092805E
:10286000754611E6002303EB830300EB4300A0F160
:10287000300316F8010FA0F13002092AF3D9B2464D
:102880000A93721C2BE655F8043B9AF8020023EADF
:10289000E3730AF1020A0AF101020A931FE66228B1
:1028A00000F07F81582800F0868111F4806200F0EA
:1028B000688121F0110414F4007740F0028114F4CF
:1028C000807605F1040140F0D581630600F1568160
:1028D000270640F17882B5F9005085EAE577A7EB45
:1028E000E577BFB2E80F002D00F0BE813A460DF14A
:1028F000480E7546DFF8E8C40D9001E0202E0FD099
:102900001746ACFB0203DB0803EB8300A2EB40009D
:102910003030092F1A4606F1010605F8010BEDD8F3
:102920000D980B9BCDE9016005930A9B06940493D7
:102930000A234A460D46CDF800E0039347E7002EF0
:102940003FF464AF03F1FF3C54E741F021000DF187
:10295000480E744603E0202F3FF42DAF1A4602F0D4
:102960000F010B46092994BF303337330F2A04F87F
:10297000013B07F101074FEA1213ECD81BE741F4C2
:1029800000619EE60B9B4D46BB427FF669AF7646E3
:102990004B44099CA3EB07092A46234641462020C5
:1029A0000135D8474D45F7D1B64675466CE57828D0
:1029B00040F0298111F4806300F016824FF0100C72
:1029C00021F00D020D9212F4007640F000812A1DD4
:1029D0000E920D9A12F4807040F0B381560640F1C9
:1029E000AB812978002940F01C810D9A22F0100259
:1029F0000D92002B00F0158108460DF1480E0D9B3D
:102A00004A4606930B9BCDE900E005930A9B0E9D79
:102A1000CDE903C3D9E641F4006141F0200150E65D
:102A20007646099C4A4623464146D84715F8010F89
:102A300009F101090028F5D1B6460DE79AF8020020
:102A400041F0C0010AF103027BE504468146E5E559
:102A50000B9BBB4240F2C28103EB0906F61B774693
:102A60000E94099C4A4623464146202009F101095B
:102A7000D847B145F6D10B9B0E9C2E78BE465F1C05
:102A80003046002E7FF4D1AE7546FDE40B9B012B42
:102A90007FD94E4609F1FF370A95099D1F443246FA
:102AA0002B46414620200136D847BE42F7D1DDE90A
:102AB0000A533246287841469944099BD84725460F
:102AC000E2E4073525F00705686855F8086BC10F83
:102AD00056EA000758D00028324602DA724260EB0C
:102AE00040000DF1480ECDE90D154FF0000C754674
:102AF000CDE90F94BA4E02E0BCF1200F2DD013188F
:102B000043F10003A6FB031929F0030101EB99012E
:102B10005B1A4FF0CC311746D21A01FB02F1044682
:102B200060F1000006FB0011A2FB06021144052221
:102B300000F00109A9FB0229D2180A2F4FEA500020
:102B400002F1300274F1000405F8012B0CF1010CC4
:102B500040EAC1724FEA5100CED2DDE90D15DDE940
:102B60000F940B9B4A4605930A9BCDE901C1049340
:102B70000A230694CDF800E0039328E62D782F462B
:102B8000B0E621F0100496E6002A40F022811046BB
:102B9000A7E74A4641462878099BD847B1462546CB
:102BA00072E411F4806300F0E08021F00D024FF038
:102BB000020C0D9207E711F4806300F0138121F0FD
:102BC0000D0141F020024FF0100C0D92FBE607358D
:102BD00025F007056E6855F8084B54EA060174D1D4
:102BE00022F010020D92002B6FD000270DF1480E3D
:102BF0000D9B4A4606930B9BCDE900E705930A9B84
:102C0000CDE903C3E1E56F2840F0FD8021F00C031E
:102C10000D9311F4806340F0EF804FF0080C0D9A93
:102C2000D1E60D9B0DF1480E13F0200F14BF412388
:102C300061237746A3F10A0203E020283FF4DFAEC8
:102C40002146B1FBFCF40CFB1415EBB2092D03F18A
:102C500030058ABF9B18EBB2DBB2614507F8013B38
:102C600000F10100E9D2CAE6002A3FF440AE0DF1BE
:102C7000480E56E62D68E80F002D00F09E8085EA8C
:102C8000E572A2EBE5720DF1480E7546DFF850C112
:102C90000D9001E0202F0FD01646ACFB0203DB089D
:102CA00003EB8300A2EB40003030092E1A4607F1F7
:102CB000010705F8010BEDD80D980B9BCDE90170CC
:102CC00005930A9B0694049332E60D9B0DF1480E82
:102CD00013F0200F14BF412361230A3BCDE90E59A5
:102CE000CDE910B800276546F046F346994603E063
:102CF000202F17D004460E46314620462A46002390
:102D000002F04AFFD2B2092A02F1300388BF02EB77
:102D10000903AC42DBB276F1000608F8013B07F18B
:102D20000107E5D2AC46DE46DDF83C900E9DDDF8AD
:102D30004480DDF840B05BE714064CBF2988296861
:102D400050E62968B9B922F010020D929BB10DF13D
:102D5000480E0D9B4A4606930B9BCDE900E6059372
:102D60000A9B0E9DCDE903C32FE521F00C024FF025
:102D7000020C0D9227E60D9B0DF1480E13F0200F6B
:102D800014BF412361237746A3F10A0202E0202EFB
:102D9000DFD00146B1FBFCF00CFB1014E3B2092CB0
:102DA00003F130048ABF9B18E3B2DBB2614507F838
:102DB000013B06F10106EAD2CBE7002A3FF463AFFC
:102DC0000DF1480E79E72D6885EAE577A7EBE57701
:102DD00088E54FF0000C0DF1480EC2E601374FE6D2
:102DE000CDCCCCCC41F0200121F00C030D934FF061
:102DF000100C00230D9AE6E50C464FF0080C24F069
:102E00000D020D92DFE5692821F0100404D111F4C0
:102E100080623FF450AD4CE521F01C030D9311F49A
:102E200080634FF00A0CEAD1E4E700BF70B5944626
:102E30001E4605460C4684B04FF0FF32634602A999
:102E400000960348CDE90254FFF7FEFA04B070BDC6
:102E5000E51B001010B5094B84B01C684CB103464B
:102E600000914FF0FF3203A90548A047012004B0AC
:102E700010BD00F075F9204604B010BD7C1D002087
:102E8000DD1B001000BEFDE708B5FFF7FBFF00BF2C
:102E900038B5064D064CFEF799FAAC4204D254F808
:102EA000043B9847AC42FAD338BD00BF205C001009
:102EB000185C00100368084611461847437D2DE949
:102EC000F047074689461646002B40D0002A39DDD8
:102ED000002109F1FF3515F8012F037D0A2A084664
:102EE000DFF8788001F101040ED0A6421BD02B78C8
:102EF0002146A3F10D03B3FA83F315F8012F5B0903
:102F00000A2A01F10104F0D1002BEED18842A1EB95
:102F10000001484418DB022140463B689847A6421E
:102F200007D02046E3E7864203DD311A3B68484478
:102F30009847B14419F8013CA3F10D03B3FA83F3A8
:102F40005B093B75BDE8F0873B689847E3E7484677
:102F50003B681146BDE8F047184700BFB05D001060
:102F60000B682DE9F041802B0D46064605D05A1C12
:102F70002B442A601E71BDE8F0810F4B1C68A4B180
:102F80000E4F01F1040801E0246974B12368002B9D
:102F9000FAD03B680BB1A342F6D1204641462A68DD
:102FA000FFF78CFF2469002CF0D1002301222B4471
:102FB0002A601E71BDE8F081701900207819002088
:102FC0002DE9F04782B00D46924699460746FEF736
:102FD0006BF84FF0FF366FF000442F4A821841F132
:102FE0000003964274EB03013CBF324623462B4854
:102FF00002F0DEFD6B1C804603D1384602F094FDE2
:103000000546274B274E1C68274BB9F1000F18BF08
:103010001E46B4B1BAF1000F1AD1DFF8909001E06A
:10302000246974B12368002BFAD0D9F800300BB1B1
:10303000A342F5D120462A463946B0472469002CE0
:10304000F0D1B8F1000F1FD1284602B0BDE8F087DB
:103050004FF00A0ADFF8549002E02469002CF0D007
:103060002368002BF9D0D9F800300BB1A342F4D17A
:1030700020462A463946B047204601220DF1070175
:103080008DF807A0B047E8E7044802F089FD28461C
:1030900002B0BDE8F08700BF40420F00C41100201D
:1030A00070190020B52E0010BD2E001078190020D8
:1030B000084A136823B90AE003F110021B6933B10F
:1030C0009842F9D129B9036913600161704701B1D0
:1030D000106070477019002000F0E2BAF0B583B0BC
:1030E00006468DF80700FDF7DFFF4FF0FF356FF064
:1030F0000044174A821841F10003954274EB030122
:103100003CBF23462A46134802F052FD124B0746A5
:103110001C689CB1114D01E024697CB12368002B2F
:10312000FAD02B680BB1A342F6D1204601220DF153
:103130000701FFF7C3FE2469002CEFD117B9304611
:1031400003B0F0BD034802F02BFD304603B0F0BDE4
:1031500040420F00C411002070190020781900208F
:1031600038B5044602F0E0FC012305461A46204625
:103170002946FFF725FF084B1C682CB163682BB16B
:1031800098472469002CF9D1284638BD2469002CC1
:10319000F4D1284638BD00BF701900202DE9F04158
:1031A000A2B004460D46FDF77FFF4FF0FF376FF0EA
:1031B0000046274A821841F10003974276EB03014B
:1031C0003CBF3A463346234802F0F2FC00262B4629
:1031D00007462246204801A90196FFF727FE019BDA
:1031E00006467BB91D4B1C682CB1636843B19847F8
:1031F0002469002CF9D10FBB304622B0BDE8F08124
:103200002469F1E7DFF85480D8F80050EDB1144C90
:1032100001E02D6975B12B68002BFAD023680BB142
:10322000AB42F6D12846019A02A9FFF747FE2D6965
:10323000002DF0D1D8F800400195D5E7054802F0FF
:10324000AFFC304622B0BDE8F0810195D3E700BF66
:1032500040420F00C4110020612F0010701900209F
:10326000781900200FB400B583B004A951F8040BFD
:103270000191FFF793FF03B05DF804EB04B07047D2
:10328000704700BF0022014B1A707047F11D0020EB
:103290004B79FF2B0BD1887948B9CB79012B07D11A
:1032A000082A05D9034B8A7809201A707047002034
:1032B000704700BFF11D002001207047012901D097
:1032C0000120704708B5104B91881B78994201D0B6
:1032D000002008BD5378012B08D0022BF8D1002123
:1032E00064220846FDF7AEFF012008BD5188CB05DA
:1032F0004BBF4A0A4A0A10464FF0FF3002F0010263
:1033000001F07F01FEF71CF8F11D00200048704716
:103310007C5E0010012907D15378012B02D19388DC
:10332000072B03D000207047012070471146A623C9
:10333000014A01F055BA00BFD45D001003460122D6
:1033400001481A70704700BFB45D001008B50B68E3
:10335000B3F5966F00D008BD00224FF0FF30114644
:10336000FDF7EEFF024A034B10601960704700BF83
:103370001019002014190020184B70B51A68002A83
:1033800028D0EFF3108172B6D2E8CF4F0120002C85
:10339000FAD1C2E8440F002CF6D1BFF35F8F0022B0
:1033A0000F4C186859602270C0E88F2F81F3108885
:1033B000002400250B4E3078FDF746F820B9002494
:1033C00000252046294670BD3078FDF74DF820468F
:1033D000294670BD4FF47A740025EBE7A01D00204C
:1033E000F31D0020F21D0020014B1878FDF73CB8BA
:1033F000F21D002038B5044600200D4601F01CFBEC
:10340000A8B3002001F02EFB88B3FDF74DFE4FF06E
:10341000FF3E6FF0004C174A821841F100039645B9
:103420007CEB03013CBF72466346134802F0C0FBCD
:10343000E8B1002001F000FB58B900214FF0FF3047
:1034400000F016FD6FF002040B4802F0A9FB2046C5
:1034500038BD002001F006FB0028EED021462A46A8
:10346000002001F00BFB04460028EDD1EAE76FF0E5
:103470000204ECE740420F00D41D002008B5FDF720
:1034800013FE4FF0FF3E6FF0004C0F4A821841F1DF
:10349000000396457CEB03013CBF724663460B4834
:1034A00002F086FB70B14FF0FF30002100F0E0FC2D
:1034B000002001F029FB0028F5D1BDE808400348B1
:1034C00002F06EBB08BD00BF40420F00D41D0020BB
:1034D0002DE9F84307460E46FDF7E6FD4FF0FF35B0
:1034E0006FF00044344A821841F10003954274EBB6
:1034F00003013CBF2A462346304802F059FB08B975
:10350000BDE8F883002001F097FA002849D0002E8A
:1035100042DD0025DFF8A880DFF8A89013E002461E
:10352000002001F037FB002104464FF0FF3000F08F
:103530009FFC002001F0E8FAFDF7B6FDC8E90001A4
:103540002544AE4228DD002001F046FB731B984263
:10355000A8BF1846791904460028E0D101464FF06B
:10356000FF3000F085FC204601F0CEFA204601F045
:1035700063FA88B1204601F02FFB0028E1D1FDF766
:1035800093FDD8F80030D8F8042013EB090342F17A
:10359000000283428A41D4D20848BDE8F84302F0D1
:1035A000FFBA00200021064BC3E90001BDE8F84343
:1035B000024802F0F5BA00BF40420F00D41D0020BF
:1035C0001814002020A1070030B5002185B02E4836
:1035D00002F0F6FAF0B92D4B1A68CAB1EFF3108178
:1035E00072B6D2E8CF5F0124002DFAD1C2E8454F70
:1035F000002DF6D1BFF35F8F254C1D6822785960EE
:10360000D3B201222270C5E88F0F81F31088CBB1AD
:1036100005B030BD00214FF0FF3000F029FC002044
:1036200001F020FA0446184802F0BAFA002CEFD054
:10363000184B1B68002BEBD0174A106805B0BDE88B
:1036400030401847FDF72CFB0446FDF72DFD4FF0E9
:10365000FF3C6FF0004510F57A7241F1000394458C
:1036600075EB030138BF2B464FF000014FF0010509
:1036700020460A4C38BF6246CDE901150094FDF79B
:1036800013FB05B030BD00BFD41D0020A01D0020DD
:10369000F31D0020101900201419002079330010A8
:1036A0004FF0504330B585B01C68FDF7F9FAFDF7CF
:1036B0000DFCA04202D0002005B030BD00212A4BF5
:1036C00008461B7801F056FD28480368002B47D0B8
:1036D0000120FDF767F80346254C2649C0B2237048
:1036E000FCF7DEFE20780121FCF798FE0E20FCF7A7
:1036F000C7FE40BB204B0125C3E90000FDF7D0FA0F
:103700000446FDF7D1FC4FF0FF3E6FF0004C10F582
:103710007A7241F1000396457CEB03014FF0000102
:103720002046164C3CBF72466346CDE90115009415
:10373000FDF7BAFA0028BEDB01211148FFF7B8FCFB
:10374000012005B030BD0120FCF724FE01460A48E7
:10375000FDF78CF800220E200A49FCF7D1FEEBE7BA
:10376000FDF768F8B4E700BF2C600010D41D0020FE
:10377000F21D0020C9350010A01D00207933001073
:103780008C110020E933001000487047585F00108A
:1037900000487047045F001038B5184B04461A788B
:1037A0000AB344B940F209424FF44173144D6A80A0
:1037B00013482B8038BD052C1AD8124B104D53F8E6
:1037C000241028460023013903E0132B20F8022F90
:1037D00010D011F8012F0133DBB2002AF5D15B00C4
:1037E00043F44073E4E71121184600F025F8D8E7C8
:1037F000002038BD4FF44A73DAE700BFDC1D00201B
:1038000048190020EC5E001000B545F247308BB03F
:10381000FDF78AFD01220346092101A89847DDE949
:103820000332044912BA1BBAC1E900230BB05DF898
:1038300004FB00BFC81D0020012901F1FF3300F087
:10384000B3805D4991F800C04FEA1C12BCF19F0F94
:103850008CBF37323032012B027000F0A8800A781A
:1038600002F00F02092A8CBF37323032022B42702D
:1038700000F09D804A784FEA121C9F2A8CBF0CF101
:10388000370C0CF1300C032B80F802C000F08F8055
:1038900002F00F02092A8CBF37323032042BC2707B
:1038A00000F085808A784FEA121C9F2A8CBF0CF1A9
:1038B000370C0CF1300C052B80F804C077D002F0E7
:1038C0000F02092A8CBF37323032062B42716ED07C
:1038D000CA784FEA121C9F2A8CBF0CF1370C0CF1EE
:1038E000300C072B80F806C061D002F00F02092AC5
:1038F0008CBF37323032082BC27158D00A794FEA68
:10390000121C9F2A8CBF0CF1370C0CF1300C092BC8
:1039100080F808C04BD002F00F02092A8CBF373262
:1039200030320A2B427242D04A794FEA121C9F2A47
:103930008CBF0CF1370C0CF1300C0B2B80F80AC04B
:1039400035D002F00F02092A8CBF373230320C2BEF
:10395000C2722CD08A794FEA121C9F2A8CBF0CF1BC
:10396000370C0CF1300C0D2B80F80CC01FD002F07E
:103970000F02092A8CBF373230320E2B427316D019
:10398000CA7911099F2A8CBF373130310F2B8173CF
:103990000DD002F00F02092A94BF30323732102BBB
:1039A000C27318BF103002D0002303707047184450
:1039B00000230370704700BFC81D0020F8B500F059
:1039C00035F90C2340271A4D1A4CAB67FF220E2005
:1039D0001949FCF795FD3A460021204601F0DAFF2F
:1039E000164B0126A36280210023154A6670A2604F
:1039F000843A278327876184C2F88430C2F88030F4
:103A0000636084F8213084F83B3063620D4BE360DF
:103A1000E36202F0D9F84FF000544FF480320A49C3
:103A20000A4B2E643046EC64C5F89010DA64F8BD99
:103A3000000011507C190020B503002080001050B8
:103A4000840010500001105010D0010000201150CF
:103A500001210E20FCF7E2BC00220248114600F0D2
:103A600005B900BF9C190020044B197021B14FF417
:103A70000032034BC3F89020704700BFEE1D0020BA
:103A8000002011500B785B0602D14B78052B00D03B
:103A900070474B88014ADBB2136070470000115039
:103AA000CB782DE9F04103F0030EBEF1010FC3F313
:103AB00001005DD0002791F802C0354C0CF07F0367
:103AC0005E00898806EBDC1204EB42124FEADC153B
:103AD000D076C1F30A0185F00100507082F802C06F
:103AE0001183D77018B2DA008DBB2A48043204EB78
:103AF000831C02EB0008CCF8088017508BB3264AD1
:103B0000DB001A44CCF80420244B3F311A6821F022
:103B10003F01BEF1020F08BF490011441960204B5C
:103B2000771904EB47179942FA602CD82E4404EB1E
:103B30004613D97E82F0A04282F480125B6842EA8A
:103B4000816242F000421A600120BDE8F081DFF896
:103B500044C004EB83186244C8F828204CF8307045
:103B60004BB900220F4904EB4513D9605A60EBE7CB
:103B70000020BDE8F081DB0003F1A04303F58013D2
:103B8000C8F82430C0E7FDF71BFCFA68CEE700BF99
:103B90007C1900208000105004001050841D00206B
:103BA000FF0F10500001105002F00EB88C4608B5FF
:103BB000114607481A460CF07F034FEADC1C0CEB59
:103BC000430C00EB4C1000F051F8012008BD00BF81
:103BD0007C190020CB0911F07F0103D1064AC3F103
:103BE00002009066054803EB41034FF40062002198
:103BF00000EB431001F0D8BF002011507C190020C9
:103C000011F07F0300D17047002210B4C809064CA0
:103C100000EB430004EB40136FF4006118465DF8BD
:103C2000044BDA7001F0C0BF7C1900204FF08052C5
:103C300009480A4908B50A4B02600A609968C943F5
:103C400011F08051FAD14FF48052064801F0A2FEE3
:103C50000922054B5A6708BD00200240003002408F
:103C600000000240000010500000115000234FF0EF
:103C7000010C10B580F81AC08282C382016104462B
:103C800001F0A6FF20B14FF40032074BC3F890209B
:103C9000204601F091FF10B10123237710BD20468B
:103CA000BDE8104001F074BF002011502DE9F04133
:103CB00000241D4E054623463278DFF878801B4FDE
:103CC0000DE03B6813EB441325D0DB68284698478A
:103CD00032780134E4B2511CA142234606DBA242F1
:103CE000A3EB0203EDD808EB4313EEE7104C54228C
:103CF0000021204601F04EFE4FF0FF33251D63608A
:103D0000C5E90133EB6004F114002022BDE8F04165
:103D1000FF2101F03FBE4FF0E023D3F8F03DDB0779
:103D200000D500BEBDE8F081ED1D0020201400206C
:103D300028150020C85F0010704700BF704700BF03
:103D40000020704700207047704700BF704700BFD9
:103D5000704700BF704700BF024B5878003818BF4B
:103D60000120704728150020024B1878C0F380000E
:103D7000704700BF281500202DE9F047DFF8E8A0C4
:103D80009AF80030FF2B02D00120BDE8F0870E46E4
:103D900000293FD00021542207462A4801F0FAFDAD
:103DA0000022294C294B20461A70FCF743FD284B72
:103DB000284D1C60284C04F11400FCF749FD2046F6
:103DC00001F0AEFD254B1C60254B63B32846FFF781
:103DD000B5FA244B2A7818600024DFF89090234627
:103DE000DFF880800EE0D8F8003013EB441311D0D8
:103DF0005B687BB198472A780134E4B2511CA14238
:103E0000234612DBA242EED89B1A09EB43135B68F0
:103E1000002BEFD14FF0E023D3F8F03DDB0700D5C6
:103E200000BE0020B1E72A78D6E7314638468AF846
:103E30000070FFF7C3FD0028ECD03846FFF708FEFE
:103E4000A2E700BF2815002020150020EF1D00204C
:103E50007C150020ED1D0020A411002080150020FD
:103E60003D33001020140020C0110020C85F001056
:103E70002DE9F04FDFF8D4928BB099F80030FF2B8A
:103E800000F0ED80AB4CAC4DDFF8BCA2DFF8C0B267
:103E900026687369EFF3108272B6D3E8CF0F012161
:103EA0000028FAD1C3E8401F0028F6D1BFF35F8F86
:103EB000B261304607A901F08FFB00237269C2E8A6
:103EC0008F3FB36983F31088002800F0C8809DF805
:103ED0001D30013B072B00F28E83DFE803F0A3AD1A
:103EE00091998A350A04089B002BD1D009989847EC
:103EF000CEE79DF8201001F07F0605EB460000EBB1
:103F0000D11090F834206FF3000280F8342090F83C
:103F100034206FF3820280F83420002E00F0A2805B
:103F2000037D9AF80020934280F08F80834A1268C4
:103F300012EB431300F08C809E699DF82120099BB1
:103F40009DF81C00B047A3E79BF80030002B7FD002
:103F50009BF80030013BDBB28BF800309BF800305F
:103F600003F0FF00002B93D1734F9DF81C803B782A
:103F700043F001033B7097F8343060F3000387F897
:103F8000343097F8343060F3820387F8343097F890
:103F9000353060F3000387F8353097F8353060F33B
:103FA000820387F8353000F07BFC9DF8203003F069
:103FB0006002602A0BD0402A61D003F01F03012B5E
:103FC00000F0C880022B00F08780002B63D04FF0F8
:103FD000E023D3F8F03DDE0700D500BE9DF81C00BD
:103FE0000021FFF7F7FD80219DF81C00FFF7F2FD8F
:103FF0004EE72B78D9077FF54BAFFFF7ABFE47E7CE
:10400000EB78DA077FF544AF0898FFF797FE3FE7B4
:104010002B78D8077FF53CAF2878C0F3C000FFF7B6
:1040200097FE35E79DF81C00FFF740FE00F02EFCE0
:104030009DF82030AB702BE79DF81C00FFF736FE93
:1040400000F024FCFFF782FE22E7501C984211DAB0
:104050004FF0E023D3F8F03DDC0700D500BE0BB0F5
:10406000BDE8F08F099B9DF821209DF81C0000F011
:104070002BFC0DE79B1A324A02EB43135CE73148F5
:1040800000F00EFC4046012108AAFFF743F9002882
:104090007FF4FEAEA2E7202A00F09281002A96D19A
:1040A0009DF82130092B92D801A252F823F000BFCD
:1040B0005F43001043430010CF3F001081430010C6
:1040C000CF3F001029430010D3420010CF3F001013
:1040D000BD420010E34100109DF8241011F0700F54
:1040E0007FF475AF01F07F0607EB4600164B00EB3F
:1040F000D1101B78007D7600019698424FEAD116C8
:1041000000965DD35E1C8642C0F26C81C01A0C4BD7
:1041100003EB4016002A00F06981706900F0C0FBD3
:1041200040460121736908AA984700287FF4B0AE81
:1041300054E700BF8015002028150020201400201F
:10414000C85F001015330010ED1D0020C0110020C5
:10415000EF1D00209DF824300F2B3FF63FAFB14AF2
:104160003B441B791278934235D3511C9942FFF698
:1041700035AFAD4E9B1A06EB4316706900F090FB0D
:1041800001214046736908AA984700287FF480AE51
:104190009DF8203013F060067FF420AF9DF82130A9
:1041A0000A3B012B3FF61AAF00F07AFB9DF8213055
:1041B0000A2B00F0F581404608A900F0F7FA67E6FF
:1041C0009A4B1B6803EB4016002A00F00F81002E6B
:1041D0003FF404AFA1E7954A166816EB4316CCD11D
:1041E000FCE67B789DF822609E4200F051817B784E
:1041F000002B40F0C1817E70002E00F04781701EC0
:10420000C0B2FFF7C5FA0346002800F06281427889
:10421000022A40F05E81C1793878C1F34012120160
:10422000C1F3801120F0300042EA411202433A709B
:104230005A8803F109069A180192CDF80880019B6B
:10424000B34240F2A88173780B2B00F0B3810121B7
:10425000042B40F03E814FF00008019B03919A1B14
:10426000704B31461B7892B2CDF800801DE06F4B49
:104270001E6816EB481600F02C8133690298CDE9D0
:1042800004129847DDE90412082808F1010302D955
:10429000824280F002815FFA83F8624BCDF80080A1
:1042A0001B78581C804500F3148100989845A0EBBA
:1042B0000303DCD35C4800EB4316DEE77B78404623
:1042C0008DF81A300DF11A02012308A900F088FABE
:1042D000DEE5BDF82200030A013B020AC0B20E2B44
:1042E0003FF67CAE01A151F823F000BF034500105A
:1042F0009D4300103F450010DD3F0010DD3F0010E2
:10430000214500109D430010DD3F0010DD3F0010EF
:10431000DD3F0010DD3F0010DD3F0010DD3F0010ED
:10432000DD3F0010F544001008A800F0BFFA404639
:104330009DF82210FFF790FB3B7843F002033B709F
:10434000A6E5BDF82230012B7FF448AE3B7840460D
:104350006FF3C30308A93B7000F028FA98E54046C4
:104360003B789A0802F00202C3F340131343ADF8FE
:104370001A300DF11A02022308A900F031FA87E57C
:10438000BDF82230012B7FF429AE3B78404643F044
:10439000080308A93B7000F009FA79E5022A00F049
:1043A0002381FFF7CFFC024600283FF417AE4046BA
:1043B000538808A900F014FA00287FF469AD0DE6CF
:1043C0009DF824300F2B3FF609AE164A3B441B796B
:1043D000127893421DD2154A166816EB43167FF4E5
:1043E0009CAEFBE5002A7FF4F9AD00269DF8212064
:1043F00002F0FD03012B1BD0002A7FF4E8AD019BE6
:10440000009A3B44134493F834304046C3F34003CE
:10441000ADE7511C9942FFF6E1AD034E9B1A06EB46
:1044200043167AE6ED1D0020C85F0010201400201E
:10443000BDF82230B3B9012A99F8000000F0878056
:10444000FFF7C8FB019B009A3B44134493F83420C8
:1044500042F0020283F8342093F8342042F0010243
:1044600083F83420002E3FF413AD706900F018FA81
:104470007369012108AA40469847002000F010FA0D
:1044800097F83530DF073FF503AD94E6FFF75EFCA4
:10449000404608A900F08AF9FAE433460E4603992B
:1044A000012900F09B80002900F08980002396F804
:1044B00002E004E082F80480DAB291427FD90EEB88
:1044C000030257FA82F292F804C00133BCF1FF0FE5
:1044D000F0D04FF0E023D3F8F03DDA0700D500BE6E
:1044E0004FF0E023D3F8F03DDB0700D500BE0023FA
:1044F0007B7073E5FEF70AFF024600287FF457AF92
:104500006CE5FFF741F9024600283FF460AD4046F4
:10451000122308A900F064F900287FF4B9AC5DE526
:10452000FFF70EFC024600283FF458AD40461378D2
:1045300008A900F055F900287FF4AAAC4EE5BDF8B3
:104540002410FFF729F902460028EFD146E502932F
:10455000FFF756FB019A009B3A441A4492F8341034
:10456000029B63F3410182F8341092F8341063F334
:10457000000182F8341075E700214046FFF774FA15
:104580004046FFF711FBBB7840460093FFF78EFBD8
:10459000009BBB702FE6DDF80880FFF7D5FB77E7BF
:1045A0004046012308A90DF11A028DF81A6000F0A7
:1045B00017F96DE43378F1781E44737848E60246C3
:1045C000434631460644104800F07CFE0F4B009AEB
:1045D0001B7801339342BFF632AE7AE71A690C4B6F
:1045E0009A4208BF022161E7FFF7D2F8024600288D
:1045F0007FF4DDAEEBE44FF0E023D3F8F03DDB07D2
:104600007FF546AC00BE43E43C150020ED1D0020C4
:10461000D94C00102DE9F84FDDF82880002A3FD052
:104620000C461E4615464FF0000B1F4FDFF87C90DE
:1046300017E0204699F8021000F012FEF8B121466A
:104640005046FFF72DFA08B3A3780BF1010BDA09F6
:1046500016BF0B9A88F8003013702378AB451C44C2
:104660001ED06378052B11D1E17801F00301B1422E
:104670000CD1A37897F800A013F0700FD9D04FF0A9
:10468000E023D3F8F03DDA0700D500BE4FF0E02379
:10469000D3F8F03DDB0700D500BE0020BDE8F88F61
:1046A0000120BDE8F88F00BFC011002028150020B0
:1046B00038B50E4B1D788B7813F0700F08D04FF083
:1046C000E023D3F8F03DDB0700D500BE002038BD65
:1046D000074B0C460846997800F0C2FD0028EED042
:1046E00021462846BDE83840FFF7DAB9C01100205E
:1046F000281500200B46064A06481168DA093432AC
:1047000003F07F0302EB4303184400F063BD00BFD6
:104710007C150020281500200B46064A0648116823
:10472000DA09343203F07F0302EB4303184400F04C
:104730007BBD00BF7C1500202815002010B5194C4A
:1047400001F07F0E04EB4E0404EBD11494F834C056
:1047500015481CF0010F04F13004007808D04FF028
:10476000E023D3F8F03DDA0700D500BE002010BDED
:1047700094F804C04CF0010C84F804C0FFF716FA5A
:104780000028F4D14FF0E021227960F30002227179
:10479000227960F382022271D1F8F03DDB07E5D582
:1047A000E3E700BF28150020C011002030B50B4CF6
:1047B0008C46A6460546086849680023AEE8030013
:1047C0009CF800102846C943C4E90233BDE83040D4
:1047D0001A4601F08001FFF7B1BF00BFE8140020C6
:1047E0002DE9F041274F4FF00008BE468C460646A3
:1047F00008684968BA60AEE80300A7F80E8015465D
:10480000BCF80620934228BF1346BB819AB11C46D0
:104810002BB3DDB197F90030402C28BF4024002B8A
:1048200028DB414623463046174AFFF787FF68B129
:104830000120BDE8F0819CF800101346C9433046C2
:1048400001F08001FFF77AFF0028F1D14FF0E0235B
:10485000D3F8F03DDB0700D500BE0020E9E71A469B
:10486000397801F0800123463046FFF767FF0028C2
:10487000DED1EBE722462946034801F0DFF880212C
:10488000014AF0E7E8140020A81400200022034B9E
:10489000C3E90022C3E902221A617047E81400202C
:1048A000014B1861704700BFE814002030B4024685
:1048B000044C0025234600685168C4E9025530BC09
:1048C00003C37047E814002070B53C4CC909227836
:1048D0000646B1EBD21F1D4682B017D053B14FF040
:1048E000E023D3F8F03DDB0702D4002002B070BD16
:1048F00000BEFAE72146FFF7C5F823691BB122463F
:10490000032130469847012002B070BD94F9003071
:10491000A068002B05DB0028E7D02A46284901F0D3
:104920008DF8E089A168E388284480B22944834255
:10493000E081A16016D03F2D14D9A28994F90040DE
:10494000131A9BB2402B28BF4023002C26DB904239
:104950004FF0000130D01A4A3046FFF7EFFE002832
:10496000D1D1BCE7236923B102213046134A9847CD
:1049700058B121780023C94330461A4601F080011E
:10498000FFF7DCFE0028BED1A9E701463046FFF75D
:1049900021F980213046FFF71DF9B4E7904208D095
:1049A0001A460748019301F049F88021044A019B07
:1049B000D2E780210022CFE70A46CDE7E8140020A5
:1049C000A81400202DE9F0410446FFF7C5F908B905
:1049D000BDE8F081FFF7C8F907460028F8D1C822E2
:1049E000134B02FB0436F1780029F1D006F11005D3
:1049F000284600F0DFFD3F28EAD93846F178FFF776
:104A000079FE0028E4D0284600F0D4FD3F2809D9DB
:104A1000084A3846F17802EBC4124023BDE8F04161
:104A2000FFF78CBE3846F178BDE8F041FFF774BE61
:104A3000D01100202414002010B50446FFF78CF993
:104A400008B9002010BDFFF78FF90028F9D1C8225E
:104A5000034B02FB0433187900F0010010BD00BFC6
:104A6000D0110020C82108B5102301FB0030024AF4
:104A7000104400F085FD08BDD01100202DE9F84359
:104A80004FF6FF734FF0C80810249A4228BF1A4609
:104A900018FB00441A4F06463C44204692B200F0F0
:104AA000E5FD0546FFF758F910B92846BDE8F8833B
:104AB000FFF75AF981460028F7D108FB0677FB7803
:104AC000002BF2D0204600F075FD3F28EDD9484676
:104AD000F978FFF70FFE0028E7D0204600F06AFDC6
:104AE0003F2808D9074A48464023F97802EBC61206
:104AF000FFF724FED9E74846F978FFF70DFED4E723
:104B0000D0110020241400202DE9F0410546FFF7C4
:104B100023F910B90020BDE8F081FFF725F906461A
:104B20000028F7D14FF0C808242418FB0544174F7C
:104B30003C44204600F024FD0028EBD008FB05771C
:104B40003046B978FFF7D6FD0028E3D04022104B5D
:104B5000204602EBC5141C44214600F087FD0546A3
:104B600080B1034622463046B978FFF7E7FD38B9F1
:104B70004FF0E023D3F8F03DDB07CBD500BEC9E70B
:104B80002846C8E7B978FFF7C7FDC3E7D011002072
:104B90002414002038B54FF6FF734FF0240CC824BE
:104BA0009A4228BF1A4614FB00C40A4B92B21C4416
:104BB0000546204600F008FE034620461C4600F04D
:104BC000DFFC3F2801D8204638BD2846FFF79CFF70
:104BD000204638BDD0110020C82108B5242301FB90
:104BE0000030024A104400F0E5FC08BDD01100205E
:104BF000F0B50025184C83B02946C822204600F0A5
:104C0000C9FEFF234FF4E1310822144804F1B8072C
:104C10000570009504F110006371A160A27304F1A6
:104C200038010123402200F07BFC0123402204F1E3
:104C30007801009304F1240000F072FC04F1C00636
:104C40003846FBF7F7FD3046FBF7F4FDC4E907579C
:104C5000C4E90C6503B0F0BDD0110020A4140020FD
:104C6000094B196B1A6A41B112B10022DA611A625A
:104C70000022C3E90C2201207047002AFBD001204A
:104C8000D9611962704700BFD0110020002210B511
:104C90000E4C0F48237802600271DA0707D59B0794
:104CA0000BD5BDE8104001210A4800F055BE103078
:104CB00000F036FE23789B07F3D4064800F030FE60
:104CC000BDE810400121034800F046BEA4140020B6
:104CD000D0110020F4110020F0B54B7983B0022BE5
:104CE00003D00025284603B0F0BD8B79022BF8D104
:104CF000264FBB783BB14FF0E023D3F8F03DDB0704
:104D0000EFD500BEEDE78B7806463B700B780925A2
:104D1000CC18617824290BD1082A02D80FE0AA42C6
:104D20000DD323781C4461782B4424299DB2F6D0FE
:104D300005290AD0042902D163790A2B13D0002057
:104D4000FFF740FE284603B0F0BD21463046FFF78E
:104D5000AFFC0028CFD0A3787B7023781C442B4471
:104D600061789DB2E6E70A4B2778019301330093FF
:104D7000022330461A46E119FFF74CFC0028BAD04E
:104D80000E3517FA85F5ADB2D9E700BFD011002076
:104D9000D2110020137803F06003202B08D170B5E6
:104DA000264CB2F804C023789C4503D0002070BD87
:104DB000002070475378203B032BF7D8DFE803F03F
:104DC00027230D0201292ED003291ED11C4BE3B14C
:104DD00000205188AFF3008017E0012923D0032978
:104DE00013D15588174805F0010686F00101257199
:104DF00000F0B2FD144B43B131460020C5F3400230
:104E0000AFF3008001E0012911D0012070BD01291C
:104E10000DD00329F9D10D4B002BF6D000200C4901
:104E2000FEF794FAF1E71146FFF7C0FCEDE71146F3
:104E30000723074AFFF7D4FCE7E700BFD0110020A3
:104E400000000000F4110020000000004D330010AD
:104E5000D81100202DE9F047364F0C46FA78064667
:104E60008A421D4697F802C03CD08C4513D04FF0C3
:104E7000E023D3F8F03DDB0700D500BE0020BDE8FD
:104E8000F0872D4B23B12D4800F08AFB00284ED02F
:104E90000020FFF797FDBB78A34202D00120BDE8B8
:104EA000F087274B13B10020AFF300800020FFF7FD
:104EB0002BFE0028F2D1234800F062FB0028EDD140
:104EC000002DEBD015F03F05E8D13046B978FFF75B
:104ED00011FC0028E2D02B462A463046B978FFF76D
:104EE0002DFCDBE7DFF864809AB2414607F1100041
:104EF00000F06AFC144B002BC3D07B79FF2BC0D091
:104F0000002DBED007F1100908EB050A02E0C245EA
:104F1000B7D07B7918F8012B9A42F8D1484600F0B7
:104F20003FFB0028F3D17979AFF30080EFE7AFF3CF
:104F30000080ADE7D011002000000000E01100204B
:104F400000000000F41100200000000024140020E4
:104F5000F0B5144C85B04FF413720021204600F0D8
:104F600019FD402700234FF480760F4D04F5A672FB
:104F700019460295009204F594701A46039701961B
:104F800000F0CCF9002304F128023D4400921946B8
:104F90000122CDE902570196201D00F0BFF905B0AE
:104FA000F0BD00BFC41600204416002010B5054C0B
:104FB000204600F0DFF9A4F5927000F0DBF9012043
:104FC00010BD00BFEC17002038B50025064C04F5D5
:104FD0009870257000F0A4FC04F10C0000F0A0FC17
:104FE00084F82951657138BDC41600202DE9F84FA9
:104FF0004B79FF2B02D00020BDE8F88F384D0E46CC
:1050000095F829310C78002BF5D16F79002FF2D16A
:105010008B780C442B700B79002B3ED0804604EB30
:10502000020B05F5987A05F594796378052B09D07C
:10503000A34502D831E05C452FD223781C44637825
:10504000052BF8D1A34528D921464046FFF730FB70
:1050500000283CD0A378DB0923D1504600F060FC47
:10506000A37895F8281185F82931A3884046C3F321
:105070000A03A3F50073B3FA83F35B0963F34101F9
:1050800085F82811494600F0E3F900B32378317917
:1050900001371C44FBB29942C7D8A11B88B2BDE8B6
:1050A000F88F104800F03CFCA37829796B71A38835
:1050B0000020C3F30A03A3F50073B3FA83F35B097B
:1050C00063F341012971084900F08AF9DEE74FF0E6
:1050D000E023D3F8F03DDB078DD500BE8BE700BFA2
:1050E000C4160020D0160020C816002070B51B4C36
:1050F000064694F829C11D468C45627904D08A423F
:1051000018BF002018D070BDB4F8343163B9144B07
:1051100023B100201349AAB2AFF3008030461249F0
:1051200000F096F9012070BDD4F82C11AAB204F554
:10513000987000F049FBEAE70C4B1BB10020A9B2C4
:10514000AFF3008030460A4900F04AF90028E9D15F
:105150002A463046064900F00FF9E3E7C41600205E
:105160000000000044160020EC17002000000000A2
:10517000C816002010B582B0B9B101280CD80B7840
:1051800053B1134C012B235402D0012002B010BDA7
:10519000FEF7F2FD0028F8D14FF0E023D3F8F03D00
:1051A000DB0700D500BE0020F0E70124084601A976
:1051B000ADF80440FEF7E0FD38B94FF0E023D3F836
:1051C000F03DDA07E2D500BEE0E7014B1C70DDE7F9
:1051D0001C150020F8B5037813F001041AD10378E8
:1051E00005465A07C3F3800701D52046F8BD0E4691
:1051F0004FF0FF31304600F0C7FC2B7813F001046C
:105200000BD12B785B0709D42B78012443F00403DE
:105210002B7003E000242046F8BD3C46304600F0E9
:10522000BFFC2046F8BD00BF70B50C4605464FF0E8
:10523000FF31204600F0A8FC2B78C3F380065B0703
:1052400008D52B7813F0010311BF00262A7863F3E9
:1052500082022A70204600F0A3FC304670BD00BFD9
:10526000C378828803F003000228C2F30A0205D043
:1052700003281AD0012807D00020704702291DD02A
:10528000402A09D801207047022940F2FF3308BFA5
:105290004FF480639342F6D24FF0E023D3F8F03D11
:1052A000DB07E9D500BE00207047022914BF402368
:1052B0004FF480639342EFD30120E4E7B2F5007F1F
:1052C000E0D0E9E70A44914226D291F801C0BCF14E
:1052D000050F05D091F800C061448A42F5D87047A7
:1052E00000B591F802C00CF07F0E00EB4E0E4FEAB5
:1052F000DC1C0EF80C3091F800C061448A4209D9D8
:1053000091F801C0BCF1050FEBD091F800C06144E9
:105310008A42F5D85DF804FB704700BF2DE9F041E3
:105320008E4682B0009390F800C0089EBDF82470AD
:105330006EF3000C04461546012331463A4600F848
:1053400008CBBDF82C8000F0EBF806B13FB9012086
:105350000A9BA4F80280636002B0BDE8F08104F10A
:105360001C063046FBF766FA0DB135460026C4E947
:105370000556ECE701207047F8B50746084640F2AD
:10538000FF13154610F8082B0C4612F0020F0CBF45
:105390003F261E4600F0F4F828B925B12E4202D16E
:1053A0002378DA0701D50020F8BD38466178FFF789
:1053B000A1F90028F7D0237813F0010307D04FF0AC
:1053C000E023D3F8F03DDB07EDD500BEEBE71A464E
:1053D00038466178FFF7B2F90028F0D0F8BD00BF79
:1053E00070B501F10805064628460C4600F0C8F8DD
:1053F00010B12378D80701D5002070BD3046617800
:10540000FFF778F90028F7D028466288616800F035
:105410002DF92378054648B1D9070ED54FF0E02382
:10542000D3F8F03DDA07E7D500BEE5E7DB07E3D4C4
:1054300030466178FFF770F9DEE703466268304670
:105440006178FFF77BF90028E8D0284670BD00BFDF
:105450008A892DE9F0410B780C4605468AB9DF07A9
:1054600025D44978FFF746F908B322786388D60730
:105470003FD54FF0E023D3F8F03DDA0717D500BE53
:1054800015E04FF6C07203F0020301F10808002B8B
:1054900040460BBF40274FF4007716464FF47E4638
:1054A00000F088F8874202D82378D80702D5002078
:1054B000BDE8F08128466178FFF71CF90028F6D096
:1054C000404600F077F887421FD823786288D907D2
:1054D000CFD43040904228BF104661780646E0B1F4
:1054E000626833462846FFF729F90028C1D03046C4
:1054F000DEE761783BB162682846FFF71FF90028B4
:10550000B7D06088D4E71A46F6E72378DB07CED415
:1055100028466178FFF700F9C9E70246E1E700BFD6
:105520002DE9F041B2F5004F9DF8188024D80446CB
:10553000C06817460E461D4618B14FF0FF3100F007
:1055400023FB206918B14FF0FF3100F01DFB002252
:10555000C5F30E03E06843EAC83362812660A78082
:10556000E380228108B100F01BFB206908B100F044
:1055700017FB0120BDE8F0810020BDE8F08100BFED
:10558000038942899BB292B28088934236BFC2EBB4
:1055900040029B1A9B189BB2984228BF184670473E
:1055A0000289438990B29BB2C01AB0FA80F04009D8
:1055B000704700BF038942899BB2808892B29342B0
:1055C00036BFC2EB40029B1A9B189BB2984286BF23
:1055D000C01A80B20020704738B5044600690D46F5
:1055E00018B14FF0FF3100F0CFFA2189638989B2F9
:1055F0009BB2A288994236BFC3EB4200C81A40183A
:1056000080B248B3824209D291422CBF891A8918CC
:105610008BB29A42638103D89B1A9BB29A42FBD900
:10562000E2882168C2F30E0202FB0311284600F053
:1056300005FA6189012589B24B1C9BB29942A28867
:105640000DD902FA05F15B1A9BB22069638108B19A
:1056500000F0A6FA284638BD054663899BB2B3EB35
:10566000420F4FEA4201F0DBEDE700BF2DE9F047C2
:10567000064600698846914618B14FF0FF3100F0A8
:1056800083FA338974899BB2A4B2B588A34236BF2A
:10569000C4EB45071F1BFF18BFB2002F4AD0BD4205
:1056A00040D3B94528BFB946A5421FFA89F703D8A8
:1056B000641BA4B2A542FBD9B6F806A02B1B316827
:1056C0009BB2CAF30E029F42924602FB041123D9F9
:1056D00013FB02F31FFA83F94A4640467D1B00F094
:1056E000ADF9621912FB0AF2316808EB090092B2B7
:1056F00000F0A4F97289B58892B2D3199BB29A428C
:105700001AD96A009B1A9BB23069738108B100F004
:1057100047FA3846BDE8F087404607FB02F200F042
:105720008DF9E7E7AB422CBF5B1B5B199CB22F46A0
:105730007481B6E773899BB2B3EB450F4FEA45021C
:10574000E2DBDFE7F8B50446C0680E4618B14FF05B
:10575000FF3100F019FA2589238961899BB289B24A
:10576000A2888B4236BFC1EB42015B1A5B189BB229
:105770009A42ADB208D8E779FF0905D1E06808B1CF
:1057800000F00EFA3846F8BD95422B4603D39B1A1B
:105790009BB29342FBD2E2882068C2F30E0202FB66
:1057A0000300314600F04AF96B1CA2889BB29D426F
:1057B0004FEA420104D95B1A9BB201272381DDE73E
:1057C000B3EB420FF9DBF6E72DE9F04F164683B055
:1057D000002A4CD00546C068884618B14FF0FF310A
:1057E00000F0D2F9EA792F896989D209AB88BFB272
:1057F00089B240D18F4236BFC1EB4301791AC91932
:1058000089B2994241D2591A89B28E4228BF0E46B6
:10581000B5F806A007EB0609A6EB030BCAF30E0AC0
:105820001FFA89F91FFA8BFB9F423C4603D3E41A07
:10583000A4B29C42FBD21B1B28689BB2B3420AFB5A
:1058400004004BD341460AFB06F200F0F7F8AA88A1
:105850004F454FEA420302D8B9EB420F03DBA9EBF5
:1058600003031FFA83F9E868A5F8089088B9304661
:1058700003B0BDE8F08FB5F806A09E42CAF30E0A49
:105880000DD3002B3FD11E4600E00026E86800281B
:10589000EDD000F085F9304603B0BDE8F08F8F42BF
:1058A00036BFC1EB43027A1AD21992B25800324481
:1058B000A6EB030B82421FFA8BFB0ADB01EB030909
:1058C0001FFA89F9A9EB0607BFB2B94218D9381AED
:1058D00087B206EB07091FFA89F9A5E713FB0AF35C
:1058E0005C4414FB0AF49AB24146019200F0A6F817
:1058F000019A286808EB0201A2B200F09FF8A6E71F
:10590000B84291DCE3E7F61A01EB03090AFB0688CB
:105910000F461E464FF0000B1FFA89F984E700BFBF
:1059200010B50446C06818B14FF0FF3100F02CF9F3
:10593000206918B14FF0FF3100F026F90023E0682C
:105940006381238108B100F02BF9206908B100F0D0
:1059500027F9012010BD00BF38B50446C0680D46C8
:1059600018B14FF0FF3100F00FF9206918B14FF076
:10597000FF3100F009F9E379E06865F3C713E371DB
:1059800008B100F00DF9206908B100F009F9012013
:1059900038BD00BF70B586074AD0541E002A41D0DA
:1059A000CAB2034601E0013C3CD303F8012B9D073A
:1059B000F9D1032C2FD9CDB20F2C05EB052505EB22
:1059C000054538D9A4F1100C03F1100E1A462CF03D
:1059D0000F064FEA1C1CB6441560103242F80C5CEE
:1059E00042F8085C42F8045C7245F5D10CF1010202
:1059F00014F00C0F04F00F0C03EB021213D0ACF1F7
:105A0000040323F003030433134442F8045B9A4273
:105A1000FBD10CF003042CB1C9B21C4403F8011BE8
:105A20009C42FBD170BD64461346002CF4D1F9E7CB
:105A300003461446BDE71A46A446E0E7844641EA19
:105A4000000313F0030349D1403A23D30B680360EA
:105A50004B6843608B688360CB68C3600B690361EC
:105A60004B6943618B698361CB69C3610B6A0362D4
:105A70004B6A43628B6A8362CB6AC3620B6B0363BC
:105A80004B6B43638B6B8363CB6BC36340304031A1
:105A9000403ADBD230320BD30B6803604B68436073
:105AA0008B688360CB68C36010301031103AF3D23A
:105AB0000C3205D351F8043B40F8043B043AF9D2C8
:105AC000043208D0D2071CBF11F8013B00F8013B9B
:105AD00001D30B8803806046704700BF082A13D3A8
