:020000042000DA
:1000000000200820A50100201B0100201D01002068
:100010001101002011010020110100201101002018
:100020001901002019010020190100201F010020E2
:1000300011010020190100202101002023010020CE
:1000400011010020110100201101002011010020E8
:1000500011010020110100201101002011010020D8
:1000600011010020110100201101002011010020C8
:1000700011010020110100201101002011010020B8
:1000800011010020110100201101002011010020A8
:100090001101002011010020110100201101002098
:1000A0001101002011010020110100201101002088
:1000B0001101002011010020110100201101002078
:1000C0001101002011010020110100201101002068
:1000D0001101002011010020110100201101002058
:1000E0001101002011010020110100201101002048
:1000F0001101002011010020110100201101002038
:100100001101002011010020110100201101002027
:10011000EFF30580103800BE00BE00BE00BE00BE7A
:1001200000BE00BE06005250ABB36053282500202D
:1001300006005250861C030238250020060052504B
:100140005422A29D4C250020F2EB8871DC25002072
:10015000FC250020D001002090A31AE7D3DEFFFF8A
:10016000420121100302000000000020FF030000F4
:1001700000000000793512AB20485FF44041016077
:1001800030EE10F704D440EC800740EC810740BF0C
:10019000002080F30A881A481A49086006C881F3CB
:1001A000088810474FF05040006810B14FF0000031
:1001B000F2E71549154A002000E001C19142FCD147
:1001C00013498847134988471349884700BEFDE70C
:1001D000FC250020FC250020B82600200000082077
:1001E000000008200000082000100820001008204F
:1001F00000100820000000007047000088ED00E0BB
:100200000000002008ED00E0B8260020A82900200A
:10021000191E0020B9030020111E00204FF050418C
:100220002DE9F0410027044616461D46D1F800800E
:1002300009E02368C3E88F7F8CF310883046294695
:1002400001F0B2FAF0B92168EFF3108C72B6D1E880
:10025000CF2F0123002AFAD1C1E8423F002AF6D16C
:10026000BFF35F8F94F904E0BEF1000FE1DA0023E1
:10027000226884F80480C2E88F3F8CF31088012044
:10028000BDE8F0810020BDE8F08100BF30B5014637
:100290000468EFF3108C72B6D4E8CFEF0125BEF1FD
:1002A000000FF9D1C4E84E5FBEF1000FF4D1BFF3E7
:1002B0005F8F90F90440002C11DB00210568C5E830
:1002C0008F1F8CF310884FF0504C9CF900C0A44550
:1002D00001D1084630BDBDE83040FFF79FBF4FF069
:1002E0005040006800230A680871C2E88F3F8CF311
:1002F0001088012030BD00BF0368EFF3108272B692
:10030000D3E8CFCF0121BCF1000FF9D1C3E84C1FD6
:10031000BCF1000FF4D1BFF35F8F4FF0FF0C00234F
:10032000016880F804C0C1E88F3F82F3108840BFA5
:10033000704700BF112800D070470B07FCD5012083
:1003400030B54FF0A04E184B1B689901984001EB57
:100350000E02CEF86404D3685C01FCD401244FF093
:10036000A04C124B1B689A019C406244CEF8644436
:10037000D3685B01FCD401F1A04360214FF0504EE3
:100380000B4D1D6099600B4B53609160CCF850444D
:10039000CCF85004DEF80430192283F00073C3F364
:1003A000406343EC402030BD9C280020942800206E
:1003B0003C290020D82800202DE9F04F2DED048B9A
:1003C00091B001F01DFE192000F0EAFA0124192372
:1003D00044EC4430984D9949284601F071FF4FF0A4
:1003E000020A4FF0040C6B68954ADFF8A0E203F0B4
:1003F0000203CEF804A0C2F804C05360D5F804C0CC
:10040000CEF804A02B688F4E83F007030CEA0A0590
:1004100003F0CF03336021465560102000F04CFA02
:100420002146122000F048FA2146132000F044FA39
:100430002146112000F040FA204601F0BDFFDFF810
:100440005092814DC9F80000204601F0B5FF844666
:10045000D9F800304FF0600A05EA433605EA4C351A
:1004600045F4481545F041052F469B0103F1A04E88
:10047000DFF820B2754B764D46F4401646F0110673
:100480001E60CBF800C0CEF80050724D4FEA8C1CB5
:100490002F60714D0CF1A04CCEF80450CEF808A09E
:1004A000CEF81060CCF800506C4D2246CCF80450C9
:1004B0000821CCF808A01120CCF81070684B00F08F
:1004C00019FA4FF0A042DBF80030664904FA03F352
:1004D000C2F85034D9F80030634804FA03F3C2F884
:1004E000503401F0EDFE21460C2000F0E5F92146E4
:1004F0000E2000F0E1F921460F2000F0DDF90D207B
:1005000000F04EFA0D2344EC443044EC4030032418
:10051000554D0D21284600F0C5F8002849D164202A
:1005200001F02CF9013CF4D121466022484801F049
:1005300053FFAA20BB21CC22DD23DFED4C9A9FED97
:100540004C9ADFED4C8A9FED4C8A6E46DFF848816D
:10055000DFF848B1A8F12004DFF844A108F8200C26
:100560000DF10C096170A270E3704D46CDED039A58
:100570008DED049ACDED058A8DED068A3F4A404BFC
:100580004049414CCDF81CB0CDF820A0029100921A
:1005900001930FCD0FC495E8030084E8030096E8AB
:1005A000070088E807004FF4FA70002101F0CEF848
:1005B000DBE760220021264801F00EFFAA20BB21C4
:1005C000CC22DD234FF0000A6E46DFF8CC80DFF846
:1005D00098B0A8F1200408F8200C0DF10C09617006
:1005E000A270E3704D46584609AA0D2100F066F846
:1005F0000D9C09980A990B9A0C9B0E9F0794224C0C
:10060000089703900491059206930FCD0FC495E8C7
:100610000300CDF800A0CDF804A0CDF808A084E830
:10062000030096E8070088E807004FF4FA700021FD
:1006300001F08CF8D6E700BF0000084040420F00F0
:100640000020084000100840FDFF01FCA028002009
:100650003C2900209828002008000840D8280020C5
:100660003503002000127A00008008400AD7233C9E
:100670000AD7A33CC3F51C416F12833A0000C8415E
:100680000000A0400000344244290020003008400F
:100690009C280020942800205C2900206F12033B36
:1006A000A69B443B10B508460C4600F079F90120A2
:1006B00040EC444040EC404010BD00BF9FED0C7A40
:1006C000DFED0C7A00B5DFF83CC00B480B490C4B52
:1006D000DFF834E082ED047AC2ED057AC2F818E062
:1006E000C2F800C050609160D3605DF804FB00BFA9
:1006F0009A99B140B81ED5407B140E40B81E5540A3
:100700007B148E407B148E3F3D8A9B424FF05040BD
:100710002DE9F84F002607686249634A634BB742E8
:1007200014BF88469046DFF888B1DFF8889153F807
:1007300027A0F30803F10C0258F82240354608368A
:10074000E4B1BAF1000F1DD014F00F0110D05BF826
:10075000273005F00702EB40E8089200DB0701FABA
:1007600002F200F18C0C03D4284649F82C20D04723
:10077000240905F1010501D0B542E5D3202ED8D1D9
:10078000BDE8F88F14F00F0105D0494A52F8272030
:10079000EA40D20764D52309F0D013F00F030CD040
:1007A000434A52F827106A1CD140C80705D4414972
:1007B000D2081B018C3241F82230230ADED013F01C
:1007C0000F030CD03A4A52F82710AA1CD140C9078F
:1007D00005D43849D2081B028C3241F82230230B51
:1007E000CCD013F00F032DD1230CC7D013F00F037F
:1007F0003BD1230DC2D013F00F0344D1230EBDD043
:1008000013F00F030CD02A4A52F82710AA1DD1402A
:10081000C90705D42749D2081B068C3241F822307B
:10082000240F05F10705A9D0214B53F82730EB40E1
:10083000DA07A3D41F4AED08240705F18C0342F818
:1008400023409BE71A4A52F82710EA1CD140C807F8
:10085000CAD41849D2081B038C3241F82230C3E7AE
:10086000144A8C3342F8231095E7114A52F82710A6
:100870002A1DD140C907BCD40E49D2081B048C32B2
:1008800041F82230B5E70A4A52F827106A1DD140D4
:10089000C807B3D40749D2081B058C3241F822306F
:1008A000ACE700BF908202404882024058280020F6
:1008B000D02800200080024010B44FF480740C4B0C
:1008C00053F8202003EB8003C00082F0400200F1C7
:1008D000804003F5805C02F0C00200F5203003F593
:1008E0004053CCF8002041601C605DF8044B704719
:1008F000048003402DE9F0434FF050491646DFF8DD
:100900009C80D9F800201F4658F8223004460D4636
:1009100083B053B3002F34D04FF0504348F82270C7
:100920001A681B491B4B002A18BF0B46E20804F04B
:100930000704A40005FA04F4A1F5247102F18C0067
:1009400041F8204003EB82034EB10121152003F54D
:1009500000531C6003B0BDE8F04300F017B903F585
:1009600040531C6003B0BDE8F083002FD9D048F895
:10097000227015201A46084900F04EF9D9F80020D7
:10098000CFE715200449019200F03AFA019AC3E733
:1009900090820240488202400D0700205828002023
:1009A00030B44FF0000343EC440043EC4000052515
:1009B0004FF480740B4BC20053F8201003EB8000FF
:1009C00081F0400102F1804303F5203301F0C002C1
:1009D00000F5805100F540500A605D60046030BC55
:1009E000704700BF048003400FB400B583B0049C7F
:1009F000074801F04DFB3CB105A92046019101F0EB
:100A0000EDF9044801F044FB012001F0FFF900BFBB
:100A1000DC240020EC24002070B58646EFF310851E
:100A200072B6124CD4E8CF6F0120002EFAD1C4E880
:100A3000460F002EF6D1BFF35F8F4FF0010CC808B0
:100A400001F007030CFA03F31EF800C01CEA0306CA
:100A500008D14CEA030C0EF800C0C4E88F6F85F390
:100A6000108870BD1046FFF7BFFF00BF432800206D
:100A7000F8B5EFF3108572B6234CD4E8CF7F01268A
:100A8000002FFAD1C4E8476F002FF6D1BFF35F8F74
:100A90009A4227D80126D70810F807E002F0070C81
:100AA00006FA0CFC1EEA0C0F00EBD2070DD125E074
:100AB0004FEAD20E10F80EE002F0070C06FA0CFC1A
:100AC0001EEA0C0F00EBD20718D001329342EFD28E
:100AD0004FF0FF300023C4E88F3F85F31088984221
:100AE00007DBF8BD0023C4E88F3F85F310884FF083
:100AF000FF300029F5D00698FFF776FF4EEA0C0E7E
:100B0000104687F800E0E5E743280020044A107803
:100B1000431CDBB2182B28BF10231370704700BF93
:100B2000FC2500204FF0E022936843F000539360CF
:100B3000704700BF0021044B03F12002C3E88F1F60
:100B400001339342FAD17047382800204FF0E02358
:100B50004FF08032C3F80024C3F80424C3F80824FB
:100B6000C3F80C24C3F81024C3F81424C3F81824C1
:100B7000C3F81C24C3F82024C3F82424C3F8282471
:100B8000C3F82C24C3F8302462B67047012300F068
:100B90001F029340400941B1800000F1604000F520
:100BA0006140C0F8803103607047024A203042F84B
:100BB0002030704700E100E0F8B50D46EFF31087F4
:100BC00072B6124ED6E8CF2F0123002AFAD1C6E81A
:100BD000423F002AF6D1BFF35F8F0D4B00F11004A6
:100BE0009B680C4A53F82430934203D0994201D0B9
:100BF00001F01AF8064B9B6843F82450BFF35F8F4F
:100C00000023C6E88F3F87F31088F8BD41280020F5
:100C100000ED00E0110100202DE9F04F81468B46E8
:100C2000164683B0EFF3108372B6DFF8D0A10093BD
:100C3000DAE8CF1F01230029FAD1CAE8413F002991
:100C4000F6D1BFF35F8F664B93F90040002CC0F2E2
:100C5000A080644D04EB440705EB870898F8061064
:100C600009F110091970604BBF009B6853F8290007
:100C70006300411B2F292FD95C49884240F0A58091
:100C80001C445B4B02372F44043BDB1BC3F34A037A
:100C90006FEAC3434FF421416FEAD34325F8241090
:100CA00005EB840463804BF60153A380FF2348F0D7
:100CB0000100E671C4F808B0A3714B4B9B6843F880
:100CC0002900BFF35F8F0023CAE88F3F009B83F3A7
:100CD000108803B0BDE8F08F20F0010E9EF80710D9
:100CE000B1422ED84FF42143EB53414BB91C294458
:100CF000043B04375B1A2F44AEF104013D4CC91B81
:100D0000C1F34A012143A8F80410C3F34A033A4946
:100D10002343A8F802304AF6AA2073465B1B5B41C6
:100D20005843000D88F8076088F80600C8F808B036
:100D300048F00100CEF80010BFE7D179B1422ED9BA
:100D400096469EF906C00CEB4C02BCF1000F05EB79
:100D50008202F2DA4BF601510EF10402A8F1040707
:100D6000BF1AC7F34A076FEAC7476FEAD7478EF83B
:100D7000064003EB0408204C05EB8803AEF8047032
:100D800045F82840998083F806C0DE71C3F808B0A2
:100D900093E700F049FF124B93F9004059E7BEF882
:100DA00004100EF10402490514D44915023102EB76
:100DB000410101916FF00701C91B019F491B394493
:100DC000C1F34A0141F46041C8E7019300F02CFFF0
:100DD000019B55E701F5FF1101F5FF511F31E4E7D4
:100DE000A62900200026002000ED00E011010020CF
:100DF0003026002000E0FFFF014880474128002006
:100E00002DE9F04F83B0EFF3108A72B6744ED6E836
:100E1000CF2F0123002AFAD1C6E8423F002AF6D19B
:100E2000BFF35F8F6F4B00F110089B686E4A53F859
:100E3000285095423FD08D420C464AD06B4FEB1B59
:100E40002F2B38D801214FEA50194FEA890909F1AF
:100E5000604909F5614900F01F0301FA03F0D9F870
:100E60000030C9F8800000EA030BBFF35F8FEFF397
:100E70000581C9B279B3884577D125F0010EDEF836
:100E800008C0644505D17CE0D3F808C0644532D081
:100E90009E469EF9062002EB4203002A07EB8303DD
:100EA000F2DA644500F08180BBF1000F20D0C9F870
:100EB0008001C9F800004B4B9B6843F82850BFF3F2
:100EC0005F8F0023C6E88F3F8AF3108803B0BDE828
:100ED000F08F1546EFE725F0010EDEF808C06445F7
:100EE000D7D19EF906407346002C08DA154666E015
:100EF000C9F88000DFE793F90640002C56DB04EBCD
:100F0000440C07EB8C0CDCF8082061009A609CF81C
:100F10000720DA719CF90620002A9A715DDBBCF883
:100F20000420520504D502F5FF1202F5FF521F32CC
:100F3000521502F1020C4FF0040E0C2212FB04E2D7
:100F400002EB4C026FF0070C3A44ACEB030C62442A
:100F5000C2F34A0242F460429A80254B21441A7837
:100F600007EB81011C708A719EE7CDE9000100F05A
:100F70005BFEDDE9000125F0010EDEF808C06445E6
:100F800087D19EF906407346002CB8DA194A1A4CEC
:100F9000D21A083AC2F30A316FEA01516FEA1151CD
:100FA00044EA5202DA8099807EE773460029EDD147
:100FB000FF228EF806204BF60152AEF804200C4CAE
:100FC0004AF6AA2294F800C01946C91B49414A436F
:100FD000120D83F806C0227066E74BF60152BBE79C
:100FE0004128002000ED00E0110100200026002033
:100FF000A62900203A26002000F8FFFFF0B5EFF305
:101000000585EDB2EFF3108C72B62649D1E8CF2FEB
:101010000123002AFAD1C1E8423F002AF6D1BFF3EA
:101020005F8F214E40F0010EB4684AF6AA2354F8AF
:1010300025701E4A0446A41A644163431B0D77457C
:101040005BB21BD092F906409C421CD092F9124030
:101050009C4223D092F91E409C4221D092F92A4012
:101060009C4208BF03240FD0114A00241578137046
:101070008571C1E88F4F8CF31088F0BDB2680D4CBC
:1010800042F82540F0E7002404EB440402EB84021C
:10109000FF2494714BF601549480E5E70124F3E7B3
:1010A0000224F1E74128002000ED00E000260020A6
:1010B000A629002011010020014B0B44036070475A
:1010C000382800202DE9F041134D144FBD4221D2A4
:1010D0004FF0FF082C460CE0FFF718FD01462846AC
:1010E000FFF7EAFFA6F80480BFF35F8FBC4211D27E
:1010F0002546236826460834002BEDD1FFF706FD70
:1011000001462846FFF7D8FF86F80480BFF35F8FBB
:10111000BC42EDD3BDE8F081782600208026002077
:101120000D4B1A68EFF3108172B6D2E8CFCF0120D1
:10113000BCF1000FF9D1C2E84C0FBCF1000FF4D1A3
:10114000BFF35F8F00221B68C3E88F2F81F31088E5
:1011500040BF002000217047382900200000000017
:101160002DE9F04F2DED028B85B0EFF30583DBB257
:10117000103B9A0818BF01224FF0010103F0030051
:1011800008BFAD4DAD4B18BFAD4D00EB820253F81B
:10119000226001FA00FB05F541539FEDA58B0190FC
:1011A000C3F804B02EE0B388190440F19280B379FB
:1011B000002B40F0DC80B6F90820002AC0F21B8129
:1011C000736902EB420203EBC203D3E90247B7F1B2
:1011D000FF3F08BFB4F1FF3F0DD0019B05EB83013A
:1011E000AB6A0A69D21AE31A934203D32B6A13EA51
:1011F0000B0F00D10C61284600F046FBA042B9411C
:10120000C0F2F980B6F90830C5F83CB0002B009365
:10121000C9DBD6F8149003EB430A284609EBCA074A
:10122000D7E9024800F030FBA04271EB0801BADBBD
:10123000B8F1000FC0F2C180D7E90431814A93426E
:1012400000F0EB807A88B6F9080092B242EA0040DA
:10125000984702460B4652EA030100F0AE80002B8D
:1012600080F2CF80B4EB020E68EB030839F93A3014
:10127000C7E902E8002B96DB716903EB430201EB3F
:10128000C202D2E90270BE4578EB000C4FEA43027D
:1012900089DBB4462CF8083F0BE031F93230A44624
:1012A000002B0DDB03EB430001EBC0005A00D0E93B
:1012B0000270BE451A4478EB000001EBC204ECDA80
:1012C00029F83A30009BACF80030B38819043FF598
:1012D0006EAF3369EFF3108272B6D3E8CF0F0121FE
:1012E0000028FAD1C3E8401F0028F6D1BFF35F8F72
:1012F0004FF6FF74B0880023316900B2B480C1E8B2
:101300008F3F82F310889842FFF651AF0746A946F7
:10131000746906F1080807EB470E04EBCE03D3E926
:101320000205B6F90830C446002B13DBB24600971D
:1013300004E034F936309446002B09DB03EB430616
:1013400004EBC602D2E90271B84275EB0101F0DA92
:101350005646009FACF8007034F93E7024F83E30D9
:10136000002FD8DAB3794D46002B3FF424AF002389
:10137000B371B6F9083006F1080E5A1C3BD01A4674
:10138000746903E08646591C3FF417AF03EB430131
:1013900004EBC10047889C463F0434F93130F1D555
:1013A000944580ED028BEED0AEF80030328924F8FF
:1013B00031206246A6F808C0E5E739F83A303381B3
:1013C0003369EFF3108272B6D3E8CF0F0121002802
:1013D000FAD1C3E8401F0028F6D1BFF35F8F7388AE
:1013E000316929F83A30009B73800023C1E88F3FB0
:1013F00082F31088D7E640BF05B0BDEC028BBDE894
:10140000F08F2846CDE9022300F03EFA029A039BB2
:1014100010EB020E43EB010828E708460B69029126
:1014200098470028C9D00299D1E9002313E700BFEB
:10143000FFFFFFFFFFFFFFFF00000B40B028002071
:1014400000800B40611100202DE9F84F364C2569D2
:101450002DB1BDE8F84F0A213448FFF72DBEDFF863
:10146000E4800321404600F0FDF90326C4F80C8017
:10147000FFF74CFB4FF0504C2D4B2670034423617B
:10148000DCF800300F216370636961801D834FF0C9
:101490000405A3F878504FF00505A3F890504FF0DD
:1014A0000605A3F8A8504FF007050E2108274FF6B0
:1014B000FF724FF00A0EA3F8C0504FF001094FF031
:1014C0000C0C4FF0020B4FF0090A0D204FF00B05EA
:1014D000A3F868111749A280A3F808E1A160A3F856
:1014E00048B0A3F8F0A0A3F82051A3F838C1A3F89E
:1014F0005001A3F83090A3F86060A3F8D8701A8068
:101500000D4B3046C8F820700C49DC60FFF754FBE7
:1015100049463046FFF73AFB094B0A211F6403484E
:10152000BDE8F84FFFF7C8BD482600203829002045
:1015300038280020FFFF1000B02800206111002093
:1015400000200B4000000B400146F0B50069EFF3AE
:10155000108772B6D0E8CF5F0124002DFAD1C0E821
:10156000454F002DF6D1BFF35F8FB1F902E04C6912
:101570000EEB4E0CBEF1000F4FEACC0504EBCC0C89
:101580003DDB605B002648800869C0E88F6F87F309
:101590001088BCF80200CCE902230130C0F30E0031
:1015A000012838BF0120059BACF80200CCF81030B0
:1015B000069B40EA0E40CCF814300B69EFF3108222
:1015C00072B6D3E8CFCF0127BCF1000FF9D1C3E841
:1015D0004C7FBCF1000FF4D1BFF35F8F8B88635356
:1015E000A1F804E00B69C3E88F6F82F31088012231
:1015F000CB68097803F501538A405A60F0BD002397
:101600000A69C2E88F3F87F310884FF0FF30F0BDC2
:1016100003464089B0EB214F37DD58690A1402EBCD
:10162000420210B500EBC2001C69EFF3108C72B6D9
:10163000D4E8CFEF0122BEF1000FF9D1C4E84E2F5C
:10164000BEF1000FF4D1BFF35F8F428889B292B22E
:101650008A4207D000221B69C3E88F2F8CF31088C1
:10166000002010BD42F4004242800121002218698E
:101670009971C0E88F2F8CF310881C78DA680846BF
:1016800002F50153A140596010BD0020704700BF12
:101690002DE9F041861F41F1FF35B04271EB0503A2
:1016A00038BF002682B038BF354604460F4600F0EA
:1016B000F3F8301A65EB0103012873F1000306DA31
:1016C0002046394602B0BDE8F04100F01DB900F0F7
:1016D000E3F8864265EB010100290ADB0021174B84
:1016E0003246009316482B460191FFF72DFF002844
:1016F000E6DB4FF0000C1348134A436A9D4204D8BE
:10170000816AB142DCD29D42DAD11368EFF31081D5
:1017100072B6D3E8CF8F5FF0010EB8F1000FF8D1A9
:10172000C3E848EFB8F1000FF3D1BFF35F8F136840
:10173000C3E88FCF81F3108820BFDEE7211100209E
:101740004826002000000B403829002038B5044608
:101750000D4600F0A1F84FF0FF326FF00043201863
:1017600045EB0101824273EB010438BF1946BDE825
:10177000384038BF1046FFF78BBF00BF10B5044696
:1017800000F08AF84FF47A734FF0FF3C6FF000429C
:10179000E4FB0301BDE81040844572EB01033CBF4C
:1017A00060461146FFF774BF2DE9F04306460D462B
:1017B00083B0EFF30584E4B23CB1274B586AA842EA
:1017C0001CD2002003B0BDE8F083244FD7F80C9062
:1017D00097F80080484600F057F808F1040859F8D7
:1017E00028301B1A301A65EB0101984271F1000193
:1017F00011DB20BF184B586AA842E2D39B6AB34260
:1018000003D3012003B0BDE8F083401B18BF0120C3
:1018100003B0BDE8F08300F03FF8864265EB0101BC
:101820000029CADB0E4B3846CDE9003432462B4640
:10183000FFF78AFE011EC0DD074B5A6AAA4208D391
:101840009B6AB34203D30548FFF7E2FEB5E7AA421D
:10185000F9D120BFF7E700BF00000B404826002069
:101860002111002010B4054B054C064AA04214BFBC
:101870001846581C5DF8044BFFF7CEB868280020C6
:1018800000800B40F02400200346416A0A46986A13
:10189000596A8A42FAD17047034B596A0A46986AD4
:1018A000596A9142FAD1704700000B4030B4154A92
:1018B000536A9C46946A536A6345FAD102195941A6
:1018C0004FF0000528BF01250E4B5B6AB5B15A1CCD
:1018D00008BF1A4608D04FF0FF310A460948436A4C
:1018E0008B42FCD38B4207D1064902E0486A9842FA
:1018F00002D1886A9042F9D330BC70479942EDD842
:10190000F0E700BF00000B40074A536A9942FCD839
:10191000994207D1044B02E05A6A914202D19A6A75
:101920008242F9D3704700BF00000B40F8B505466E
:1019300006200E4600F0E2F8002842D0354A36482C
:1019400095420CBF4FF000624FF08062334B344938
:1019500002601A608C6832EA0404FBD12D4B4FF40C
:101960008071EB1AB3FA83F32E4A5B09062022F842
:10197000131000F0C3F8C300B3FBF6F30133DA0928
:1019800020D1402601216962AA622F6BFB0722D475
:101990002B46002253F82C1F062003F580542260AA
:1019A0002F6300F0ABF8EB6A40F2013283F0700372
:1019B00003F07E03236080000323B0FBF6F02A636C
:1019C000AB64F8BD4FF6FE718A421BD922464FF632
:1019D000FF71154ED7E740F2013205F540531A6307
:1019E0006B6AAC6A062004EB831400F087F80F4B97
:1019F000A402A3FB0023DB0A0021B4FBF3F0FFF7F2
:101A000055FFC5E7C3F34503114603EB82161A469B
:101A1000B9E700BF008007400020024000300240CC
:101A2000000002409C290020C0FF3F00757B2B8FE7
:101A300000EB400C4FEA8C0C0CF1804C0CF5803C18
:101A4000F0B51646DCF80420051FB2F5803F38BF1C
:101A50004FF48032EDB238BFCCF80420012D0CF5E4
:101A6000405228D94FF400641460234C54F82020CD
:101A7000B2B9DCF80020012D82EA461202F0E00241
:101A80000CF58056326028D94FF4006144F82030BC
:101A90004FF480330CF500521160CCF80430F0BDE7
:101AA0006769B7FBF2FE0EF1010E0EEB4E0EBEF1B2
:101AB000030EFCD2DDE70129D4D103241460DCF845
:101AC0000820D207FBD5DCF800200B4C82EA461236
:101AD00002F0E0020CF5805632600122DCF8005082
:101AE0004D4005F00305356002FA01F1DCF80820ED
:101AF0000A42FBD0C8E700BF6C280020014B53F816
:101B0000200070476C28002070B4039D04682D03EA
:101B100045EA03451B4B002CB3FBF1F3B2FBF3F694
:101B20001FDB194A194B90420CBF4FF400424FF48F
:101B30008042174C1A6003F580531A60A36832EA9A
:101B40000303FBD1212200F540530433016086607A
:101B50001A600268002AFCDA0822C5601A6070BCAC
:101B60007047036803F03F038B42DAD18368C3F305
:101B70000B03B342D5D1C36803F4EE23AB42D0D1FB
:101B8000EDE700BF001BB7000080054000200240C9
:101B900000000240012300EB4000800000F1804083
:101BA00000F5841041600360704700BF0023DB8AAA
:101BB000002242E800F2520201D410211847042109
:101BC000184700BF034AD2F82838002BFBD0BFF3D8
:101BD0005F8F704700000E400021044B044ABFF3A2
:101BE0005F8F43F8041B9342F9D170470C080E40F5
:101BF0002C080E4010B44FF48D704FF42A64064A3E
:101C0000064B07491460D06019605368002BFCDA5A
:101C10005DF8044B704700BF0080044000A0044002
:101C200000B0FA00704700BF08B50148FEF7DCFEBF
:101C30001425002038B5054C054DAC4204D254F8AB
:101C4000043B9847AC42FAD338BD00BF8026002041
:101C5000B826002010B40748074C084B084A094929
:101C600004601A608B6832EA0303FBD15DF8044B11
:101C7000704700BF002002407F3BEFEF0030024082
:101C8000F6FFF30300000240044BDB6CB3F5004F9A
:101C900003D14FF48022024BDA64704700001150E8
:101CA000002011504FF0E022044BD2F8881D0B4366
:101CB000C2F8883D10EE3004704700BF03033000C7
:101CC0006FF06041044B054A19609368DB4333F0C1
:101CD0006043FAD1704700BF00300240000002406C
:101CE00010B545F25320FFF761FFBDE810400346F1
:101CF00001201847FEF71EBF0023F0B52B4C83B020
:101D0000C4F88430FFF776FF0122294BDA63636C55
:101D1000012BFCD10321264A244B11639D6B012D1D
:101D2000FCD1052302271E4600242946214A2248C9
:101D30000097FFF7E9FE29463346204A20480096DF
:101D4000FFF7E2FE3946224604201E4BFFF770FEE5
:101D50002946224630461C4BFFF76AFE22460820E1
:101D600021461A4BFFF764FE224609202146174BF5
:101D7000FFF75EFE224606202146134BFFF758FE72
:101D8000114B224607202146FFF752FE0420FFF7A1
:101D9000B5FE0F4BA3FB0035AD0CE0B22946013474
:101DA000FFF7F8FE062CF8D103B0F0BD00000140AB
:101DB00000300140002F685900000540008C864724
:101DC00000800540001BB70080D1F008006CDC02E9
:101DD00083DE1B4300B9704700F018B910B5094BFA
:101DE00084B01C684CB1034600914FF0FF3203A948
:101DF0000548A047012004B010BD00F049F9204675
:101E000004B010BDAC280020D51D002000BEFDE7A9
:101E100008B5FFF7FBFF00BF38B5064D064CFFF7CE
:101E200009FFAC4204D254F8043B9847AC42FAD3C1
:101E300038BD00BFB8260020B82600200368084639
:101E400011461847437D2DE9F04707468946164657
:101E5000002B40D0002A39DD002109F1FF3515F8AB
:101E6000012F037D0A2A0846DFF8788001F101047A
:101E70000ED0A6421BD02B782146A3F10D03B3FA56
:101E800083F315F8012F5B090A2A01F10104F0D14F
:101E9000002BEED18842A1EB0001484418DB02215F
:101EA00040463B689847A64207D02046E3E7864273
:101EB00003DD311A3B6848449847B14419F8013CA6
:101EC000A3F10D03B3FA83F35B093B75BDE8F0871B
:101ED0003B689847E3E748463B681146BDE8F04752
:101EE000184700BF702500202DE9F04782B00D464D
:101EF000924699460746FFF7CFFC4FF0FF366FF04A
:101F000000442F4A821841F10003964274EB03010A
:101F10003CBF324623462B48FEF7B8F96B1C80467F
:101F200003D1384600F0ACFA0546274B274E1C6813
:101F3000274BB9F1000F18BF1E46B4B1BAF1000F1C
:101F40001AD1DFF8909001E0246974B12368002B66
:101F5000FAD0D9F800300BB1A342F5D120462A4679
:101F60003946B0472469002CF0D1B8F1000F1FD1D9
:101F7000284602B0BDE8F0874FF00A0ADFF8549017
:101F800002E02469002CF0D02368002BF9D0D9F8A6
:101F900000300BB1A342F4D120462A463946B0475F
:101FA000204601220DF107018DF807A0B047E8E7B0
:101FB0000448FEF7A1F9284602B0BDE8F08700BF4B
:101FC00040420F0078260020A42800203D1E00205B
:101FD000451E0020A8280020084A136823B90AE0FB
:101FE00003F110021B6933B19842F9D129B9036991
:101FF00013600161704701B110607047A428002090
:1020000008B500F033F9012008BD00BFF0B583B07A
:1020100006468DF80700FFF73FFC4FF0FF356FF0E5
:102020000044174A821841F10003954274EB030102
:102030003CBF23462A461348FEF728F9124B0746B1
:102040001C689CB1114D01E024697CB12368002B10
:10205000FAD02B680BB1A342F6D1204601220DF134
:102060000701FFF7EFFE2469002CEFD117B93046C6
:1020700003B0F0BD0348FEF73FF9304603B0F0BDB2
:1020800040420F0078260020A4280020A828002025
:1020900038B5044600F0F4F9012305461A462046F7
:1020A0002946FFF721FF084B1C682CB163682BB150
:1020B00098472469002CF9D1284638BD2469002CA2
:1020C000F4D1284638BD00BFA4280020B1F1000C8F
:1020D0001DDD0F4A0F4B126830B5D31AB3FA83F3E4
:1020E0000D240D4D5B09411E35F913E08C4411F8A8
:1020F000010F864506D093699B06FCD461451060AC
:10210000F5D130BD93699D06FCD41460F3E77047A8
:10211000A0290020008007409C290020224BB1F11B
:10212000000C10B41C682EDD034600201F4A591E07
:1021300012689369DB0617D401309369DB06FCD47F
:102140001368844501F8013FF3D14CB15021134687
:10215000916353F8342F02F0380203F580531A606C
:1021600060465DF8044B70474CB1502113469163B3
:1021700053F8342F02F0380203F580531A6078B117
:102180005DF8044B70475CB1084B50211A68134648
:10219000916353F8342F02F0380203F580531A602C
:1021A0006FF00200ECE700BF60280020A0290020AB
:1021B000054B1B6833B10021044A054812680068CA
:1021C00091631847704700BF60280020A0290020B5
:1021D00064280020024B1A6893691B07FCD47047DF
:1021E000A0290020F8B51C4F1C4D3A681C4EAA428D
:1021F0000CBF222521250446D6F800C018B1BCF139
:10220000000F10D0F8BDBCF1000FFBD00146906369
:102210002846FEF7BBFC28461249FEF7F1FD124B9B
:1022200034601C60F8BD0B460F4A0E4930602846EA
:102230001360FEF7C1FC01212846FEF7A7FC3A68AF
:1022400050211346916353F8342F02F0380203F5FE
:1022500080531A60F8BD00BFA0290020008007400D
:1022600060280020B12100206428002010B50E490C
:102270000E4C0F480F4A104B0078216000200221BD
:1022800012781B78FEF718FB02210120FEF714FBE1
:102290004FF4E1312068FFF749FBBDE81040012110
:1022A0000648FFF799BE00BF00000740A0290020A4
:1022B000F8250020F4250020F025002060260020CD
:1022C0002DE9F84F384B064698420CBF4FF4802357
:1022D0004FF400230D46354F354C364A3B602360A2
:1022E000946833EA0404FBD1B1460620FFF706FCEC
:1022F000022259F8041F4FEA452E4FEAD55B70457C
:1023000009F5405774EB0B0301EA02013A6011D35F
:102310004FEA955CAB0201E05346C4460232B2F587
:10232000807F07D01EEB030A4BEB0C08984274EB3E
:102330000C0CF1D24FF48073C2EB02249E46013B99
:1023400030D0B0FBF4FC6545A4EB0204F6D20EFBE2
:1023500002FE1B020224326132460325D6F800C079
:1023600009F5005983EA0C0303F47F4306F5805C0A
:10237000CCF80030C9F8001071683C6052F8243B7A
:10238000214083F0070303F0CF0302F50052CCF89D
:102390000030B0FBFEF0C9F800101560C9F800402D
:1023A000BDE8F88F9646D5E70000084000200240BF
:1023B000003002400000024010B5054C82B00146DA
:1023C0000F23002200940348FEF752FB02B010BD19
:1023D000BC250020A429002070B586074AD0541ED1
:1023E000002A41D0CAB2034601E0013C3CD303F8C5
:1023F000012B9D07F9D1032C2FD9CDB20F2C05EB62
:10240000052505EB054538D9A4F1100C03F1100E94
:102410001A462CF00F064FEA1C1CB6441560103209
:1024200042F80C5C42F8085C42F8045C7245F5D155
:102430000CF1010214F00C0F04F00F0C03EB02126C
:1024400013D0ACF1040323F003030433134442F824
:10245000045B9A42FBD10CF003042CB1C9B21C44BA
:1024600003F8011B9C42FBD170BD64461346002C4F
:10247000F4D1F9E703461446BDE71A46A446E0E75F
:1024800020F0030110F00300C0F1000051F8043BFC
:1024900000F1040C4FEACC0C6FF000021CBF22FAD2
:1024A0000CF213434FF0010C4CEA0C2C4CEA0C4C90
:1024B000A3EB0C0222EA030212EACC1204BF51F889
:1024C000043B0430F4D0C2F1000102EA0102B2FA86
:0C24D00082F2C2F11F0200EBD200704744
:1024DC000A2A2A2A2050414E4943202A2A2A0A0035
:1024EC000A000000486172647761726520616C615A
:1024FC00726D20256420616C726561647920636C57
:10250C0061696D65640000004861726420617373D9
:10251C006572740052656C6561736500322E322EE3
:10252C00300000007069636F320000007069636FE7
:10253C005F73656E736F72735F72616D0000000084
:10254C004465632031392032303235000600525058
:10255C00D3F075422025002006005250BBFF3CB63C
:10256C00302500200D0A000055415254207374642C
:10257C00696E000055415254207374646F75740079
:10258C005541525420737464696E202F2073746407
:10259C006F7574000600525053B4F4A18C250020C2
:1025AC000800525012000000080052509210000017
:1025BC004E6F20444D41206368616E6E656C7320D4
:1025CC0061726520617661696C61626C6500000006
:1025DC005825002024010020642500203001002013
:1025EC003C010020B4250020AC250020A0250020B3
:1025FC0010000000000000000000010000000000BE
:10260C0000000000000002000000000000000000BC
:10261C000000030000000000000000000000FF00AC
:10262C000000000001B5486801318E460047704635
:10263C0009380149884701BDFD0F0020000000004A
:10264C00000000000000000000000000000000007E
:10265C00B8260020CD200020D52100201D210020EF
:10266C00E521002000000000000100000000000037
:10267C0000000000551C0020891C0020F91C0020C3
:10268C00C11C0020D91B0020F51C0020C51B0020FC
:10269C00C510002049140020251C0020E11C00203E
:0C26AC00A51C0020250B00204D0B002079
:04000005200001795D
:00000001FF
