:020000041000EA
:10000000002008205D0100101B0100101D010010E0
:100010001101001011010010110100101101001058
:100020001901001019010010190100101F01001022
:10003000110100101901001021010010230100100E
:100040001101001011010010110100101101001028
:100050001101001011010010110100101101001018
:100060001101001011010010110100101101001008
:1000700011010010110100101101001011010010F8
:1000800011010010110100101101001011010010E8
:1000900011010010110100101101001011010010D8
:1000A00011010010110100101101001011010010C8
:1000B00011010010110100101101001011010010B8
:1000C00011010010110100101101001011010010A8
:1000D0001101001011010010110100101101001098
:1000E0001101001011010010110100101101001088
:1000F0001101001011010010110100101101001078
:100100001101001011010010110100101101001067
:10011000EFF30580103800BE00BE00BE00BE00BE7A
:1001200000BE00BEF2EB8871681B0010901B00102F
:10013000A001001090A31AE7D3DEFFFF42012110B7
:10014000FF010000FC1B0000793512AB4FF00000EE
:100150001E49086006C881F3088810474FF05040D8
:10016000006810B14FF00000F2E70DA40ECC00299A
:1001700002D000F012F8F9E71549164A002000E015
:1001800001C19142FCD11449884714498847144958
:10019000884700BEFDE701C901C29A42FBD3704700
:1001A000901B001010010020B4020020341D00102C
:1001B0000000082000000820341D00100010082056
:1001C00000100820000000007047000008ED00E06B
:1001D000B4020020E0040020F513001035020010E6
:1001E000ED130010F8B500BF064B0749C91A891076
:1001F00048BF0131491003D0044B0BB101481847E7
:10020000704700BFB4020020B402002000000000CC
:1002100008B5054B1BB105490548AFF30080BDE8A3
:100220000840FFF7E1BF00BF000000009804002075
:100230003C1A001008B501F0D1F9192000F03AF885
:1002400019244FF0010545EC4440122000F032F82B
:1002500012234FF0000040EC44304FF05041224652
:100260002C464B685B0304D544EC40204B685B0391
:10027000FAD440EC4020F4E710B44FF480740C4BF7
:1002800053F8202003EB8003C00082F0400200F10D
:10029000804003F5805C02F0C00200F5203003F5D9
:1002A0004053CCF8002041601C605DF8044B70475F
:1002B0000480034030B44FF0000343EC440043ECAF
:1002C000400005254FF480740B4BC20053F82010FA
:1002D00003EB800081F0400102F1804303F52033FD
:1002E00001F0C00200F5805100F540500A605D60E9
:1002F000046030BC704700BF048003400FB400B5F9
:1003000083B0049C074801F0B1F93CB105A920462F
:10031000019101F051F8044801F0A8F9012001F021
:1003200063F800BF3C1A00104C1A001070B58646E6
:10033000EFF3108572B6124CD4E8CF6F0120002E77
:10034000FAD1C4E8460F002EF6D1BFF35F8F4FF00D
:10035000010CC80801F007030CFA03F31EF800C0F3
:100360001CEA030608D14CEA030C0EF800C0C4E8EE
:100370008F6F85F3108870BD1046FFF7BFFF00BF79
:1003800043040020044A1078431CDBB2182B28BF1A
:1003900010231370704700BF300200204FF0E0229E
:1003A000936843F000539360704700BF0021044BF3
:1003B00003F12002C3E88F1F01339342FAD1704743
:1003C000380400204FF0E0234FF08032C3F80024BF
:1003D000C3F80424C3F80824C3F80C24C3F8102479
:1003E000C3F81424C3F81824C3F81C24C3F8202429
:1003F000C3F82424C3F82824C3F82C24C3F83024D9
:1004000062B67047012300F01F029340400941B1DA
:10041000800000F1604000F56140C0F88031036069
:100420007047024A203042F82030704700E100E077
:10043000F8B50D46EFF3108772B6124ED6E8CF2FFF
:100440000123002AFAD1C6E8423F002AF6D1BFF3C1
:100450005F8F0D4B00F110049B680C4A53F8243059
:10046000934203D0994201D000F088FE064B9B686E
:1004700043F82450BFF35F8F0023C6E88F3F87F314
:100480001088F8BD4104002000ED00E011010010CB
:100490002DE9F04F83B0EFF3108A72B6744ED6E8B0
:1004A000CF2F0123002AFAD1C6E8423F002AF6D115
:1004B000BFF35F8F6F4B00F110089B686E4A53F8D3
:1004C000285095423FD08D420C464AD06B4FEB1BD3
:1004D0002F2B38D801214FEA50194FEA890909F129
:1004E000604909F5614900F01F0301FA03F0D9F8EA
:1004F0000030C9F8800000EA030BBFF35F8FEFF311
:100500000581C9B279B3884577D125F0010EDEF8AF
:1005100008C0644505D17CE0D3F808C0644532D0FA
:100520009E469EF9062002EB4203002A07EB830356
:10053000F2DA644500F08180BBF1000F20D0C9F8E9
:100540008001C9F800004B4B9B6843F82850BFF36B
:100550005F8F0023C6E88F3F8AF3108803B0BDE8A1
:10056000F08F1546EFE725F0010EDEF808C0644570
:10057000D7D19EF906407346002C08DA154666E08E
:10058000C9F88000DFE793F90640002C56DB04EB46
:10059000440C07EB8C0CDCF8082061009A609CF896
:1005A0000720DA719CF90620002A9A715DDBBCF8FD
:1005B0000420520504D502F5FF1202F5FF521F3246
:1005C000521502F1020C4FF0040E0C2212FB04E251
:1005D00002EB4C026FF0070C3A44ACEB030C6244A4
:1005E000C2F34A0242F460429A80254B21441A78B1
:1005F00007EB81011C708A719EE7CDE9000100F0D4
:10060000BDFDDDE9000125F0010EDEF808C06445FE
:1006100087D19EF906407346002CB8DA194A1A4C65
:10062000D21A083AC2F30A316FEA01516FEA115146
:1006300044EA5202DA8099807EE773460029EDD1C0
:10064000FF228EF806204BF60152AEF804200C4C27
:100650004AF6AA2294F800C01946C91B49414A43E8
:10066000120D83F806C0227066E74BF60152BBE715
:100670004104002000ED00E01101001034020020D0
:10068000DC0400206E02002000F8FFFFF0B5EFF35D
:100690000585EDB2EFF3108C72B62649D1E8CF2F65
:1006A0000123002AFAD1C1E8423F002AF6D1BFF364
:1006B0005F8F214E40F0010EB4684AF6AA2354F829
:1006C00025701E4A0446A41A644163431B0D7745F6
:1006D0005BB21BD092F906409C421CD092F91240AA
:1006E0009C4223D092F91E409C4221D092F92A408C
:1006F0009C4208BF03240FD0114A002415781370C0
:100700008571C1E88F4F8CF31088F0BDB2680D4C35
:1007100042F82540F0E7002404EB440402EB840295
:10072000FF2494714BF601549480E5E70124F3E72C
:100730000224F1E74104002000ED00E03402002033
:10074000DC04002011010010014B0B4403607047D2
:10075000380400202DE9F041134D144FBD4221D241
:100760004FF0FF082C460CE0FFF70CFE0146284630
:10077000FFF7EAFFA6F80480BFF35F8FBC4211D2F7
:100780002546236826460834002BEDD1FFF7FAFDF5
:1007900001462846FFF7D8FF86F80480BFF35F8F35
:1007A000BC42EDD3BDE8F081AC020020B4020020D1
:1007B0000D4B1A68EFF3108172B6D2E8CFCF01204B
:1007C000BCF1000FF9D1C2E84C0FBCF1000FF4D11D
:1007D000BFF35F8F00221B68C3E88F2F81F310885F
:1007E00040BF002000217047D0040020000000001E
:1007F0002DE9F04F2DED028B85B0EFF30583DBB2D1
:10080000103B9A0818BF01224FF0010103F00300CA
:1008100008BFAD4DAD4B18BFAD4D00EB820253F894
:10082000226001FA00FB05F541539FEDA58B019075
:10083000C3F804B02EE0B388190440F19280B37974
:10084000002B40F0DC80B6F90820002AC0F21B81A2
:10085000736902EB420203EBC203D3E90247B7F12B
:10086000FF3F08BFB4F1FF3F0DD0019B05EB8301B3
:10087000AB6A0A69D21AE31A934203D32B6A13EACA
:100880000B0F00D10C61284600F0BAFAA042B94122
:10089000C0F2F980B6F90830C5F83CB0002B0093DF
:1008A000C9DBD6F8149003EB430A284609EBCA07C4
:1008B000D7E9024800F0A4FAA04271EB0801BADBC4
:1008C000B8F1000FC0F2C180D7E90431814A9342E8
:1008D00000F0EB807A88B6F9080092B242EA004054
:1008E000984702460B4652EA030100F0AE80002B07
:1008F00080F2CF80B4EB020E68EB030839F93A308E
:10090000C7E902E8002B96DB716903EB430201EBB8
:10091000C202D2E90270BE4578EB000C4FEA4302F6
:1009200089DBB4462CF8083F0BE031F93230A4469D
:10093000002B0DDB03EB430001EBC0005A00D0E9B4
:100940000270BE451A4478EB000001EBC204ECDAF9
:1009500029F83A30009BACF80030B38819043FF511
:100960006EAF3369EFF3108272B6D3E8CF0F012177
:100970000028FAD1C3E8401F0028F6D1BFF35F8FEB
:100980004FF6FF74B0880023316900B2B480C1E82B
:100990008F3F82F310889842FFF651AF0746A94671
:1009A000746906F1080807EB470E04EBCE03D3E9A0
:1009B0000205B6F90830C446002B13DBB246009797
:1009C00004E034F936309446002B09DB03EB430690
:1009D00004EBC602D2E90271B84275EB0101F0DA0C
:1009E0005646009FACF8007034F93E7024F83E3053
:1009F000002FD8DAB3794D46002B3FF424AF002303
:100A0000B371B6F9083006F1080E5A1C3BD01A46ED
:100A1000746903E08646591C3FF417AF03EB4301AA
:100A200004EBC10047889C463F0434F93130F1D5CE
:100A3000944580ED028BEED0AEF80030328924F878
:100A400031206246A6F808C0E5E739F83A3033812C
:100A50003369EFF3108272B6D3E8CF0F012100287B
:100A6000FAD1C3E8401F0028F6D1BFF35F8F738827
:100A7000316929F83A30009B73800023C1E88F3F29
:100A800082F31088D7E640BF05B0BDEC028BBDE80D
:100A9000F08F2846CDE9022300F0B2F9029A039BB9
:100AA00010EB020E43EB010828E708460B690291A0
:100AB00098470028C9D00299D1E9002313E700BF65
:100AC000FFFFFFFFFFFFFFFF00000B40B00400200F
:100AD00000800B40F10700102DE9F84F364C2569D6
:100AE0002DB1BDE8F84F0A213448FFF72DBEDFF8DD
:100AF000E4800321404600F071F90326C4F80C801D
:100B0000FFF740FC4FF0504C2D4B267003442361FF
:100B1000DCF800300F216370636961801D834FF042
:100B20000405A3F878504FF00505A3F890504FF056
:100B30000605A3F8A8504FF007050E2108274FF629
:100B4000FF724FF00A0EA3F8C0504FF001094FF0AA
:100B50000C0C4FF0020B4FF0090A0D204FF00B0563
:100B6000A3F868111749A280A3F808E1A160A3F8CF
:100B700048B0A3F8F0A0A3F82051A3F838C1A3F817
:100B80005001A3F83090A3F86060A3F8D8701A80E1
:100B90000D4B3046C8F820700C49DC60FFF748FC6C
:100BA00049463046FFF72EFC094B0A211F640348D3
:100BB000BDE8F84FFFF7C8BD7C020020D00400203C
:100BC00038040020FFFF1000B0040020F1070010DF
:100BD00000200B4000000B400146F0B50069EFF328
:100BE000108772B6D0E8CF5F0124002DFAD1C0E89B
:100BF000454F002DF6D1BFF35F8FB1F902E04C698C
:100C00000EEB4E0CBEF1000F4FEACC0504EBCC0C02
:100C10003DDB605B002648800869C0E88F6F87F382
:100C20001088BCF80200CCE902230130C0F30E00AA
:100C3000012838BF0120059BACF80200CCF8103029
:100C4000069B40EA0E40CCF814300B69EFF310829B
:100C500072B6D3E8CFCF0127BCF1000FF9D1C3E8BA
:100C60004C7FBCF1000FF4D1BFF35F8F8B886353CF
:100C7000A1F804E00B69C3E88F6F82F310880122AA
:100C8000CB68097803F501538A405A60F0BD002310
:100C90000A69C2E88F3F87F310884FF0FF30F0BD3C
:100CA00003464089B0EB214F37DD58690A1402EB47
:100CB000420210B500EBC2001C69EFF3108C72B653
:100CC000D4E8CFEF0122BEF1000FF9D1C4E84E2FD6
:100CD000BEF1000FF4D1BFF35F8F428889B292B2A8
:100CE0008A4207D000221B69C3E88F2F8CF310883B
:100CF000002010BD42F40042428001210022186908
:100D00009971C0E88F2F8CF310881C78DA68084638
:100D100002F50153A140596010BD0020704700BF8B
:100D20002DE9F04306460D4683B0EFF30584E4B2A7
:100D30003CB1274B586AA8421CD2002003B0BDE842
:100D4000F083244FD7F80C9097F80080484600F0C5
:100D500057F808F1040859F828301B1A301A65EBC7
:100D60000101984271F1000111DB20BF184B586A54
:100D7000A842E2D39B6AB34203D3012003B0BDE88B
:100D8000F083401B18BF012003B0BDE8F08300F0E2
:100D90003FF8864265EB01010029CADB0E4B38465D
:100DA000CDE9003432462B46FFF716FF011EC0DDA9
:100DB000074B5A6AAA4208D39B6AB34203D3054839
:100DC000FFF76EFFB5E7AA42F9D120BFF7E700BFF2
:100DD00000000B407C020020B107001010B4054B4E
:100DE000054C064AA04214BF1846581C5DF8044B37
:100DF000FFF79CBA6004002000800B40501A0010DE
:100E00000346416A0A46986A596A8A42FAD170478B
:100E1000034B596A0A46986A596A9142FAD1704757
:100E200000000B4030B4154A536A9C46946A536ADA
:100E30006345FAD1021959414FF0000528BF012539
:100E40000E4B5B6AB5B15A1C08BF1A4608D04FF06A
:100E5000FF310A460948436A8B42FCD38B4207D1D3
:100E6000064902E0486A984202D1886A9042F9D362
:100E700030BC70479942EDD8F0E700BF00000B404E
:100E8000F8B5054606200E4600F0E2F8002842D0EC
:100E9000354A364895420CBF4FF000624FF08062F1
:100EA000334B344902601A608C6832EA0404FBD187
:100EB0002D4B4FF48071EB1AB3FA83F32E4A5B0982
:100EC000062022F8131000F0C3F8C300B3FBF6F3BA
:100ED0000133DA0920D1402601216962AA622F6B11
:100EE000FB0722D42B46002253F82C1F062003F5C3
:100EF000805422602F6300F0ABF8EB6A40F20132BD
:100F000083F0700303F07E03236080000323B0FBB3
:100F1000F6F02A63AB64F8BD4FF6FE718A421BD926
:100F200022464FF6FF71154ED7E740F2013205F524
:100F300040531A636B6AAC6A062004EB831400F01A
:100F400087F80F4BA402A3FB0023DB0A0021B4FBAC
:100F5000F3F0FFF767FFC5E7C3F34503114603EB63
:100F600082161A46B9E700BF008007400020024001
:100F70000030024000000240D4040020C0FF3F00C7
:100F8000757B2B8F00EB400C4FEA8C0C0CF1804CE6
:100F90000CF5803CF0B51646DCF80420051FB2F5D0
:100FA000803F38BF4FF48032EDB238BFCCF8042018
:100FB000012D0CF5405228D94FF400641460234CE5
:100FC00054F82020B2B9DCF80020012D82EA461244
:100FD00002F0E0020CF58056326028D94FF400612F
:100FE00044F820304FF480330CF500521160CCF8F7
:100FF0000430F0BD6769B7FBF2FE0EF1010E0EEB97
:101000004E0EBEF1030EFCD2DDE70129D4D103243C
:101010001460DCF80820D207FBD5DCF800200B4C6C
:1010200082EA461202F0E0020CF58056326001229C
:10103000DCF800504D4005F00305356002FA01F17F
:10104000DCF808200A42FBD0C8E700BF6404002097
:10105000014B53F8200070476404002070B4039DD6
:1010600004682D0345EA03451B4B002CB3FBF1F349
:10107000B2FBF3F61FDB194A194B90420CBF4FF439
:1010800000424FF48042174C1A6003F580531A60F7
:10109000A36832EA0303FBD1212200F54053043355
:1010A000016086601A600268002AFCDA0822C560C6
:1010B0001A6070BC7047036803F03F038B42DAD1BB
:1010C0008368C3F30B03B342D5D1C36803F4EE23A3
:1010D000AB42D0D1EDE700BF001BB7000080054058
:1010E0000020024000000240012300EB400080008D
:1010F00000F1804000F5841041600360704700BF3C
:101100000023DB8A002242E800F2520201D41021BF
:1011100018470421184700BF034AD2F82838002B8B
:10112000FBD0BFF35F8F704700000E400021044BDF
:10113000044ABFF35F8F43F8041B9342F9D1704711
:101140000C080E402C080E4010B44FF48D704FF474
:101150002A64064A064B07491460D0601960536838
:10116000002BFCDA5DF8044B704700BF00800440A0
:1011700000A0044000B0FA00704700BF08B5014865
:10118000FFF7BCF8741A001038B5054C054DAC4299
:1011900004D254F8043B9847AC42FAD338BD00BFA0
:1011A000F8190010381A001010B40748074C084B03
:1011B000084A094904601A608B6832EA0303FBD1CC
:1011C0005DF8044B704700BF002002407F3BEFEF0B
:1011D00000300240F6FFF30300000240044BDB6CDA
:1011E000B3F5004F03D14FF48022024BDA6470470D
:1011F00000001150002011504FF0E022044BD2F8B3
:10120000881D0B43C2F8883D10EE3004704700BFC4
:10121000030330006FF06041044B054A1960936886
:10122000DB4333F06043FAD1704700BF0030024027
:101230000000024010B545F25320FFF761FFBDE802
:10124000104003460420184710B545F25320FFF71D
:1012500057FFBDE81040034601201847FFF7A6B826
:1012600070B51749174C184E641AA510442D2A461C
:1012700028BF44223046920000F010FBB4F5867F70
:101280001AD86B1C442BC5F14401104A88BF0121B8
:1012900010D8B4F5867F0DD03319480803EBC00091
:1012A0001A605A6008338342FAD1CB0704D521F083
:1012B00001010D4446F82520054B9E6070BD00BF1E
:1012C00000000010100100100000002011010010AB
:1012D00000ED00E00023F0B52B4C83B0C4F884305F
:1012E000FFF732FF0122294BDA63636C012BFCD13B
:1012F0000321264A244B11639D6B012DFCD105234C
:1013000002271E4600242946214A22480097FFF75B
:10131000A5FE29463346204A20480096FFF79EFE48
:101320003946224604201E4BFFF72CFE2946224652
:1013300030461C4BFFF726FE2246082021461A4B5A
:10134000FFF720FE224609202146174BFFF71AFE21
:10135000224606202146134BFFF714FE114B22466E
:1013600007202146FFF70EFE0420FFF771FE0F4B0A
:10137000A3FB0035AD0CE0B229460134FFF7B4FE03
:10138000062CF8D103B0F0BD000001400030014050
:10139000002F685900000540008C864700800540FA
:1013A000001BB70080D1F008006CDC0283DE1B4319
:1013B00000B9704700F018B910B5094B84B01C682B
:1013C0004CB1034600914FF0FF3203A90548A047F6
:1013D000012004B010BD00F049F9204604B010BD52
:1013E00094040020B113001000BEFDE708B5FFF71C
:1013F000FBFF00BF38B5064D064CFFF7C5FEAC42FB
:1014000004D254F8043B9847AC42FAD338BD00BF2D
:101410003C1A0010381A0010036808461146184795
:10142000437D2DE9F047074689461646002B40D0FC
:10143000002A39DD002109F1FF3515F8012F037D60
:101440000A2A0846DFF8788001F101040ED0A6428E
:101450001BD02B782146A3F10D03B3FA83F315F8C3
:10146000012F5B090A2A01F10104F0D1002BEED112
:101470008842A1EB0001484418DB022140463B684A
:101480009847A64207D02046E3E7864203DD311A9B
:101490003B6848449847B14419F8013CA3F10D0357
:1014A000B3FA83F35B093B75BDE8F0873B68984767
:1014B000E3E748463B681146BDE8F047184700BFE0
:1014C000141B00102DE9F04782B00D469246994654
:1014D0000746FFF79DFC4FF0FF366FF000442F4AA0
:1014E000821841F10003964274EB03013CBF32467F
:1014F00023462B4800F07CFA6B1C804603D138460B
:1015000000F042FA0546274B274E1C68274BB9F1DD
:10151000000F18BF1E46B4B1BAF1000F1AD1DFF8A0
:10152000909001E0246974B12368002BFAD0D9F8B7
:1015300000300BB1A342F5D120462A463946B047C8
:101540002469002CF0D1B8F1000F1FD1284602B059
:10155000BDE8F0874FF00A0ADFF8549002E02469F2
:10156000002CF0D02368002BF9D0D9F800300BB153
:10157000A342F4D120462A463946B04720460122EC
:101580000DF107018DF807A0B047E8E7044800F027
:101590002BFA284602B0BDE8F08700BF40420F009A
:1015A000AC0200208C04002019140010211400103B
:1015B00090040020084A136823B90AE003F11002DE
:1015C0001B6933B19842F9D129B9036913600161EC
:1015D000704701B1106070478C04002008B500F01E
:1015E00033F9012008BD00BFF0B583B006468DF881
:1015F0000700FFF70DFC4FF0FF356FF00044174A6E
:10160000821841F10003954274EB03013CBF23466D
:101610002A46134800F0ECF9124B07461C689CB1AF
:10162000114D01E024697CB12368002BFAD02B68AE
:101630000BB1A342F6D1204601220DF10701FFF7BD
:10164000EFFE2469002CEFD117B9304603B0F0BD8E
:10165000034800F0C9F9304603B0F0BD40420F0026
:10166000AC0200208C0400209004002038B5044611
:1016700000F08AF9012305461A4620462946FFF75D
:1016800021FF084B1C682CB163682BB19847246973
:10169000002CF9D1284638BD2469002CF4D1284605
:1016A00038BD00BF8C040020B1F1000C1DDD0F4AD5
:1016B0000F4B126830B5D31AB3FA83F30D240D4DD6
:1016C0005B09411E35F913E08C4411F8010F864582
:1016D00006D093699B06FCD461451060F5D130BDFE
:1016E00093699D06FCD41460F3E77047D80400208A
:1016F00000800740D4040020224BB1F1000C10B44C
:101700001C682EDD034600201F4A591E126893698B
:10171000DB0617D401309369DB06FCD413688445DB
:1017200001F8013FF3D14CB150211346916353F8B6
:10173000342F02F0380203F580531A6060465DF8DA
:10174000044B70474CB150211346916353F8342F2A
:1017500002F0380203F580531A6078B15DF8044B4B
:1017600070475CB1084B50211A681346916353F8D7
:10177000342F02F0380203F580531A606FF0020034
:10178000ECE700BF58040020D8040020054B1B687C
:1017900033B10021044A0548126800689163184774
:1017A000704700BF58040020D80400205C040020CB
:1017B000024B1A6893691B07FCD47047D8040020B9
:1017C000F8B51C4F1C4D3A681C4EAA420CBF22258E
:1017D00021250446D6F800C018B1BCF1000F10D086
:1017E000F8BDBCF1000FFBD0014690632846FEF720
:1017F00009FE28461249FEF74BFE124B34601C606E
:10180000F8BD0B460F4A0E49306028461360FEF7BC
:101810000FFE01212846FEF7F5FD3A6850211346D8
:10182000916353F8342F02F0380203F580531A60A5
:10183000F8BD00BFD80400200080074058040020F5
:101840008D1700105C04002010B50E490E4C0F4897
:101850000F4A104B007821600020022112781B787B
:10186000FEF70AFD02210120FEF706FD4FF4E131EB
:101870002068FFF705FBBDE8104001210648FFF78F
:1018800099BE00BF00000740D80400208C1B001048
:10189000881B0010841B001094020020844641EA3B
:1018A000000313F0030349D1403A23D30B680360CC
:1018B0004B6843608B688360CB68C3600B690361CE
:1018C0004B6943618B698361CB69C3610B6A0362B6
:1018D0004B6A43628B6A8362CB6AC3620B6B03639E
:1018E0004B6B43638B6B8363CB6BC3634030403183
:1018F000403ADBD230320BD30B6803604B68436055
:101900008B688360CB68C36010301031103AF3D21B
:101910000C3205D351F8043B40F8043B043AF9D2A9
:10192000043208D0D2071CBF11F8013B00F8013B7C
:1019300001D30B8803806046704700BF082A13D389
:101940008B07B1D010F00303AED0C3F10403D21A59
:10195000DB071CBF11F8013B00F8013BA4D331F8B1
:10196000023B20F8023B9FE7043AD9D3013A11F831
:10197000013B00F8013BF9D20B7803704B784370C0
:101980008B7883706046704720F0030110F00300ED
:10199000C0F1000051F8043B00F1040C4FEACC0CFC
:1019A0006FF000021CBF22FA0CF213434FF0010C3F
:1019B0004CEA0C2C4CEA0C4CA3EB0C0222EA03027E
:1019C00012EACC1204BF51F8043B0430F4D0C2F147
:1019D000000102EA0102B2FA82F2C2F11F0200EB38
:1019E000D2007047F8B500BF5FF800F0ED010020AD
:1019F0005FF800F08101002035120010A9110010DD
:101A0000DD110010D5120010151200102D1100105C
:101A10005D1200101911001055070010611200101E
:101A2000D90A00107911001049120010F9110010A4
:0C1A30009D030010C503001011020010FF
:101A3C000A2A2A2A2050414E4943202A2A2A0A00DF
:101A4C000A000000486172647761726520616C6104
:101A5C00726D20256420616C726561647920636C01
:101A6C0061696D6564000000486172642061737384
:101A7C006572740052656C6561736500626F6F749A
:101A8C00325F77323571303830000000322E322E12
:101A9C00300000007069636F3200000073636C6B80
:101AAC005F74657374000000446563203139203223
:101ABC003032350006005250D3F07542801A0010B7
:101ACC0006005250E182887F881A0010060052509E
:101ADC00ABB36053981A001006005250BBFF3CB6D3
:101AEC00A01A001006005250861C0302A81A0010FF
:101AFC00060052505422A29DB41A001005005250F8
:101B0C00DE65F468481D00100D0A00005541525462
:101B1C0020737464696E00005541525420737464D0
:101B2C006F7574005541525420737464696E202F84
:101B3C00207374646F7574000600525053B4F4A192
:101B4C00301B0010080052501200000008005250C8
:041B5C0092100000E3
:081B60003CFDFF7F01000000C5
:101B6800C01A0010CC1A0010D81A0010E41A00107D
:101B7800F01A0010FC1A0010081B0010581B001067
:081B8800501B0010441B00106B
:101B90004FF050412DE9F0410027044616461D46FE
:101BA000D1F8008009E02368C3E88F7F8CF31088A8
:101BB0003046294600F078F8F0B92168EFF3108C30
:101BC00072B6D1E8CF2F0123002AFAD1C1E8423FF3
:101BD000002AF6D1BFF35F8F94F904E0BEF1000F45
:101BE000E1DA0023226884F80480C2E88F3F8CF396
:101BF00010880120BDE8F0810020BDE8F08100BF21
:101C000030B501460468EFF3108C72B6D4E8CFEF1C
:101C10000125BEF1000FF9D1C4E84E5FBEF1000FFF
:101C2000F4D1BFF35F8F90F90440002C11DB002149
:101C30000568C5E88F1F8CF310884FF0504C9CF955
:101C400000C0A44501D1084630BDBDE83040FFF7D3
:101C50009FBF4FF05040006800230A680871C2E837
:101C60008F3F8CF31088012030BD00BF0368EFF375
:101C7000108272B6D3E8CFCF0121BCF1000FF9D1A9
:101C8000C3E84C1FBCF1000FF4D1BFF35F8F4FF0DE
:101C9000FF0C0023016880F804C0C1E88F3F82F385
:101CA000108840BF704700BF5FF800F0210D0010A2
:101CB0001000000000000000000001000000000013
:101CC0000000000000000200000000000000000012
:101CD0000000030000000000000000000000FF0002
:101CE0000000000001B5486801318E46004770468B
:101CF00009380149884701BD8D0600100000000029
:101D000000000000000000000000000000000000D3
:101D1000B8020020A9160010B1170010F916001023
:101D2000C1170010000000000001000000000000CA
:041D300000000000AF
:101D3400D3DEFFFFFE010000FF01000004E4FFFF0B
:041D4400793512AB30
:040000051000014D99
:00000001FF
