:020000041000EA
:10000000002008205D0100101B0100101D010010E0
:100010001101001011010010110100101101001058
:100020001901001019010010190100101F01001022
:10003000110100101901001021010010230100100E
:100040001101001011010010110100101101001028
:100050001101001011010010110100101101001018
:100060001101001011010010110100101101001008
:1000700011010010110100101101001011010010F8
:1000800011010010110100101101001011010010E8
:1000900011010010110100101101001011010010D8
:1000A00011010010110100101101001011010010C8
:1000B00011010010110100101101001011010010B8
:1000C00011010010110100101101001011010010A8
:1000D0001101001011010010110100101101001098
:1000E0001101001011010010110100101101001088
:1000F0001101001011010010110100101101001078
:100100001101001011010010110100101101001067
:10011000EFF30580103800BE00BE00BE00BE00BE7A
:1001200000BE00BEF2EB8871A4310010C031001097
:10013000A001001090A31AE7D3DEFFFF42012110B7
:10014000FF0100003C350000793512AB4FF0000094
:100150001E49086006C881F3088810474FF05040D8
:10016000006810B14FF00000F2E70DA40ECC00299A
:1001700002D000F012F8F9E71549164A002000E015
:1001800001C19142FCD11449884714498847144958
:10019000884700BEFDE701C901C29A42FBD3704700
:1001A000C031001010010020C4050020743600107A
:1001B00000000820000008207436001000100820FD
:1001C00000100820000000007047000008ED00E06B
:1001D000C4050020D80700203D270010350200107C
:1001E00001270010F8B500BF064B0749C91A89104E
:1001F00048BF0131491003D0044B0BB101481847E7
:10020000704700BFC4050020C405002000000000A6
:1002100008B5054B1BB105490548AFF30080BDE8A3
:100220000840FFF7E1BF00BF000000009C0700206E
:100230005C2B001010B5192000F032F819234FF094
:10024000010242EC443019244FF0010343EC4040DA
:10025000642000F0C5FC4FF0000343EC40406420F4
:1002600000F0BEFCEFE700000C4B03EB800253F8FC
:10027000203083F0400303F0C00302F5805CCCF82B
:100280000030C00000F1804000F52030416002F5F0
:1002900040524FF480731360704700BF04800340E6
:1002A00008B54FF0000242EC440042EC400005214A
:1002B000FFF7DAFF08BD00000FB400B583B0049C5F
:1002C000074802F03BFB3CB105A90191204602F032
:1002D00045FB044802F032FB012002F00FFA00BF98
:1002E000602B0010702B0010EFF3108072B6064BDD
:1002F000D3E8CF1F01220029FAD1C3E8412F0029FA
:10030000F6D1BFF35F8F7047530700200023034AE5
:10031000C2E88F3F80F31088704700BF530700206A
:1003200070B505460C461646FFF7DEFFE208A95CED
:1003300004F0070C012303FA0CF3194205D1DBB2D8
:100340000B43AB54FFF7E2FF70BD21463046FFF789
:10035000B3FF0000054A1078431CDBB21370172B63
:1003600002D9134610221A70704700BFA005002062
:100370004FF0E022936843F0005393607047000011
:10038000002305E0044A1A440021C2E88F1F01330C
:100390001F2BF7D9704700BF48070020064B9B680A
:1003A000103043F82010BFF35F8F00230349C1E8EA
:1003B0008F3F82F31088704700ED00E05107002066
:1003C0000048704700E400E008B5FFF7F9FF00239C
:1003D00004E04FF0803240F8042B01330C2BF8D9A5
:1003E00062B608BD3AB1064B00F1600243F8221034
:1003F00043F8201070472030014B43F8201070471D
:1004000000E100E008B50A4600F01F030121994011
:100410004009FFF7E7FF08BD024B9B68103053F817
:100420002000704700ED00E070B505460C46EFF384
:10043000108672B60F4BD3E8CF1F01220029FAD1E4
:10044000C3E8412F0029F6D1BFF35F8FFFF7E4FF28
:10045000094B984201D0A04205D132462146284698
:10046000FFF79CFF70BD054B054AED21054802F0E2
:100470004BF900BF51070020110100100C2C001097
:10048000442C00108C2B0010014B0B440360704770
:100490004807002010B50446FFF75CFF01462046E0
:1004A000FFF7F2FFFF232371BFF35F8F10BD10B57D
:1004B0000446FFF74FFF01462046FFF7E5FFFF2305
:1004C000237100236371BFF35F8F10BD10B50D4C16
:1004D00009E00D4B0D4A1A210D4802F015F920468E
:1004E000FFF7D8FF08340B4B9C4209D22368002B3E
:1004F000F5D0012BEDD12046FFF7D9FF0834F2E704
:1005000010BD00BFBC050020602C0010742D001031
:10051000802C0010C40500200246EFF30583DBB2F7
:10052000103B990804D0034803F00303136070479D
:100530000148F9E700800B4000000B4010B4846ACA
:10054000A2EB040C0B1D50F823301B1B9C4504D35D
:10055000046A01238B401C4202D1043140F821205F
:100560005DF8044B704741EA004070470D4B1A6834
:10057000EFF3108172B6D2E8CFCF0120BCF1000FAB
:10058000F9D1C2E84C0FBCF1000FF4D1BFF35F8F7B
:100590001A680023C2E88F3F81F3108840BF002013
:1005A00000217047D40700202DE9F04F85B003A843
:1005B000FFF7B2FFA94B984214BF00230123039910
:1005C00001EB8303A64A52F823402378994206D1CF
:1005D000054601228A4000F541535A6014E1A14BBF
:1005E000A14A9221A14802F08FF8D4F8149006EBAA
:1005F00046074FEAC70A09EBC707D7F808B0D7F88C
:100600000C80284600F0B6FBB0EB0B0061EB080352
:10061000002BC0F20281B8F1000F60DB3B691A4683
:100620000093934B9A4230D0798889B2B4F908008C
:10063000FFF799FF7969009B984700900191009915
:10064000019A51EA02034AD01346002A29DABBEB89
:10065000010268EB0308BA60C7F80C8039F90A3068
:10066000002BC0F2DA80D4F814E003EB43010EEB68
:10067000C1018868C968101A68EB01010029C0F23D
:10068000CC80A4462CF8083F15E07A6913690092E3
:100690001046984718B3009A136800935368019363
:1006A000CDE7284600F066FB009B1A18019B43EB40
:1006B0000108D0E79C46BCF90070002F0ADB07EB6D
:1006C00047030EEBC3039868D968101A68EB010161
:1006D0000029EFDA29F80A70ACF800609DE039F9DA
:1006E0000A3023812369EFF3108272B6D3E8CF0F6B
:1006F00001210028FAD1C3E8401F0028F6D1BFF33A
:100700005F8FB4F9023029F80A306680216900232E
:10071000C1E88F3F82F310887FE02369EFF31082F6
:1007200072B6D3E8CF0F01210028FAD1C3E8401FE9
:100730000028F6D1BFF35F8FB4F804800FFA88F871
:100740004FF6FF73A38021690023C1E88F3F82F336
:10075000108815E01E46B6F90020002A0ADB02EBDD
:1007600042030CEBC3039868D968381A6EEB010199
:100770000029EFDAA6F800803CF909802CF809205E
:10078000B8F1000F4EDBD4F814C008EB48034FEA71
:10079000C3090CEBC3039F68D3F80CE004F108060F
:1007A000D9E70023A37104F1080CB4F9083010E074
:1007B0004FF0FF384FF0FF39C0E90289B4F9080063
:1007C000984205D0ACF80020B4F90800C853238142
:1007D0001346B3F1FF3F28D0616903EB4302D70012
:1007E00001EBC20031F93220468816F4004FDFD108
:1007F0008446EDE7284600F0BDFA3F1A66EB010695
:10080000012F76F1000635DA039A01239340EB635A
:10081000B4F90860002EBFF6E8AEA38813F4004FC9
:100820003FF47BAFA379002BBBD1B4F90830002B88
:1008300020DB626903EB430302EBC3039F68DE68BE
:10084000B6F1FF3F08BFB7F1FF3FD3D03A4633467A
:1008500003992846FFF772FECCE700BF00800B40EB
:10086000B4070020882D0010BC2E0010B42D0010FD
:10087000A905001040BF05B0BDE8F08FF8B50446EB
:100880000D4611460A4B984210D000262E440127EF
:1008900007FA05F525623046FFF7C6FD39463046B2
:1008A000FFF7B0FD04F501542560F8BD0426EDE71F
:1008B00000800B40F8B504460E4617461D46C16041
:1008C000FFF748FD164B034423612770ABB26381E9
:1008D0004FF05042127862704FF6FF722281A28070
:1008E000013B63804FF0000C08E00CF1FF300CEB93
:1008F0004C0E636923F83E000CF1010CAC45F4D3B7
:10090000084B9E4214BF0023012307EB8303064AD2
:1009100042F82340054A39463046FFF7AFFFF8BD9D
:100920004807002000800B40B4070020A9050010F4
:1009300008B5054B1B690BB1034808BD034B044ABE
:100940006521044801F0E0FEA4050020302E0010CF
:10095000A42E0010B42D0010F8B504469E46006980
:10096000EFF3108172B6D0E8CF6F0125002EFAD1D7
:10097000C0E8465F002EF6D1BFF35F8FB4F9025096
:10098000666905EB4500C70006EBC000002D03DBE0
:1009900036F907C0A4F802C04FF0000C2369C3E881
:1009A0008FCF81F31088654533DB06990161079984
:1009B00041618260C0F80CE0418889B20131C1F325
:1009C0000E0101B9012141802846FFF7CCFD2369C2
:1009D000EFF3108272B6D3E8CFCF0121BCF1000F44
:1009E000F9D1C3E84C1FBCF1000FF4D1BFF35F8F06
:1009F000A388F353A58021690023C1E88F3F82F3C8
:100A00001088E368217801228A4003F501535A6077
:100A1000F8BD4FF0FF30FBE770B582B006461546D3
:100A20001C469DF8203033B900F0BAF9854264EBDA
:100A3000010100290ADB079B0193069B00932A46CC
:100A400023463046FFF788FF02B070BD0020FBE769
:100A5000F0B585B005460C4616461F46FFF768FF01
:100A60009DF828300293019700962A462346FFF707
:100A7000D3FF05B0F0BD03464089B0EB214F31DD17
:100A800010B50A14586902EB420200EBC2001A6961
:100A9000EFF3108C72B6D2E8CF4F5FF0010E002C4E
:100AA000F9D1C2E844EF002CF5D1BFF35F8F428843
:100AB00092B289B28A420FD0002019690022C1E89F
:100AC0008F2F8CF3108830B1DA681B7801219940A0
:100AD00002F50153596010BD42F4004242800120EA
:100AE0009871EAE70020704710B50446FFF720FF31
:100AF0002146FFF7C0FF10BDF0B583B0EFF30583CB
:100B0000DBB2CBB905460F46861F41F1FF34B04238
:100B100071EB040301D20026344600F041F9301A8B
:100B200064EB0103012873F1000308DA2846394613
:100B300000F03EF903B0F0BD1C48FFF7BDFB0023F9
:100B400000931B4A30462146FFF782FF00281EDA39
:100B5000ECE7002300E00023002BE7D1154B1A68D7
:100B6000EFF3108172B6D2E8CFCF0120BCF1000FB5
:100B7000F9D1C2E84C0FBCF1000FF4D1BFF35F8F85
:100B80001A680023C2E88F3F81F3108820BF0A4B08
:100B90005B6A9C42DFD80849896AB14203D29C4211
:100BA000D7D00123D8E70123D6E700BF542E001089
:100BB0006D050010D407002000000B4038B5044636
:100BC0000D4600F0EDF8201845EB0101002902DB8D
:100BD000FFF792FF38BD4FF0FF306FF00041F7E7AD
:100BE00008B5C30E4101091A63F100039B0043EAF3
:100BF00091738900091843F10003DB00C80043EA40
:100C00005171FFF7DBFF08BDF0B583B005460C4618
:100C1000EFF30583DBB293B13C4B5B6A8B4209D3A4
:100C20003A4A926A824208D28B4201D0012002E005
:100C3000002000E0002003B0F0BD0120FBE7FFF73B
:100C400077FEC7680678384600F094F82A1A64EBF5
:100C50000101043657F826301B1A9A4271F100013F
:100C600012DB20BF294B5B6A9C4209D8274A926A53
:100C7000AA4207D29C4201D00120DCE70020DAE73B
:100C80000020D8E70120D6E700230093204A284619
:100C90002146FFF7DDFE00280BDD1C4B5B6A9C4202
:100CA0001BD81A4A926AAA4228D29C4213D0012326
:100CB00014E0164B5B6A9C4209D8144A926AAA4215
:100CC00007D29C4201D00120B5E70020B3E7002005
:100CD000B1E70120AFE7002300E0002303B920BF04
:100CE000FFF702FF094B5B6A9C420BD8074A926AE6
:100CF000AA4209D29C4203D001209CE70123EDE7E0
:100D0000002098E7002096E7012094E700000B40C0
:100D10006D0500100048704700000B4010B50A4BED
:100D20001B6923B10A210948FFF7AEFB10BDFFF78D
:100D3000F1FF0446032100F00BF8102303222146A3
:100D40000148FFF7B7FDEDE7A4050020D407002018
:100D500010B5054A054C064BA04214BF1846581C56
:100D6000FFF7DEFA10BD00BFD42E001000800B404C
:100D7000680700200246436A906A1946536A9942FE
:100D8000FAD17047416A00E0416A9942FCD300E021
:100D9000416A994202D1816A9142F9D370470000B9
:100DA00008B50248FFF7E6FF08BD00BF00000B4092
:100DB00008B502460B460248FFF7E4FF08BD00BF36
:100DC00000000B4070B51646049D00EB400C4FEA46
:100DD0008C0C0CF1804C0CF5803CDCF80420AA4211
:100DE00001D2CCF80450A0F1040E5FFA8EFEBEF1E1
:100DF000010F28D90CF540524FF4006414601E4ACC
:100E000052F8202042B11C4C6469B4FBF2F4013466
:100E100004EB4404033CFDD2DCF8002082EA4612D5
:100E200002F0E0020CF580542260BEF1010F16D9E9
:100E30000CF500524FF400611160CCF804500E4ADA
:100E400042F8203070BD0129D4D10CF54052032462
:100E50001460DCF8082012F0010FFAD0DCE7DCF8AF
:100E600000204A4002F003022260DCF80840012220
:100E70008A401442F9D0DBE76C07002010B582B03D
:100E80004FF480340094FFF79DFF02B010BD0000C6
:100E9000014B53F8200070476C07002070B5049C8C
:100EA000344DB5FBF1FC344D1544344EB54237D8C2
:100EB000B2FBFCF5A5F1100EBEF5987F36D803F114
:100EC000FF3EBEF1060F37D804F1FF3EBEF1060F1C
:100ED00032D8BCEB121F35D8240344EA034403681C
:100EE000002B35DB264B984242D00E2301229A403C
:100EF000244B1A6003F580531A60234B9B6832EA37
:100F00000303FAD10160856000F5405204322123C9
:100F100013600368002BFCDAC4600823136070BD03
:100F20001A4B1B4A11211B4801F0EEFB1A4B184AC1
:100F30001921184801F0E8FB184B154A1C211548E7
:100F400001F0E2FB164B124A2321124801F0DCFBB0
:100F5000036803F03F038B42C4D18368C3F30B03E0
:100F6000AB42BFD1C36803F4EE23A342BAD1D6E7A4
:100F70000F23BBE7001BB70080E84BD380F8A932F2
:100F8000008005400020024000000240F82E0010C2
:100F90004C300010482F0010C82F0010E42F001014
:100FA00030300010054A00EB400302EB8303596028
:100FB00000EB400080000123135070470080104078
:100FC00008B50023DB8A002242E800F212F4800F09
:100FD00002D11021984708BD04219847FBE7000083
:100FE000034BD3F82838002BFAD0BFF35F8F70473C
:100FF00000000E40002207E0054B13449B00BFF3A6
:101000005F8F002119600132072AF5D9704700BFB0
:101010000382031008B5FFF7EDFF08BD074B4FF43F
:101020002A621A604FF48D72DA6003F50053044AA5
:101030001A60024B5B68002BFBDA704700800440AB
:1010400000B0FA0010B5044602E054F8043B98479B
:10105000014B9C42F9D310BD582B00107047000083
:1010600008B50248FFF7EEFF08BD00BF182B0010BF
:10107000064B074A1A6003F58053064A1A60064B6E
:101080009A68044B9343FAD1704700BF0020024096
:101090007F3BEFEFF6FFF30300000240054BDB6CF4
:1010A000B3F5004F00D07047034B4FF48022DA6451
:1010B000F9E700BF00001150002011504FF0E0226E
:1010C000D2F8881D034B0B43C2F8883D10EE300464
:1010D000704700BF03033000054B6FF060421A6099
:1010E000044B9B68DB4333F06043F9D1704700BF8A
:1010F000003002400000024008B545F25320FFF7DF
:101100005FFF03460420984708BD08B545F2532009
:10111000FFF756FF03460120984708BD08B5FFF7C3
:101120002FF908BD10B50C490C4A521A92101446FA
:10113000442A28BF44229200094801F03BFC04E005
:10114000084A074B43F824200134432CF8D9044AB9
:10115000054B9A6010BD00BF000000101001001088
:10116000000000201101001000ED00E038B504205F
:10117000FFF78EFE064BA3FB0035AD0C002404E008
:101180002946E0B2FFF70EFF0134052CF8DD38BD2B
:1011900083DE1B4330B583B0264B0022C3F8842086
:1011A000FFF73CFF244B0122DA63224B5B6C012BDF
:1011B000FBD1214B03221A631E4B9B6B012BFBD1EE
:1011C0000224009405231D4A01211D48FFF766FEF5
:1011D000052500952B461B4A01211B48FFF75EFEA3
:1011E0001A4B002221460420FFF748FE184C2346E4
:1011F000002201212846FFF741FE164D2B46002212
:1012000011460820FFF73AFE2B460022114609201E
:10121000FFF734FE2346002211460620FFF72EFE7C
:101220002346002211460720FFF728FEFFF79EFF06
:1012300003B030BD0000014000300140002F68596C
:1012400000000540008C864700800540001BB70069
:1012500080D1F008006CDC0286B003B451FC0804B5
:10126000CDE9020151FC0904CDE9040151EC0A0465
:10127000CDE9060103BCF047BDE800504EEC00C4C8
:10128000BDE800504EEC01C4BDE800504EEC02C475
:1012900000BD000000B5FFF7DFFF02E010FE30F4F4
:1012A000F8D441EC100443EC112400EE010410EEDC
:1012B000010480EE200451EC1004704700B5FFF7E4
:1012C000CBFF02E010FE30F4F8D441EC100443EC04
:1012D000112400EE010410EE210480EE200451ECF4
:1012E0003004704700B5FFF7B7FF02E010FE30F49E
:1012F000F8D410B541EC100443EC112451EC040473
:1013000053EC0524A0FB024C5FF0000EE0FB03CE83
:10131000E1FB02CE4CEC20440024E1FB03E444EC6E
:1013200030E480EE200451EC5004BDE810407047DA
:1013300000B5FFF791FF02E010FE30F4F8D441EC65
:10134000100443EC112451EC2104A0FB01126FEABC
:10135000820252FB100052FB12F252FB1000A0EB73
:10136000D07C53EC04245CFB13F153EC1524A1FB5B
:10137000022001FB030053EC4424A2EB000050FBCD
:101380001CF24FEA111312EB017043EBE27140EAD9
:10139000515020EA915020F0070053EC7524A0FB37
:1013A000023C53EC752400FB03CC01FB02CC53EC54
:1013B0000424ACEB824C40EA5C70A0F1010041ECEB
:1013C000400480EE200451EC7004704700B5FFF734
:1013D00043FF02E010FE30F4F8D440EC700400EE5D
:1013E000010410EE210480EE200451EC300470471B
:1013F00000B5FFF731FF02E010FE30F4F8D440EC06
:10140000600400EE010410EE210480EE200451EC93
:101410003004704700B5FFF71FFF02E010FE30F404
:10142000F8D441EC800400EE010410EE010480EEDB
:10143000400410EE1304704700B5FFF70DFF02E003
:1014400010FE30F4F8D441EC800400EE010410EEFC
:10145000010480EE400410EE3304704700B5FFF73E
:10146000FBFE02E010FE30F4F8D441EC100443EC33
:10147000112400EE010410EE3004C0F30070704738
:1014800000B5FFF7E9FE02E010FE30F4F8D443ECBB
:10149000102441EC110400EE010410EE30F48CBF76
:1014A00001200020704700BF00B5FFF7D5FE02E025
:1014B00010FE30F4F8D443EC102441EC110400EE9B
:1014C000010410EE30F42CBF01200020704700BF53
:1014D00000B5FFF7C1FE02E010FE30F4F8D441EC95
:1014E000100443EC112400EE010410EE30F42CBF84
:1014F00001200020704700BF00B5FFF7ADFE02E0FD
:1015000010FE30F4F8D441EC100443EC112400EE4A
:10151000010410EE30F48CBF01200020704700BFA2
:10152000704720B108B50A684968904708BD704700
:101530000146002008E000EB8000531C0B6013788C
:1015400003EB4003A3F130000A681378303BDBB2B1
:10155000092BF0D970472DE9F04F83B005460E46B0
:1015600093461F46DDF830A00D9CDDF838900F9BA8
:1015700013F0030F19D1A0460192C84509D202F118
:10158000010B3B4631462020A84708F101085A4686
:10159000F3E7DDF804B008E0013C02F101083B4646
:1015A00031461AF80400A8474246002CF4D10F9B9C
:1015B00013F0020F03D1104603B0BDE8F08FA2EB89
:1015C0000B034B45F7D2541C3B4631462020A8471D
:1015D0002246F4E72DE9F04385B099460C9D0D9C19
:1015E0009DF83880DDF840E0119F129E16F0020F42
:1015F00021D17FB116F0010F0CD0B8F1000F02D14C
:1016000016F00C0F06D0013F04E04FF0300C05F847
:1016100004C00134744501D21F2CF6D916F0010F15
:1016200009D0BC4207D21F2C05D84FF0300C05F86A
:1016300004C00134F2E716F0100F14D016F4806FD6
:1016400004D11CB1744522D0BC4220D00F9B102B7A
:1016500036D00F9B022B3ED01F2C0ED84FF0300CF3
:1016600005F804C001341F2C07D8B8F1000F3AD098
:101670004FF02D0C05F804C0013403960297019435
:1016800000954B46FFF767FF05B0BDE8F083B4F166
:10169000010C13D00F9B102B0ED064460F9B102B08
:1016A000D7D116F0200FD4D01F2CD2D84FF0580C21
:1016B00005F804C00134CFE7023CC7E76446C5E73C
:1016C00016F0200FEAD11F2CE8D84FF0780C05F85F
:1016D00004C00134C0E71F2CCFD84FF0620C05F8CE
:1016E00004C00134B8E716F0040F05D04FF02B0CFE
:1016F00005F804C00134C0E716F0080FBDD04FF064
:10170000200C05F804C00134B7E7F0B591B0169C81
:10171000189D1B9E0CB926F0100616F4806E16D08C
:1017200064B34FF0000E12E00CF1300C5FFA8CFC49
:101730000EF101070EF1400EEE440EF820CCB4FB82
:10174000F5FCAC421BD31F2F19D8BE466446B4FB30
:10175000F5FC05FB1C4C5FFA8CFCBCF1090FE3D9CE
:1017600016F0200F08D04127BC445FFA8CFCACF186
:101770000A0C5FFA8CFCDBE76127F5E72746069643
:101780001A9C0594199C049403959DF85C4002945E
:10179000019708AC0094FFF71DFF11B0F0BD2DE9D3
:1017A000F04F95B009900A910B929846DDF878B009
:1017B000DDF87C90229D239F269E5BEA090201D1E1
:1017C00026F0100616F480641ED05BEA09022FD0C2
:1017D000002419E03032D3B204F1010A04F15002BE
:1017E0000DEB020404F8203C2A463B465846494685
:1017F00001F086F9AB4579EB07091BD3BAF11F0F4E
:1018000018D85446834689462A463B465846494698
:1018100001F076F9D2B2092ADCD916F0200F05D0F2
:1018200041231344DBB20A3BDBB2D5E76123F8E77F
:101830004FF0000A0696259B0593249B049303957D
:101840009DF880300293CDF804A00CAB0093434682
:101850000B9A0A990998FFF7BDFE15B0BDE8F08F05
:101860002DE9F04F91B004460D4617461E46DDE9BE
:101870001A2310461946FFF7F5FD002840F0ED80C9
:101880004FF0FF32AE4BDDE91A01FFF739FE0028B9
:1018900040F0E3804FF0FF326FF48013DDE91A016E
:1018A000FFF7F2FD002840F0D88000220023DDE998
:1018B0001A01FFF7E9FD002840F0E2809DED1A7B58
:1018C0008DED067B1E9B13F480630D9301D10623DF
:1018D0001C93DDE9062310461946CDE9080152EABA
:1018E000030100F0D880C3F30A50C3F313039046FA
:1018F00043F07F5949F44019A0F2FF30FFF76AFD29
:101900007DA3D3E90023FFF7F1FC7DA3D3E90023F6
:10191000FFF7C4FC82468B4600228A4B404649466C
:10192000FFF7D0FC78A3D3E90023FFF7DFFC0246E2
:101930000B4650465946FFF7B1FCFFF76FFD824654
:10194000FFF748FD8046894671A3D3E90023FFF7DE
:10195000CDFC00227C4BFFF7A1FCFFF75FFD834627
:101960006DA3D3E9002340464946FFF7BFFC8046FC
:1019700089465846FFF72EFD69A3D3E90023FFF7F8
:10198000B5FC02460B4640464946FFF79BFC8046A5
:10199000894602460B46FFF7A9FCCDE90A010BF286
:1019A000FF3B00210022CDE908124FEA0B530993B7
:1019B0000023089342464B4640464946FFF76EFCDB
:1019C000CDE90E0142464B4600204FF08041FFF723
:1019D00079FC8046894600225C4BDDE90A01FFF76D
:1019E000ABFC00225A4BFFF759FC02460B46DDE9DF
:1019F0000A01FFF7A1FC0022564BFFF74FFC0246FD
:101A00000B46DDE90A01FFF797FC02460B4640460C
:101A10004946FFF743FC02460B46DDE90E01FFF79E
:101A20008BFC00224C4BFFF739FCDDE90823FFF764
:101A30005DFC80468946CDE90889DDE90623FFF78C
:101A40005FFD50B30AF1FF3A0022414B4046494640
:101A5000FFF772FCCDE908011FE01E9B04931D9B5C
:101A600003931C9B02939DED1A7B8DED007B334607
:101A70003A462946204600F003F911B0BDE8F08F40
:101A80009FED297B8DED067B1A9B06931B9B03F133
:101A90000043079316E74FF0000A0AF16303C62BD1
:101AA00027D84FF004081E9B13F4006F5FD0DDE9C8
:101AB000081213460B4313D01DA3D3E90023DDE91D
:101AC0000601FFF709FD002800F0B4801AA3D3E94E
:101AD0000023DDE90601FFF7D7FC002800F0AA800B
:101AE0001C9B53453ADDA3EB0A0A0AF1FF331C9312
:101AF00036E04FF00508D6E7FB799F501344D33FFB
:101B0000B3C8608B288AC63F61436F63A787D23F03
:101B100071A379094F930A401655B5BBB16B0240CA
:101B2000EF39FAFE422EE63F000000000000000000
:101B30002D431CEBE2361A3F0000000080842E414A
:101B4000FFFFEF7F0000F83F0000E03F00002C4067
:101B500000002440000018400000F03F00231C93C8
:101B60001E9B43F480631E934FF00008C2461D9BEA
:101B7000984569D2A3EB08091E9B13F0020B04D011
:101B8000B8F1000F01D04FF00009BAF1000F07D0F3
:101B9000DDE90823DDE90601FFF7CEFBCDE906010B
:101BA00000220023DDE91A01FFF76EFC00284ED168
:101BB0001E9B23F400630493CDF80C901C9B0293AE
:101BC0009DED067B8DED007B33463A462946204647
:101BD00000F056F8B8F1000F3FF44FAF1E9B13F022
:101BE000200F3CD04FF0450C00F10109334602466E
:101BF00029466046A0478AEAEA72A2EBEA72052308
:101C0000059308F1FF330493002303930A230293FF
:101C10004FEADA730193009233464A46294620463A
:101C2000FFF773FDBBF1000F3FF427AF0246DDF86D
:101C300074901EE01C9B002B99D00D9B002B96D01E
:101C40001C9B013B1C9392E74FF0000994E7DDE9F0
:101C50000601024601F10043CDE90623A8E74FF053
:101C6000650CC1E702F10108334629462020A04750
:101C70004246D31B4B45F5D31046FEE6000000005C
:101C80002DE9F04F2DED028B95B007900A91924609
:101C90009B46DDE92089229D42464B464046494607
:101CA000FFF7E0FB002835D14FF0FF326FF48013CF
:101CB00040464946FFF7E8FB00283AD14FF0FF3293
:101CC0009F4B40464946FFF71BFC002840D198A394
:101CD000D3E9002340464946FFF712FC00284FD1C4
:101CE00095A3D3E9002340464946FFF7CDFB0028E2
:101CF00046D10022002340464946FFF7C5FB002895
:101D00004CD100230B93249B13F4806F00F0B78019
:101D1000002456E0249B0393239B02930323019307
:101D2000884B00935B4652460A990798FFF713FCCD
:101D300037E1249B0393239B029304230193824B5B
:101D400000935B4652460A990798FFF704FC28E186
:101D5000249B13F004030FD07C4A7BB10423249905
:101D6000039123990291019300925B4652460A998E
:101D70000798FFF7F0FB14E1754AEEE70323EEE75F
:101D8000249B0493239B03930295CDE900895B4632
:101D900052460A990798FFF763FD02E142464B4617
:101DA00000200021FFF78EFA8046894601230B931D
:101DB000A9E704F150036B44302203F8202C013DC5
:101DC00001341F2C01D8092DF3D840464946FFF7AE
:101DD00025FB0646FFF7FEFA02460B4640464946FB
:101DE000FFF770FA5B4B03EBC50393ED008B53ECED
:101DF000182BFFF77BFA02460B46CDE90823FFF7C5
:101E00001FFB0746FFF7F8FA02460B46DDE908011B
:101E1000FFF758FA02460B46CDE9082300224E4B45
:101E2000FFF76EFB68B301373846FFF7E5FA024665
:101E30000B4651EC180BFFF73BFB08B101360027AE
:101E40006DBB3046FFF7C6FA02460B464046494690
:101E5000FFF738FA0746884600223F4BFFF714FB8E
:101E600000284CD100223C4B38464146FFF748FB46
:101E7000002844D116F0010F41D001363FE006257D
:101E800046E70022344BDDE90801FFF7FDFA0028A0
:101E9000D6D117B117F0010FD2D00137D0E71F2CE0
:101EA00017D8013D2D4BA3FB0723DB08194603EB95
:101EB0008303A7EB4303621C303304F150000DEBA6
:101EC000000404F8203C092F02D90F461446E6E727
:101ED00014461F2C0AD86B1E45B104F150026A4407
:101EE000302102F8201C1D460134F2E71F2C06D8D1
:101EF00004F150036B442E2203F8202C01341F2CD4
:101F000031D8174A82FB0632F317C3EBA2031A46F5
:101F100003EB8303A6EB4303611C303304F1500051
:101F20000DEB000404F8203C1646DAB10C46E6E757
:101F30000000000065CDCD410000000065CDCDC1A1
:101F4000FFFFEF7FFC30001000310010F030001078
:101F5000F8300010083100100000E03FCDCCCCCCB0
:101F6000676666660C46249B03F00303012B1DD0B5
:101F70001F2C09D80B9B002B35D004F150036B4468
:101F80002D2203F8202C0134249B0393239B0293DE
:101F900001940CAB00935B4652460A990798FFF7F1
:101FA000DAFA15B0BDEC028BBDE8F08F239BB3B11C
:101FB0000B9B1BB9249B13F00C0F12D0239B013BEE
:101FC0002393194606E004F150036B44302203F8D2
:101FD000202C01348C42CBD21F2CF4D9C8E7239992
:101FE000F8E72399F6E7249B13F0040F07D004F1D8
:101FF00050036B442B2203F8202C0134C4E7249BAC
:1020000013F0080FC0D004F150036B44202203F8F2
:10201000202C0134B8E700BF2DE9F04F91B0804685
:1020200017460F938946002900F0448300260F9B32
:102030001878002800F04183252809D0741C3B46FD
:1020400032464946C0470F9B01330F932646EEE7C1
:1020500001330F9300251FE045F0010501320F9277
:10206000012318E045F0020501320F92012312E02E
:1020700045F0040501320F9201230CE045F00805FC
:1020800001320F92012306E045F0100501320F9254
:10209000012300E000234BB30F9A1378203B102B51
:1020A000F8D801A151F823F07D20001095200010F0
:1020B0009520001089200010952000109520001018
:1020C00095200010952000109520001095200010FC
:1020D0009520001071200010952000106520001040
:1020E0009520001095200010592000100B930F9B95
:1020F0001A78A2F13003DBB2092B18D92A2A1BD097
:10210000DDF82CB00F9B1A782E2A25D00F9A137861
:10211000683B122B5CD8DFE803F0495BAA5B3B5BB2
:102120005B5B5B5B5B5B575B5B5B5B5BAF000FA809
:10213000FFF7FEF98346E5E71A9B1A1D1A921B6802
:10214000002B04DB9B460F9B01330F93DAE745F02E
:102150000205C3F1000BF6E745F480655A1C0F92A7
:102160005A78A2F13003DBB2092B0CD92A2ACDD13F
:102170001A9B1A1D1A921C6824EAE4730B930F9B96
:1021800001330F93C2E70FA8FFF7D2F90B90BDE719
:1021900045F48071531C0F9353786C2B01D00D467E
:1021A00016E045F4407502320F9211E045F08001CF
:1021B000531C0F935378682B01D00D4608E045F06F
:1021C000C00502320F9203E045F4807501320F9290
:1021D0000F9B1878672854D8252867D3A0F12503CA
:1021E000422B63D8DFE813F05B02620062006200FA
:1021F00062006200620062006200620062006200CF
:1022000062006200620062006200620062006200BE
:1022100062006200620062006200620062006200AE
:10222000620062006200620082016201820162005B
:10223000620062006200620062006200620062008E
:1022400062006200620062006200620062006C0074
:10225000620062006200620062006200620062006E
:1022600062006C00A9016C0082016201820145F4E8
:10227000007501320F92ABE745F4807501320F9281
:10228000A6E7782812D8692810D3A0F16902D2B243
:102290000123934049F24102134211D113F0800F00
:1022A00040F0E28113F4806F40F07981741C3B466A
:1022B00032464946C0470F9B01330F932646B6E688
:1022C000782809D062283AD06F283AD058283AD0D6
:1022D00025F010050A2300E01023582835D069287E
:1022E00003D0642801D025F00C0515F4806F01D0CF
:1022F00025F0010569282BD0642829D015F4007F2A
:1023000040F0968015F4807F40F0AE8015F0400FCD
:1023100000F0BF801A9A111D1A9112780595CDF818
:1023200010B00B99039102930023019300923B4656
:10233000324649464046FFF7E8F9064629E00223BF
:10234000CBE70823C9E71023C7E745F02005C6E718
:1023500015F4007F21D115F4807F42D115F0400F94
:1023600058D01A9A111D1A91127882EAE271A1EBE3
:10237000E2710595CDF810B00B9803900293D20F3F
:10238000019200913B46324649464046FFF7BDF96F
:1023900006460F9B01330F9349E61A9A073222F043
:1023A000070202F108011A915168126808460029D3
:1023B00013DB0895CDF81CB00B9C06940493002306
:1023C0000593C90F0291009201903B46324649465F
:1023D0004046FFF7E4F90646DBE7524261EB410075
:1023E000E7E71A9A111D1A91126882EAE271A1EBCD
:1023F000E2710595CDF810B00B9803900293D20FBF
:10240000019200913B46324649464046FFF77DF92E
:102410000646BEE715F0800F05D01A9A111D1A91D5
:10242000B2F90020A1E71A9A111D1A9112689CE7CF
:102430001A9A073222F0070202F108011A91089550
:10244000CDF81CB00B9906910021049305910291DF
:10245000D2E90023CDE900233B46324649464046B7
:10246000FFF79DF9064694E71A9A111D1A910595F2
:10247000CDF810B00B9903910293002301931368D8
:1024800000933B46324649464046FFF73EF9064632
:102490007FE715F0800F04D01A9A111D1A91128847
:1024A0003CE71A9A111D1A91126837E746281AD08C
:1024B0001A9B073323F0070303F108021A920495CD
:1024C000CDF80CB00B9A0292D3E90023CDE900239A
:1024D0003B46324649464046FFF7D2FB06460F9B35
:1024E00001330F93A3E545F02005E1E7672801D00C
:1024F000472801D145F40065452801D0472801D17E
:1025000045F020051A9B073323F0070303F1080267
:102510001A920495CDF80CB00B9A0292D3E90023DD
:10252000CDE900233B46324649464046FFF798F93D
:1025300006460F9B01330F9379E515F002051DD078
:1025400001241A98031D1A9306F1010A3B463246EC
:1025500049460078C047A5B90F9B01330F935646F3
:1025600065E502F1010A3B4649462020C047234663
:1025700052465C1C9B45F4D81646E2E701233246DE
:10258000F7E7524606E0561C3B4649462020C04726
:102590002C463246651CA345F5D89246DCE71A9BCB
:1025A0001A1D1A92D3F800A00B9BFBB94FF0FF3213
:1025B000534601E001330A46197811B1511E002A31
:1025C000F8D1A3EB0A0315F480620C9203D00B9AA6
:1025D000934228BF134615F0020409D00D94CDF89C
:1025E00038B00B9D32460C9E9B461FE00B9ADFE7EE
:1025F0003246264606E0541C3B4649462020C0474A
:102600002B4622465D1C9B45F5D834462B460D943F
:10261000CDF838B00B9D0C9E9B4607E01D460AF195
:10262000010A541C3B464946C04722469AF800001E
:1026300020B1002EF3D06B1E002DEFD10D9C16465D
:102640005B46DDF838B054B90F9B01330F93EEE4CD
:10265000551C3B4649462020C04723462A465C1C61
:102660009B45F5D81646EFE745F021051A9B1A1D44
:102670001A921B680595082204920B9A0392102265
:1026800002920022019200933B4632464946404660
:10269000FFF73BF806460F9B01330F93C7E4741C0A
:1026A0003B46324649462520C0470F9B01330F93D6
:1026B0002646BCE4DFF81C80B8E4BE4208D37A1E8C
:1026C0003B4649460020C047304611B0BDE8F08F78
:1026D0003246F5E72115001000B585B00290039150
:1026E000009313464FF0FF3202A90348FFF794FC12
:1026F00005B05DF804FB00BF2315001000BEFDE728
:1027000008B5FFF7FBFF000000B583B08C46194603
:102710005AB11446064B019400936346024605489D
:1027200000F03AF90120FFF7E9FF034B1C46F2E7FE
:1027300058310010683100106431001010B5EFF30B
:102740000583DBB203B100BEFEF78AFC044C02E055
:1027500054F8043B9847034B9C42F9D310BD00BF8B
:10276000582B00105C2B001008B5034608461B6868
:102770001146984708BD0000F8B507460D461646B5
:10278000437D13B1002420460CE00368114628461F
:1027900098472EE03B7D10E03B68022115489847A2
:1027A000601C0134B44214DA002CF3DD2B1913F849
:1027B000013C0D2B14BF002301232A5D0A2AF0D10E
:1027C000002BEED1A042E7DA3B68211A2844984753
:1027D000E2E7B04203DA3B68311A28449847002EFA
:1027E00007DD354415F8013C0D2B14BF00230123F0
:1027F0003B75F8BD9831001038B50368BBB105468C
:102800000B4B1C6806E0294651F8042B2046FFF7C5
:10281000B3FF24694CB12368002BFAD0054B1B6829
:10282000002BF0D0A342F4D1EDE700232B6038BD9C
:10283000940700209807002038B505460C460B6821
:10284000802B05D023685A1C22601C44257138BD9A
:102850000846FFF7D1FFF5E708B5FEF7A1FA074AEA
:10286000821841F10003002B03DB054800F050F90A
:1028700008BD4FF0FF326FF00043F6E740420F0013
:10288000BC05002008B5024800F03EF908BD00BFB5
:10289000BC0500202DE9F04383B006460D46904666
:1028A0001C46FFF7D9FF8146B5F1FF3F04D044B184
:1028B000174F184B1C6807E0304600F0F1F805464A
:1028C000F5E7154FF5E72469BCB12368002BFAD072
:1028D000124B1B680BB1A342F5D12A463146204664
:1028E000B847B8F1000FEED00A238DF80730012267
:1028F0000DF107012046B847E5E7B9F1000F03D114
:10290000284603B0BDE8F083FFF7BCFFF8E700BF3F
:1029100079270010940700206927001098070020ED
:1029200010B5054B1C6801E0984724691CB1636829
:10293000002BF9D1F9E710BD9407002038B5054602
:1029400000F0AEF8044601231A4601462846FFF778
:10295000A1FFFFF7E5FF204638BD000070B5A2B02B
:1029600004460E46FFF778FF0546002301933346E1
:10297000224601A90748FFF7AFFE044601A8FFF76A
:102980003BFFFFF7CDFF15B9204622B070BDFFF722
:1029900079FFF9E7392800100FB400B583B004A916
:1029A00051F8040B0191FFF7D9FF03B05DF804EB78
:1029B00004B07047844641EA000313F0030349D191
:1029C000403A23D30B6803604B6843608B68836095
:1029D000CB68C3600B6903614B6943618B69836199
:1029E000CB69C3610B6A03624B6A43628B6A836281
:1029F000CB6AC3620B6B03634B6B43638B6B836369
:102A0000CB6BC36340304031403ADBD230320BD322
:102A10000B6803604B6843608B688360CB68C3605E
:102A200010301031103AF3D20C3205D351F8043B78
:102A300040F8043B043AF9D2043208D0D2071CBF54
:102A400011F8013B00F8013B01D30B88038060467D
:102A5000704700BF082A13D38B07B1D010F00303CF
:102A6000AED0C3F10403D21ADB071CBF11F8013B3F
:102A700000F8013BA4D331F8023B20F8023B9FE76A
:102A8000043AD9D3013A11F8013B00F8013BF9D2DD
:102A90000B7803704B7843708B7883706046704777
:102AA00020F0030110F00300C0F1000051F8043BD6
:102AB00000F1040C4FEACC0C6FF000021CBF22FAAC
:102AC0000CF213434FF0010C4CEA0C2C4CEA0C4C6A
:102AD000A3EB0C0222EA030212EACC1204BF51F863
:102AE000043B0430F4D0C2F1000102EA0102B2FA60
:102AF00082F2C2F11F0200EBD2007047F8B500BFAE
:102B00005FF800F0790200205FF800F02102002059
:102B10005FF800F0ED010020F910001071100010B6
:102B20009D10001095110010D91000101510001004
:102B30001D110010E10F0010CD0400102511001030
:102B40001D0D00105D1000100B110010BD100010C5
:0C2B500071030010C903001011020010F6
:102B60000A2A2A2A2050414E4943202A2A2A0A00AA
:102B70000A00000030783163203D3D20282A696E2C
:102B80007374293E3E31317500000000443A2F68CD
:102B90006F6D652F362E6B656E6E6B7975752F4177
:102BA0004C544149525F44524F4E452F536F667407
:102BB000776172652F6669726D776172652F7069D2
:102BC000636F5F73656E736F72732F6275696C6488
:102BD0005F7069636F322F5F646570732F70696314
:102BE0006F5F73646B2D7372632F7372632F7270D8
:102BF000325F636F6D6D6F6E2F68617264776172A3
:102C0000655F6972712F6972712E630063757272EC
:102C1000656E74203D3D205F5F756E68616E646C0B
:102C200065645F757365725F697271207C7C206377
:102C3000757272656E74203D3D2068616E646C65CE
:102C4000720000006972715F7365745F6578636C10
:102C500075736976655F68616E646C65720000000B
:102C600031203D3D202875696E747074725F74293F
:102C70006C2D3E7370696E5F6C6F636B00000000BB
:102C8000443A2F686F6D652F362E6B656E6E6B79CB
:102C900075752F414C544149525F44524F4E452F58
:102CA000536F6674776172652F6669726D776172B2
:102CB000652F7069636F5F73656E736F72732F62D8
:102CC00075696C645F7069636F322F5F64657073E0
:102CD0002F7069636F5F73646B2D7372632F7372F0
:102CE000632F636F6D6D6F6E2F7069636F5F7379A4
:102CF0006E632F6D757465782E630000746F746158
:102D00006C0000006D74782D3E636F72652E7370D9
:102D1000696E5F6C6F636B006C6F636B5F69735F91
:102D20006F776E65725F69645F76616C6964286D48
:102D300074782D3E6F776E65722900006D74782D62
:102D40003E656E7465725F636F756E74000000009F
:102D50006D757465785F6578697400006D7574656C
:102D6000785F656E7465725F626C6F636B5F756EC2
:102D700074696C0072756E74696D655F696E6974F3
:102D80005F6D757465780000706F6F6C2D3E7469AF
:102D90006D65725F616C61726D5F6E756D203D3D3A
:102DA0002074696D65725F616C61726D5F6E756DC7
:102DB00000000000443A2F686F6D652F362E6B655A
:102DC0006E6E6B7975752F414C544149525F445278
:102DD0004F4E452F536F6674776172652F66697227
:102DE0006D776172652F7069636F5F73656E736F66
:102DF00072732F6275696C645F7069636F322F5FE5
:102E0000646570732F7069636F5F73646B2D737289
:102E1000632F7372632F636F6D6D6F6E2F706963B5
:102E20006F5F74696D652F74696D652E63000000B6
:102E300064656661756C745F616C61726D5F706F03
:102E40006F6C5F696E697469616C697A6564282961
:102E500000000000417474656D7074656420746FC7
:102E600020736C65657020696E73696465206F6698
:102E700020616E20657863657074696F6E2068618B
:102E80006E646C65723B2075736520627573795F43
:102E90007761697420696620796F75206D75737428
:102EA00000000000616C61726D5F706F6F6C5F6736
:102EB00065745F64656661756C740000616C617255
:102EC0006D5F706F6F6C5F6972715F68616E646C6B
:102ED00065720000486172647761726520616C619F
:102EE000726D20256420616C726561647920636C69
:102EF00061696D656400000076636F5F667265717D
:102F0000203E3D205049434F5F504C4C5F56434F4D
:102F10005F4D494E5F465245515F485A2026262054
:102F200076636F5F66726571203C3D205049434F68
:102F30005F504C4C5F56434F5F4D41585F46524582
:102F4000515F485A00000000443A2F686F6D652FAA
:102F5000362E6B656E6E6B7975752F414C544149F9
:102F6000525F44524F4E452F536F667477617265BE
:102F70002F6669726D776172652F7069636F5F7319
:102F8000656E736F72732F6275696C645F706963CD
:102F90006F322F5F646570732F7069636F5F736446
:102FA0006B2D7372632F7372632F7270325F636F56
:102FB0006D6D6F6E2F68617264776172655F706CA2
:102FC0006C2F706C6C2E63006662646976203E3DE7
:102FD000203136202626206662646976203C3D201A
:102FE0003332300028706F73745F64697631203E2D
:102FF0003D203120262620706F73745F646976311E
:10300000203C3D2037292026262028706F73745FCE
:1030100064697632203E3D203120262620706F7371
:10302000745F64697632203C3D203729000000003F
:103030007265665F66726571203C3D202876636F1D
:103040005F66726571202F2031362900706C6C5FCD
:10305000696E6974000000004465627567000000D5
:10306000626F6F74325F7732357130383000000034
:10307000322E322E300000007069636F3200000083
:10308000626C696E6B795F726573637565000000D1
:10309000446563203138203230323500060052500A
:1030A000D3F075425830001006005250E182887FFC
:1030B0006030001006005250ABB360537030001007
:1030C00006005250BBFF3CB678300010060052504C
:1030D000861C030280300010060052505422A29D2C
:1030E0009030001005005250DE65F46888360010FC
:1030F000666E692B00000000666E69006E616E00EE
:10310000666E692D00000000000000000000F03F26
:1031100000000000000024400000000000005940B2
:103120000000000000408F40000000000088C34005
:1031300000000000006AF8400000000080842E417A
:1031400000000000D01263410000000084D79741C6
:103150000000000065CDCD412C2066756E6374695A
:103160006F6E3A2000000000617373657274696FBE
:103170006E2022257322206661696C65643A2066A0
:10318000696C6520222573222C206C696E652025D0
:0C31900064257325730A00000D0A00007E
:08319C0018F8FF7F010000009C
:1031A4009C300010A8300010B4300010C030001063
:0C31B400CC300010D8300010E4300010C7
:1031C00000B503460068EFF3108272B6D0E8CFEF87
:1031D0005FF0010CBEF1000FF8D1C0E84ECFBEF198
:1031E000000FF3D1BFF35F8F93F9040000280ADBCF
:1031F00081B10860002019680023C1E88F3F82F385
:1032000010885DF804FB4FF0504191F900101971DE
:103210000120F0E70020EEE7F8B51E460368002B1A
:1032200027D0044615464FF0504393F900702168AB
:10323000EFF3108C72B6D1E8CF2F0123002AFAD118
:10324000C1E8423F002AF6D1BFF35F8F94F904E052
:10325000BEF1000F13DB22680023C2E88F3F8CF31E
:1032600010882846314600F0EBF90028DFD0002016
:103270000DE0074B074AA621074800F0E5F9277142
:1032800022680023C2E88F3F8CF310880120F8BD2C
:10329000042D00105C2D0010802C001070B582B041
:1032A000064615461C4601A9FFF78AFF38B99DF965
:1032B00004204FF0504393F900309A4201D102B0FC
:1032C00070BD2A4623463046FFF7A6FFF7E7000009
:1032D00008B50268EFF3108372B6D2E8CFCF0121B0
:1032E000BCF1000FF9D1C2E84C1FBCF1000FF4D1C2
:1032F000BFF35F8F90F90420002A09DBFF220271DF
:1033000001680022C1E88F2F83F3108840BF08BDF9
:10331000024B034AD521034800F096F9182D0010FE
:10332000502D0010802C001053B94AB9002908BF55
:1033300000281CBF4FF0FF314FF0FF3000F07EB986
:10334000ADF1080C6DE904CE00F006F8DDF804E0FC
:10335000DDE9022304B070472DE9F04F099D0C46CA
:10336000002B4DD18A420F4684469646B2FA82F32C
:1033700060D94BB102FA03FEC3F120029F4000FA6C
:1033800003FC20FA02F217434FEA1E461FFA8EF49E
:103390004FEA1C42B7FBF6F106FB117701FB04F084
:1033A00042EA0742904208D91EEB020201F1FF37C0
:1033B00002D2904200F22D813946121A1FFA8CFC7B
:1033C000B2FBF6F006FB102200FB04F44CEA024CC0
:1033D000644508D91EEB0C0C00F1FF3202D26445A3
:1033E00000F21A81104640EA0140ACEB040C0021C7
:1033F00025B12CFA03F30022C5E90032BDE8F08FB5
:103400008B4205D90DB1C5E9000100210846F5E759
:10341000B3FA83F100294DD1A342C0F0F28090426B
:1034200080F0EF80064623460846002DE6D0C5E929
:103430000063E3E7002B40F0A2808A1A4FEA1E47A0
:103440001FFA8EF60121B2FBF7F407FB14204FEAB6
:103450001C4242EA004206FB04F090420FD91EEBE8
:10346000020204F1FF382CBF4FF001094FF00009B0
:10347000904203D9B9F1000F00F0C8804446121AF7
:103480001FFA8CFCB2FBF7F007FB102200FB06F6DC
:103490004CEA024C664508D91EEB0C0C00F1FF32D9
:1034A00002D2664500F2BB801046ACEB060C40EA47
:1034B00004409DE7C1F120068B4004FA01FE22FA88
:1034C00006F720FA06FCF4408A401F434EEA0C033C
:1034D00000FA01FE4FEA17484FEA13491FFA87FC2A
:1034E000B4FBF8F008FB104449EA044400FB0CF973
:1034F000A1450ED93C1900F1FF3A2CBF4FF0010B4A
:103500004FF0000BA14503D9BBF1000F00F09380F1
:103510005046A4EB09041FFA83F9B4FBF8F308FB47
:10352000134403FB0CFC49EA0444A44506D93C19A6
:1035300003F1FF3801D2A4457AD8434643EA00405C
:10354000A4EB0C04A0FB02984445CC46434602D3AE
:1035500006D1CE4504D20138B9EB020C68EB070363
:103560005DB1BEEB0C0264EB030404FA06F622FA2A
:1035700001F3CC401E43C5E9006400213EE702FA96
:1035800003FEC3F1200104FA03F200FA03FCCC406D
:103590004FEA1E4720FA01F11FFA8EF6B4FBF7F04E
:1035A0000A4307FB1044110C41EA044100FB06F4F6
:1035B0008C420ED91EEB010100F1FF382CBF4FF0F9
:1035C00001094FF000098C4202D9B9F1000F2CD04B
:1035D0004046091B92B2B1FBF7F407FB141142EA13
:1035E000014204FB06F1914207D91EEB020204F1ED
:1035F000FF3801D2914215D84446521A44EA00419C
:1036000021E7861A64EB030301200EE7023C7244B3
:1036100035E702397244D0E6F4440238E3E6F44474
:10362000023842E7023C7244E7E702387144D0E7CF
:10363000023B3C4482E702383C446AE7704700BFE3
:103640005FF800F0090C00105FF800F00927001087
:10365000100000000000000000000000000000005A
:103660000000000000000000C8050020000000006D
:043670000000000056
:10367400D3DEFFFFFE010000FF010000C4CAFFFF0C
:04368400793512ABD7
:040000051000014D99
:00000001FF
