:020000041000EA
:10000000002008205D0100101B0100101D010010E0
:100010001101001011010010110100101101001058
:100020001901001019010010190100101F01001022
:10003000110100101901001021010010230100100E
:100040001101001011010010110100101101001028
:100050001101001011010010110100101101001018
:100060001101001011010010110100101101001008
:1000700011010010110100101101001011010010F8
:1000800011010010110100101101001011010010E8
:1000900011010010110100101101001011010010D8
:1000A00011010010110100101101001011010010C8
:1000B00011010010110100101101001011010010B8
:1000C00011010010110100101101001011010010A8
:1000D0001101001011010010110100101101001098
:1000E0001101001011010010110100101101001088
:1000F0001101001011010010110100101101001078
:100100001101001011010010110100101101001067
:10011000EFF30580103800BE00BE00BE00BE00BE7A
:1001200000BE00BEF2EB887100710010207100105B
:10013000A001001090A31AE7D3DEFFFF42012110B7
:10014000FF0100001C7D0000793512AB4FF000006C
:100150001E49086006C881F3088810474FF05040D8
:10016000006810B14FF00000F2E70DA40ECC00299A
:1001700002D000F012F8F9E71549164A002000E015
:1001800001C19142FCD11449884714498847144958
:10019000884700BEFDE701C901C29A42FBD3704700
:1001A0002071001010010020440E0020547E001029
:1001B0000000082000000820547E001000100820D5
:1001C00000100820000000007047000008ED00E06B
:1001D000440E00206C1A0020BD2C001035020010C7
:1001E000812C0010F8B500BF064B0749C91A8910C9
:1001F00048BF0131491003D0044B0BB101481847E7
:10020000704700BF440E0020440E00200000000094
:1002100008B5054B1BB105490548AFF30080BDE8A3
:100220000840FFF7E1BF00BF00000000FC190020FC
:10023000F860001008B502F055FE00F0DFFF02463E
:100240000B46044802F080FE4FF47A7000F0F6FE90
:10025000F3E700BFF86000100FB400B583B0049C52
:10026000074802F043FE3CB105A90191204602F087
:100270004DFE044802F03AFE012002F0FFFC00BFF0
:100280000461001014610010EFF3108072B6064B89
:10029000D3E8CF1F01220029FAD1C3E8412F00295A
:1002A000F6D1BFF35F8F70477F1100200023034A10
:1002B000C2E88F3F80F31088704700BF7F11002095
:1002C00070B505460C461646FFF7DEFFE208A95C4E
:1002D00004F0070C012303FA0CF3194205D1DBB239
:1002E0000B43AB54FFF7E2FF70BD21463046FFF7EA
:1002F000B3FFF8B506460D4614461F46FFF7C4FF88
:1003000000E00134BC420ED84FEAD40C16F80C10B1
:1003100004F0070301229A401142F2D1D2B20A43FB
:1003200006F80C2001E04FF0FF34FFF7BFFF002C70
:1003300001DB2046F8BD002DFBD00698FFF78CFFAF
:10034000054A1078431CDBB21370172B02D91346F1
:1003500010221A70704700BFA00D002000B583B0B6
:100360000146054B00931F2318220448FFF7C1FFE5
:1003700003B05DF804FB00BF186100109015002069
:100380004FF0E022936843F0005393607047000001
:10039000002305E0044A1A440021C2E88F1F0133FC
:1003A0001F2BF7D9704700BF74110020064B9B68C4
:1003B000103043F82010BFF35F8F00230349C1E8DA
:1003C0008F3F82F31088704700ED00E07D11002020
:1003D0000048704700E400E008B5FFF7F9FF00238C
:1003E00004E04FF0803240F8042B01330C2BF8D995
:1003F00062B608BD08B50388DA0A1C2A06D15B0577
:100400000BD45B15023300EB430008BD064B074AD3
:100410004FF48E71064802F037FC03F5FF1303F525
:10042000FF531F33EDE700BF3461001088630010F5
:100430004C61001008B5091A01F2FC7240F6FE7317
:100440009A4208D8081F11F0010F04D1C0F34A00E6
:1004500040F4604008BD034B034A4FF487710348E2
:1004600002F012FCCC6100107C6300104C610010A3
:100470004209064B53F8222000F01F00012383405D
:100480001A4214BF01200020704700BF00E100E0C5
:100490003AB1064B00F1600243F8221043F82010F5
:1004A00070472030014B43F82010704700E100E016
:1004B00008B50A4600F01F03012199404009FFF7E3
:1004C000E7FF08BD00F01F024009012393404030C0
:1004D000014A42F82030704700E100E0024B9B687F
:1004E000103053F82000704700ED00E008B5FFF72A
:1004F000F5FF034BC01A2F288CBF0020012008BD38
:10050000A40D002070B505460C46EFF3108672B6B8
:100510000F4BD3E8CF1F01220029FAD1C3E8412FA6
:100520000029F6D1BFF35F8FFFF7D8FF094B984240
:1005300001D0A04205D1324621462846FFF736FFBA
:1005400070BD054B054AED21054802F09DFB00BF3B
:100550007D11002011010010FC610010B06300103B
:100560004C6100102DE9F04F87B000911546EFF374
:10057000108A72B67C4BD3E8CF1F01220029FAD132
:10058000C3E8412F0029F6D1BFF35F8F774B93F972
:100590000040002C44DB804604EB4407744B03EB23
:1005A000870797F90610714A1170724A926800F134
:1005B000100152F82190A9EB03022F2A3ED96E4B6D
:1005C000994534D14FF42143ADF80C304FEA44093A
:1005D00004EB4400664E06EB800068490230FFF7EA
:1005E00029FFADF80E004BF60153ADF81030FF2394
:1005F0008DF812308DF81350009B0593A14406EB43
:10060000890306AA12E9070083E8070047F00109F9
:10061000524649464046FFF7C9FE07B0BDE8F08F95
:10062000574B584A4FF4BE71574802F02DFB574BB9
:10063000544A40F28311544802F026FB29F0010B82
:10064000ABEB0303524AA2FB0312D20802EB4202B5
:10065000B3EB820F0FD15B460026DA79AA4212D99A
:1006600093F90620002A0DDB02EB42021E46404BA6
:1006700003EB8203F1E7474B424A4FF4CA71424809
:1006800002F002FB1E46A6B344F60103ADF80C309F
:100690004FF48F43ADF80E3096F906B0BBF1000F62
:1006A0001ADA4BF60150ADF810008DF812B08DF843
:1006B0001350009B05933946301DFFF7BBFEB080F9
:1006C000B47104EB44042A4B03EB840306AA12E939
:1006D000070083E807009BE7301DFFF78BFE01460C
:1006E00004EB4402224B03EB8203181DFFF7A2FE2A
:1006F000D9E74FF42143ADF80C306300019304EBCC
:100700004406DFF86C9009EB86061C49B01CFFF725
:1007100091FEADF80E005946301DFFF78BFEADF887
:1007200010004AF6AA235A464946521A52415343E8
:100730001B0D8DF812308DF81350009A0592019B15
:10074000234409EB830906AB13E9070089E8070096
:1007500044F60103ABF800304FF48F43ABF802309E
:1007600047F0010954E700BF7D110020641A002002
:10077000A40D002000ED00E011010010D40D0020B8
:1007800034620010986300104C6100105C6200102D
:10079000ABAAAAAA8462001038B540F00104324B1B
:1007A000E31A2F2B31D8EFF30581C9B2002933D0DA
:1007B000EFF3108E72B62D4BD3E8CF5F0122002DE0
:1007C000FAD1C3E8452F002DF6D1BFF35F8F4AF66B
:1007D000AA230246244D521B524153431B0D4FFA8C
:1007E00083FC234B9B6853F82130A3421BD000238A
:1007F000032B32D803EB43011B4A02EB810292F92F
:100800000620624520D00133F2E71A4B1A4A40F223
:100810007F211A4802F038FA194B174A40F2822118
:10082000164802F031FA124B9B68164A43F8212011
:10083000154B1A78827183F800C000230B4AC2E876
:100840008F3F8EF3108838BD074A02EB8101FF24E9
:100850008C714BF601538B80EAE70C4B064A40F251
:100860009321064802F010FAA40D00207D1100200B
:1008700000ED00E008630010606300104C610010A0
:100880003063001011010010641A00203C63001056
:1008900000B583B00146074B0093052300220648AC
:1008A000FFF727FD002801DBC0F1330003B05DF83E
:1008B00004FB00BF44630010681A0020014B0B4486
:1008C000036070477411002010B50446FFF738FD2F
:1008D00001462046FFF7F2FFFF232371BFF35F8F2E
:1008E00010BD10B50446FFF72BFD01462046FFF76B
:1008F000E5FFFF23237100236371BFF35F8F10BDFA
:1009000010B50D4C09E00D4B0D4A1A210D4802F0AF
:10091000BBF92046FFF7D8FF08340B4B9C4209D2A5
:100920002368002BF5D0012BEDD12046FFF7D9FF2E
:100930000834F2E710BD00BF3C0E0020CC6300106D
:10094000E0640010EC630010440E0020024B0B44E6
:100950000360BFF35F8F70477411002010B5044629
:100960000120FFF7FBFC01462046FFF7EFFF10BD1B
:100970000246EFF30583DBB2103B990804D003482D
:1009800003F00303136070470148F9E700800B4050
:1009900000000B4010B4846AA2EB040C0B1D50F84D
:1009A00023301B1B9C4504D3046A01238B401C424B
:1009B00002D1043140F821205DF8044B704741EA30
:1009C000004070470D4B1A68EFF3108172B6D2E801
:1009D000CFCF0120BCF1000FF9D1C2E84C0FBCF120
:1009E000000FF4D1BFF35F8F1A680023C2E88F3F76
:1009F00081F3108840BF002000217047441A002076
:100A00002DE9F04F85B003A8FFF7B2FFA94B98423C
:100A100014BF00230123039901EB8303A64A52F874
:100A200023402378994206D1054601228A4000F5E9
:100A300041535A6014E1A14BA14A9221A14802F00E
:100A400023F9D4F8149006EB46074FEAC70A09EBDE
:100A5000C707D7F808B0D7F80C80284600F0B8FBD5
:100A6000B0EB0B0061EB0803002BC0F20281B8F180
:100A7000000F60DB3B691A460093934B9A4230D0DB
:100A8000798889B2B4F90800FFF799FF7969009B6A
:100A90009847009001910099019A51EA02034AD0C7
:100AA0001346002A29DABBEB010268EB0308BA609F
:100AB000C7F80C8039F90A30002BC0F2DA80D4F87C
:100AC00014E003EB43010EEBC1018868C968101AFA
:100AD00068EB01010029C0F2CC80A4462CF8083F45
:100AE00015E07A69136900921046984718B3009A86
:100AF0001368009353680193CDE7284600F068FB24
:100B0000009B1A18019B43EB0108D0E79C46BCF9F7
:100B10000070002F0ADB07EB47030EEBC303986856
:100B2000D968101A68EB01010029EFDA29F80A7078
:100B3000ACF800609DE039F90A3023812369EFF3B6
:100B4000108272B6D3E8CF0F01210028FAD1C3E892
:100B5000401F0028F6D1BFF35F8FB4F9023029F8A7
:100B60000A30668021690023C1E88F3F82F3108834
:100B70007FE02369EFF3108272B6D3E8CF0F012133
:100B80000028FAD1C3E8401F0028F6D1BFF35F8FD9
:100B9000B4F804800FFA88F84FF6FF73A380216938
:100BA0000023C1E88F3F82F3108815E01E46B6F996
:100BB0000020002A0ADB02EB42030CEBC303986817
:100BC000D968381A6EEB01010029EFDAA6F8008027
:100BD0003CF909802CF80920B8F1000F4EDBD4F85D
:100BE00014C008EB48034FEAC3090CEBC3039F682A
:100BF000D3F80CE004F10806D9E70023A37104F14F
:100C0000080CB4F9083010E04FF0FF384FF0FF390E
:100C1000C0E90289B4F90800984205D0ACF8002078
:100C2000B4F90800C85323811346B3F1FF3F28D01D
:100C3000616903EB4302D70001EBC20031F93220B6
:100C4000468816F4004FDFD18446EDE7284600F0D1
:100C5000BFFA3F1A66EB0106012F76F1000635DA7E
:100C6000039A01239340EB63B4F90860002EBFF6AA
:100C7000E8AEA38813F4004F3FF47BAFA379002BB9
:100C8000BBD1B4F90830002B20DB626903EB4303CE
:100C900002EBC3039F68DE68B6F1FF3F08BFB7F100
:100CA000FF3FD3D03A46334603992846FFF772FEFA
:100CB000CCE700BF00800B401C1A0020F464001039
:100CC0002866001020650010010A001040BF05B022
:100CD000BDE8F08FF8B504460D4611460A4B984220
:100CE00010D000262E44012707FA05F5256230466C
:100CF000FFF708FC39463046FFF7DAFB04F50154EC
:100D00002560F8BD0426EDE700800B40F8B50446E9
:100D10000E4617461D46C160FFF712FB164B0344F3
:100D200023612770ABB263814FF05042127862703A
:100D30004FF6FF722281A280013B63804FF0000CCE
:100D400008E00CF1FF300CEB4C0E636923F83E0019
:100D50000CF1010CAC45F4D3084B9E4214BF0023A8
:100D6000012307EB8303064A42F82340054A39462C
:100D70003046FFF7AFFFF8BD7411002000800B4034
:100D80001C1A0020010A001008B5054B1B690BB1A5
:100D9000034808BD034B044A6521044801F074FF71
:100DA000EC0D00209C6500101066001020650010FE
:100DB000F8B504469E460069EFF3108172B6D0E89C
:100DC000CF6F0125002EFAD1C0E8465F002EF6D184
:100DD000BFF35F8FB4F90250666905EB4500C700A9
:100DE00006EBC000002D03DB36F907C0A4F802C0F3
:100DF0004FF0000C2369C3E88FCF81F3108865455D
:100E000033DB06990161079941618260C0F80CE00B
:100E1000418889B20131C1F30E0101B9012141803C
:100E20002846FFF7CCFD2369EFF3108272B6D3E8B2
:100E3000CFCF0121BCF1000FF9D1C3E84C1FBCF1A9
:100E4000000FF4D1BFF35F8FA388F353A58021690E
:100E50000023C1E88F3F82F31088E36821780122E4
:100E60008A4003F501535A60F8BD4FF0FF30FBE7AD
:100E700070B582B0064615461C469DF8203033B941
:100E800000F0BCF9854264EB010100290ADB079BF5
:100E90000193069B00932A4623463046FFF788FFBE
:100EA00002B070BD0020FBE7F0B585B005460C46EA
:100EB00016461F46FFF768FF9DF8283002930197FA
:100EC00000962A462346FFF7D3FF05B0F0BD034640
:100ED0004089B0EB214F31DD10B50A14586902EB9F
:100EE000420200EBC2001A69EFF3108C72B6D2E82E
:100EF000CF4F5FF0010E002CF9D1C2E844EF002C77
:100F0000F5D1BFF35F8F428892B289B28A420FD087
:100F1000002019690022C1E88F2F8CF3108830B1AE
:100F2000DA681B780121994002F50153596010BD20
:100F300042F40042428001209871EAE700207047A5
:100F400010B50446FFF720FF2146FFF7C0FF10BD94
:100F500040787047F0B583B0EFF30583DBB2CBB9CF
:100F600005460F46861F41F1FF34B04271EB040382
:100F700001D20026344600F041F9301A64EB010337
:100F8000012873F1000308DA2846394600F03EF9DB
:100F900003B0F0BD1C48FFF75FF9002300931B4A24
:100FA00030462146FFF780FF00281EDAECE70023D9
:100FB00000E00023002BE7D1154B1A68EFF31081F6
:100FC00072B6D2E8CFCF0120BCF1000FF9D1C2E850
:100FD0004C0FBCF1000FF4D1BFF35F8F1A680023F0
:100FE000C2E88F3F81F3108820BF0A4B5B6A9C42A6
:100FF000DFD80849896AB14203D29C42D7D0012385
:10100000D8E70123D6E700BFC0650010C50900106E
:10101000441A002000000B4038B504460D4600F08D
:10102000EDF8201845EB0101002902DBFFF792FFE4
:1010300038BD4FF0FF306FF00041F7E708B5C30E41
:101040004101091A63F100039B0043EA917389008F
:10105000091843F10003DB00C80043EA5171FFF7B0
:10106000DBFF08BDF0B583B005460C46EFF3058302
:10107000DBB293B13C4B5B6A8B4209D33A4A926A2A
:10108000824208D28B4201D0012002E0002000E021
:10109000002003B0F0BD0120FBE7FFF775FEC76835
:1010A0000678384600F094F82A1A64EB01010436F9
:1010B00057F826301B1A9A4271F1000112DB20BF4B
:1010C000294B5B6A9C4209D8274A926AAA4207D2F6
:1010D0009C4201D00120DCE70020DAE70020D8E7BD
:1010E0000120D6E700230093204A28462146FFF737
:1010F000DBFE00280BDD1C4B5B6A9C421BD81A4AA6
:10110000926AAA4228D29C4213D0012314E0164BC3
:101110005B6A9C4209D8144A926AAA4207D29C424E
:1011200001D00120B5E70020B3E70020B1E701209E
:10113000AFE7002300E0002303B920BFFFF700FF63
:10114000094B5B6A9C420BD8074A926AAA4209D2B1
:101150009C4203D001209CE70123EDE7002098E7A3
:10116000002096E7012094E700000B40C50900101D
:101170000048704700000B4010B50A4B1B6923B1B3
:101180000A210948FFF79AFB10BDFFF7F1FF04465B
:10119000032100F00BF81023032221460148FFF73A
:1011A000B5FDEDE7EC0D0020441A002010B5054A0E
:1011B000054C064BA04214BF1846581CFFF780F898
:1011C00010BD00BF4066001000800B409415002049
:1011D0000246436A906A1946536A9942FAD17047A7
:1011E000416A00E0416A9942FCD300E0416A9942B9
:1011F00002D1816A9142F9D37047000008B50248D4
:10120000FFF7E6FF08BD00BF00000B4008B502462F
:101210000B460248FFF7E4FF08BD00BF00000B408B
:1012200070B51646049D00EB400C4FEA8C0C0CF197
:10123000804C0CF5803CDCF80420AA4201D2CCF8AA
:101240000450A0F1040E5FFA8EFEBEF1010F28D902
:101250000CF540524FF4006414601E4A52F82020EE
:1012600042B11C4C6469B4FBF2F4013404EB440455
:10127000033CFDD2DCF8002082EA461202F0E002D4
:101280000CF580542260BEF1010F16D90CF5005206
:101290004FF400611160CCF804500E4A42F820303F
:1012A00070BD0129D4D10CF5405203241460DCF840
:1012B000082012F0010FFAD0DCE7DCF800204A40E9
:1012C00002F003022260DCF8084001228A40144246
:1012D000F9D0DBE79815002010B582B04FF48034C8
:1012E0000094FFF79DFF02B010BD0000014B53F8C2
:1012F000200070479815002070B5049C344DB5FB54
:10130000F1FC344D1544344EB54237D8B2FBFCF5F0
:10131000A5F1100EBEF5987F36D803F1FF3EBEF161
:10132000060F37D804F1FF3EBEF1060F32D8BCEBF2
:10133000121F35D8240344EA03440368002B35DB2D
:10134000264B984242D00E2301229A40244B1A6029
:1013500003F580531A60234B9B6832EA0303FAD1EA
:101360000160856000F54052043221231360036858
:10137000002BFCDAC4600823136070BD1A4B1B4AB3
:1013800011211B4801F080FC1A4B184A19211848FA
:1013900001F07AFC184B154A1C21154801F074FC29
:1013A000164B124A2321124801F06EFC036803F029
:1013B0003F038B42C4D18368C3F30B03AB42BFD15D
:1013C000C36803F4EE23A342BAD1D6E70F23BBE7E9
:1013D000001BB70080E84BD380F8A932008005409D
:1013E000002002400000024064660010B867001050
:1013F000B466001034670010506700109C6700103E
:10140000024B1A68024B5A60704700BFF419002063
:1014100000800D4008B5164B4FF080421A60A3F5CE
:101420004123144A9A6051B103F540234FF0E06222
:101430001A6048B9104B4FF000421A6008BD0C4BBF
:101440004FF0E0621A60F4E74FF47A7303FB00F0A8
:101450000A4B1860B0F1807F02D36FF07F421A60B0
:10146000FFF7CEFF044B4FF080421A60E6E700BF63
:1014700000B00D40F3FFFF0100A00D40F419002063
:1014800010B50C4B4FF080441C6070B140F001036C
:1014900009480A4CC4610A4C5C40046241628362A0
:1014A00000211046FFF7B6FF10BD034B0021D961A4
:1014B000F6E700BF00B00D4000800D40D3C007B07C
:1014C0002D3FF84F054A00EB400302EB83035960C0
:1014D00000EB400080000123135070470080104053
:1014E0002DE9F04105460E46174698460023DB8A53
:1014F000002242E800F212F4800F0BD1102144F2D6
:1015000052209847044643463A4631462846A0476B
:10151000BDE8F081042144F2522098470446F2E7E6
:1015200008B50023DB8A002242E800F212F4800FA3
:1015300002D11021984708BD04219847FBE708B560
:10154000031E06DB41F0200012B141F0300100E043
:1015500001460A460A214FF48170FFF7C1FF0000DF
:10156000034BD3F82838002BFAD0BFF35F8F7047B6
:1015700000000E40002207E0054B13449B00BFF320
:101580005F8F002119600132072AF5D9704700BF2B
:101590000382031008B5FFF7EDFF08BD074B4FF4BA
:1015A0002A621A604FF48D72DA6003F50053044A20
:1015B0001A60024B5B68002BFBDA70470080044026
:1015C00000B0FA0010B5044602E054F8043B984716
:1015D000014B9C42F9D310BDF06000107047000031
:1015E00008B50248FFF7EEFF08BD00BFB06000106D
:1015F000064B074A1A6003F58053064A1A60064BE9
:101600009A68044B9343FAD1704700BF0020024010
:101610007F3BEFEFF6FFF30300000240054BDB6C6E
:10162000B3F5004F00D07047034B4FF48022DA64CB
:10163000F9E700BF00001150002011504FF0E022E8
:10164000D2F8881D034B0B43C2F8883D10EE3004DE
:10165000704700BF03033000054B6FF060421A6013
:10166000044B9B68DB4333F06043F9D1704700BF04
:10167000003002400000024008B545F25320FFF759
:101680004FFF03460420984708BD08B545F2532094
:10169000FFF746FF03460120984708BD08B5FEF74F
:1016A00077FE08BD10B50C490C4A521A9210144628
:1016B000442A28BF44229200094804F025FC04E093
:1016C000084A074B43F824200134432CF8D9044A34
:1016D000054B9A6010BD00BF000000101001001003
:1016E000000000201101001000ED00E038B50420DA
:1016F000FFF7FCFD064BA3FB0035AD0C002404E016
:101700002946E0B2FFF7DEFE0134052CF8DD38BDD6
:1017100083DE1B4330B583B0264B0022C3F8842000
:10172000FFF73CFF244B0122DA63224B5B6C012B59
:10173000FBD1214B03221A631E4B9B6B012BFBD168
:101740000224009405231D4A01211D48FFF7D4FD02
:10175000052500952B461B4A01211B48FFF7CCFDB0
:101760001A4B002221460420FFF7B6FD184C2346F1
:10177000002201212846FFF7AFFD164D2B4600221F
:1017800011460820FFF7A8FD2B460022114609202C
:10179000FFF7A2FD2346002211460620FFF79CFD1D
:1017A0002346002211460720FFF796FDFFF79EFF14
:1017B00003B030BD0000014000300140002F6859E7
:1017C00000000540008C864700800540001BB700E4
:1017D00080D1F008006CDC0286B003B451FC080430
:1017E000CDE9020151FC0904CDE9040151EC0A04E0
:1017F000CDE9060103BCF047BDE800504EEC00C443
:10180000BDE800504EEC01C4BDE800504EEC02C4EF
:1018100000BD000000B5FFF7DFFF02E010FE30F46E
:10182000F8D441EC100443EC112400EE010410EE56
:10183000010480EE200451EC1004704700B5FFF75E
:10184000CBFF02E010FE30F4F8D441EC100443EC7E
:10185000112400EE010410EE210480EE200451EC6E
:101860003004704700B5FFF7B7FF02E010FE30F418
:10187000F8D410B541EC100443EC112451EC0404ED
:1018800053EC0524A0FB024C5FF0000EE0FB03CEFE
:10189000E1FB02CE4CEC20440024E1FB03E444ECE9
:1018A00030E480EE200451EC5004BDE81040704755
:1018B00000B5FFF791FF02E010FE30F4F8D441ECE0
:1018C000100443EC112451EC2104A0FB01126FEA37
:1018D000820252FB100052FB12F252FB1000A0EBEE
:1018E000D07C53EC04245CFB13F153EC1524A1FBD6
:1018F000022001FB030053EC4424A2EB000050FB48
:101900001CF24FEA111312EB017043EBE27140EA53
:10191000515020EA915020F0070053EC7524A0FBB1
:10192000023C53EC752400FB03CC01FB02CC53ECCE
:101930000424ACEB824C40EA5C70A0F1010041EC65
:10194000400480EE200451EC7004704700B5FFF7AE
:1019500043FF02E010FE30F4F8D440EC700400EED7
:10196000010410EE210480EE200451EC3004704795
:1019700000B5FFF731FF02E010FE30F4F8D440EC80
:10198000600400EE010410EE210480EE200451EC0E
:101990003004704700B5FFF71FFF02E010FE30F47F
:1019A000F8D441EC800400EE010410EE010480EE56
:1019B000400410EE1304704700B5FFF70DFF02E07E
:1019C00010FE30F4F8D441EC800400EE010410EE77
:1019D000010480EE400410EE3304704700B5FFF7B9
:1019E000FBFE02E010FE30F4F8D441EC100443ECAE
:1019F000112400EE010410EE3004C0F300707047B3
:101A000000B5FFF7E9FE02E010FE30F4F8D443EC35
:101A1000102441EC110400EE010410EE30F48CBFF0
:101A200001200020704700BF00B5FFF7D5FE02E09F
:101A300010FE30F4F8D443EC102441EC110400EE15
:101A4000010410EE30F42CBF01200020704700BFCD
:101A500000B5FFF7C1FE02E010FE30F4F8D441EC0F
:101A6000100443EC112400EE010410EE30F42CBFFE
:101A700001200020704700BF00B5FFF7ADFE02E077
:101A800010FE30F4F8D441EC100443EC112400EEC5
:101A9000010410EE30F48CBF01200020704700BF1D
:101AA000704720B108B50A684968904708BD70477B
:101AB0000146002008E000EB8000531C0B60137807
:101AC00003EB4003A3F130000A681378303BDBB22C
:101AD000092BF0D970472DE9F04F83B005460E462B
:101AE00093461F46DDF830A00D9CDDF838900F9B23
:101AF00013F0030F19D1A0460192C84509D202F193
:101B0000010B3B4631462020A84708F101085A4600
:101B1000F3E7DDF804B008E0013C02F101083B46C0
:101B200031461AF80400A8474246002CF4D10F9B16
:101B300013F0020F03D1104603B0BDE8F08FA2EB03
:101B40000B034B45F7D2541C3B4631462020A84797
:101B50002246F4E72DE9F04385B099460C9D0D9C93
:101B60009DF83880DDF840E0119F129E16F0020FBC
:101B700021D17FB116F0010F0CD0B8F1000F02D1C6
:101B800016F00C0F06D0013F04E04FF0300C05F8C2
:101B900004C00134744501D21F2CF6D916F0010F90
:101BA00009D0BC4207D21F2C05D84FF0300C05F8E5
:101BB00004C00134F2E716F0100F14D016F4806F51
:101BC00004D11CB1744522D0BC4220D00F9B102BF5
:101BD00036D00F9B022B3ED01F2C0ED84FF0300C6E
:101BE00005F804C001341F2C07D8B8F1000F3AD013
:101BF0004FF02D0C05F804C00134039602970194B0
:101C000000954B46FFF767FF05B0BDE8F083B4F1E0
:101C1000010C13D00F9B102B0ED064460F9B102B82
:101C2000D7D116F0200FD4D01F2CD2D84FF0580C9B
:101C300005F804C00134CFE7023CC7E76446C5E7B6
:101C400016F0200FEAD11F2CE8D84FF0780C05F8D9
:101C500004C00134C0E71F2CCFD84FF0620C05F848
:101C600004C00134B8E716F0040F05D04FF02B0C78
:101C700005F804C00134C0E716F0080FBDD04FF0DE
:101C8000200C05F804C00134B7E7F0B591B0169CFC
:101C9000189D1B9E0CB926F0100616F4806E16D007
:101CA00064B34FF0000E12E00CF1300C5FFA8CFCC4
:101CB0000EF101070EF1400EEE440EF820CCB4FBFD
:101CC000F5FCAC421BD31F2F19D8BE466446B4FBAB
:101CD000F5FC05FB1C4C5FFA8CFCBCF1090FE3D949
:101CE00016F0200F08D04127BC445FFA8CFCACF101
:101CF0000A0C5FFA8CFCDBE76127F5E727460696BE
:101D00001A9C0594199C049403959DF85C400294D8
:101D1000019708AC0094FFF71DFF11B0F0BD2DE94D
:101D2000F04F95B009900A910B929846DDF878B083
:101D3000DDF87C90229D239F269E5BEA090201D15B
:101D400026F0100616F480641ED05BEA09022FD03C
:101D5000002419E03032D3B204F1010A04F1500238
:101D60000DEB020404F8203C2A463B4658464946FF
:101D700004F086F9AB4579EB07091BD3BAF11F0FC5
:101D800018D85446834689462A463B465846494613
:101D900004F076F9D2B2092ADCD916F0200F05D06A
:101DA00041231344DBB20A3BDBB2D5E76123F8E7FA
:101DB0004FF0000A0696259B0593249B04930395F8
:101DC0009DF880300293CDF804A00CAB00934346FD
:101DD0000B9A0A990998FFF7BDFE15B0BDE8F08F80
:101DE0002DE9F04F91B004460D4617461E46DDE939
:101DF0001A2310461946FFF7F5FD002840F0ED8044
:101E00004FF0FF32AE4BDDE91A01FFF739FE002833
:101E100040F0E3804FF0FF326FF48013DDE91A01E8
:101E2000FFF7F2FD002840F0D88000220023DDE912
:101E30001A01FFF7E9FD002840F0E2809DED1A7BD2
:101E40008DED067B1E9B13F480630D9301D1062359
:101E50001C93DDE9062310461946CDE9080152EA34
:101E6000030100F0D880C3F30A50C3F31303904674
:101E700043F07F5949F44019A0F2FF30FFF76AFDA3
:101E80007DA3D3E90023FFF7F1FC7DA3D3E9002371
:101E9000FFF7C4FC82468B4600228A4B40464946E7
:101EA000FFF7D0FC78A3D3E90023FFF7DFFC02465D
:101EB0000B4650465946FFF7B1FCFFF76FFD8246CF
:101EC000FFF748FD8046894671A3D3E90023FFF759
:101ED000CDFC00227C4BFFF7A1FCFFF75FFD8346A2
:101EE0006DA3D3E9002340464946FFF7BFFC804677
:101EF00089465846FFF72EFD69A3D3E90023FFF773
:101F0000B5FC02460B4640464946FFF79BFC80461F
:101F1000894602460B46FFF7A9FCCDE90A010BF200
:101F2000FF3B00210022CDE908124FEA0B53099331
:101F30000023089342464B4640464946FFF76EFC55
:101F4000CDE90E0142464B4600204FF08041FFF79D
:101F500079FC8046894600225C4BDDE90A01FFF7E7
:101F6000ABFC00225A4BFFF759FC02460B46DDE959
:101F70000A01FFF7A1FC0022564BFFF74FFC024677
:101F80000B46DDE90A01FFF797FC02460B46404687
:101F90004946FFF743FC02460B46DDE90E01FFF719
:101FA0008BFC00224C4BFFF739FCDDE90823FFF7DF
:101FB0005DFC80468946CDE90889DDE90623FFF707
:101FC0005FFD50B30AF1FF3A0022414B40464946BB
:101FD000FFF772FCCDE908011FE01E9B04931D9BD7
:101FE00003931C9B02939DED1A7B8DED007B334682
:101FF0003A462946204600F003F911B0BDE8F08FBB
:102000009FED297B8DED067B1A9B06931B9B03F1AD
:102010000043079316E74FF0000A0AF16303C62B4B
:1020200027D84FF004081E9B13F4006F5FD0DDE942
:10203000081213460B4313D01DA3D3E90023DDE997
:102040000601FFF709FD002800F0B4801AA3D3E9C8
:102050000023DDE90601FFF7D7FC002800F0AA8085
:102060001C9B53453ADDA3EB0A0A0AF1FF331C938C
:1020700036E04FF00508D6E7FB799F501344D33F75
:10208000B3C8608B288AC63F61436F63A787D23F7E
:1020900071A379094F930A401655B5BBB16B024045
:1020A000EF39FAFE422EE63F00000000000000007B
:1020B0002D431CEBE2361A3F0000000080842E41C5
:1020C000FFFFEF7F0000F83F0000E03F00002C40E2
:1020D00000002440000018400000F03F00231C9343
:1020E0001E9B43F480631E934FF00008C2461D9B65
:1020F000984569D2A3EB08091E9B13F0020B04D08C
:10210000B8F1000F01D04FF00009BAF1000F07D06D
:10211000DDE90823DDE90601FFF7CEFBCDE9060185
:1021200000220023DDE91A01FFF76EFC00284ED1E2
:102130001E9B23F400630493CDF80C901C9B029328
:102140009DED067B8DED007B33463A4629462046C1
:1021500000F056F8B8F1000F3FF44FAF1E9B13F09C
:10216000200F3CD04FF0450C00F1010933460246E8
:1021700029466046A0478AEAEA72A2EBEA72052382
:10218000059308F1FF330493002303930A2302937A
:102190004FEADA730193009233464A4629462046B5
:1021A000FFF773FDBBF1000F3FF427AF0246DDF8E8
:1021B00074901EE01C9B002B99D00D9B002B96D099
:1021C0001C9B013B1C9392E74FF0000994E7DDE96B
:1021D0000601024601F10043CDE90623A8E74FF0CE
:1021E000650CC1E702F10108334629462020A047CB
:1021F0004246D31B4B45F5D31046FEE600000000D7
:102200002DE9F04F2DED028B95B007900A91924683
:102210009B46DDE92089229D42464B464046494681
:10222000FFF7E0FB002835D14FF0FF326FF4801349
:1022300040464946FFF7E8FB00283AD14FF0FF320D
:102240009F4B40464946FFF71BFC002840D198A30E
:10225000D3E9002340464946FFF712FC00284FD13E
:1022600095A3D3E9002340464946FFF7CDFB00285C
:1022700046D10022002340464946FFF7C5FB00280F
:102280004CD100230B93249B13F4806F00F0B78094
:10229000002456E0249B0393239B02930323019382
:1022A000884B00935B4652460A990798FFF713FC48
:1022B00037E1249B0393239B029304230193824BD6
:1022C00000935B4652460A990798FFF704FC28E101
:1022D000249B13F004030FD07C4A7BB10423249980
:1022E000039123990291019300925B4652460A9909
:1022F0000798FFF7F0FB14E1754AEEE70323EEE7DA
:10230000249B0493239B03930295CDE900895B46AC
:1023100052460A990798FFF763FD02E142464B4691
:1023200000200021FFF78EFA8046894601230B9397
:10233000A9E704F150036B44302203F8202C013D3F
:1023400001341F2C01D8092DF3D840464946FFF728
:1023500025FB0646FFF7FEFA02460B464046494675
:10236000FFF770FA5B4B03EBC50393ED008B53EC67
:10237000182BFFF77BFA02460B46CDE90823FFF73F
:102380001FFB0746FFF7F8FA02460B46DDE9080196
:10239000FFF758FA02460B46CDE9082300224E4BC0
:1023A000FFF76EFB68B301373846FFF7E5FA0246E0
:1023B0000B4651EC180BFFF73BFB08B10136002729
:1023C0006DBB3046FFF7C6FA02460B46404649460B
:1023D000FFF738FA0746884600223F4BFFF714FB09
:1023E00000284CD100223C4B38464146FFF748FBC1
:1023F000002844D116F0010F41D001363FE00625F8
:1024000046E70022344BDDE90801FFF7FDFA00281A
:10241000D6D117B117F0010FD2D00137D0E71F2C5A
:1024200017D8013D2D4BA3FB0723DB08194603EB0F
:102430008303A7EB4303621C303304F150000DEB20
:10244000000404F8203C092F02D90F461446E6E7A1
:1024500014461F2C0AD86B1E45B104F150026A4481
:10246000302102F8201C1D460134F2E71F2C06D84B
:1024700004F150036B442E2203F8202C01341F2C4E
:1024800031D8174A82FB0632F317C3EBA2031A4670
:1024900003EB8303A6EB4303611C303304F15000CC
:1024A0000DEB000404F8203C1646DAB10C46E6E7D2
:1024B0000000000065CDCD410000000065CDCDC11C
:1024C000FFFFEF7F706800107468001064680010F0
:1024D0006C680010806800100000E03FCDCCCCCCD0
:1024E000676666660C46249B03F00303012B1DD030
:1024F0001F2C09D80B9B002B35D004F150036B44E3
:102500002D2203F8202C0134249B0393239B029358
:1025100001940CAB00935B4652460A990798FFF76B
:10252000DAFA15B0BDEC028BBDE8F08F239BB3B196
:102530000B9B1BB9249B13F00C0F12D0239B013B68
:102540002393194606E004F150036B44302203F84C
:10255000202C01348C42CBD21F2CF4D9C8E723990C
:10256000F8E72399F6E7249B13F0040F07D004F152
:1025700050036B442B2203F8202C0134C4E7249B26
:1025800013F0080FC0D004F150036B44202203F86D
:10259000202C0134B8E700BF2DE9F04F91B0804600
:1025A00017460F938946002900F0448300260F9BAD
:1025B0001878002800F04183252809D0741C3B4678
:1025C00032464946C0470F9B01330F932646EEE73C
:1025D00001330F9300251FE045F0010501320F92F2
:1025E000012318E045F0020501320F92012312E0A9
:1025F00045F0040501320F9201230CE045F0080577
:1026000001320F92012306E045F0100501320F92CE
:10261000012300E000234BB30F9A1378203B102BCB
:10262000F8D801A151F823F0FD250010152600105F
:10263000152600100926001015260010152600107A
:10264000152600101526001015260010152600105E
:1026500015260010F125001015260010E5250010A4
:102660001526001015260010D92500100B930F9B7E
:102670001A78A2F13003DBB2092B18D92A2A1BD011
:10268000DDF82CB00F9B1A782E2A25D00F9A1378DC
:10269000683B122B5CD8DFE803F0495BAA5B3B5B2D
:1026A0005B5B5B5B5B5B575B5B5B5B5BAF000FA884
:1026B000FFF7FEF98346E5E71A9B1A1D1A921B687D
:1026C000002B04DB9B460F9B01330F93DAE745F0A9
:1026D0000205C3F1000BF6E745F480655A1C0F9222
:1026E0005A78A2F13003DBB2092B0CD92A2ACDD1BA
:1026F0001A9B1A1D1A921C6824EAE4730B930F9B11
:1027000001330F93C2E70FA8FFF7D2F90B90BDE793
:1027100045F48071531C0F9353786C2B01D00D46F8
:1027200016E045F4407502320F9211E045F0800149
:10273000531C0F935378682B01D00D4608E045F0E9
:10274000C00502320F9203E045F4807501320F920A
:102750000F9B1878672854D8252867D3A0F1250344
:10276000422B63D8DFE813F05B0262006200620074
:102770006200620062006200620062006200620049
:102780006200620062006200620062006200620039
:102790006200620062006200620062006200620029
:1027A00062006200620062008201620182016200D6
:1027B0006200620062006200620062006200620009
:1027C00062006200620062006200620062006C00EF
:1027D00062006200620062006200620062006200E9
:1027E00062006C00A9016C0082016201820145F463
:1027F000007501320F92ABE745F4807501320F92FC
:10280000A6E7782812D8692810D3A0F16902D2B2BD
:102810000123934049F24102134211D113F0800F7A
:1028200040F0E28113F4806F40F07981741C3B46E4
:1028300032464946C0470F9B01330F932646B6E602
:10284000782809D062283AD06F283AD058283AD050
:1028500025F010050A2300E01023582835D06928F8
:1028600003D0642801D025F00C0515F4806F01D049
:1028700025F0010569282BD0642829D015F4007FA4
:1028800040F0968015F4807F40F0AE8015F0400F48
:1028900000F0BF801A9A111D1A9112780595CDF893
:1028A00010B00B99039102930023019300923B46D1
:1028B000324649464046FFF7E8F9064629E002233A
:1028C000CBE70823C9E71023C7E745F02005C6E793
:1028D00015F4007F21D115F4807F42D115F0400F0F
:1028E00058D01A9A111D1A91127882EAE271A1EB5E
:1028F000E2710595CDF810B00B9803900293D20FBA
:10290000019200913B46324649464046FFF7BDF9E9
:1029100006460F9B01330F9349E61A9A073222F0BD
:10292000070202F108011A9151681268084600294D
:1029300013DB0895CDF81CB00B9C06940493002380
:102940000593C90F0291009201903B4632464946D9
:102950004046FFF7E4F90646DBE7524261EB4100EF
:10296000E7E71A9A111D1A91126882EAE271A1EB47
:10297000E2710595CDF810B00B9803900293D20F39
:10298000019200913B46324649464046FFF77DF9A9
:102990000646BEE715F0800F05D01A9A111D1A9150
:1029A000B2F90020A1E71A9A111D1A9112689CE74A
:1029B0001A9A073222F0070202F108011A910895CB
:1029C000CDF81CB00B99069100210493059102915A
:1029D000D2E90023CDE900233B4632464946404632
:1029E000FFF79DF9064694E71A9A111D1A9105956D
:1029F000CDF810B00B990391029300230193136853
:102A000000933B46324649464046FFF73EF90646AC
:102A10007FE715F0800F04D01A9A111D1A911288C1
:102A20003CE71A9A111D1A91126837E746281AD006
:102A30001A9B073323F0070303F108021A92049547
:102A4000CDF80CB00B9A0292D3E90023CDE9002314
:102A50003B46324649464046FFF7D2FB06460F9BAF
:102A600001330F93A3E545F02005E1E7672801D086
:102A7000472801D145F40065452801D0472801D1F8
:102A800045F020051A9B073323F0070303F10802E2
:102A90001A920495CDF80CB00B9A0292D3E9002358
:102AA000CDE900233B46324649464046FFF798F9B8
:102AB00006460F9B01330F9379E515F002051DD0F3
:102AC00001241A98031D1A9306F1010A3B46324667
:102AD00049460078C047A5B90F9B01330F9356466E
:102AE00065E502F1010A3B4649462020C0472346DE
:102AF00052465C1C9B45F4D81646E2E70123324659
:102B0000F7E7524606E0561C3B4649462020C047A0
:102B10002C463246651CA345F5D89246DCE71A9B45
:102B20001A1D1A92D3F800A00B9BFBB94FF0FF328D
:102B3000534601E001330A46197811B1511E002AAB
:102B4000F8D1A3EB0A0315F480620C9203D00B9A20
:102B5000934228BF134615F0020409D00D94CDF816
:102B600038B00B9D32460C9E9B461FE00B9ADFE768
:102B70003246264606E0541C3B4649462020C047C4
:102B80002B4622465D1C9B45F5D834462B460D94BA
:102B9000CDF838B00B9D0C9E9B4607E01D460AF110
:102BA000010A541C3B464946C04722469AF8000099
:102BB00020B1002EF3D06B1E002DEFD10D9C1646D8
:102BC0005B46DDF838B054B90F9B01330F93EEE448
:102BD000551C3B4649462020C04723462A465C1CDC
:102BE0009B45F5D81646EFE745F021051A9B1A1DBF
:102BF0001A921B680595082204920B9A03921022E0
:102C000002920022019200933B46324649464046DA
:102C1000FFF73BF806460F9B01330F93C7E4741C84
:102C20003B46324649462520C0470F9B01330F9350
:102C30002646BCE4DFF81C80B8E4BE4208D37A1E06
:102C40003B4649460020C047304611B0BDE8F08FF2
:102C50003246F5E7A11A001000B585B00290039145
:102C6000009313464FF0FF3202A90348FFF794FC8C
:102C700005B05DF804FB00BFA31A001000BEFDE71D
:102C800008B5FFF7FBFF000000B583B08C4619467E
:102C90005AB11446064B0194009363460246054818
:102CA00000F052F90120FFF7E9FF034B1C46F2E761
:102CB000D0680010E0680010DC68001010B5EFF379
:102CC0000583DBB203B100BEFEF78AFC044C02E0D0
:102CD00054F8043B9847034B9C42F9D310BD00BF06
:102CE000F0600010F860001008B5034608461B6845
:102CF0001146984708BD0000F8B507460D46164630
:102D0000437D13B1002420460CE003681146284699
:102D100098472EE03B7D10E03B680221154898471C
:102D2000601C0134B44214DA002CF3DD2B1913F8C3
:102D3000013C0D2B14BF002301232A5D0A2AF0D188
:102D4000002BEED1A042E7DA3B68211A28449847CD
:102D5000E2E7B04203DA3B68311A28449847002E74
:102D600007DD354415F8013C0D2B14BF002301236A
:102D70003B75F8BD1069001038B50368BBB1054656
:102D80000B4B1C6806E0294651F8042B2046FFF740
:102D9000B3FF24694CB12368002BFAD0054B1B68A4
:102DA000002BF0D0A342F4D1EDE700232B6038BD17
:102DB000E8150020F015002038B505460C460B68D4
:102DC000802B05D023685A1C22601C44257138BD15
:102DD0000846FFF7D1FFF5E708B5FEF70FFA074AF7
:102DE000821841F10003002B03DB054803F054F97E
:102DF00008BD4FF0FF326FF00043F6E740420F008E
:102E00003C0E002008B5024803F03EF908BD00BFA3
:102E10003C0E00202DE9F04383B006460D46904657
:102E20001C46FFF7D9FF8146B5F1FF3F04D044B1FE
:102E3000174F184B1C6807E0304603F0DBF80546D7
:102E4000F5E7154FF5E72469BCB12368002BFAD0EC
:102E5000124B1B680BB1A342F5D12A4631462046DE
:102E6000B847B8F1000FEED00A238DF807300122E1
:102E70000DF107012046B847E5E7B9F1000F03D18E
:102E8000284603B0BDE8F083FFF7BCFFF8E700BFBA
:102E9000F92C0010E8150020E92C0010F015002096
:102EA000084A01E003F1100213683BB18342F9D1F3
:102EB00031B90369136000230361704701B11060E9
:102EC000704700BFE815002010B5054B1C6801E0F5
:102ED000984724691CB16368002BF9D1F9E710BD4C
:102EE000E815002008B500F0ABF908BD38B5054677
:102EF00003F080F8044601231A4601462846FFF7EE
:102F000089FFFFF7E1FF204638BD000070B5A2B091
:102F100004460E46FFF760FF054600230193334643
:102F2000224601A90748FFF797FE044601A8FFF7CC
:102F300023FFFFF7C9FF15B9204622B070BDFFF788
:102F400061FFF9E7B92D00100FB400B583B004A9F3
:102F500051F8040B0191FFF7D9FF03B05DF804EBC2
:102F600004B0704770470000014B00221A70704790
:102F7000651A00204B79FF2B0BD18B795BB9CB798C
:102F8000012B0AD1082A0AD98A78064B1A7009201F
:102F900070470020704700207047002070470020D5
:102FA000704700BF651A002001207047012923D116
:102FB00008B59188114B1B78994201D0002008BDBB
:102FC0005378012B03D0022B0FD00020F7E7518854
:102FD00011F4807F06D0480AC1F3402201F07F013E
:102FE000FEF7ADFA4FF0FF30F6E764220021084605
:102FF000FEF746FA0120E2E701207047651A00203B
:1030000000487047DC69001001290FD108B59446CB
:103010005378012B0CD19388072B01D0002008E0B6
:10302000A623044A614601F0F3FB02E00120704749
:10303000002008BD34690010012303700048704768
:103040001469001008B50B68B3F5966F00D008BD81
:10305000002211464FF0FF30FEF771FA024B186064
:10306000024B1960704700BF881500208C150020A6
:1030700008B5FEF7C3F80E4A821841F10003002B91
:1030800011DB0C4803F008F860B100214FF0FF306D
:1030900001F046FA002001F043FD0028F5D1054873
:1030A00002F0F2FF08BD4FF0FF326FF00043E8E797
:1030B00040420F00481A002038B5184B1B681BB35C
:1030C000EFF3108272B6D3E8CF0F01210028FAD1B6
:1030D000C3E8401F0028F6D1BFF35F8F0F494A6055
:1030E00000230F4803700968C1E88F3F82F31088FE
:1030F000002400250B4B1878FDF7BAF940B90024DD
:1031000000252046294638BD4FF47A740025F1E7A2
:10311000044B1878FDF7D6F9F3E700BF141A002026
:10312000671A0020661A002008B5024B1878FDF7D0
:10313000C9F908BD661A002070B584B00646144669
:103140001D46FEF75BF8221845EB0103002B0BDB55
:103150009DF8281002910999019108990091304633
:10316000FDF786FE04B070BD4FF0FF326FF00043F4
:10317000EEE7F0B585B005460C4616461F46FDF74E
:1031800003FE9DF828300293019700962A462346B5
:10319000FFF7D2FF05B0F0BD10B582B00021224884
:1031A00002F082FF08BB214B1B68E3B1EFF31082F2
:1031B00072B6D3E8CF0F01210028FAD1C3E8401F2F
:1031C0000028F6D1BFF35F8F18494A60184803788A
:1031D00083F001030124047008680021C0E88F1FF8
:1031E00082F31088BBB902B010BD00214FF0FF3050
:1031F00001F096F9002001F06DFC04460A4802F047
:1032000043FF002CEFD00B4B1B68002BEBD00A4A7E
:1032100010689847E7E700940B46084A4FF47A7025
:103220000021FFF7A6FFDEE7481A0020141A00204D
:10323000671A0020881500208C150020B930001076
:1032400010B582B04FF050431C68FDF79DFDFDF7AF
:103250007FFEA0422DD1244B1B780021084602F0AE
:1032600009F9224B1B6853B30120FDF711FBC0B2D3
:103270001F4C20701F49FDF745F901212078FDF70B
:1032800017F90E20FDF732F90446E0B10120FDF7F1
:1032900065F801461848FDF759FB002217490E2032
:1032A000FDF760F901211648FFF7FAFD204602B04C
:1032B00010BD144B144AC6211448FFF7E5FC0B4817
:1032C000FDF702FBD0E70C4A002313605360012294
:1032D00000920F4A4FF47A700021FFF74AFFC4436F
:1032E000E40F002CE2D0DDE71C710010481A00202A
:1032F000661A002099310010141A0020293100109C
:10330000040E0020006A0010B06A0010086A001065
:10331000B930001008B5002001F0C2FB08BD000064
:1033200038B504460D46FFF7F5FF90B3002001F0D5
:10333000D1FB88B3FDF762FF1A4A821841F10003FE
:10334000002B16DB184802F0A7FE40B3FFF7E2FFA0
:1033500018B1002001F0BEFB80B900214FF0FF3012
:1033600001F0DEF86FF002040F4802F08DFE2046F7
:1033700038BD4FF0FF326FF00043E3E72A462146A5
:10338000002001F0B3FB04460028EDD16FF00204E9
:10339000EAE76FF00204EAE76FF00204E7E76FF094
:1033A0000204E4E740420F00481A0020F8B507463F
:1033B0000D46FDF723FF2E4A821841F10003002B32
:1033C00004DB2C4802F068FE28B9F8BD4FF0FF324C
:1033D0006FF00043F5E7FFF79DFF002845D1264B2E
:1033E00000200021C3E90001224802F04DFEECE775
:1033F00000214FF0FF3001F093F8002001F090FB26
:10340000FFF788FF0028EFD0002001F00DFCF8B195
:10341000AC42E9DA2E1B002001F006FC864200DCFB
:1034200030460028E4D002463919002001F0DAFBCA
:10343000064600214FF0FF3001F072F8002001F045
:103440006FFB3444FDF7DAFE0B4BC3E90001DFE705
:10345000FDF7D4FE084A13685268084E9B1942F1E2
:10346000000283428A41D3D2BEE70024D0E700BFE6
:1034700040420F00481A0020C80F002020A107007A
:1034800000487047586B001000487047046B0010EC
:1034900010B50446144B1B786BB18CB9134B40F23A
:1034A00009425A80012301335B009BB20F4843F469
:1034B0004073038010BD11210B4800F047F8ECE782
:1034C000052C0ED80A4B53F824000023122BEAD8FF
:1034D000C25C002AE7D00133044921F81320DBB293
:1034E000F4E70020E6E700BF501A0020C0150020D6
:1034F000EC6A001000B58BB045F24730FEF710F8CB
:1035000003460122092101A89847042801D100237C
:103510000EE00A4B0A4A2F210A48FFF7B5FBC3F118
:103520000F0228326A4412F8241C074AD15401338E
:10353000072BF4DD0BB05DF804FB00BF6C6B0010D3
:10354000246C0010746B00103C1A002008B511B1F7
:103550008C4600220AE0114B114A3B211148FFF72B
:1035600093FB00210FE03733835401320CF1FF331A
:1035700093420FD90F2A0DD853080B49CB5C12F098
:10358000010FEED104210B4103F00F03092BEADCFC
:103590003033E9E70023835408BD00BFFC6B001003
:1035A000046C0010746B00103C1A002010B400F082
:1035B0007F044FEA440C0CEBD01C284B03EB4C135C
:1035C0009870C0090CBF4FF0010C4FF0000C83F84D
:1035D00001C04FF0000C83F803C01983DA76E0B91C
:1035E000E3001F4A1A4400EB44011C4B03EB411358
:1035F0009A6000EB4402194B03EB42139B680022D4
:103600001A60A4B900EB4400144B03EB4010426075
:10361000144BC3605DF8044B7047134A02EBC402BD
:1036200000EB44010D4B03EB41139A60E1E750B905
:10363000631EDB000D4A1A4400EB4400074B03EB0A
:1036400040135A60E6E7631E094A02EBC30200EB2F
:103650004400024B03EB40104260DBE7F41500200E
:103660008400105000011050800010500C001050C9
:103670000800105008B5038B3F3323F03F03C27E90
:10368000022A08D008490A68C26013440B60074A3E
:10369000934202D808BD5B00F4E7054B054A52216E
:1036A0000548FFF7F1FA00BFF8190020FF0F10508E
:1036B000406C00106C6D0010846C001070B500F050
:1036C0007F054FEA450C0CEBD0130C4C04EB431474
:1036D000FFF76CFF05B970BD218B2046FFF7CAFFCD
:1036E000E27EE36883F0A04383F4801343EA8263BD
:1036F00043F0004362681360EDE700BFF41500205B
:1037000008B500F07F035B0003EBD010024B03EB26
:10371000401000F01BF908BDF415002008B520B9D1
:1037200001210E20FCF7C4FE08BD034B034A40F202
:1037300097110348FFF7A8FA306D00105C6D001078
:10374000846C001008B528B9002211468020FFF7CC
:10375000D7FF08BD034B044A40F2A1110348FFF70D
:1037600093FA00BF306D00104C6D0010846C001097
:10377000024B4FF48032DA64704700BF00201150D2
:1037800070B548BB064600F0C1F8174C0C23A36780
:10379000FF2216490E20FCF7E5FE40252A460021AF
:1037A000134802F05DFB002229461046FFF786FF12
:1037B000002229468020FFF781FF02F059FC0125F5
:1037C00025644FF00053E3640A4BC4F89030304650
:1037D000FFF7CEFF284670BD074B084A40F2631141
:1037E0000748FFF751FA00BF00001150990300206D
:1037F000F415002010D00100306D0010806D001015
:10380000846C0010044B197021B1044B4FF400324A
:10381000C3F89020704700BF621A002000201150AA
:103820000B7813F07F0F02D14B78052B00D0704737
:103830004B88DBB2014A1360F9E700BF000011506A
:10384000CA7802F00302012A09D008B50B4689881C
:10385000C1F30A019878FFF731FF012008BD00206D
:10386000704708B502F004FC08BD000010B530B97F
:10387000084611461A46FFF743FF012010BD034BCF
:10388000034A4FF401710348FFF7FEF9306D001051
:103890003C6D0010846C001008B511F07F0304D15A
:1038A000CA090ED10220084A90665B0003EBD113CF
:1038B0004FF400620021054800EB431002F0E8FBE2
:1038C00008BD0120EFE700BF00201150F4150020D3
:1038D00008B511F07F0300D108BD5B0003EBD113E5
:1038E000044800EB43100022C2706FF4006102F044
:1038F000CFFBF1E7F415002004E011F8012B00F8EC
:10390000012B1A46531E002AF7D1704708B54FF015
:1039100080530A4A136002F580521360084B9B687B
:1039200013F0805FFAD04FF480520021054802F076
:1039300097FA054B09225A6708BD00BF00200240D4
:1039400000000240000010500000115070B5044605
:103950000D461646837EABB9A6820023E38201237F
:10396000A3762561204602F09BFB20B10B4B4FF460
:103970000032C3F89020204602F07EFB50B10123B4
:10398000237770BD81780648FFF7DEFA204602F003
:1039900063FBE1E7204602F067FBF2E700201150ED
:1039A000AC6E001038B50546002408E0D21A1B4B57
:1039B00003EB4213DB68284698470134E4B2184B06
:1039C0001B782246591CA14215DBA342EED9154BA8
:1039D0001B6813EB4413EDD140F225221249134822
:1039E000FFF7B2FA4FF0E023D3F8F03D13F0010FE8
:1039F00013D000BE11E00E4C54220021204602F0EC
:103A00002FFA4FF0FF336360A360E360236120224D
:103A1000FF2104F1140002F023FA38BDC46F001036
:103A2000611A0020D00F0020906F0010F46E00107B
:103A3000A011002008B5FFF7B5FF00F03FFF08BD5B
:103A400070B505460C461646486900F041FF6369AB
:103A5000324601212846984770BD00002DE9F04FFD
:103A600083B08246481EC0B2FFF70EFD20B18346E8
:103A700043780193022B11D040F2D6326249634859
:103A8000FFF762FA4FF0E023D3F8F03D13F0010F97
:103A900000D000BE002003B0BDE8F08FC279C2F3B1
:103AA00040105B4B197860F304111970C2F3801257
:103AB000C9B262F3451119700BF10908BBF8023065
:103AC0009B447BE098F8033098F8002090447DE018
:103AD00040F2F1324C494D48FFF736FA4FF0E023FF
:103AE000D3F8F03D13F0010F00D000BE0020D2E764
:103AF000F31A484A02EB4319D9F810302A464146D6
:103B000050469847082801D985421ED20134E4B2B4
:103B1000414B1B7826465A1CA2424ADBA342E7D9F6
:103B20003E4B1B6813EB4419E6D140F2FA3236499A
:103B30003648FFF709FA4FF0E023D3F8F03D13F0D1
:103B4000010F00D000BE0020A5E73B464F4681464E
:103B5000012B11D000218B4224D998F802200A446D
:103B6000D2B22B4810440079FF280BD128480244D8
:103B700014710131C9B2EEE73969294A9142E9D19C
:103B8000019BE7E740F219421F492048FFF7DCF9A3
:103B90004FF0E023D3F8F03D13F0010F00D000BE4A
:103BA000002078E723464A4641461E4801F06EFD54
:103BB000C844194B1B7801339E4212DCD84520D2F1
:103BC00098F801300B2B3FF47DAF012398F80120CA
:103BD000042A7FF47DAFABEB0805ADB200241F468D
:103BE00096E74FF4856208490848FFF7ADF94FF0B2
:103BF000E023D3F8F03D13F0010F00D000BE002009
:103C000049E7012047E700BF646F0010F46E001021
:103C1000A0110020C46F0010611A0020D00F0020F6
:103C2000A14D0010B411002070477047002070476C
:103C30000020704738B505460C464B881A0AD8B2A2
:103C4000531E0E2B64D8DFE803F0082D4E63635932
:103C50002D636363636363632200FFF711FC024615
:103C600028B112232146284600F0D2FD51E040F24F
:103C70003A422C492C48FFF767F94FF0E023D3F87C
:103C8000F03D13F0010F00D000BE002041E0FFF72F
:103C9000B7F9024600283DD043882146284600F067
:103CA000B7FD36E0022A09D0FFF7C2FF024698B3FB
:103CB00053882146284600F0ABFD2AE0FFF7E4FBDD
:103CC00002460028F4D140F2614216491648FFF737
:103CD0003BF94FF0E023D3F8F03D13F0010F00D093
:103CE00000BE002015E0A188FFF7D2FB0246A8B174
:103CF00003782146284600F08BFD0AE0FFF796FF87
:103D0000024668B103782146284600F081FD00E0B4
:103D1000002038BD0020FCE70020FAE70020F8E78B
:103D20000020F6E74C6F0010F46E001070477047EB
:103D300070477047024B5878003818BF0120704711
:103D4000A0110020024B1878C0F38000704700BF1C
:103D5000A0110020024B1878FF3818BF01207047CF
:103D6000380E0020F8B506460D46FFF7F3FF07466C
:103D7000002854D105B354220021374802F070F8CE
:103D8000364B00221A70364C2046FCF79DFD354B11
:103D90001C60354C2046FCF7E1FD143C204602F047
:103DA00027F8324B1C60324B23B13248FFF744F9FD
:103DB000314B1860002417E04FF4E9722F49304866
:103DC000FFF7C2F84FF0E023D3F8F03D13F0010FF6
:103DD00025D000BE23E0D21A2A4B03EB42135B68C6
:103DE0007BB198470134E4B2224B1B782246591C20
:103DF000A14216DBA342EED91F4B1B6813EB441301
:103E0000EDD14FF4F8721D491D48FFF79DF84FF0B2
:103E1000E023D3F8F03D13F0010F00D000BE384688
:103E2000F8BD194B1E7029463046FFF7A9FC07461E
:103E300018B13046FFF772FCF1E74FF4FC720F49FE
:103E40000F48FFF781F84FF0E023D3F8F03D13F06F
:103E5000010FE4D000BEE2E7A0110020631A0020A9
:103E600098110020F4110020300E0020F8110020DD
:103E700039300010611A0020D00F0020B46F0010FC
:103E8000F46E0010C46F0010380E002070B51A4B8D
:103E90001E788B7813F0700F0ED10C46174B997863
:103EA000204601F083FB0546B0B121463046FFF7BE
:103EB000C7FC0546284670BD40F20B521049114818
:103EC000FFF742F84FF0E023D3F8F03D13F0010F75
:103ED00000D000BE0025EDE740F20C520849094829
:103EE000FFF732F84FF0E023D3F8F03D13F0010F65
:103EF000E0D000BEDEE700BF380E0020A011002099
:103F00001C6F0010F46E00102DE9F84F80460C462F
:103F100016461F46DDF82890DDF82CA0002526E087
:103F200040F2E7421F492048FFF70EF84FF0E02328
:103F3000D3F8F03D13F0010F00D000BE4FF0000B9E
:103F40005846BDE8F88F4FF49D6216491648FEF7B3
:103F5000FBFF4FF0E023D3F8F03D13F0010FEFD05B
:103F600000BEEDE78AF8003023781C440135AE42EC
:103F700014DD6378052BD3D1E17801F00301B94258
:103F8000CED121464046FFF781FF83460028DAD094
:103F9000A378DA09E6D189F80030E5E74FF0010BA4
:103FA000CEE700BF2C6F0010F46E001008B501F0D2
:103FB0007F00400000EBD1103030044B1844044B1C
:103FC0001968043001F0ACFA08BD00BFA011002050
:103FD000F411002008B501F07F00400000EBD11083
:103FE0003030044B1844044B1968043001F0C0FA17
:103FF00008BD00BFA0110020F411002070B51F48BB
:10400000007801F07F051E4C04EB450C0CEBD11C35
:104010009CF8344014F0010F1FD1CE09184C04EB6A
:104020004504344494F834C04CF0010C84F834C096
:104030003034FFF71BFCF8B922796FF300022271CC
:1040400022796FF3820222714FF0E023D3F8F03D22
:1040500013F0010F10D000BE0EE040F239520949B2
:104060000948FEF771FF4FF0E023D3F8F03D13F05D
:10407000010F00D000BE002070BD00BF380E002030
:10408000A01100200C6F0010F46E001038B501F084
:104090007F05CC090A4B1878FFF7FEFB094B03EBB1
:1040A0004503234493F8342042F0020283F834207D
:1040B00093F8342042F0010283F8342038BD00BF69
:1040C000380E0020A011002038B501F07F05CC0982
:1040D0000A4B1878FFF7FCFB094B03EB450323441D
:1040E00093F834206FF3410283F8342093F834209E
:1040F0006FF3000283F8342038BD00BF380E002073
:10410000A011002001F07F02044B03EB420303EBFC
:10411000D11191F83400C0F340007047A011002085
:104120002DE9F04182B006460C46002000F0D0FB9D
:10413000237803F06003602B16D0402B27D0227821
:1041400002F01F02012A00F00581022A00F04681D8
:104150003AB34FF0E023D3F8F03D13F0010F00F035
:10416000D48100BE00250EE04FF43572AB49AC4857
:10417000FEF7EAFE4FF0E023D3F8F03D13F0010F15
:1041800000D000BE0025284602B0BDE8F081A54859
:1041900000F09EFB224601213046FEF735FF054622
:1041A000F1E7202B0BD05BBB6378092B00F2C780B3
:1041B000DFE803F0B2A2C592C5308CC53F4CA3889E
:1041C000DBB20F2B00F29181974A13441B79974A77
:1041D0001278934206D2964A116811EB431109D125
:1041E0000025D0E7511C9942C0F281819B1A914968
:1041F00001EB431122463046FFF722FC0546C2E799
:104200004FF0E023D3F8F03D13F0010F00D000BED3
:104210000025B8E7204600F061FB6188C9B230464E
:10422000FFF790FA804A137843F0020313700125D8
:10423000A9E77D4B5B788DF8063001230DF106026E
:104240002146304600F0E4FA01259CE76588EDB28E
:10425000754B5B78DBB2AB4232D0734B5B785BB9AA
:10426000714B5D7055B329463046FFF7F7FB0546A5
:1042700090B1FFF75BFD23E000213046FFF7C2FA63
:104280003046FFF7EEFA684F97F802803046FFF7A6
:1042900089FB87F80280E3E74FF449725F49604881
:1042A000FEF752FE4FF0E023D3F8F03D13F0010F7C
:1042B00000D000BE5C4B00225A7064E7FFF737FD68
:1042C0002146304600F090FA01255CE72146304651
:1042D000FFF7B0FC054656E76388012B01D00025A7
:1042E00051E7514A137843F00803137021463046D2
:1042F00000F07AFA012546E76388012B01D00025FA
:1043000041E7494B1A786FF3C3021A7021463046D1
:1043100000F06AFA012536E7434B1B789A08C3F38D
:10432000401302F002021343ADF8063002230DF1F0
:1043300006022146304600F06BFA012523E74FF0D4
:10434000E023D3F8F03D13F0010F00F0D28000BE5F
:10435000002518E7A388DBB20F2B00F2CC80324A8D
:1043600013441B79314A1278934222D2304A1168A1
:1043700011EB431100F0C18022463046FFF760FB8D
:10438000054600287FF4FFAE237813F0600F7FF41A
:10439000FAAE63780A3B012B3FF6F5AE00F098FACF
:1043A00063780A2B0ED02146304600F01DFA012515
:1043B000E9E6511C9942C0F2A2809B1A1D4901EB0B
:1043C0004311D9E700238DF8063001230DF10602D1
:1043D0002146304600F01CFA0125D4E6A288D1B26D
:1043E00002F07F05C2F3C01012F0700F24D10E4A04
:1043F00002EB45020244127D0C48007882422BD227
:104400000B48056805EB421583B3002D79D0224691
:1044100029463046FFF714FB0546B4E6786F0010D6
:10442000F46E001009300010A0110020611A002065
:10443000D00F0020C46F001040F295323449354847
:10444000FEF782FD4FF0E023D3F8F03D13F0010FAB
:1044500000D000BE002596E6451C954204DB121AEA
:104460002D4D05EB4215CFE70025CDE76378012BF5
:104470001AD0032B18D04BB14FF0E023D3F8F03D06
:1044800013F0010F00D000BE00257CE63046FFF798
:1044900039FEADF8060002230DF106022146304632
:1044A00000F0B6F901256EE6628822B9012B18D01A
:1044B0003046FFF7EBFD35B3224629463046FFF77D
:1044C000BFFA002000F004FA144B93F8355015F0B1
:1044D00001057FF458AE2146304600F085F90125EC
:1044E00051E63046FFF7F0FDE5E700254BE60025F5
:1044F00049E6002547E6002545E6002543E6002578
:1045000041E600253FE601253DE600253BE600BFEC
:10451000786F0010F46E0010C46F0010A01100201E
:1045200010B584B0FFF716FC48B904B010BD9DF873
:104530000400FFF77FFA9DF80820854B9A70854BA1
:104540001C686369EFF3108272B6D3E8CF0F0121C4
:104550000028FAD1C3E8401F0028F6D1BFF35F8FCF
:10456000A26101A9204601F0EBFB6169A369002269
:10457000C1E88F2F83F310880028D6D09DF805302E
:10458000013B072B00F2DA8001A252F823F000BFB2
:104590002F450010B145001029470010EF460010CC
:1045A00009470010BF450010554600101B4700107A
:1045B0009DF80400FFF73EFAFFF7B9FBBFE7664B33
:1045C0001B78002B36D0644A1378013BDBB21370A2
:1045D0001378002BB3D15E4B1A7842F001021A70A7
:1045E00093F834206FF3000283F8342093F83420DA
:1045F0006FF3820283F8342093F835206FF30002C2
:1046000083F8352093F835206FF3820283F8352044
:1046100002A99DF80400FFF783FD00288FD1002137
:104620009DF80400FFF738F980219DF80400FFF79A
:1046300033F984E740F2652248494948FEF784FC93
:104640004FF0E023D3F8F03D13F0010F3FF46DAFCE
:1046500000BE6AE79DF8081001F07F00CC093C4BD2
:1046600003EB400303EBD11393F834206FF3000204
:1046700083F8342093F834206FF3820283F83420D7
:10468000A8B1334B03EB400323441B7D354A12781A
:10469000934214D2344A126812EB431317D09C6928
:1046A000039B9DF809209DF80400A04747E7039B62
:1046B0009DF809209DF8040000F01EF93FE7501C0A
:1046C000984204DB9B1A294A02EB4313E7E74FF4B5
:1046D000247222492248FEF737FC4FF0E023D3F83A
:1046E000F03D13F0010F3FF420AF00BE1DE7184B63
:1046F0001B7813F0010F3FF422AF154B1878C0F36D
:10470000C000FFF715FB1AE7114B1B7813F0010FE0
:104710003FF415AFFFF70DFB11E7029B002B3FF4B1
:104720000EAF039898470AE7094BDB7813F0010FA7
:104730003FF405AF0298FFF778FA00E74FF0E02367
:10474000D3F8F03D13F0010F3FF4F9AE00BEF6E6EA
:10475000A0110020F8110020631A0020A46F00109F
:10476000F46E0010611A0020D00F0020C46F0010FA
:1047700008B591F90030002B05DB802100231A4693
:10478000FFF73CFC08BD0021F8E70000F8B507463C
:10479000134B9E89DD89741BA4B2402C28BF402492
:1047A00093F90030002B08DB0021AE4213D00D4AF4
:1047B00023463846FFF722FCF8BDAE4209D0084B2D
:1047C0009968402C09D82246064801F09DFB8021BB
:1047D000EBE78021E9E70022EAE70020ECE700BFF1
:1047E000601100202011002008B586460B46074ABC
:1047F000944608684968ACE8030000219160D181C3
:10480000918119467046FFF7B3FF08BD6011002083
:1048100038B505468C46264CA64608684968AEE879
:104820000300A2600021E181BCF806108B4228BF82
:104830000B46A381BCF8061029B303B132B1284658
:10484000FFF7A4FF044680B1204638BD7222194903
:104850001948FEF779FB4FF0E023D3F8F03D13F051
:10486000010F00D000BE0024EEE774221149124867
:10487000FEF76AFB4FF0E023D3F8F03D13F0010F91
:10488000E2D000BEE0E761462846FFF771FF04462C
:104890000028D9D1762207490748FEF755FB4FF08B
:1048A000E023D3F8F03D13F0010FCDD000BECBE7ED
:1048B000601100201C700010F46E0010034B0022E9
:1048C0001A605A609A60DA601A61704760110020BD
:1048D000014B1861704700BF601100200146054B75
:1048E0001A460068496803C200229A60DA819A81F8
:1048F000704700BF6011002038B505461C463D4B8F
:104900001B78DB09B3EBD11F1CD07CB19D223A4947
:104910003A48FEF719FB4FF0E023D3F8F03D13F0CF
:10492000010F00D000BE0024204638BD314C214686
:10493000FEF776FF23691BB12246032128469847DC
:104940000124F1E72B4B93F90030002B07DB294BB7
:10495000986800284CD02246294901F0D5FA254A0A
:10496000D38913FA84F39BB2D38191682144916077
:10497000D288934201D03F2C26D81E4B1B6923B10D
:104980001C4A022128469847A0B11A492846FFF739
:10499000EFFE04460028C7D1C52217491748FEF785
:1049A000D3FA4FF0E023D3F8F03D13F0010FBBD062
:1049B00000BEB9E700212846FEF76EFF8021284699
:1049C000FEF76AFF0124AFE72846FFF7DFFE044643
:1049D0000028A9D1CD2208490848FEF7B5FA4FF0C2
:1049E000E023D3F8F03D13F0010F9DD000BE9BE70C
:1049F000002499E76011002004700010F46E00108C
:104A00002011002038B50446FFF794F950B900236F
:104A1000184633B1204BC82202FB0433DB7843B97C
:104A2000002038BDFFF78EF908B90123F0E7002315
:104A3000EEE7154604FB05F51035174B1D442846D7
:104A400001F068F93F2801D80020EAE7124BC8229C
:104A500002FB0433D9780020FFF7A8FA0028E0D041
:104A6000284601F057F93F280CD90B49C82303FB0E
:104A700004114023094A02EBC412C9780020FFF751
:104A8000BDFACEE7044BC82202FB0433D9780020DC
:104A9000FFF7A0FA0020C4E758100020D40F002030
:104AA00010B50446FFF746F908B9002010BDFFF71E
:104AB00049F948B9064BC82202FB04331B7913F0AD
:104AC000010F03D00120F1E70020EFE70020EDE720
:104AD0005810002008B5C82303FB00F01030024B2B
:104AE000184401F0E6F808BD5810002038B5044617
:104AF000C82300FB03F31033084818444FF6FE7335
:104B00009A4208D892B201F03AF905462046FFF7DA
:104B100079FF284638BD4FF6FF72F4E758100020A1
:104B200070B50546FFF706F918B9002343B9002010
:104B300070BDFFF707F908B90123F7E70023F5E790
:104B4000C82405FB04F42034224B1C4404342046C2
:104B500001F0AFF808B90020EAE71E4BC82202FBBB
:104B6000053399780020FFF721FA08B90020DFE724
:104B7000EE014036184B1E4440223146204601F0DB
:104B8000FEF80446D8B11349C82303FB05110346B8
:104B9000324689780020FFF731FA08B12046C7E78E
:104BA000D5220E490E48FEF7CFF94FF0E023D3F897
:104BB000F03D13F0010F00D000BE0020B8E7054B18
:104BC000C82202FB053399780020FFF703FA002082
:104BD000AEE700BF58100020D40F00204C7000102A
:104BE000F46E001070B50546C82400FB04F42034B0
:104BF0000C4B1C4404344FF6FE739A420BD892B20D
:104C0000204601F0F0F80646204601F052F83F2811
:104C100004D8304670BD4FF6FF72F1E72846FFF723
:104C20007FFFF6E75810002008B5C82303FB00F00B
:104C30002030034B1844043001F06CF808BD00BF6D
:104C4000581000202DE9F04383B0C82200212448E9
:104C500001F006F90025234B1D7015B103B0BDE826
:104C6000F0831F4FC82405FB04F43E19FF23737122
:104C70004FF4E133B3604FF0000886F80C8086F8FB
:104C80000D800823B37304F1380104F11000CDF84E
:104C90000080012340223944384400F0D9FF04F158
:104CA000780104F120003844012300934022394464
:104CB000043000F0CDFF04F1B809B9444846FBF7D1
:104CC00003FEC0343C442046FBF7FEFDC6F81C80C2
:104CD000C6F820903463C6F834800135EDB2BCE7E5
:104CE000581000205410002000230BB10120704701
:104CF0009C460C4AC82101FB0322116A106B31B19A
:104D0000084AC82101FB03220021D161116230B1A0
:104D1000044AC82101FB0C220021116351630133B5
:104D2000DBB2E2E75810002038B5002404B138BDEA
:104D30002546C82304FB03F3174958180022CA501C
:104D40000271164B1B7813F0010F11D0134B1B7817
:104D500013F0020F15D0C82303FB05F020300E4BD3
:104D600018440121043001F05EF80134E4B2DDE7BB
:104D7000C82304FB03F310330846184401F038F845
:104D8000E4E7C82005FB00F02030034B1844043052
:104D900001F02EF8DFE700BF58100020541000206B
:104DA0002DE9F04182B04B79022B7DD106468B79FB
:104DB000022B7ED100273FB18FB98B7888F8003065
:104DC0000B78CC1809251EE0C8203B4B00FB0738A8
:104DD00098F80230002BEFD00137FFB2EBE740F23A
:104DE000411236493648FEF7AFF84FF0E023D3F8CA
:104DF000F03D13F0010F00D000BE002555E02378F0
:104E00001D44ADB21C446378242B01D19542F6D9E0
:104E1000052B09D06378042B02D163790A2B20D0AB
:104E20003846FFF7EFFD40E021463046FFF72EF809
:104E300038B1A37888F8013023781D44ADB21C4402
:104E4000E8E740F253121D491D48FEF77DF84FF088
:104E5000E023D3F8F03D13F0010F00D000BE002591
:104E600023E021780D44ADB208F10203019308F16B
:104E70000303009302231A4621443046FFF744F807
:104E800010B10E35ADB2CBE74FF4B1720B490C48FF
:104E9000FEF75AF84FF0E023D3F8F03D13F0010F7E
:104EA00000D000BE002500E00025284602B0BDE885
:104EB000F0810025F9E700BF581000204070001075
:104EC000F46E0010137803F06003202B78D170B5D6
:104ED0009446002454B1002C74D19CF80130203B3E
:104EE000032B71D8DFE803F010283458C82304FBE3
:104EF00003F3394A03EB020ED25CBCF804309A4249
:104F0000E9D00134E4B2E5E7012903D0032909D04F
:104F1000012058E007230EF108026146FFF778FCF4
:104F2000012050E02D4B002B50D00EF108012046FF
:104F3000FEF788F8012046E0012901D0012042E077
:104F400007230EF108026146FFF762FC01203AE0F8
:104F5000012903D0032906D0012034E06146FFF780
:104F600043FC01202FE0BCF8023013F001010D4694
:104F7000C3F340068EF804300CBF012100210EF16E
:104F8000240000F050FF164B13B33246294620464A
:104F9000AFF30080012016E0012903D0032906D0D9
:104FA000012010E06146FFF71FFC01200BE00D4BD4
:104FB00083B1BCF802102046AFF30080012002E06C
:104FC00000207047002070BD0020FCE70120FAE7B8
:104FD0000120F8E70120F6E75810002045300010C6
:104FE00000000000000000002DE9F84F80460D464B
:104FF0001F4600245CB1BCB9A246F378AB4223D073
:10500000B378AB4255D001242046BDE8F88FC823C1
:105010003C4E03FB0466F378AB42ECD0B378AB4272
:10502000E9D00134E4B2E5E74FF4E6723649374897
:10503000FDF78AFF4FF0E023D3F8F03D13F0010FA6
:1050400000D000BE0024DFE706F1100BBAB23049F1
:1050500001EBC411584600F0C6FE2E4BDBB173794C
:10506000FF2B18D04FF0000901E009F10109B94503
:1050700011D27279264B03EBCA1313F809309A4206
:10508000F3D1584600F029FE0028EED17179204670
:10509000AFF30080E9E7204B1BB1584600F01DFE3E
:1050A00018B12046FFF7AEFCAAE72046AFF3008018
:1050B000F7E71A4B13B12046AFF300802046FFF705
:1050C0002FFD08B101249FE706F1240000F0F1FD57
:1050D000A0B9AFB117F03F0F01D0012494E7B17828
:1050E0004046FEF763FF044608B901248CE700231D
:1050F0001A46B1784046FEF781FF85E7012483E731
:10510000012481E75810002030700010F46E001068
:10511000D40F00200000000000000000000000008C
:1051200090B90A4B4FF4137101FB003393F8293106
:1051300033B9064B01FB00335B791BB1012070478B
:105140000120704700207047002070473C1300206A
:1051500008B10020704708B54FF41372034902FBF1
:105160000011043100F02CFB08BD00BF3C130020EF
:105170002DE9F04784B04FF4137200211E4800F06F
:105180006FFE002414B104B0BDE8F0874FF413752E
:1051900004FB05F505F5A473174F3B440433E60102
:1051A000DFF858A00AEBC41205F594704FF04009DF
:1051B000CDF80C9002924FF48078CDF804800093E3
:1051C00000231A461946384400F085FA05F12003F9
:1051D0003B4408334E445644E819CDF80C900296EF
:1051E000CDF804800093002301221946043000F01A
:1051F00072FA0134E4B2C5E73C130020BC1200206F
:1052000070B500240CB1012070BD4FF4137504FB80
:1052100005F505F59470054E304400F086FAA8199E
:10522000043000F082FA0134E4B2EBE73C130020D2
:105230002DE9F04100250DB1BDE8F0814FF4137464
:1052400005FB04F40B4E04EB06080027375504F564
:105250009870304400F0CCFD04F108003044043074
:1052600000F0C6FD88F8297188F805700135EDB2A7
:10527000E1E700BF3C1300204B79FF2B40F0948006
:105280002DE9F04780460F460C780C44A5180026FF
:1052900016B10020BDE8F0873046FFF741FF10B19E
:1052A0000136F6B2F4E74FF4137306FB03F33F4AFB
:1052B00003EB0209B978D1542AE0AC4271D22146FD
:1052C0004046FEF7E3FD70B30136F6B2A378DB0982
:1052D00038D109F5947A09F5987000F089FDA37822
:1052E00089F82931A388C3F30A03B3F5007F14BFFB
:1052F0000023012399F8282163F3410289F828212A
:105300005146404600F0A8FA00283BD023781C44C0
:105310003B79B34245D96378052BCED0AC42CCD291
:1053200023781C44F7E7E02221492248FDF70CFED0
:105330004FF0E023D3F8F03D13F0010F00D000BE92
:105340000020A7E709F10C0000F052FDA37889F8CE
:105350000530A388C3F30A03B3F5007F14BF00230D
:10536000012399F8042063F3410289F804200F48CF
:10537000A9EB00008010104B03FB00F0C0B2FFF758
:10538000E7FEC3E7E8220A490A48FDF7DDFD4FF0D2
:10539000E023D3F8F03D13F0010F00D000BE002051
:1053A00078E7E11B88B275E7002070473C130020C6
:1053B00064700010F46E00109B1DB5082DE9F041DB
:1053C00005461F4600245CB1002C48D1A04696F843
:1053D00029318B4213D073798B422BD001203FE0CF
:1053E0004FF413731F4E03FB046696F829318B426A
:1053F000EAD073798B42E7D00134E4B2E3E7B6F840
:1054000034317BB9184B33B1BAB2184901EBC8112A
:105410002046AFF3008006F59471284600F01CFA90
:1054200001201DE0BAB2D6F82C1106F5987000F0F4
:10543000DAFCE7E70E4B1BB1B9B22046AFF30080B0
:1054400004363146284600F0BBF908B1012007E0D8
:105450003A463146284600F06BF9012000E0002072
:10546000BDE8F0813C13002000000000BC120020C9
:105470000000000010B582B051B10A46012824D8BE
:105480000B7813B323490B54012B2FD001242AE0AE
:1054900001238DF8043000208DF8050001A9FEF7E6
:1054A00061FC044618B11B4B01221A701BE0472215
:1054B00019491A48FDF748FD4FF0E023D3F8F03DB5
:1054C00013F0010F0FD000BE0DE05A22124913480D
:1054D000FDF73AFD4FF0E023D3F8F03D13F0010F54
:1054E00000D000BE0024204602B010BD1146FEF7D9
:1054F00039FC04460028F6D15F2207490748FDF72A
:1055000023FD4FF0E023D3F8F03D13F0010FEAD074
:1055100000BEE8E794110020E4700010F46E001063
:1055200070B50446037813F001001FD10D462378AF
:10553000C3F3800613F0040F19D14FF0FF31284652
:1055400000F08EFD237813F0010308D1227812F0C9
:10555000040F09D1237843F0040323700126284661
:1055600000F092FD304602E01E46F8E7002070BDD4
:1055700070B505460C464FF0FF31204600F070FD37
:105580002B78C3F3800613F0040F04D1204600F0FB
:105590007BFD304670BD2B7813F0010F04D12B78C2
:1055A0006FF382032B70F1E70026EFE708B58388DD
:1055B000C3F30A02C37803F00303022B1FD0032BAB
:1055C00046D0012B01D0002008BD022905D040F2B1
:1055D000FF33934204D30120F6E74FF48063F8E7EA
:1055E000D12228492848FDF7AFFC4FF0E023D3F83B
:1055F000F03D13F0010F00D000BE0020E4E70229C7
:1056000003D0402A15D80120DEE7B2F5007F01D192
:105610000120D9E7D8221B491B48FDF795FC4FF024
:10562000E023D3F8F03D13F0010F00D000BE0020BE
:10563000CAE7DB2213491448FDF786FC4FF0E0234C
:10564000D3F8F03D13F0010F00D000BE0020BBE7FF
:10565000022904D04023934204D30120B4E74FF43D
:105660008063F8E7E12207490748FDF76DFC4FF03A
:10567000E023D3F8F03D13F0010F00D000BE00206E
:10568000A2E700BFD0700010F46E00100A4404E0DE
:105690005DF804FB91F800C0614491421AD291F880
:1056A00001C0BCF1050FF5D100B591F802C00CF0B6
:1056B0007F0E00EB4E0E4FEADC1C0EF80C3091F81A
:1056C00000C061449142E3D291F801C0BCF1050FE2
:1056D000F5D1EAE77047F0B583B004461746089D58
:1056E000BDF8246090F800C061F3000C00F808CB0E
:1056F000009301233246294600F0AAFA05B13EB9CB
:105700000A9B6360BDF82C306380012003B0F0BDBC
:1057100004F11C052846FBF7D7F827B12B460025D6
:105720006361A561ECE70023FAE701207047000000
:10573000F8B506460C4615460B7813F0020F10D04C
:105740004FF4007704F1080000F0B3FA68BB75B3BA
:10575000013F2F422DD1237813F0010F03D00020F9
:1057600024E04027EEE761783046FEF71FFC002872
:10577000F5D0237813F0010F0FD04FF4B5720E4916
:105780000E48FDF7E1FB4FF0E023D3F8F03D13F0B6
:10579000010F00D000BE002008E000231A46617807
:1057A0003046FEF72BFC08B9E7E70020F8BD0020E3
:1057B000FCE70020FAE700BFAC700010F46E0010A8
:1057C00070B506460C4601F10805284600F071FA4E
:1057D00000283BD0237813F0010F01D0002070BDCA
:1057E00061783046FEF7E2FB0028F7D062886168F6
:1057F000284600F0C4FA0546E8B1237813F0010FFB
:105800000FD04FF4BC7212491248FDF79DFB4FF0C8
:10581000E023D3F8F03D13F0010F00D000BE0020CC
:10582000DDE70346626861783046FEF7E7FB002853
:10583000E7D02846D3E7237813F0010F01D00020EA
:10584000CDE761783046FEF7C5FBF8E70020C6E7F4
:1058500090700010F46E0010F8B506460C468B8967
:105860005BBB0B7813F0010F01D00020F8BD497825
:10587000FEF79CFB0028F8D06388227812F0010F15
:105880000FD04FF4D97238493848FDF75DFB4FF01F
:10589000E023D3F8F03D13F0010F00D000BE00204C
:1058A000E4E761783BB162683046FEF7A7FB002869
:1058B000E7D06088DAE70022F6E70B7813F0020FF2
:1058C0000ED04FF4007504F10807384600F022FAB4
:1058D000854247D8237813F0010F03D00020C5E795
:1058E0004025F0E761783046FEF760FB0028F5D0F0
:1058F000384600F00FFA854229D86D42ADB2628871
:1059000005EA0003934228BF13461D46237813F08F
:10591000010F0FD040F2C71213491448FDF714FBD2
:105920004FF0E023D3F8F03D13F0010F00D000BE9C
:1059300000209BE7617845B162682B463046FEF750
:105940005DFB0028E6D0284690E70022F5E72378A3
:1059500013F0010F01D0002088E761783046FEF790
:1059600039FBF8E7002081E774700010F46E001036
:1059700003460A4490B2814202D8B0EB430F03DBE6
:105980005B009BB2C01A80B2704710B586460846CD
:10599000BEF804C09A420CD3D41AA4B224B3A445CE
:1059A00014D294450CD8A2EB0C0293B2AEF80A3094
:1059B0000CE0D41A4FEA4C0111FA84F4A4B2EDE7DA
:1059C000624493B2F2E7A3EB0C039BB29C45FAD975
:1059D000DEF80010BEF80620C2F30E0202FB03112F
:1059E00000F092FA012010BD0020FCE72DE9F04103
:1059F00006460F469DF818E0B0F804C0ACEB03056E
:105A00001FFA85F8A3EB0C0C9444C088C0F30E0178
:105A1000084615FB01F51CFB01FC316800FB031176
:105A2000BEF1000F09D1ADB21FFA8CF4904506D338
:105A300000FB02F2384600F067FABDE8F0812A4622
:105A4000384600F061FA22463168781900F05CFAB5
:105A5000F3E730B583B09E46BDF81830B0F804C007
:105A60009E4511D3AEEB0304A4B224B3A44507D2E0
:105A7000F44511D8AEEB0C0E1FFA8EF34381644649
:105A8000944210D314460EE0AEEB03044FEA4C05EB
:105A900015FA84F4A4B2E8E7E6441FFA8EF3EDE7C2
:105AA000A3EB0C039BB29C45FAD99DF81C200092F5
:105AB0002246FFF79BFF204603B030BDF0B583B010
:105AC00004460D4616461F46006918B14FF0FF31D7
:105AD00000F0C6FA2389628992B2019700929BB2C4
