:020000041000EA
:10000000002008205D0100101B0100101D010010E0
:100010001101001011010010110100101101001058
:100020001901001019010010190100101F01001022
:10003000110100101901001021010010230100100E
:100040001101001011010010110100101101001028
:100050001101001011010010110100101101001018
:100060001101001011010010110100101101001008
:1000700011010010110100101101001011010010F8
:1000800011010010110100101101001011010010E8
:1000900011010010110100101101001011010010D8
:1000A00011010010110100101101001011010010C8
:1000B00011010010110100101101001011010010B8
:1000C00011010010110100101101001011010010A8
:1000D0001101001011010010110100101101001098
:1000E0001101001011010010110100101101001088
:1000F0001101001011010010110100101101001078
:100100001101001011010010110100101101001067
:10011000EFF30580103800BE00BE00BE00BE00BE7A
:1001200000BE00BEF2EB8871CCA30110F8A3011051
:10013000A001001090A31AE7D3DEFFFF42012110B7
:10014000FF01000040D50100793512AB4FF00000EF
:100150001E49086006C881F3088810474FF05040D8
:10016000006810B14FF00000F2E70DA40ECC00299A
:1001700002D000F012F8F9E71549164A002000E015
:1001800001C19142FCD11449884714498847144958
:10019000884700BEFDE701C901C29A42FBD3704700
:1001A000F8A30110100100209033002078D6011030
:1001B000000008200000082078D601100010082058
:1001C00000100820000000007047000008ED00E06B
:1001D00090330020EC8F0020C136001089030010FE
:1001E00085360010F8B500BF064B0749C91A8910BB
:1001F00048BF0131491003D0044B0BB101481847E7
:10020000704700BF903300209033002000000000B2
:1002100008B5054B1BB105490548AFF30080BDE8A3
:100220000840FFF7E1BF00BF00000000908C0020F5
:10023000CC7D011000000000002845D010B588B02A
:10024000254B1B78DBB9254B21A1D1E90001C3E97E
:100250003C012249224B8B600923CB6000222148BC
:1002600006F08EFD4FF050435B6813F0007F0CBF2B
:1002700001220022192342EC403008B010BD01AA2F
:100280000D21194800F0D4F9019817F03DFD134CE9
:10029000C4E93801029817F037FDC4E93A01039820
:1002A00017F032FDC4E93C01049817F02DFDC4E9B4
:1002B0002001059817F028FDC4E92201069817F0DF
:1002C00023FDC4E92401C4E7704700BFAFF30080F9
:1002D0001F85EB51B89E2340E88F0020087B00204B
:1002E000D07D0110D08C00200080084010B5154949
:1002F000154806F033FC01210C2000F0B7F901216C
:100300000E2000F0B3F901210F2000F0AFF90D200D
:1003100000F0C8F90D234FF0010242EC443042ECEA
:1003200040300024042C0CDC0D21074800F074F947
:1003300020B9642001F08EF90134F3E7034B012268
:100340001A7010BD80841E0000800840E88F0020D5
:1003500070B50C4601F072FA06460D46094A0023B4
:1003600017F0DAFCC4E90001064A002330462946AA
:1003700017F0D2FC4FF47A7303FB02F2A260002064
:1003800070BD00BF40420F0030B589B003F0A8FA3D
:10039000192000F087F90124192344EC44303C482B
:1003A00003F0A5FA3B4803F0A2FAFFF79FFF3A4893
:1003B00003F09DFA394B0193394B0093394B3A4A7C
:1003C0000021204607F09CFC0121192341EC40301C
:1003D000642007F0AFFCD8B90024192344EC403066
:1003E000324D02A807F0DEFBAE460DF1080CBCE86A
:1003F0000F00AEE80F00DCF80030CEF800302B46DE
:10040000224621462A4807F0C9FA50B109B030BD4A
:1004100019234FF0000242EC4030642001F01AF939
:10042000D2E7234B234A2449244807F001FB002844
:10043000ECD108F0B5FA0246214B2049214807F0DB
:1004400031FB0028E2D1204B0093204A00231849B9
:100450001F4807F05BFB0028D8D12B460122144926
:100460001C4807F047F80028D0D11949194807F06F
:10047000A1F80028CAD104A3D3E90023154807F046
:1004800009F9F8E7AFF3008000E1F505000000008E
:10049000DC7D0110E87D0110FC7D01108905001054
:1004A0006105001051050010090500107C83002033
:1004B000BC8E002018A201100C7E0110788C002048
:1004C0001C7E0110D08C002039020010809698000C
:1004D000F08E0020607A002010B483B000210DF16E
:1004E000070209E0836913F0100FFBD1046813467B
:1004F00003F8014B01311A460029F3D09DF807009B
:1005000003B05DF8044B704710B50F4C4FF4E13168
:10051000204601F05BFA0221002000F0A7F802213A
:10052000012000F0A3F8236B03F44043074A136350
:10053000002301220821204601F019FA012120465A
:1005400001F02BFA012010BD000007400010074009
:1005500008B5024801F0D2F9012008BD00000740AB
:1005600010464FF0000C0AE0064B9B6913F0200F79
:10057000FAD111F8012B034B1A600CF1010C604504
:10058000F2D87047000007402DE9F8430E461546A3
:100590001C4601F053F9E20E4FEA441CBCEB040C7C
:1005A00062F10002920042EA9C724FEA8C0C1CEB52
:1005B000040C42F10003DB0043EA5C734FEACC0C0D
:1005C00010EB0C0443EB0107002F02DB4FF0000897
:1005D0000CE04FF0FF346FF00047F7E708F1010936
:1005E0000C48FFF779FF06F80800C846A8450DD269
:1005F0004FF47A71074801F017FA0028EED101F0A4
:100600001DF9844267EB01010029EFDA4046BDE89D
:10061000F88300BF0000074010B50C46084600F004
:1006200041F8012040EC444040EC404010BD000047
:10063000074B1360074B5360074B9360074BD36026
:10064000074B1361074B5361074B9361704700BF22
:100650007B148E3F7B140E40B81E55407B148E4099
:100660009A99B140B81ED5403D8A9B420C4B03EB92
:10067000800253F8203083F0400303F0C00302F5FA
:10068000805CCCF80030C00000F1804000F52030E4
:10069000416002F540524FF480731360704700BF11
:1006A0000480034008B54FF0000242EC440042ECE5
:1006B00040000521FFF7DAFF08BD00000FB400B5C8
:1006C00083B0049C074803F012F93CB105A90191DD
:1006D000204603F01BF9044803F009F9012002F059
:1006E00087FF00BF287E0110BCA20110EFF310802D
:1006F00072B6064BD3E8CF1F01220029FAD1C3E816
:10070000412F0029F6D1BFF35F8F7047737F002020
:100710000023034AC2E88F3F80F31088704700BF70
:10072000737F002070B505460C461646FFF7DEFFC6
:10073000E208A95C04F0070C012303FA0CF3194248
:1007400005D1DBB20B43AB54FFF7E2FF70BD21468E
:100750003046FFF7B3FFF8B506460D4614461F4670
:10076000FFF7C4FF00E00134BC420ED84FEAD40CBE
:1007700016F80C1004F0070301229A401142F2D13E
:10078000D2B20A4306F80C2001E04FF0FF34FFF725
:10079000BFFF002C01DB2046F8BD002DFBD00698E2
:1007A000FFF78CFF054A1078431CDBB21370172B40
:1007B00002D9134610221A70704700BFF8160020A5
:1007C00000B583B00146054B00931F23182204484F
:1007D000FFF7C1FF03B05DF804FB00BF387E0110D6
:1007E000BC8300204FF0E022936843F000539360F5
:1007F00070470000002305E0044A1A440021C2E8C3
:100800008F1F01331F2BF7D9704700BF687F00206F
:10081000064B9B68103043F82010BFF35F8F002316
:100820000349C1E88F3F82F31088704700ED00E074
:10083000717F00200048704700E400E008B5FFF732
:10084000F9FF002304E04FF0803240F8042B01331D
:100850000C2BF8D962B608BD08B50388DA0A1C2A41
:1008600006D15B050BD45B15023300EB430008BDDA
:10087000064B074A4FF48E71064802F007FF03F556
:10088000FF1303F5FF531F33EDE700BF547E011044
:10089000188101106C7E011008B5091A01F2FC7272
:1008A00040F6FE739A4208D8081F11F0010F04D1D8
:1008B000C0F34A0040F4604008BD034B034A4FF4C4
:1008C0008771034802F0E2FEEC7E01100C810110FA
:1008D0006C7E011008B5091A04394B08090B0AD1BE
:1008E000C1F30A0141F4704101806FEA43536FEA9A
:1008F0005353438008BD034B034A4FF48B710348A5
:1009000002F0C4FE1C7F0110E88001106C7E011013
:100910004209064B53F8222000F01F0001238340B8
:100920001A4214BF01200020704700BF00E100E020
:100930003AB1064B00F1600243F8221043F8201050
:1009400070472030014B43F82010704700E100E071
:1009500008B50A4600F01F03012199404009FFF73E
:10096000E7FF08BD00F01F0240090123934040301B
:10097000014A42F82030704700E100E0024B9B68DA
:10098000103053F82000704700ED00E008B5FFF785
:10099000F5FF034BC01A2F288CBF0020012008BD93
:1009A000FC16002070B505460C46EFF3108672B6B3
:1009B0000F4BD3E8CF1F01220029FAD1C3E8412F02
:1009C0000029F6D1BFF35F8FFFF7D8FF094B98429C
:1009D00001D0A04205D1324621462846FFF718FF34
:1009E00070BD054B054AED21054802F04FFE00BFE2
:1009F000717F0020110100102C7F01104081011037
:100A00006C7E01102DE9F04F87B000911546EFF391
:100A1000108A72B67C4BD3E8CF1F01220029FAD18D
:100A2000C3E8412F0029F6D1BFF35F8F774B93F9CD
:100A30000040002C44DB804604EB4407744B03EB7E
:100A4000870797F90610714A1170724A926800F18F
:100A5000100152F82190A9EB03022F2A3ED96E4BC8
:100A6000994534D14FF42143ADF80C304FEA440995
:100A700004EB4400664E06EB800068490230FFF745
:100A80000BFFADF80E004BF60153ADF81030FF230D
:100A90008DF812308DF81350009B0593A14406EB9E
:100AA000890306AA12E9070083E8070047F0010955
:100AB000524649464046FFF7ABFE07B0BDE8F08F0F
:100AC000574B584A4FF4BE71574802F0DFFD574B61
:100AD000544A40F28311544802F0D8FD29F0010B2A
:100AE000ABEB0303524AA2FB0312D20802EB420211
:100AF000B3EB820F0FD15B460026DA79AA4212D9F6
:100B000093F90620002A0DDB02EB42021E46404B01
:100B100003EB8203F1E7474B424A4FF4CA71424864
:100B200002F0B4FD1E46A6B344F60103ADF80C3046
:100B30004FF48F43ADF80E3096F906B0BBF1000FBD
:100B40001ADA4BF60150ADF810008DF812B08DF89E
:100B50001350009B05933946301DFFF79DFEB08072
:100B6000B47104EB44042A4B03EB840306AA12E994
:100B7000070083E807009BE7301DFFF76DFE014685
:100B800004EB4402224B03EB8203181DFFF784FEA3
:100B9000D9E74FF42143ADF80C306300019304EB27
:100BA0004406DFF86C9009EB86061C49B01CFFF781
:100BB00073FEADF80E005946301DFFF76DFEADF81F
:100BC00010004AF6AA235A464946521A5241534344
:100BD0001B0D8DF812308DF81350009A0592019B71
:100BE000234409EB830906AB13E9070089E80700F2
:100BF00044F60103ABF800304FF48F43ABF80230FA
:100C000047F0010954E700BF717F0020E48F002006
:100C1000FC16002000ED00E0110100102C17002050
:100C2000647F0110288101106C7E01108C7F0110FF
:100C3000ABAAAAAAB47F01102DE9F04706460D46DB
:100C4000EFF3108872B6504BD3E8CF1F0122002972
:100C5000FAD1C3E8412F0029F6D1BFF35F8F4B4B88
:100C60009B6800F1100A53F82A70494B9F4207D045
:100C7000AF4200F087803C46464BFB1A2F2B06D92B
:100C8000424639463046FFF7C3FDBDE8F087FFF71F
:100C90003FFE814600213046FFF75AFEBFF35F8FCB
:100CA000EFF30580C0B208B1824510D124F00104F1
:100CB0000021A268954212D094F90630002B0DDB7A
:100CC00003EB43032146334C04EB8304F1E7324B3F
:100CD000324A40F20221324802F0D8FC21469542C5
:100CE00049D194F90650002D2BDB05EB4502294B29
:100CF00003EB82039A68A260DA79E27193F9063015
:100D0000A371002B10DA4BF60150A08005EB4502D1
:100D1000204B03EB8203234A1178997115704946E1
:100D20003046FFF715FEABE705EB4503194800EB2E
:100D300083000430FFF790FD0146201DFFF7ACFD56
:100D4000E3E798B981B1FF238B714BF601538B8098
:100D5000144A1378A3714AF6AA230E49641A64410F
:100D600063431B0D1370DAE7094FF1E70E49201DAD
:100D7000FFF7B0FDD3E70D4B084A4FF41171084857
:100D800002F084FC024F7BE7717F002000ED00E061
:100D900011010010FC16002038800110F8800110AD
:100DA0006C7E0110E48F0020361700206C8001104B
:100DB00038B540F00104324BE31A2F2B31D8EFF352
:100DC0000581C9B2002933D0EFF3108E72B62D4BD6
:100DD000D3E8CF5F0122002DFAD1C3E8452F002DC3
:100DE000F6D1BFF35F8F4AF6AA230246244D521B69
:100DF000524153431B0D4FFA83FC234B9B6853F81E
:100E00002130A3421BD00023032B32D803EB430134
:100E10001B4A02EB810292F90620624520D0013381
:100E2000F2E71A4B1A4A40F27F211A4802F02EFCD0
:100E3000194B174A40F28221164802F027FC124B48
:100E40009B68164A43F82120154B1A78827183F863
:100E500000C000230B4AC2E88F3F8EF3108838BDD4
:100E6000074A02EB8101FF248C714BF601538B8002
:100E7000EAE70C4B064A40F29321064802F006FCD2
:100E8000FC160020717F002000ED00E0748001104E
:100E9000CC8001106C7E01109C80011011010010AB
:100EA000E48F0020A880011000B583B00146074BF5
:100EB0000093052300220648FFF74DFC002801DBC4
:100EC000C0F1330003B05DF804FB00BFB080011037
:100ED000E98F0020014B0B4403607047687F0020BE
:100EE00010B50446FFF75EFC01462046FFF7F2FF0F
:100EF000FF232371BFF35F8F10BD10B50446FFF7CA
:100F000051FC01462046FFF7E5FFFF232371002334
:100F10006371BFF35F8F10BD10B50D4C09E00D4B31
:100F20000D4A1A210D4802F0B1FB2046FFF7D8FF09
:100F300008340B4B9C4209D22368002BF5D0012BBF
:100F4000EDD12046FFF7D9FF0834F2E710BD00BF0E
:100F5000883300205C810110708201107C810110B7
:100F600090330020024B0B440360BFF35F8F704748
:100F7000687F002010B504460120FFF721FC0146E0
:100F80002046FFF7EFFF10BD0246EFF30583DBB20B
:100F9000103B990804D0034803F003031360704723
:100FA0000148F9E700800B4000000B4010B4846A50
:100FB000A2EB040C0B1D50F823301B1B9C4504D3E3
:100FC000046A01238B401C4202D1043140F82120E5
:100FD0005DF8044B704741EA004070470D4B1A68BA
:100FE000EFF3108172B6D2E8CFCF0120BCF1000F31
:100FF000F9D1C2E84C0FBCF1000FF4D1BFF35F8F01
:101000001A680023C2E88F3F81F3108840BF002098
:1010100000217047288D00202DE9F04F85B003A8EE
:10102000FFF7B2FFA94B984214BF00230123039995
:1010300001EB8303A64A52F823402378994206D154
:10104000054601228A4000F541535A6014E1A14B44
:10105000A14A9221A14802F019FBD4F8149006EBA2
:1010600046074FEAC70A09EBC707D7F808B0D7F811
:101070000C80284600F0B8FBB0EB0B0061EB0803D6
:10108000002BC0F20281B8F1000F60DB3B691A4609
:101090000093934B9A4230D0798889B2B4F9080012
:1010A000FFF799FF7969009B98470090019100999B
:1010B000019A51EA02034AD01346002A29DABBEB0F
:1010C000010268EB0308BA60C7F80C8039F90A30EE
:1010D000002BC0F2DA80D4F814E003EB43010EEBEE
:1010E000C1018868C968101A68EB01010029C0F2C3
:1010F000CC80A4462CF8083F15E07A691369009269
:101100001046984718B3009A1368009353680193E8
:10111000CDE7284600F068FB009B1A18019B43EBC3
:101120000108D0E79C46BCF90070002F0ADB07EBF2
:1011300047030EEBC3039868D968101A68EB0101E6
:101140000029EFDA29F80A70ACF800609DE039F95F
:101150000A3023812369EFF3108272B6D3E8CF0FF0
:1011600001210028FAD1C3E8401F0028F6D1BFF3BF
:101170005F8FB4F9023029F80A30668021690023B4
:10118000C1E88F3F82F310887FE02369EFF310827C
:1011900072B6D3E8CF0F01210028FAD1C3E8401F6F
:1011A0000028F6D1BFF35F8FB4F804800FFA88F8F7
:1011B0004FF6FF73A38021690023C1E88F3F82F3BC
:1011C000108815E01E46B6F90020002A0ADB02EB63
:1011D00042030CEBC3039868D968381A6EEB01011F
:1011E0000029EFDAA6F800803CF909802CF80920E4
:1011F000B8F1000F4EDBD4F814C008EB48034FEAF7
:10120000C3090CEBC3039F68D3F80CE004F1080694
:10121000D9E70023A37104F1080CB4F9083010E0F9
:101220004FF0FF384FF0FF39C0E90289B4F90800E8
:10123000984205D0ACF80020B4F90800C8532381C7
:101240001346B3F1FF3F28D0616903EB4302D70097
:1012500001EBC20031F93220468816F4004FDFD18D
:101260008446EDE7284600F0BFFA3F1A66EB010618
:10127000012F76F1000635DA039A01239340EB63E0
:10128000B4F90860002EBFF6E8AEA38813F4004F4F
:101290003FF47BAFA379002BBBD1B4F90830002B0E
:1012A00020DB626903EB430302EBC3039F68DE6844
:1012B000B6F1FF3F08BFB7F1FF3FD3D03A46334600
:1012C00003992846FFF772FECCE700BF00800B4071
:1012D000B08C002084820110B8830110B08201100C
:1012E0001910001040BF05B0BDE8F08FF8B50446F6
:1012F0000D4611460A4B984210D000262E44012775
:1013000007FA05F525623046FFF74CFB39463046B3
:10131000FFF71EFB04F501542560F8BD0426EDE738
:1013200000800B40F8B504460E4617461D46C160C6
:10133000FFF738FA164B034423612770ABB2638181
:101340004FF05042127862704FF6FF722281A280F5
:10135000013B63804FF0000C08E00CF1FF300CEB18
:101360004C0E636923F83E000CF1010CAC45F4D33C
:10137000084B9E4214BF0023012307EB8303064A58
:1013800042F82340054A39463046FFF7AFFFF8BD23
:10139000687F002000800B40B08C002019100010E6
:1013A00008B5054B1B690BB1034808BD034B044A44
:1013B0006521044802F06AF9441700202C830110CB
:1013C000A0830110B0820110F8B504469E46006962
:1013D000EFF3108172B6D0E8CF6F0125002EFAD15D
:1013E000C0E8465F002EF6D1BFF35F8FB4F902501C
:1013F000666905EB4500C70006EBC000002D03DB66
:1014000036F907C0A4F802C04FF0000C2369C3E806
:101410008FCF81F31088654533DB06990161079909
:1014200041618260C0F80CE0418889B20131C1F3AA
:101430000E0101B9012141802846FFF7CCFD236947
:10144000EFF3108272B6D3E8CFCF0121BCF1000FC9
:10145000F9D1C3E84C1FBCF1000FF4D1BFF35F8F8B
:10146000A388F353A58021690023C1E88F3F82F34D
:101470001088E368217801228A4003F501535A60FD
:10148000F8BD4FF0FF30FBE770B582B00646154659
:101490001C469DF8203033B900F0D0F9854264EB4A
:1014A000010100290ADB079B0193069B00932A4652
:1014B00023463046FFF788FF02B070BD0020FBE7EF
:1014C000F0B585B005460C4616461F46FFF768FF87
:1014D0009DF828300293019700962A462346FFF78D
:1014E000D3FF05B0F0BD03464089B0EB214F31DD9D
:1014F00010B50A14586902EB420200EBC2001A69E7
:10150000EFF3108C72B6D2E8CF4F5FF0010E002CD3
:10151000F9D1C2E844EF002CF5D1BFF35F8F4288C8
:1015200092B289B28A420FD0002019690022C1E824
:101530008F2F8CF3108830B1DA681B780121994025
:1015400002F50153596010BD42F40042428001206F
:101550009871EAE70020704710B50446FFF720FFB6
:101560002146FFF7C0FF10BD40787047F0B583B04B
:10157000EFF30583DBB2CBB905460F46861F41F179
:10158000FF34B04271EB040301D20026344600F070
:1015900055F9301A64EB0103012873F1000308DAEE
:1015A0002846394600F05CF903B0F0BD1C48FFF74F
:1015B00085F8002300931B4A30462146FFF780FF41
:1015C00000281EDAECE7002300E00023002BE7D11F
:1015D000154B1A68EFF3108172B6D2E8CFCF012015
:1015E000BCF1000FF9D1C2E84C0FBCF1000FF4D1EF
:1015F000BFF35F8F1A680023C2E88F3F81F3108822
:1016000020BF0A4B5B6A9C42DFD80849896AB14215
:1016100003D29C42D7D00123D8E70123D6E700BFED
:1016200050830110DD0F0010288D002000000B40BA
:1016300038B504460D4600F001F9201845EB0101CC
:10164000002902DBFFF792FF38BD4FF0FF306FF04B
:101650000041F7E708B5C30E4101091A63F1000321
:101660009B0043EA91738900091843F10003DB00F2
:10167000C80043EA5171FFF7DBFF08BDF0B583B046
:1016800005460C46EFF30583DBB293B13C4B5B6A36
:101690008B4209D33A4A926A824208D28B4201D0E5
:1016A000012002E0002000E0002003B0F0BD012096
:1016B000FBE7FFF775FEC7680678384600F094F838
:1016C0002A1A64EB0101043657F826301B1A9A4295
:1016D00071F1000112DB20BF294B5B6A9C4209D8E3
:1016E000274A926AAA4207D29C4201D00120DCE735
:1016F0000020DAE70020D8E70120D6E70023009396
:10170000204A28462146FFF7DBFE00280BDD1C4B54
:101710005B6A9C421BD81A4A926AAA4228D29C420F
:1017200013D0012314E0164B5B6A9C4209D8144A7B
:10173000926AAA4207D29C4201D00120B5E700205C
:10174000B3E70020B1E70120AFE7002300E000236A
:1017500003B920BFFFF700FF094B5B6A9C420BD81F
:10176000074A926AAA4209D29C4203D001209CE710
:101770000123EDE7002098E7002096E7012094E799
:1017800000000B40DD0F00100048704700000B40C8
:1017900010B50A4B1B6923B10A210948FFF79AFBD0
:1017A00010BDFFF7F1FF0446032100F00BF81023F2
:1017B000032221460148FFF7B5FDEDE7441700205D
:1017C000288D002010B5054A054C064BA04214BFD9
:1017D0001846581CFEF7A6FF10BD00BFD8830110A5
:1017E00000800B40C08300200246436A906A19467D
:1017F000536A9942FAD17047416A00E0416A9942BE
:10180000FCD300E0416A994202D1816A9142F9D346
:10181000704770B5064614461D46FFF7E5FF0219EE
:1018200041EB0503824273EB010102D24FF0FF321C
:1018300013463046FFF7E0FF70BD000008B50248D0
:10184000FFF7D2FF08BD00BF00000B4008B50246FD
:101850000B460248FFF7DDFF08BD00BF00000B404C
:1018600008B502460B460248FFF7C6FF08BD00BF99
:1018700000000B40074B98420AD01A2301229A40DD
:10188000054B1A60054B9B6832EA0303FAD1704797
:101890001B23F3E7008007400030024000000240B5
:1018A00038B5046B14F0010F01D1204638BD00F5A6
:1018B000405340F201321A63436A856A05EB83158F
:1018C000AD02062000F028F9044BA3FB0030C00A4B
:1018D000B5FBF0F00021FFF7B9FFE6E7757B2B8F32
:1018E00070B505460C461646FFF7DAFFEB6A5C401A
:1018F000344005F58153DC60286370BD054B984288
:1019000005D01A2201239340034A136070471B221B
:10191000F8E700BF008007400020024070B5054690
:101920000C46062000F0F8F8C300B3FBF4F30133D3
:10193000DC0907D04FF6FE72944214D82646C3F352
:10194000450400E001266E62AC6200221146284682
:10195000FFF7C6FF062000F0DFF8800004EB8614D6
:10196000B0FBF4F070BD00244FF6FF76EBE708B54E
:101970000539013AD20042EA411219464BB102231D
:101980001343012907D000216E221943FFF7A8FF56
:1019900008BD0023F4E70421F6E708B501B11021E2
:1019A0001022FFF79DFF08BD49B10A22054B98425E
:1019B00014BF00200120044B23F8102070474FF47F
:1019C0008072F3E700800740688F002038B5044636
:1019D0000D46062000F0A0F8F8B1114B9C421DD036
:1019E0001A22012393400F4A13602046FFF742FF5B
:1019F00000212046FFF7D8FF29462046FFF78EFF3B
:101A0000E36A83F0700303F07E0304F58152D36030
:101A100040F2013323630323A36438BD1B22E0E7B4
:101A20000080074000200240074B9A6A836913F048
:101A3000100F06D0044B9B6A9B1A8B42F6D90020EC
:101A400070470120704700BF00000B4070B516467C
:101A5000049D00EB400C4FEA8C0C0CF1804C0CF513
:101A6000803CDCF80420AA4201D2CCF80450A0F15A
:101A7000040E5FFA8EFEBEF1010F28D90CF540521C
:101A80004FF4006414601E4A52F8202042B11C4CEE
:101A90006469B4FBF2F4013404EB4404033CFDD26A
:101AA000DCF8002082EA461202F0E0020CF58054D5
:101AB0002260BEF1010F16D90CF500524FF40061FF
:101AC0001160CCF804500E4A42F8203070BD012954
:101AD000D4D10CF5405203241460DCF8082012F035
:101AE000010FFAD0DCE7DCF800204A4002F00302E4
:101AF0002260DCF8084001228A401442F9D0DBE77A
:101B0000D483002010B582B04FF480340094FFF7E6
:101B10009DFF02B010BD0000014B53F8200070473C
:101B2000D483002070B5049C344DB5FBF1FC344DDA
:101B30001544344EB54237D8B2FBFCF5A5F1100E72
:101B4000BEF5987F36D803F1FF3EBEF1060F37D8B9
:101B500004F1FF3EBEF1060F32D8BCEB121F35D8A0
:101B6000240344EA03440368002B35DB264B9842E8
:101B700042D00E2301229A40244B1A6003F5805371
:101B80001A60234B9B6832EA0303FAD10160856037
:101B900000F540520432212313600368002BFCDA65
:101BA000C4600823136070BD1A4B1B4A11211B48E7
:101BB00001F06CFD1A4B184A1921184801F066FD16
:101BC000184B154A1C21154801F060FD164B124AAE
:101BD0002321124801F05AFD036803F03F038B42B2
:101BE000C4D18368C3F30B03AB42BFD1C36803F412
:101BF000EE23A342BAD1D6E70F23BBE7001BB70001
:101C000080E84BD380F8A9320080054000200240D4
:101C100000000240FC830110508501104C8401102B
:101C2000CC840110E884011034850110024B1A683D
:101C3000024B5A60704700BF6C8C002000800D4042
:101C400008B5164B4FF080421A60A3F54123144AA1
:101C50009A6051B103F540234FF0E0621A6048B931
:101C6000104B4FF000421A6008BD0C4B4FF0E06281
:101C70001A60F4E74FF47A7303FB00F00A4B186024
:101C8000B0F1807F02D36FF07F421A60FFF7CEFF82
:101C9000044B4FF080421A60E6E700BF00B00D40F1
:101CA000F3FFFF0100A00D406C8C002010B50C4B21
:101CB0004FF080441C6070B140F0010309480A4CA9
:101CC000C4610A4C5C400462416283620021104698
:101CD000FFF7B6FF10BD034B0021D961F6E700BF47
:101CE00000B00D4000800D40D3C007B02D3FF84F2D
:101CF000054A00EB400302EB8303596000EB400010
:101D00008000012313507047008010402DE9F041FE
:101D100005460E46174698460023DB8A002242E815
:101D200000F212F4800F0BD1102144F25220984798
:101D3000044643463A4631462846A047BDE8F0816E
:101D4000042144F2522098470446F2E708B50023E4
:101D5000DB8A002242E800F212F4800F02D1102147
:101D6000984708BD04219847FBE708B5031E06DB2A
:101D700041F0200012B141F0300100E001460A4676
:101D80000A214FF48170FFF7C1FF0000034BD3F825
:101D90002838002BFAD0BFF35F8F704700000E4049
:101DA000002207E0054B13449B00BFF35F8F002127
:101DB00019600132072AF5D9704700BF038203106A
:101DC00008B5FFF7EDFF08BD074B4FF42A621A6014
:101DD0004FF48D72DA6003F50053044A1A60024B27
:101DE0005B68002BFBDA70470080044000B0FA000B
:101DF00010B5044602E054F8043B9847014B9C425E
:101E0000F9D310BDC07D01107047000008B502482D
:101E1000FFF7EEFF08BD00BF807D0110064B074AAB
:101E20001A6003F58053064A1A60064B9A68044B01
:101E30009343FAD1704700BF002002407F3BEFEF91
:101E4000F6FFF30300000240054BDB6CB3F5004FD7
:101E500000D07047034B4FF48022DA64F9E700BFEB
:101E600000001150002011504FF0E022D2F8881DE0
:101E7000034B0B43C2F8883D10EE3004704700BF9F
:101E800003033000054B6FF060421A60044B9B68FF
:101E9000DB4333F06043F9D1704700BF00300240AC
:101EA0000000024008B545F25320FFF74FFF0346FC
:101EB0000420984708BD08B545F25320FFF746FFB8
:101EC00003460120984708BD08B5FEF793FC08BDFE
:101ED00010B50C490C4A521A92101446442A28BFD5
:101EE00044229200094814F0B1FF04E0084A074B6D
:101EF00043F824200134432CF8D9044A054B9A6056
:101F000010BD00BF000000101001001000000020F4
:101F10001101001000ED00E038B50420FFF7FCFDD2
:101F2000064BA3FB0035AD0C002404E02946E0B2CB
:101F3000FFF7DEFE0134052CF8DD38BD83DE1B43E0
:101F400030B583B0264B0022C3F88420FFF73CFF56
:101F5000244B0122DA63224B5B6C012BFBD1214B1A
:101F600003221A631E4B9B6B012BFBD102240094AE
:101F700005231D4A01211D48FFF7D4FD05250095C5
:101F80002B461B4A01211B48FFF7CCFD1A4B0022B0
:101F900021460420FFF7B6FD184C234600220121FC
:101FA0002846FFF7AFFD164D2B46002211460820AC
:101FB000FFF7A8FD2B46002211460920FFF7A2FDDE
:101FC0002346002211460620FFF79CFD23460022EF
:101FD00011460720FFF796FDFFF79EFF03B030BDC7
:101FE0000000014000300140002F6859000005400A
:101FF000008C864700800540001BB70080D1F008A8
:10200000006CDC0286B003B451FC0804CDE9020187
:1020100051FC0904CDE9040151EC0A04CDE90601A3
:1020200003BCF047BDE800504EEC00C4BDE80050D2
:102030004EEC01C4BDE800504EEC02C400BD0000EF
:1020400000B5FFF7DFFF02E010FE30F4F8D441ECFA
:10205000100443EC112400EE010410EE010480EEA4
:10206000200451EC1004704700B5FFF7CBFF02E0ED
:1020700010FE30F4F8D441EC100443EC112400EECF
:10208000010410EE210480EE200451EC300470476E
:1020900000B5FFF7B7FF02E010FE30F4F8D410B53A
:1020A00041EC100443EC112451EC040453EC0524DE
:1020B000A0FB024C5FF0000EE0FB03CEE1FB02CE82
:1020C0004CEC20440024E1FB03E444EC30E480EEDB
:1020D000200451EC5004BDE81040704700B5FFF7F4
:1020E00091FF02E010FE30F4F8D441EC100443EC10
:1020F000112451EC2104A0FB01126FEA820252FB71
:10210000100052FB12F252FB1000A0EBD07C53ECFB
:1021100004245CFB13F153EC1524A1FB022001FB0A
:10212000030053EC4424A2EB000050FB1CF24FEAE6
:10213000111312EB017043EBE27140EA515020EAB7
:10214000915020F0070053EC7524A0FB023C53ECA7
:10215000752400FB03CC01FB02CC53EC0424ACEB54
:10216000824C40EA5C70A0F1010041EC400480EE3A
:10217000200451EC7004704700B5FFF743FF02E004
:1021800010FE30F4F8D440EC700400EE010410EEC0
:10219000210480EE200451EC3004704700B5FFF7B5
:1021A00031FF02E010FE30F4F8D440EC600400EEA1
:1021B000010410EE210480EE200451EC300470473D
:1021C00000B5FFF71FFF02E010FE30F4F8D441EC39
:1021D000800400EE010410EE010480EE400410EED5
:1021E0001304704700B5FFF70DFF02E010FE30F456
:1021F000F8D441EC800400EE010410EE010480EEFE
:10220000400410EE3304704700B5FFF7FBFE02E018
:1022100010FE30F4F8D441EC100443EC112400EE2D
:10222000010410EE3004C0F30070704700B5FFF7F2
:10223000E9FE02E010FE30F4F8D443EC102441EC47
:10224000110400EE010410EE30F48CBF01200020D8
:10225000704700BF00B5FFF7D5FE02E010FE30F476
:10226000F8D443EC102441EC110400EE010410EE0C
:1022700030F42CBF01200020704700BF00B5FFF7ED
:10228000C1FE02E010FE30F4F8D441EC100443EC3F
:10229000112400EE010410EE30F42CBF01200020C8
:1022A000704700BF00B5FFF7ADFE02E010FE30F44E
:1022B000F8D441EC100443EC112400EE010410EEBC
:1022C00030F48CBF01200020704700BF08B528B152
:1022D00003460B44034A934200D808BD0248FEF768
:1022E000EDF900BF000008205C85011038B50546F7
:1022F00013F030FA04462946FFF7E8FF204638BDC0
:1023000070B505460E4613F097F9044606FB05F135
:10231000FFF7DCFF204670BD38B50D4613F022FDF7
:1023200004462946FFF7D2FF204638BD08B513F012
:1023300019FA08BDEFF3108072B6064BD3E8CF1F31
:1023400001220029FAD1C3E8412F0029F6D1BFF3B9
:102350005F8F7047757F002010B50446FFF7EAFFD6
:102360000346D4E900010022024CC4E88F2F83F316
:10237000108810BD757F0020D0B5044616461F4654
:10238000FFF7D8FFC4E900670023034AC2E88F3F84
:1023900080F31088D0BD00BF757F0020D0B5044603
:1023A00016461F46FFF7C6FF0346D4E90001C4E9FD
:1023B00000670022024CC4E88F2F83F31088D0BD41
:1023C000757F00209A4200D288547047704720B130
:1023D00008B50A684968904708BD70470146002063
:1023E00008E000EB8000531C0B60137803EB400304
:1023F000A3F130000A681378303BDBB2092BF0D927
:1024000070472DE9F04F83B005460E4693461F46B0
:10241000DDF830A00D9CDDF838900F9B13F0030F12
:1024200019D1A0460192C84509D202F1010B3B46E1
:1024300031462020A84708F101085A46F3E7DDF8A5
:1024400004B008E0013C02F101083B4631461AF8AD
:102450000400A8474246002CF4D10F9B13F0020F52
:1024600003D1104603B0BDE8F08FA2EB0B034B4540
:10247000F7D2541C3B4631462020A8472246F4E7B9
:102480002DE9F04385B099460C9D0D9C9DF8388050
:10249000DDF840E0119F129E16F0020F21D17FB1AE
:1024A00016F0010F0CD0B8F1000F02D116F00C0F8E
:1024B00006D0013F04E04FF0300C05F804C00134B1
:1024C000744501D21F2CF6D916F0010F09D0BC4279
:1024D00007D21F2C05D84FF0300C05F804C001348A
:1024E000F2E716F0100F14D016F4806F04D11CB16F
:1024F000744522D0BC4220D00F9B102B36D00F9BAE
:10250000022B3ED01F2C0ED84FF0300C05F804C023
:1025100001341F2C07D8B8F1000F3AD04FF02D0C22
:1025200005F804C0013403960297019400954B46C8
:10253000FFF767FF05B0BDE8F083B4F1010C13D0DD
:102540000F9B102B0ED064460F9B102BD7D116F08B
:10255000200FD4D01F2CD2D84FF0580C05F804C04F
:102560000134CFE7023CC7E76446C5E716F0200F09
:10257000EAD11F2CE8D84FF0780C05F804C00134DC
:10258000C0E71F2CCFD84FF0620C05F804C001340F
:10259000B8E716F0040F05D04FF02B0C05F804C077
:1025A0000134C0E716F0080FBDD04FF0200C05F83D
:1025B00004C00134B7E7F0B591B0169C189D1B9E7E
:1025C0000CB926F0100616F4806E16D064B34FF0E6
:1025D000000E12E00CF1300C5FFA8CFC0EF10107DA
:1025E0000EF1400EEE440EF820CCB4FBF5FCAC42EC
:1025F0001BD31F2F19D8BE466446B4FBF5FC05FB60
:102600001C4C5FFA8CFCBCF1090FE3D916F0200FCB
:1026100008D04127BC445FFA8CFCACF10A0C5FFA8D
:102620008CFCDBE76127F5E7274606961A9C0594A4
:10263000199C049403959DF85C400294019708ACA2
:102640000094FFF71DFF11B0F0BD2DE9F04F95B0DC
:1026500009900A910B929846DDF878B0DDF87C90ED
:10266000229D239F269E5BEA090201D126F01006D7
:1026700016F480641ED05BEA09022FD0002419E012
:102680003032D3B204F1010A04F150020DEB02041E
:1026900004F8203C2A463B465846494615F03CFB88
:1026A000AB4579EB07091BD3BAF11F0F18D8544675
:1026B000834689462A463B465846494615F02CFB38
:1026C000D2B2092ADCD916F0200F05D041231344D9
:1026D000DBB20A3BDBB2D5E76123F8E74FF0000A33
:1026E0000696259B0593249B049303959DF88030C3
:1026F0000293CDF804A00CAB009343460B9A0A99C1
:102700000998FFF7BDFE15B0BDE8F08F000000008E
:102710002DE9F04F91B004460D4617461E46DDE9FF
:102720001A2310461946FFF773FD002840F0ED808C
:102730004FF0FF32AE4BDDE91A01FFF7B7FD00287D
:1027400040F0E3804FF0FF326FF48013DDE91A01AF
:10275000FFF770FD002840F0D88000220023DDE95B
:102760001A01FFF767FD002840F0E2809DED1A7B1B
:102770008DED067B1E9B13F480630D9301D1062320
:102780001C93DDE9062310461946CDE9080152EAFB
:10279000030100F0D880C3F30A50C3F3130390463B
:1027A00043F07F5949F44019A0F2FF30FFF7E8FCED
:1027B0007DA3D3E90023FFF76FFC7DA3D3E90023BA
:1027C000FFF742FC82468B4600228A4B4046494630
:1027D000FFF74EFC78A3D3E90023FFF75DFC024628
:1027E0000B4650465946FFF72FFCFFF7EDFC82469B
:1027F000FFF7C6FC8046894671A3D3E90023FFF7A3
:102800004BFC00227C4BFFF71FFCFFF7DDFC8346EF
:102810006DA3D3E9002340464946FFF73DFC8046BF
:1028200089465846FFF7ACFC69A3D3E90023FFF7BC
:1028300033FC02460B4640464946FFF719FC8046EA
:10284000894602460B46FFF727FCCDE90A010BF249
:10285000FF3B00210022CDE908124FEA0B530993F8
:102860000023089342464B4640464946FFF7ECFB9F
:10287000CDE90E0142464B4600204FF08041FFF764
:10288000F7FB8046894600225C4BDDE90A01FFF731
:1028900029FC00225A4BFFF7D7FB02460B46DDE925
:1028A0000A01FFF71FFC0022564BFFF7CDFB024643
:1028B0000B46DDE90A01FFF715FC02460B464046D0
:1028C0004946FFF7C1FB02460B46DDE90E01FFF763
:1028D00009FC00224C4BFFF7B7FBDDE90823FFF7AB
:1028E000DBFB80468946CDE90889DDE90623FFF751
:1028F000DDFC50B30AF1FF3A0022414B4046494605
:10290000FFF7F0FBCDE908011FE01E9B04931D9B20
:1029100003931C9B02939DED1A7B8DED007B334648
:102920003A462946204600F003F911B0BDE8F08F81
:102930009FED297B8DED067B1A9B06931B9B03F174
:102940000043079316E74FF0000A0AF16303C62B12
:1029500027D84FF004081E9B13F4006F5FD0DDE909
:10296000081213460B4313D01DA3D3E90023DDE95E
:102970000601FFF787FC002800F0B4801AA3D3E912
:102980000023DDE90601FFF755FC002800F0AA80CE
:102990001C9B53453ADDA3EB0A0A0AF1FF331C9353
:1029A00036E04FF00508D6E7FB799F501344D33F3C
:1029B000B3C8608B288AC63F61436F63A787D23F45
:1029C00071A379094F930A401655B5BBB16B02400C
:1029D000EF39FAFE422EE63F000000000000000042
:1029E0002D431CEBE2361A3F0000000080842E418C
:1029F000FFFFEF7F0000F83F0000E03F00002C40A9
:102A000000002440000018400000F03F00231C9309
:102A10001E9B43F480631E934FF00008C2461D9B2B
:102A2000984569D2A3EB08091E9B13F0020B04D052
:102A3000B8F1000F01D04FF00009BAF1000F07D034
:102A4000DDE90823DDE90601FFF74CFBCDE90601CE
:102A500000220023DDE91A01FFF7ECFB00284ED12C
:102A60001E9B23F400630493CDF80C901C9B0293EF
:102A70009DED067B8DED007B33463A462946204688
:102A800000F056F8B8F1000F3FF44FAF1E9B13F063
:102A9000200F3CD04FF0450C00F1010933460246AF
:102AA00029466046A0478AEAEA72A2EBEA72052349
:102AB000059308F1FF330493002303930A23029341
:102AC0004FEADA730193009233464A46294620467C
:102AD000FFF771FDBBF1000F3FF427AF0246DDF8B1
:102AE00074901EE01C9B002B99D00D9B002B96D060
:102AF0001C9B013B1C9392E74FF0000994E7DDE932
:102B00000601024601F10043CDE90623A8E74FF094
:102B1000650CC1E702F10108334629462020A04791
:102B20004246D31B4B45F5D31046FEE6000000009D
:102B30002DE9F04F2DED028B95B007900A9192464A
:102B40009B46DDE92089229D42464B464046494648
:102B5000FFF75EFB002835D14FF0FF326FF4801392
:102B600040464946FFF766FB00283AD14FF0FF3256
:102B70009F4B40464946FFF799FB002840D198A358
:102B8000D3E9002340464946FFF790FB00284FD188
:102B900095A3D3E9002340464946FFF74BFB0028A5
:102BA00046D10022002340464946FFF743FB002858
:102BB0004CD100230B93249B13F4806F00F0B7805B
:102BC000002456E0249B0393239B02930323019349
:102BD000884B00935B4652460A990798FFF711FC11
:102BE00037E1249B0393239B029304230193824B9D
:102BF00000935B4652460A990798FFF702FC28E1CA
:102C0000249B13F004030FD07C4A7BB10423249946
:102C1000039123990291019300925B4652460A99CF
:102C20000798FFF7EEFB14E1754AEEE70323EEE7A2
:102C3000249B0493239B03930295CDE900895B4673
:102C400052460A990798FFF763FD02E142464B4658
:102C500000200021FFF70CFA8046894601230B93E0
:102C6000A9E704F150036B44302203F8202C013D06
:102C700001341F2C01D8092DF3D840464946FFF7EF
:102C8000A3FA0646FFF77CFA02460B464046494641
:102C9000FFF7EEF95B4B03EBC50393ED008B53ECB1
:102CA000182BFFF7F9F902460B46CDE90823FFF789
:102CB0009DFA0746FFF776FA02460B46DDE9080162
:102CC000FFF7D6F902460B46CDE9082300224E4B0A
:102CD000FFF7ECFA68B301373846FFF763FA0246AC
:102CE0000B4651EC180BFFF7B9FA08B10136002773
:102CF0006DBB3046FFF744FA02460B464046494654
:102D0000FFF7B6F90746884600223F4BFFF792FAD5
:102D100000284CD100223C4B38464146FFF7C6FA0A
:102D2000002844D116F0010F41D001363FE00625BE
:102D300046E70022344BDDE90801FFF77BFA002863
:102D4000D6D117B117F0010FD2D00137D0E71F2C21
:102D500017D8013D2D4BA3FB0723DB08194603EBD6
:102D60008303A7EB4303621C303304F150000DEBE7
:102D7000000404F8203C092F02D90F461446E6E768
:102D800014461F2C0AD86B1E45B104F150026A4448
:102D9000302102F8201C1D460134F2E71F2C06D812
:102DA00004F150036B442E2203F8202C01341F2C15
:102DB00031D8174A82FB0632F317C3EBA2031A4637
:102DC00003EB8303A6EB4303611C303304F1500093
:102DD0000DEB000404F8203C1646DAB10C46E6E799
:102DE0000000000065CDCD410000000065CDCDC1E3
:102DF000FFFFEF7F1486011018860110088601106E
:102E000010860110208601100000E03FCDCCCCCC14
:102E1000676666660C46249B03F00303012B1DD0F6
:102E20001F2C09D80B9B002B35D004F150036B44A9
:102E30002D2203F8202C0134249B0393239B02931F
:102E400001940CAB00935B4652460A990798FFF732
:102E5000D8FA15B0BDEC028BBDE8F08F239BB3B15F
:102E60000B9B1BB9249B13F00C0F12D0239B013B2F
:102E70002393194606E004F150036B44302203F813
:102E8000202C01348C42CBD21F2CF4D9C8E72399D3
:102E9000F8E72399F6E7249B13F0040F07D004F119
:102EA00050036B442B2203F8202C0134C4E7249BED
:102EB00013F0080FC0D004F150036B44202203F834
:102EC000202C0134B8E700BF2DE9F04F91B08046C7
:102ED00017460F938946002900F0448300260F9B74
:102EE0001878002800F04183252809D0741C3B463F
:102EF00032464946C0470F9B01330F932646EEE703
:102F000001330F9300251FE045F0010501320F92B8
:102F1000012318E045F0020501320F92012312E06F
:102F200045F0040501320F9201230CE045F008053D
:102F300001320F92012306E045F0100501320F9295
:102F4000012300E000234BB30F9A1378203B102B92
:102F5000F8D801A151F823F02D2F0010452F0010B3
:102F6000452F0010392F0010452F0010452F00105D
:102F7000452F0010452F0010452F0010452F001041
:102F8000452F0010212F0010452F0010152F001085
:102F9000452F0010452F0010092F00100B930F9B99
:102FA0001A78A2F13003DBB2092B18D92A2A1BD0D8
:102FB000DDF82CB00F9B1A782E2A25D00F9A1378A3
:102FC000683B122B5CD8DFE803F0495BAA5B3B5BF4
:102FD0005B5B5B5B5B5B575B5B5B5B5BAF000FA84B
:102FE000FFF7FCF98346E5E71A9B1A1D1A921B6846
:102FF000002B04DB9B460F9B01330F93DAE745F070
:103000000205C3F1000BF6E745F480655A1C0F92E8
:103010005A78A2F13003DBB2092B0CD92A2ACDD180
:103020001A9B1A1D1A921C6824EAE4730B930F9BD7
:1030300001330F93C2E70FA8FFF7D0F90B90BDE75C
:1030400045F48071531C0F9353786C2B01D00D46BF
:1030500016E045F4407502320F9211E045F0800110
:10306000531C0F935378682B01D00D4608E045F0B0
:10307000C00502320F9203E045F4807501320F92D1
:103080000F9B1878672854D8252867D3A0F125030B
:10309000422B63D8DFE813F05B026200620062003B
:1030A0006200620062006200620062006200620010
:1030B0006200620062006200620062006200620000
:1030C00062006200620062006200620062006200F0
:1030D000620062006200620082016201820162009D
:1030E00062006200620062006200620062006200D0
:1030F00062006200620062006200620062006C00B6
:1031000062006200620062006200620062006200AF
:1031100062006C00A9016C0082016201820145F429
:10312000007501320F92ABE745F4807501320F92C2
:10313000A6E7782812D8692810D3A0F16902D2B284
:103140000123934049F24102134211D113F0800F41
:1031500040F0E28113F4806F40F07981741C3B46AB
:1031600032464946C0470F9B01330F932646B6E6C9
:10317000782809D062283AD06F283AD058283AD017
:1031800025F010050A2300E01023582835D06928BF
:1031900003D0642801D025F00C0515F4806F01D010
:1031A00025F0010569282BD0642829D015F4007F6B
:1031B00040F0968015F4807F40F0AE8015F0400F0F
:1031C00000F0BF801A9A111D1A9112780595CDF85A
:1031D00010B00B99039102930023019300923B4698
:1031E000324649464046FFF7E6F9064629E0022303
:1031F000CBE70823C9E71023C7E745F02005C6E75A
:1032000015F4007F21D115F4807F42D115F0400FD5
:1032100058D01A9A111D1A91127882EAE271A1EB24
:10322000E2710595CDF810B00B9803900293D20F80
:10323000019200913B46324649464046FFF7BBF9B2
:1032400006460F9B01330F9349E61A9A073222F084
:10325000070202F108011A91516812680846002914
:1032600013DB0895CDF81CB00B9C06940493002347
:103270000593C90F0291009201903B4632464946A0
:103280004046FFF7E2F90646DBE7524261EB4100B8
:10329000E7E71A9A111D1A91126882EAE271A1EB0E
:1032A000E2710595CDF810B00B9803900293D20F00
:1032B000019200913B46324649464046FFF77BF972
:1032C0000646BEE715F0800F05D01A9A111D1A9117
:1032D000B2F90020A1E71A9A111D1A9112689CE711
:1032E0001A9A073222F0070202F108011A91089592
:1032F000CDF81CB00B990691002104930591029121
:10330000D2E90023CDE900233B46324649464046F8
:10331000FFF79BF9064694E71A9A111D1A91059535
:10332000CDF810B00B990391029300230193136819
:1033300000933B46324649464046FFF73CF9064675
:103340007FE715F0800F04D01A9A111D1A91128888
:103350003CE71A9A111D1A91126837E746281AD0CD
:103360001A9B073323F0070303F108021A9204950E
:10337000CDF80CB00B9A0292D3E90023CDE90023DB
:103380003B46324649464046FFF7D2FB06460F9B76
:1033900001330F93A3E545F02005E1E7672801D04D
:1033A000472801D145F40065452801D0472801D1BF
:1033B00045F020051A9B073323F0070303F10802A9
:1033C0001A920495CDF80CB00B9A0292D3E900231F
:1033D000CDE900233B46324649464046FFF798F97F
:1033E00006460F9B01330F9379E515F002051DD0BA
:1033F00001241A98031D1A9306F1010A3B4632462E
:1034000049460078C047A5B90F9B01330F93564634
:1034100065E502F1010A3B4649462020C0472346A4
:1034200052465C1C9B45F4D81646E2E7012332461F
:10343000F7E7524606E0561C3B4649462020C04767
:103440002C463246651CA345F5D89246DCE71A9B0C
:103450001A1D1A92D3F800A00B9BFBB94FF0FF3254
:10346000534601E001330A46197811B1511E002A72
:10347000F8D1A3EB0A0315F480620C9203D00B9AE7
:10348000934228BF134615F0020409D00D94CDF8DD
:1034900038B00B9D32460C9E9B461FE00B9ADFE72F
:1034A0003246264606E0541C3B4649462020C0478B
:1034B0002B4622465D1C9B45F5D834462B460D9481
:1034C000CDF838B00B9D0C9E9B4607E01D460AF1D7
:1034D000010A541C3B464946C04722469AF8000060
:1034E00020B1002EF3D06B1E002DEFD10D9C16469F
:1034F0005B46DDF838B054B90F9B01330F93EEE40F
:10350000551C3B4649462020C04723462A465C1CA2
:103510009B45F5D81646EFE745F021051A9B1A1D85
:103520001A921B680595082204920B9A03921022A6
:1035300002920022019200933B46324649464046A1
:10354000FFF739F806460F9B01330F93C7E4741C4D
:103550003B46324649462520C0470F9B01330F9317
:103560002646BCE4DFF81C80B8E4BE4208D37A1ECD
:103570003B4649460020C047304611B0BDE8F08FB9
:103580003246F5E7CD2300100CB410B584B00A46DE
:1035900006AC54F8043B0394009401460348FFF73B
:1035A00093FC04B0BDE8104002B07047C523001082
:1035B00000B583B0009313460A4601460248FFF760
:1035C00083FC03B05DF804FBC523001000B585B093
:1035D00002900391009313464FF0FF3202A9034873
:1035E000FFF772FC05B05DF804FB00BFCF230010AD
:1035F00000BEFDE70346094A126842B1074A106857
:103600000344074A934206D8044A13607047034AAA
:1036100004491160F2E74FF0FF30704754880020F2
:1036200000000820EC8F002008B538B90846114684
:10363000044BD3E9002300F0FBF808BD4FF0FF3046
:10364000FBE700BFD0830110431E012B09D810B542
:103650000846144601230022214600F0A3F8204624
:1036600010BD4FF0FF3070474FF0FF3070474FF004
:10367000FF3070474FF0FF30704702288CBF0020AA
:103680000120704708B5FFF7B3FF000000B583B015
:103690008C4619465AB11446064B01940093634672
:1036A0000246054800F050F90120FFF7A1FF034B47
:1036B0001C46F2E7708601108086011018A20110E6
:1036C00010B5EFF30583DBB203B100BEFEF79EFB3E
:1036D000044C02E054F8043B9847034B9C42F9D356
:1036E00010BD00BFC07D0110CC7D011008B50346A0
:1036F00008461B681146984708BD08B503460846AA
:103700001B681146984708BD38B50368BBB105462C
:103710000B4B1C6806E0294651F8042B2046FFF7A6
:10372000ECFF24694CB12368002BFAD0054B1B68D1
:10373000002BF0D0A342F4D1EDE700232B6038BD7D
:10374000F48700200088002038B505460C460B6839
:10375000802B05D023685A1C22601C44257138BD7B
:103760000846FFF7D1FFF5E708B5FEF767F8074A07
:10377000821841F10003002B03DB054814F0E8FA3E
:1037800008BD4FF0FF326FF00043F6E740420F00F4
:103790008833002008B5024814F0C2FA08BD00BF03
:1037A000883300202DE9F04383B006460D4690464D
:1037B0001C46FFF7D9FF8146B5F1FF3F04D044B165
:1037C000174F184B1C6807E0304613F0B5FB054651
:1037D000F5E7154FF5E72469BCB12368002BFAD053
:1037E000124B1B680BB1A342F5D12A463146204645
:1037F000B847B8F1000FEED00A238DF80730012248
:103800000DF107012046B847E5E7B9F1000F03D1F4
:10381000284603B0BDE8F083FFF7BCFFF8E700BF20
:10382000FB360010F4870020ED36001000880020E1
:103830002DE9F84307460E4691469846144B1C68FE
:1038400007E0A36823B131463846984700281CDCBE
:10385000246934B10F4D2D68002DF2D0A542F7D167
:10386000EFE70D4B5B6A984508D80B4A926A4A45C8
:1038700009D2984502D06FF0010006E00120002136
:10388000FDF7E4FFDAE76FF00100BDE8F88300BF61
:10389000F48700200088002000000B40084A01E067
:1038A00003F1100213683BB18342F9D131B90369C6
:1038B000136000230361704701B11060704700BFBF
:1038C000F487002010B5054B1C6801E09847246977
:1038D0001CB16368002BF9D1F9E710BDF487002013
:1038E00008B500F04FF900F0D3FA012008BD38B553
:1038F000054613F021FB044601231A4601462846DB
:10390000FFF750FFFFF7DEFF204638BD70B5A2B0CD
:1039100004460E46FFF728FF054600230193334671
:10392000224601A90748FFF751FE044601A8FFF708
:10393000EBFEFFF7C7FF15B9204622B070BDFFF7B9
:1039400029FFF9E7493700100FB400B583B004A987
:1039500051F8040B0191FFF7D9FF03B05DF804EBB8
:1039600004B0704782B08C46184B984214BF0023B5
:103970000123174A32F913308B4205D08DF807C066
:1039800000210DF107021CE00D238DF80730002106
:103990000DF107020029F1D1836913F0200FFBD14B
:1039A000134613F8012B026001311A46F2E78369CE
:1039B00013F0200FFBD1134613F8012B02600131E5
:1039C0001A460029F3D002B0704700BF00800740BC
:1039D000688F002010B483B000210DF1070209E0C8
:1039E000836913F0100FFBD10468134603F8014BF1
:1039F00001311A460029F3D09DF8070003B05DF8A5
:103A0000044B704770B506460D46002405E0315D55
:103A1000034B1868FFF7A6FF0134AC42F7DB70BD1B
:103A20006C8F0020F8B507460E46002404E0651CA4
:103A3000FFF7D0FF38552C46B44205DA0C4B186816
:103A4000836913F0100FF2D00A4B1B684BB1084B7F
:103A50001B6850229A635A6B02F0380203F58153B7
:103A60005A610CB12046F8BD6FF00204FAE700BFBE
:103A70006C8F0020AC83002008B5054B1B6833B168
:103A8000044A126800219163034A1068984708BDF0
:103A9000AC8300206C8F0020B4830020034B1A6895
:103AA000936913F0080FFBD1704700BF6C8F0020A3
:103AB00038B51B4B1B681B4A934205D02124E0B14B
:103AC000194B1B6813B138BD2224F8E7164B186058
:103AD000164B196016492046FCF764FF0121204669
:103AE000FCF736FF0E4B1B6850229A635A6B02F0AC
:103AF000380203F581535A61E5E70B4A1268002A40
:103B0000E1D000259D6329462046FCF721FF0849A6
:103B10002046FDF791F8044B1D60044B1D60D2E771
:103B20006C8F002000800740AC830020B48300200D
:103B3000793A001038B50D461C46104B1860101E1F
:103B400005DB10F0020F15D00B21FCF78FFD002CC8
:103B500006DB14F0020F0FD00B212046FCF786FD88
:103B60002946064B1868FDF731FF01210448FFF78D
:103B700095FE38BD0221E8E70221EEE76C8F0020B8
:103B80005C17002008B5074B1B78074B1B78074BC9
:103B90001B78012300224FF4E1310548FFF7CAFFEB
:103BA00008BD00BFF0A30110ECA30110E8A30110B1
:103BB0000000074070470000014B00221A70704758
:103BC000E58F00204B79FF2B0BD18B795BB9CB793B
:103BD000012B0AD1082A0AD98A78064B1A700920C3
:103BE0007047002070470020704700207047002079
:103BF000704700BFE58F002001207047012923D1C5
:103C000008B59188114B1B78994201D0002008BD5E
:103C10005378012B03D0022B0FD00020F7E75188F7
:103C200011F4807F06D0480AC1F3402201F07F01E1
:103C3000FEF79BF84FF0FF30F6E7642200210846BC
:103C4000FEF734F80120E2E701207047E58F0020FD
:103C500000487047C087011001290FD108B594466C
:103C60005378012B0CD19388072B01D0002008E05A
:103C7000A623044A614601F0F3FB02E001207047ED
:103C8000002008BD18870110012303700048704709
:103C9000F886011008B50B68B3F5966F00D008BD23
:103CA000002211464FF0FF30FEF75FF8024B18601C
:103CB000024B1960704700BFB0830020B88300201A
:103CC00008B5FDF7BBFD0E4A821841F10003002B39
:103CD00011DB0C4814F03CF860B100214FF0FF30CC
:103CE00001F046FA002001F043FD0028F5D1054817
:103CF00014F016F808BD4FF0FF326FF00043E8E70C
:103D000040420F00A48E002038B5184B1B681BB32F
:103D1000EFF3108272B6D3E8CF0F01210028FAD159
:103D2000C3E8401F0028F6D1BFF35F8F0F494A60F8
:103D300000230F4803700968C1E88F3F82F31088A1
:103D4000002400250B4B1878FCF7E2FD40B9002455
:103D500000252046294638BD4FF47A740025F1E746
:103D6000044B1878FCF7FEFDF3E700BFA88C002099
:103D7000E78F0020E68F002008B5024B1878FCF78B
:103D8000F1FD08BDE68F002070B584B006461446EC
:103D90001D46FDF753FD221845EB0103002B0BDBFD
:103DA0009DF82810029109990191089900913046D7
:103DB000FDF76AFB04B070BD4FF0FF326FF00043B7
:103DC000EEE7F0B585B005460C4616461F46FDF7F2
:103DD000E7FA9DF828300293019700962A46234679
:103DE000FFF7D2FF05B0F0BD10B582B00021224828
:103DF00013F0BAFF08BB214B1B68E3B1EFF310824D
:103E000072B6D3E8CF0F01210028FAD1C3E8401FD2
:103E10000028F6D1BFF35F8F18494A60184803782D
:103E200083F001030124047008680021C0E88F1F9B
:103E300082F31088BBB902B010BD00214FF0FF30F3
:103E400001F096F9002001F06DFC04460A4813F0D9
:103E500067FF002CEFD00B4B1B68002BEBD00A4AFE
:103E600010689847E7E700940B46084A4FF47A70C9
:103E70000021FFF7A6FFDEE7A48E0020A88C00201B
:103E8000E78F0020B0830020B8830020093D001098
:103E900010B582B04FF050431C68FDF781FAFDF772
:103EA00063FBA0422DD1244B1B780021084602F071
:103EB00009F9224B1B6853B30120FCF7F5FFC0B290
:103EC0001F4C20701F49FCF76DFD01212078FCF785
:103ED0003FFD0E20FCF75AFD0446E0B10120FCF73F
:103EE0006FFC01461848FDF73DF8002217490E20E7
:103EF000FCF788FD01211648FFF7D0FC204602B0F0
:103F000010BD144B144AC6211448FFF7BFFB0B48E1
:103F1000FCF7E6FFD0E70C4A002313605360012250
:103F200000920F4A4FF47A700021FFF74AFFC44312
:103F3000E40F002CE2D0DDE7F4A30110A48E0020F2
:103F4000E68F0020E93D0010A88C0020793D00108C
:103F5000701700206C8001108C880110E48701101C
:103F6000093D001008B5002001F0C2FB08BD0000AB
:103F700038B504460D46FFF7F5FF90B3002001F079
:103F8000D1FB88B3FDF75AFC1A4A821841F10003AD
:103F9000002B16DB184813F0DBFE40B3FFF7E2FFFF
:103FA00018B1002001F0BEFB80B900214FF0FF30B6
:103FB00001F0DEF86FF002040F4813F0B1FE204666
:103FC00038BD4FF0FF326FF00043E3E72A46214649
:103FD000002001F0B3FB04460028EDD16FF002048D
:103FE000EAE76FF00204EAE76FF00204E7E76FF038
:103FF0000204E4E740420F00A48E0020F8B5074613
:104000000D46FDF71BFC2E4A821841F10003002BE0
:1040100004DB2C4813F09CFE28B9F8BD4FF0FF32AA
:104020006FF00043F5E7FFF79DFF002845D1264BD1
:1040300000200021C3E90001224813F071FEECE7E3
:1040400000214FF0FF3001F093F8002001F090FBC9
:10405000FFF788FF0028EFD0002001F00DFCF8B139
:10406000AC42E9DA2E1B002001F006FC864200DC9F
:1040700030460028E4D002463919002001F0DAFB6E
:10408000064600214FF0FF3001F072F8002001F0E9
:104090006FFB3444FDF7D2FB0B4BC3E90001DFE7B4
:1040A000FDF7CCFB084A13685268084E9B1942F191
:1040B000000283428A41D3D2BEE70024D0E700BF8A
:1040C00040420F00A48E0020007B002020A10700AA
:1040D000004870473489011000487047E08801109B
:1040E00010B50446144B1B786BB18CB9134B40F2DE
:1040F00009425A80012301335B009BB20F4843F40D
:104100004073038010BD11210B4800F047F8ECE725
:10411000052C0ED80A4B53F824000023122BEAD8A2
:10412000C25C002AE7D00133044921F81320DBB236
:10413000F4E70020E6E700BF708F0020CC87002066
:10414000C888011000B58BB045F24730FDF7FEFD81
:1041500003460122092101A89847042801D1002320
:104160000EE00A4B0A4A2F210A48FFF78FFAC3F1E3
:104170000F0228326A4412F8241C074AD154013332
:10418000072BF4DD0BB05DF804FB00BF488901107C
:10419000008A011050890110E48C002008B511B18B
:1041A0008C4600220AE0114B114A3B211148FFF7CF
:1041B0006DFA00210FE03733835401320CF1FF33E5
:1041C00093420FD90F2A0DD853080B49CB5C12F03C
:1041D000010FEED104210B4103F00F03092BEADCA0
:1041E0003033E9E70023835408BD00BFD8890110AC
:1041F000E089011050890110E48C002010B400F017
:104200007F044FEA440C0CEBD01C284B03EB4C13FF
:104210009870C0090CBF4FF0010C4FF0000C83F8F0
:1042200001C04FF0000C83F803C01983DA76E0B9BF
:10423000E3001F4A1A4400EB44011C4B03EB4113FB
:104240009A6000EB4402194B03EB42139B68002277
:104250001A60A4B900EB4400144B03EB4010426019
:10426000144BC3605DF8044B7047134A02EBC40261
:1042700000EB44010D4B03EB41139A60E1E750B9A9
:10428000631EDB000D4A1A4400EB4400074B03EBAE
:1042900040135A60E6E7631E094A02EBC30200EBD3
:1042A0004400024B03EB40104260DBE758880020DB
:1042B0008400105000011050800010500C0010506D
:1042C0000800105008B5038B3F3323F03F03C27E34
:1042D000022A08D008490A68C26013440B60074AE2
:1042E000934202D808BD5B00F4E7054B054A522112
:1042F0000548FFF7CBF900BF708C0020FF0F10506E
:104300001C8A0110488B0110608A011070B500F002
:104310007F054FEA450C0CEBD0130C4C04EB431417
:10432000FFF76CFF05B970BD218B2046FFF7CAFF70
:10433000E27EE36883F0A04383F4801343EA826360
:1043400043F0004362681360EDE700BF5888002027
:1043500008B500F07F035B0003EBD010024B03EBCA
:10436000401000F01BF908BD5888002008B520B99E
:1043700001210E20FCF7ECFA08BD034B034A40F282
:1043800097110348FFF782F90C8B0110388B01104D
:10439000608A011008B528B9002211468020FFF775
:1043A000D7FF08BD034B044A40F2A1110348FFF7B1
:1043B0006DF900BF0C8B0110288B0110608A011071
:1043C000024B4FF48032DA64704700BF0020115076
:1043D00070B548BB064600F0C1F8174C0C23A36724
:1043E000FF2216490E20FCF70DFB40252A4600212E
:1043F000134812F021F8002229461046FFF786FFE5
:10440000002229468020FFF781FF13F0A9FC012537
:1044100025644FF00053E3640A4BC4F890303046F3
:10442000FFF7CEFF284670BD074B084A40F26311E4
:104430000748FFF72BF900BF000011509903002037
:104440005888002010D001000C8B01105C8B0110EB
:10445000608A0110044B197021B1044B4FF40032F3
:10446000C3F89020704700BFD58F00200020115066
:104470000B7813F07F0F02D14B78052B00D07047DB
:104480004B88DBB2014A1360F9E700BF000011500E
:10449000CA7802F00302012A09D008B50B468988C0
:1044A000C1F30A019878FFF731FF012008BD002011
:1044B000704708B513F054FC08BD000010B530B9C2
:1044C000084611461A46FFF743FF012010BD034B73
:1044D000034A4FF401710348FFF7D8F80C8B011021
:1044E000188B0110608A011008B511F07F0304D108
:1044F000CA090ED10220084A90665B0003EBD11373
:104500004FF400620021054800EB431013F01CFC3F
:1045100008BD0120EFE700BF00201150588800209F
:1045200008B511F07F0300D108BD5B0003EBD11388
:10453000044800EB43100022C2706FF4006113F0D6
:1045400003FCF1E75888002004E011F8012B00F883
:10455000012B1A46531E002AF7D1704708B54FF0B9
:1045600080530A4A136002F580521360084B9B681F
:1045700013F0805FFAD04FF480520021054811F00B
:104580005BFF054B09225A6708BD00BF00200240AF
:1045900000000240000010500000115070B50446A9
:1045A0000D461646837EABB9A6820023E382012323
:1045B000A3762561204613F0BFFB20B10B4B4FF4CF
:1045C0000032C3F89020204613F092FB50B1012333
:1045D000237770BD81780648FFF7B6F9204613F0BF
:1045E0007FFBE1E7204613F08BFBF2E70020115040
:1045F000888C011038B50546002408E0D21A1B4B00
:1046000003EB4213DB68284698470134E4B2184BA9
:104610001B782246591CA14215DBA342EED9154B4B
:104620001B6813EB4413EDD140F2252212491348C5
:10463000FFF78AF94FF0E023D3F8F03D13F0010FB4
:1046400013D000BE11E00E4C54220021204611F080
:10465000F3FE4FF0FF336360A360E3602361202229
:10466000FF2104F1140011F0E7FE38BDA08D011008
:10467000D48F0020C47D00206C8D0110D08C0110DF
:10468000947F002008B5FFF7B5FF00F03FFF08BD9D
:1046900070B505460C461646486900F041FF63694F
:1046A000324601212846984770BD00002DE9F04FA1
:1046B00083B08246481EC0B2FFF70EFD20B183468C
:1046C00043780193022B11D040F2D63262496348FD
:1046D000FFF73AF94FF0E023D3F8F03D13F0010F64
:1046E00000D000BE002003B0BDE8F08FC279C2F355
:1046F00040105B4B197860F304111970C2F38012FB
:10470000C9B262F3451119700BF10908BBF8023008
:104710009B447BE098F8033098F8002090447DE0BB
:1047200040F2F1324C494D48FFF70EF94FF0E023CB
:10473000D3F8F03D13F0010F00D000BE0020D2E707
:10474000F31A484A02EB4319D9F810302A46414679
:1047500050469847082801D985421ED20134E4B258
:10476000414B1B7826465A1CA2424ADBA342E7D99A
:104770003E4B1B6813EB4419E6D140F2FA3236493E
:104780003648FFF7E1F84FF0E023D3F8F03D13F09F
:10479000010F00D000BE0020A5E73B464F468146F2
:1047A000012B11D000218B4224D998F802200A4411
:1047B000D2B22B4810440079FF280BD1284802447C
:1047C00014710131C9B2EEE73969294A9142E9D140
:1047D000019BE7E740F219421F492048FFF7B4F870
:1047E0004FF0E023D3F8F03D13F0010F00D000BEEE
:1047F000002078E723464A4641461E4801F06EFDF8
:10480000C844194B1B7801339E4212DCD84520D294
:1048100098F801300B2B3FF47DAF012398F801206D
:10482000042A7FF47DAFABEB0805ADB200241F4630
:1048300096E74FF4856208490848FFF785F84FF07E
:10484000E023D3F8F03D13F0010F00D000BE0020AC
:1048500049E7012047E700BF408D0110D08C0110CF
:10486000947F0020A08D0110D48F0020C47D0020F3
:10487000F1590010A87F0020704770470020704752
:104880000020704738B505460C464B881A0AD8B246
:10489000531E0E2B64D8DFE803F0082D4E636359D6
:1048A0002D636363636363632200FFF711FC0246B9
:1048B00028B112232146284600F0D2FD51E040F2F3
:1048C0003A422C492C48FFF73FF84FF0E023D3F849
:1048D000F03D13F0010F00D000BE002041E0FFF7D3
:1048E000B7F9024600283DD043882146284600F00B
:1048F000B7FD36E0022A09D0FFF7C2FF024698B39F
:1049000053882146284600F0ABFD2AE0FFF7E4FB80
:1049100002460028F4D140F2614216491648FFF7DA
:1049200013F84FF0E023D3F8F03D13F0010F00D05F
:1049300000BE002015E0A188FFF7D2FB0246A8B117
:1049400003782146284600F08BFD0AE0FFF796FF2A
:10495000024668B103782146284600F081FD00E058
:10496000002038BD0020FCE70020FAE70020F8E72F
:104970000020F6E7288D0110D08C01107047704799
:1049800070477047024B5878003818BF01207047B5
:10499000947F0020024B1878C0F38000704700BF5E
:1049A000947F0020024B1878FF3818BF0120704711
:1049B000A0170020F8B506460D46FFF7F3FF07469F
:1049C000002854D105B354220021374811F034FD9A
:1049D000364B00221A70364C2046FCF781FA354BD4
:1049E0001C60354C2046FCF7C5FA143C204602F00A
:1049F00027F8324B1C60324B23B13248FFF744F9A1
:104A0000314B1860002417E04FF4E9722F49304809
:104A1000FEF79AFF4FF0E023D3F8F03D13F0010FBB
:104A200025D000BE23E0D21A2A4B03EB42135B6869
:104A30007BB198470134E4B2224B1B782246591CC3
:104A4000A14216DBA342EED91F4B1B6813EB4413A4
:104A5000EDD14FF4F8721D491D48FEF775FF4FF078
:104A6000E023D3F8F03D13F0010F00D000BE38462C
:104A7000F8BD194B1E7029463046FFF7A9FC0746C2
:104A800018B13046FFF772FCF1E74FF4FC720F49A2
:104A90000F48FEF759FF4FF0E023D3F8F03D13F035
:104AA000010FE4D000BEE2E7947F0020D68F002003
:104AB0008C7F0020E87F002098170020EC7F0020EA
:104AC000893C0010D48F0020C47D0020908D0110FF
:104AD000D08C0110A08D0110A017002070B51A4BCA
:104AE0001E788B7813F0700F0ED10C46174B997807
:104AF000204601F083FB0546B0B121463046FFF762
:104B0000C7FC0546284670BD40F20B5210491148BB
:104B1000FEF71AFF4FF0E023D3F8F03D13F0010F3A
:104B200000D000BE0025EDE740F20C5208490948CC
:104B3000FEF70AFF4FF0E023D3F8F03D13F0010F2A
:104B4000E0D000BEDEE700BFA0170020947F002069
:104B5000F88C0110D08C01102DE9F84F80460C46DE
:104B600016461F46DDF82890DDF82CA0002526E02B
:104B700040F2E7421F492048FEF7E6FE4FF0E023EF
:104B8000D3F8F03D13F0010F00D000BE4FF0000B42
:104B90005846BDE8F88F4FF49D6216491648FEF757
:104BA000D3FE4FF0E023D3F8F03D13F0010FEFD028
:104BB00000BEEDE78AF8003023781C440135AE4290
:104BC00014DD6378052BD3D1E17801F00301B942FC
:104BD000CED121464046FFF781FF83460028DAD038
:104BE000A378DA09E6D189F80030E5E74FF0010B48
:104BF000CEE700BF088D0110D08C011008B501F080
:104C00007F00400000EBD1103030044B1844044BBF
:104C10001968043001F0ACFA08BD00BF947F002091
:104C2000E87F002008B501F07F00400000EBD110C4
:104C30003030044B1844044B1968043001F0C0FABA
:104C400008BD00BF947F0020E87F002070B51F489A
:104C5000007801F07F051E4C04EB450C0CEBD11CD9
:104C60009CF8344014F0010F1FD1CE09184C04EB0E
:104C70004504344494F834C04CF0010C84F834C03A
:104C80003034FFF71BFCF8B922796FF30002227170
:104C900022796FF3820222714FF0E023D3F8F03DC6
:104CA00013F0010F10D000BE0EE040F23952094956
:104CB0000948FEF749FE4FF0E023D3F8F03D13F02A
:104CC000010F00D000BE002070BD00BFA017002063
:104CD000947F0020E88C0110D08C011038B501F0D1
:104CE0007F05CC090A4B1878FFF7FEFB094B03EB55
:104CF0004503234493F8342042F0020283F8342021
:104D000093F8342042F0010283F8342038BD00BF0C
:104D1000A0170020947F002038B501F07F05CC0952
:104D20000A4B1878FFF7FCFB094B03EB45032344C0
:104D300093F834206FF3410283F8342093F8342041
:104D40006FF3000283F8342038BD00BFA0170020A5
:104D5000947F002001F07F02044B03EB420303EB3E
:104D6000D11191F83400C0F340007047947F0020C7
:104D70002DE9F04182B006460C46002000F0D0FB41
:104D8000237803F06003602B16D0402B27D02278C5
:104D900002F01F02012A00F00581022A00F046817C
:104DA0003AB34FF0E023D3F8F03D13F0010F00F0D9
:104DB000D48100BE00250EE04FF43572AB49AC48FB
:104DC000FEF7C2FD4FF0E023D3F8F03D13F0010FE2
:104DD00000D000BE0025284602B0BDE8F081A548FD
:104DE00000F09EFB224601213046FEF735FF0546C6
:104DF000F1E7202B0BD05BBB6378092B00F2C78057
:104E0000DFE803F0B2A2C592C5308CC53F4CA38841
:104E1000DBB20F2B00F29181974A13441B79974A1A
:104E20001278934206D2964A116811EB431109D1C8
:104E30000025D0E7511C9942C0F281819B1A91490B
:104E400001EB431122463046FFF722FC0546C2E73C
:104E50004FF0E023D3F8F03D13F0010F00D000BE77
:104E60000025B8E7204600F061FB6188C9B23046F2
:104E7000FFF790FA804A137843F00203137001257C
:104E8000A9E77D4B5B788DF8063001230DF1060212
:104E90002146304600F0E4FA01259CE76588EDB232
:104EA000754B5B78DBB2AB4232D0734B5B785BB94E
:104EB000714B5D7055B329463046FFF7F7FB054649
:104EC00090B1FFF75BFD23E000213046FFF7C2FA07
:104ED0003046FFF7EEFA684F97F802803046FFF74A
:104EE00089FB87F80280E3E74FF449725F49604825
:104EF000FEF72AFD4FF0E023D3F8F03D13F0010F49
:104F000000D000BE5C4B00225A7064E7FFF737FD0B
:104F10002146304600F090FA01255CE721463046F4
:104F2000FFF7B0FC054656E76388012B01D000254A
:104F300051E7514A137843F0080313702146304675
:104F400000F07AFA012546E76388012B01D000259D
:104F500041E7494B1A786FF3C3021A702146304675
:104F600000F06AFA012536E7434B1B789A08C3F331
:104F7000401302F002021343ADF8063002230DF194
:104F800006022146304600F06BFA012523E74FF078
:104F9000E023D3F8F03D13F0010F00F0D28000BE03
:104FA000002518E7A388DBB20F2B00F2CC80324A31
:104FB00013441B79314A1278934222D2304A116845
:104FC00011EB431100F0C18022463046FFF760FB31
:104FD000054600287FF4FFAE237813F0600F7FF4BE
:104FE000FAAE63780A3B012B3FF6F5AE00F098FA73
:104FF00063780A2B0ED02146304600F01DFA0125B9
:10500000E9E6511C9942C0F2A2809B1A1D4901EBAE
:105010004311D9E700238DF8063001230DF1060274
:105020002146304600F01CFA0125D4E6A288D1B210
:1050300002F07F05C2F3C01012F0700F24D10E4AA7
:1050400002EB45020244127D0C48007882422BD2CA
:105050000B48056805EB421583B3002D79D0224635
:1050600029463046FFF714FB0546B4E6548D01107F
:10507000D08C0110593C0010947F0020D48F002068
:10508000C47D0020A08D011040F29532344935488E
:10509000FEF75AFC4FF0E023D3F8F03D13F0010F78
:1050A00000D000BE002596E6451C954204DB121A8E
:1050B0002D4D05EB4215CFE70025CDE76378012B99
:1050C0001AD0032B18D04BB14FF0E023D3F8F03DAA
:1050D00013F0010F00D000BE00257CE63046FFF73C
:1050E00039FEADF8060002230DF1060221463046D6
:1050F00000F0B6F901256EE6628822B9012B18D0BE
:105100003046FFF7EBFD35B3224629463046FFF720
:10511000BFFA002000F004FA144B93F8355015F054
:1051200001057FF458AE2146304600F085F901258F
:1051300051E63046FFF7F0FDE5E700254BE6002598
:1051400049E6002547E6002545E6002543E600251B
:1051500041E600253FE601253DE600253BE600BF90
:10516000548D0110D08C0110A08D0110947F00206F
:1051700010B584B0FFF716FC48B904B010BD9DF817
:105180000400FFF77FFA9DF80820854B9A70854B45
:105190001C686369EFF3108272B6D3E8CF0F012168
:1051A0000028FAD1C3E8401F0028F6D1BFF35F8F73
:1051B000A26101A9204601F0EBFB6169A36900220D
:1051C000C1E88F2F83F310880028D6D09DF80530D2
:1051D000013B072B00F2DA8001A252F823F000BF56
:1051E0007F51001001520010795300103F530010FE
:1051F000595300100F520010A55200106B530010AD
:105200009DF80400FFF73EFAFFF7B9FBBFE7664BD6
:105210001B78002B36D0644A1378013BDBB2137045
:105220001378002BB3D15E4B1A7842F001021A704A
:1052300093F834206FF3000283F8342093F834207D
:105240006FF3820283F8342093F835206FF3000265
:1052500083F8352093F835206FF3820283F83520E8
:1052600002A99DF80400FFF783FD00288FD10021DB
:105270009DF80400FFF738F980219DF80400FFF73E
:1052800033F984E740F2652248494948FEF75CFB60
:105290004FF0E023D3F8F03D13F0010F3FF46DAF72
:1052A00000BE6AE79DF8081001F07F00CC093C4B76
:1052B00003EB400303EBD11393F834206FF30002A8
:1052C00083F8342093F834206FF3820283F834207B
:1052D000A8B1334B03EB400323441B7D354A1278BE
:1052E000934214D2344A126812EB431317D09C69CC
:1052F000039B9DF809209DF80400A04747E7039B06
:105300009DF809209DF8040000F01EF93FE7501CAD
:10531000984204DB9B1A294A02EB4313E7E74FF458
:10532000247222492248FEF70FFB4FF0E023D3F806
:10533000F03D13F0010F3FF420AF00BE1DE7184B06
:105340001B7813F0010F3FF422AF154B1878C0F310
:10535000C000FFF715FB1AE7114B1B7813F0010F84
:105360003FF415AFFFF70DFB11E7029B002B3FF455
:105370000EAF039898470AE7094BDB7813F0010F4B
:105380003FF405AF0298FFF778FA00E74FF0E0230B
:10539000D3F8F03D13F0010F3FF4F9AE00BEF6E68E
:1053A000947F0020EC7F0020D68F0020808D01109C
:1053B000D08C0110D48F0020C47D0020A08D01105E
:1053C00008B591F90030002B05DB802100231A4637
:1053D000FFF73CFC08BD0021F8E70000F8B50746E0
:1053E000134B9E89DD89741BA4B2402C28BF402436
:1053F00093F90030002B08DB0021AE4213D00D4A98
:1054000023463846FFF722FCF8BDAE4209D0084BD0
:105410009968402C09D82246064811F017FD8021D2
:10542000EBE78021E9E70022EAE70020ECE700BF94
:10543000547F0020147F002008B586460B46074A9B
:10544000944608684968ACE8030000219160D18166
:10545000918119467046FFF7B3FF08BD547F0020C5
:1054600038B505468C46264CA64608684968AEE81D
:105470000300A2600021E181BCF806108B4228BF26
:105480000B46A381BCF8061029B303B132B12846FC
:10549000FFF7A4FF044680B1204638BD72221949A7
:1054A0001948FEF751FA4FF0E023D3F8F03D13F01E
:1054B000010F00D000BE0024EEE77422114912480B
:1054C000FEF742FA4FF0E023D3F8F03D13F0010F5E
:1054D000E2D000BEE0E761462846FFF771FF0446D0
:1054E0000028D9D1762207490748FEF72DFA4FF058
:1054F000E023D3F8F03D13F0010FCDD000BECBE791
:10550000547F0020F88D0110D08C0110034B002235
:105510001A605A609A60DA601A617047547F0020FE
:10552000014B1861704700BF547F00200146054BB6
:105530001A460068496803C200229A60DA819A819B
:10554000704700BF547F002038B505461C463D4BD0
:105550001B78DB09B3EBD11F1CD07CB19D223A49EB
:105560003A48FEF7F1F94FF0E023D3F8F03D13F09D
:10557000010F00D000BE0024204638BD314C21462A
:10558000FEF776FF23691BB1224603212846984780
:105590000124F1E72B4B93F90030002B07DB294B5B
:1055A000986800284CD02246294911F04FFC254A22
:1055B000D38913FA84F39BB2D3819168214491601B
:1055C000D288934201D03F2C26D81E4B1B6923B1B1
:1055D0001C4A022128469847A0B11A492846FFF7DD
:1055E000EFFE04460028C7D1C52217491748FEF729
:1055F000ABF94FF0E023D3F8F03D13F0010FBBD02F
:1056000000BEB9E700212846FEF76EFF802128463C
:10561000FEF76AFF0124AFE72846FFF7DFFE0446E6
:105620000028A9D1CD2208490848FEF78DF94FF08E
:10563000E023D3F8F03D13F0010F9DD000BE9BE7AF
:10564000002499E7547F0020E08D0110D08C0110D8
:10565000147F002038B50446FFF794F950B90023B1
:10566000184633B1204BC82202FB0433DB7843B920
:10567000002038BDFFF78EF908B90123F0E70023B9
:10568000EEE7154604FB05F51035174B1D4428467B
:1056900001F068F93F2801D80020EAE7124BC82240
:1056A00002FB0433D9780020FFF7A8FA0028E0D0E5
:1056B000284601F057F93F280CD90B49C82303FBB2
:1056C00004114023094A02EBC412C9780020FFF7F5
:1056D000BDFACEE7044BC82202FB0433D978002080
:1056E000FFF7A0FA0020C4E74C7E0020C87D002010
:1056F00010B50446FFF746F908B9002010BDFFF7C2
:1057000049F948B9064BC82202FB04331B7913F050
:10571000010F03D00120F1E70020EFE70020EDE7C3
:105720004C7E002008B5C82303FB00F01030024B6C
:10573000184401F0E6F808BD4C7E002038B5044658
:10574000C82300FB03F31033084818444FF6FE73D8
:105750009A4208D892B201F03AF905462046FFF77E
:1057600079FF284638BD4FF6FF72F4E74C7E0020E3
:1057700070B50546FFF706F918B9002343B90020B4
:1057800070BDFFF707F908B90123F7E70023F5E734
:10579000C82405FB04F42034224B1C440434204666
:1057A00001F0AFF808B90020EAE71E4BC82202FB5F
:1057B000053399780020FFF721FA08B90020DFE7C8
:1057C000EE014036184B1E4440223146204601F07F
:1057D000FEF80446D8B11349C82303FB051103465C
:1057E000324689780020FFF731FA08B12046C7E732
:1057F000D5220E490E48FEF7A7F84FF0E023D3F864
:10580000F03D13F0010F00D000BE0020B8E7054BBB
:10581000C82202FB053399780020FFF703FA002025
:10582000AEE700BF4C7E0020C87D0020288E01100E
:10583000D08C011070B50546C82400FB04F4203458
:105840000C4B1C4404344FF6FE739A420BD892B2B0
:10585000204601F0F0F80646204601F052F83F28B5
:1058600004D8304670BD4FF6FF72F1E72846FFF7C7
:105870007FFFF6E74C7E002008B5C82303FB00F04D
:105880002030034B1844043001F06CF808BD00BF11
:105890004C7E00202DE9F04383B0C822002124482B
:1058A00010F0CAFD0025234B1D7015B103B0BDE8F3
:1058B000F0831F4FC82405FB04F43E19FF237371C6
:1058C0004FF4E133B3604FF0000886F80C8086F89F
:1058D0000D800823B37304F1380104F11000CDF8F2
:1058E0000080012340223944384400F0D9FF04F1FC
:1058F000780104F120003844012300934022394408
:10590000043000F0CDFF04F1B809B9444846FBF774
:10591000E7FAC0343C442046FBF7E2FAC6F81C80A4
:10592000C6F820903463C6F834800135EDB2BCE788
:105930004C7E0020487E002000230BB101207047E0
:105940009C460C4AC82101FB0322116A106B31B13D
:10595000084AC82101FB03220021D161116230B144
:10596000044AC82101FB0C22002111635163013359
:10597000DBB2E2E74C7E002038B5002404B138BD2C
:105980002546C82304FB03F3174958180022CA50C0
:105990000271164B1B7813F0010F11D0134B1B78BB
:1059A00013F0020F15D0C82303FB05F020300E4B77
:1059B00018440121043001F05EF80134E4B2DDE75F
:1059C000C82304FB03F310330846184401F038F8E9
:1059D000E4E7C82005FB00F02030034B18440430F6
:1059E00001F02EF8DFE700BF4C7E0020487E00204B
:1059F0002DE9F04182B04B79022B7DD106468B799F
:105A0000022B7ED100273FB18FB98B7888F8003008
:105A10000B78CC1809251EE0C8203B4B00FB07384B
:105A200098F80230002BEFD00137FFB2EBE740F2DD
:105A3000411236493648FDF787FF4FF0E023D3F88F
:105A4000F03D13F0010F00D000BE002555E0237893
:105A50001D44ADB21C446378242B01D19542F6D984
:105A6000052B09D06378042B02D163790A2B20D04F
:105A70003846FFF7EFFD40E021463046FFF72EF8AD
:105A800038B1A37888F8013023781D44ADB21C44A6
:105A9000E8E740F253121D491D48FDF755FF4FF04E
:105AA000E023D3F8F03D13F0010F00D000BE002535
:105AB00023E021780D44ADB208F10203019308F10F
:105AC0000303009302231A4621443046FFF744F8AB
:105AD00010B10E35ADB2CBE74FF4B1720B490C48A3
