:020000041000EA
:10000000002008205D0100101B0100101D010010E0
:100010001101001011010010110100101101001058
:100020001901001019010010190100101F01001022
:10003000110100101901001021010010230100100E
:100040001101001011010010110100101101001028
:100050001101001011010010110100101101001018
:100060001101001011010010110100101101001008
:1000700011010010110100101101001011010010F8
:1000800011010010110100101101001011010010E8
:1000900011010010110100101101001011010010D8
:1000A00011010010110100101101001011010010C8
:1000B00011010010110100101101001011010010B8
:1000C00011010010110100101101001011010010A8
:1000D0001101001011010010110100101101001098
:1000E0001101001011010010110100101101001088
:1000F0001101001011010010110100101101001078
:100100001101001011010010110100101101001067
:10011000EFF30580103800BE00BE00BE00BE00BE7A
:1001200000BE00BEF2EB8871FC2B0010182C0010F2
:10013000A001001090A31AE7D3DEFFFF42012110B7
:10014000FF010000842F0000793512AB4FF0000052
:100150001E49086006C881F3088810474FF05040D8
:10016000006810B14FF00000F2E70DA40ECC00299A
:1001700002D000F012F8F9E71549164A002000E015
:1001800001C19142FCD11449884714498847144958
:10019000884700BEFDE701C901C29A42FBD3704700
:1001A000182C001010010020B4050020BC300010F5
:1001B0000000082000000820BC30001000100820BB
:1001C00000100820000000007047000008ED00E06B
:1001D000B40500208C0900202522001035030010F2
:1001E0001D220010F8B500BF064B0749C91A891037
:1001F00048BF0131491003D0044B0BB101481847E7
:10020000704700BFB4050020B405002000000000C6
:1002100008B5054B1BB105490548AFF30080BDE8A3
:100220000840FFF7E1BF00BF00000000B807002052
:1002300094290010112800D07047F8B54D072DED16
:10024000028B3CD40C0757D501234FF0A041314A13
:100250001068820183400A44C1F86434D3685801AD
:10026000FCD401232C4A10688201834002F1A04291
:10027000C1F86434D46814F08064FBD1602227494B
:10028000274802F0B3FAB7EE008A254D0DE0F4EEF0
:10029000487AF1EE10FA78FE277AE0B217EE901A5B
:1002A000013400F0EFF9062C29D0F5EC017AF5EED7
:1002B000C07AF1EE10FAEAD5DFED1A7AEDE7012106
:1002C0004FF0A0446025134B174E1A68124B30684C
:1002D0001B6808443060154F9001104E01FA02F27D
:1002E00099409B0120442344076085605E609D60C7
:1002F000C4F85014C4F85024BDEC028BF8BD00F0D3
:100300000FFA0B4BDA685107F6D59A68DA6852078C
:10031000FBD4F1E7A40700209C0700200008002080
:10032000600800200000000098070020C40800209A
:10033000000008402DE9F84F2DED028B02F052F835
:10034000192000F0B1FC4FF0190A4FF0010343EC03
:1003500044A0624C00F0E6F800F0E4F800F0E2F9A6
:1003600000F0E0F920465E4902F09EF802234FF0CB
:10037000040C62685B4DDFF894B11A40CBF804308E
:100380000121C5F804C010206A6000F005FC0121BD
:10039000112000F001FC0121122000F0FDFB0121E1
:1003A000132000F0F9FB02236268CBF804302368C5
:1003B0004D4983F0070302F0020203F0CF030B6004
:1003C00001206A6002F0ECF803466027474E484C73
:1003D0004849236006EA4334474ADFF8348144F44D
:1003E00040149B0103F1A04344F011040C60012070
:1003F0001A60C3F804809F601C6102F0D1F80446C3
:10040000DFF810B106EA4436CBF80040DFF808E127
:10041000DFF808C146F44816A40104F1A04446F0F0
:100420004106CEF800600122C4F800800C21C4F817
:1004300004C01120A760314B26614FF000099FEDE9
:10044000308A00F0DBFB00272E4D2F4E01F0ACFB75
:1004500032463B4602F070FAC04300F0010040EC27
:1004600040A001F0A1FB8B4600210C4601F07AFE72
:100470000346214658462B6001F074FE85ED028A42
:1004800085ED038A85ED048A85ED058A85ED068A6A
:1004900085ED078A85ED088A85ED098A85ED0A8A4A
:1004A00085ED0B8A85ED0C8A85ED0D8ADFF870806D
:1004B0006860204600F01EFA0134062C48F8040B50
:1004C000F7D160220F490C4802F090F949EC40A0A6
:1004D000022089F0010901F0D9FAB7E700000840CD
:1004E00000093D0000200840001008400DFF01FCFD
:1004F000A4070020A8070020C4080020350200102F
:10050000000000002409002090D0030000300840C3
:10051000080008409C070020A007002000080020D9
:100520005C0900202DE9F04F2DED048B4E498BB076
:100530004E4802F045F803460520049301F0B6FB4F
:1005400007EE900A9FED4A7AF8EE677A0027DFED12
:10055000498A9FED499A87EE878ADFF824910397AD
:100560000597032F6FDC3C464FF0060ADDF810803C
:100570003E4E4FF4803306934FF4402301250893F9
:1005800008F108024FEAC81359F804BB43EA0233E2
:1005900023F0C04307934FEA8B2303F4F84343F05F
:1005A00000535A4621460095099330462B4602F0E7
:1005B00083F85146584600F0EFFA0899424621F078
:1005C0007E4121F42C2141F08041089106AB214667
:1005D000304602F0B7F838EE287AFCEEC77A04EB22
:1005E000440306EBC30217EE903A05FA04F09BB2FF
:1005F00005461C04EBB107EE903AF8EE677A37EE49
:10060000677A27EE097AFCEEC77ACDED027A9DF87B
:100610000830013744EA0324C2F8C8403368062F83
:1006200040EA030030609CD10BB0BDEC048BBDE808
:10063000F08FC2F8C830336801371D43062F35608C
:10064000F2D0032F8FDD039B43B101234FF0070A44
:100650000A4EDDF8148003933C1F8AE702490748DD
:1006600001F0AEFF0590F0E7AC290010000020502B
:10067000007C924A0000003B0000804300003050A4
:1006800094290010052826D807EE901A9FED1F7AAE
:10069000F4EEC77AF1EE10FA10B41AD9B7EE007A78
:1006A000F4EEC77AF1EE10FA16DD194C0122032898
:1006B00088BF043800F1100394BF164916499A40C8
:1006C0004B681342FCD1043041F820405DF8044BE4
:1006D00070470024EAE770479FED107A67EE877A4B
:1006E000FCEEE77A17EE903A40F2FF7230339BB29D
:1006F000934228BF1346DC0984EAD30484EA430406
:1007000004F00F0444EA43142404CFE76F12833A41
:100710000000EEFF00002050000030500000FA44BE
:10072000704700BF2DE9F04F2DED048B0027664B7D
:100730008DB0DFED668A9FED668A9FED669AB846BA
:1007400002930DF1200B04AC25E007EE906AF8EE61
:10075000677A37EE677A27EE097AFCEEC77ACDED35
:10076000037A52462346294648469DF80C703604C3
:1007700046EA072608F10108049601F0E3FF01228A
:10078000D9F8003002FA05F51D43B8F1060FC9F893
:10079000005000F08A80B8F1010F6DDD4E4BA8F1DA
:1007A00002051B78002B74D04C4BD3F800A0082313
:1007B000DFF838910393029B002753F8046B30460F
:1007C000029300F071FA47EC4460012130463A464A
:1007D00000F000FA4FF440234FEACA1E06930AF1D4
:1007E00005034EEA033E4FF480324FF4F833CDE96F
:1007F0000423079794E80F008BE80F004FEAC63CEC
:10080000CDF824E09BE80F000CF4782C84E80F006E
:1008100030460399CDF81CC000F0BEF932460123E2
:1008200029464846009701F047FF069B052023F024
:10083000414323F4750323F4404343F0004343F45E
:100840008023069301F032FA07EE900AF8EE677AF9
:1008500087EEA87A37EE087AFCEEC77A17EE903A60
:100860009EB2002E7FF471AF524623462946484679
:10087000049608F1010880E7194E08F10205337863
:10088000C3B1184BD3F800A00723DFF8649003939B
:1008900091E71549154801F093FE4FF001020E4B08
:1008A00082461A700D4B186081E70DB0BDEC048BC9
:1008B000BDE8F08F0C490E4801F082FE0123337031
:1008C000084B82461860DFE7C82900100000614924
:1008D0000000003B0000804388090020D40700206E
:1008E00087090020D0070020E02A001000004050B7
:1008F00000003050052871D84FF000422DE9F04F2C
:10090000012895BF02300238354F364F00EB4003C7
:1009100007EBC30303F5865385B01A611A6100F132
:100920000808012601F040F94FF0000A40F6B939F5
:1009300004460D460DF1040B06FA08F602E07B684A
:1009400033420CD001F030F9001B61EB0501484542
:1009500071F10001F3D3002005B0BDE8F08F57F826
:1009600028300AF1010A1B0EBAF10A0F0BF8013BFD
:10097000E8D11D4B9DF804209DF805009A5C9DF878
:10098000061042409A5C5140585C9DF807209DF843
:10099000081042409A5C9DF809004A409A5C9DF814
:1009A0000A1042409A5C9DF80B004A40995C9DF801
:1009B0000C204140595C4A409B5C9DF80D109942C7
:1009C000C9D1BDF80B0040BA80B207EE900AF8EE2C
:1009D000677A17EE900A05B0BDE8F08F00207047E7
:1009E0000000305000004050E02900104FF050400F
:1009F0002DE9F84F002607686249634A634BB74206
:100A000014BF88469046DFF888B1DFF8889153F824
:100A100027A0F30803F10C0258F8224035460836A7
:100A2000E4B1BAF1000F1DD014F00F0110D05BF843
:100A3000273005F00702EB40E8089200DB0701FAD7
:100A400002F200F18C0C03D4284649F82C20D04740
:100A5000240905F1010501D0B542E5D3202ED8D1F6
:100A6000BDE8F88F14F00F0105D0494A52F827204D
:100A7000EA40D20764D52309F0D013F00F030CD05D
:100A8000434A52F827106A1CD140C80705D441498F
:100A9000D2081B018C3241F82230230ADED013F039
:100AA0000F030CD03A4A52F82710AA1CD140C907AC
:100AB00005D43849D2081B028C3241F82230230B6E
:100AC000CCD013F00F032DD1230CC7D013F00F039C
:100AD0003BD1230DC2D013F00F0344D1230EBDD060
:100AE00013F00F030CD02A4A52F82710AA1DD14048
:100AF000C90705D42749D2081B068C3241F8223099
:100B0000240F05F10705A9D0214B53F82730EB40FE
:100B1000DA07A3D41F4AED08240705F18C0342F835
:100B200023409BE71A4A52F82710EA1CD140C80715
:100B3000CAD41849D2081B038C3241F82230C3E7CB
:100B4000144A8C3342F8231095E7114A52F82710C3
:100B50002A1DD140C907BCD40E49D2081B048C32CF
:100B600041F82230B5E70A4A52F827106A1DD140F1
:100B7000C807B3D40749D2081B058C3241F822308C
:100B8000ACE700BF90820240488202406407002028
:100B9000F80700200080024010B44FF480740C4B22
:100BA00053F8202003EB8003C00082F0400200F1E4
:100BB000804003F5805C02F0C00200F5203003F5B0
:100BC0004053CCF8002041601C605DF8044B704736
:100BD0000480034010B4084CC90041EA820154F873
:100BE000202004EB8003514003F5805301F00C01F9
:100BF0005DF8044B19607047048003402DE9F04311
:100C00004FF050491646DFF89C80D9F800201F4667
:100C100058F8223004460D4683B053B3002F34D029
:100C20004FF0504348F822701A681B491B4B002AAA
:100C300018BF0B46E20804F00704A40005FA04F408
:100C4000A1F5247102F18C0041F8204003EB8203EE
:100C50004EB10121152003F500531C6003B0BDE81F
:100C6000F04300F033B903F540531C6003B0BDE816
:100C7000F083002FD9D048F8227015201A46084971
:100C800000F06AF9D9F80020CFE715200449019255
:100C900000F056FA019AC3E790820240488202406F
:100CA000ED0900106407002030B44FF0000343EC5E
:100CB000440043EC400005254FF480740B4BC20008
:100CC00053F8201003EB800081F0400102F18043D3
:100CD00003F5203301F0C00200F5805100F54050CB
:100CE0000A605D60046030BC704700BF0480034050
:100CF0000FB400B583B0049C074801F0B7FB3CB1CA
:100D000005A92046019101F06FFA044801F0AEFBFD
:100D1000012001F081FA00BFF42A0010042B00101A
:100D2000EFF3108072B6064BD3E8CF1F01220029E3
:100D3000FAD1C3E8412F0029F6D1BFF35F8F704786
:100D4000430700200023034AC2E88F3F80F3108846
:100D5000704700BF4307002070B58646EFF310854B
:100D600072B6124CD4E8CF6F0120002EFAD1C4E83D
:100D7000460F002EF6D1BFF35F8F4FF0010CC8086D
:100D800001F007030CFA03F31EF800C01CEA030687
:100D900008D14CEA030C0EF800C0C4E88F6F85F34D
:100DA000108870BD1046FFF7A3FF00BF4307002067
:100DB000F8B5EFF3108572B6234CD4E8CF7F012647
:100DC000002FFAD1C4E8476F002FF6D1BFF35F8F31
:100DD0009A4227D80126D70810F807E002F0070C3E
:100DE00006FA0CFC1EEA0C0F00EBD2070DD125E031
:100DF0004FEAD20E10F80EE002F0070C06FA0CFCD7
:100E00001EEA0C0F00EBD20718D001329342EFD24A
:100E10004FF0FF300023C4E88F3F85F310889842DD
:100E200007DBF8BD0023C4E88F3F85F310884FF03F
:100E3000FF300029F5D00698FFF75AFF4EEA0C0E56
:100E4000104687F800E0E5E743070020044A1078E1
:100E5000431CDBB2182B28BF10231370704700BF50
:100E6000480500204FF0E022936843F00053936060
:100E7000704700BF0021044B03F12002C3E88F1F1D
:100E800001339342FAD17047380700204FF0E02336
:100E90004FF08032C3F80024C3F80424C3F80824B8
:100EA000C3F80C24C3F81024C3F81424C3F818247E
:100EB000C3F81C24C3F82024C3F82424C3F828242E
:100EC000C3F82C24C3F8302462B67047012300F025
:100ED0001F029340400941B1800000F1604000F5DD
:100EE0006140C0F8803103607047024A203042F808
:100EF0002030704700E100E0F8B50D46EFF31087B1
:100F000072B6124ED6E8CF2F0123002AFAD1C6E8D6
:100F1000423F002AF6D1BFF35F8F0D4B00F1100462
:100F20009B680C4A53F82430934203D0994201D075
:100F300000F052FF064B9B6843F82450BFF35F8FCD
:100F40000023C6E88F3F87F31088F8BD41070020D3
:100F500000ED00E0110100102DE9F04F81468B46B5
:100F6000164683B0EFF3108372B6DFF8D0A100937A
:100F7000DAE8CF1F01230029FAD1CAE8413F00294E
:100F8000F6D1BFF35F8F664B93F90040002CC0F29F
:100F9000A080644D04EB440705EB870898F8061021
:100FA00009F110091970604BBF009B6853F82900C4
:100FB0006300411B2F292FD95C49884240F0A5804E
:100FC0001C445B4B02372F44043BDB1BC3F34A0337
:100FD0006FEAC3434FF421416FEAD34325F824104D
:100FE00005EB840463804BF60153A380FF2348F094
:100FF0000100E671C4F808B0A3714B4B9B6843F83D
:101000002900BFF35F8F0023CAE88F3F009B83F363
:10101000108803B0BDE8F08F20F0010E9EF8071095
:10102000B1422ED84FF42143EB53414BB91C294414
:10103000043B04375B1A2F44AEF104013D4CC91B3D
:10104000C1F34A012143A8F80410C3F34A033A4903
:101050002343A8F802304AF6AA2073465B1B5B4183
:101060005843000D88F8076088F80600C8F808B0F3
:1010700048F00100CEF80010BFE7D179B1422ED977
:1010800096469EF906C00CEB4C02BCF1000F05EB36
:101090008202F2DA4BF601510EF10402A8F10407C4
:1010A000BF1AC7F34A076FEAC7476FEAD7478EF8F8
:1010B000064003EB0408204C05EB8803AEF80470EF
:1010C00045F82840998083F806C0DE71C3F808B05F
:1010D00093E700F081FE124B93F9004059E7BEF808
:1010E00004100EF10402490514D44915023102EB33
:1010F000410101916FF00701C91B019F491B394450
:10110000C1F34A0141F46041C8E7019300F064FE75
:10111000019B55E701F5FF1101F5FF511F31E4E790
:10112000860900204C05002000ED00E011010010B0
:101130007C05002000E0FFFF0148804741070020B8
:101140002DE9F04F83B0EFF3108A72B6744ED6E8F3
:10115000CF2F0123002AFAD1C6E8423F002AF6D158
:10116000BFF35F8F6F4B00F110089B686E4A53F816
:10117000285095423FD08D420C464AD06B4FEB1B16
:101180002F2B38D801214FEA50194FEA890909F16C
:10119000604909F5614900F01F0301FA03F0D9F82D
:1011A0000030C9F8800000EA030BBFF35F8FEFF354
:1011B0000581C9B279B3884577D125F0010EDEF8F3
:1011C00008C0644505D17CE0D3F808C0644532D03E
:1011D0009E469EF9062002EB4203002A07EB83039A
:1011E000F2DA644500F08180BBF1000F20D0C9F82D
:1011F0008001C9F800004B4B9B6843F82850BFF3AF
:101200005F8F0023C6E88F3F8AF3108803B0BDE8E4
:10121000F08F1546EFE725F0010EDEF808C06445B3
:10122000D7D19EF906407346002C08DA154666E0D1
:10123000C9F88000DFE793F90640002C56DB04EB89
:10124000440C07EB8C0CDCF8082061009A609CF8D9
:101250000720DA719CF90620002A9A715DDBBCF840
:101260000420520504D502F5FF1202F5FF521F3289
:10127000521502F1020C4FF0040E0C2212FB04E294
:1012800002EB4C026FF0070C3A44ACEB030C6244E7
:10129000C2F34A0242F460429A80254B21441A78F4
:1012A00007EB81011C708A719EE7CDE9000100F017
:1012B00093FDDDE9000125F0010EDEF808C064456C
:1012C00087D19EF906407346002CB8DA194A1A4CA9
:1012D000D21A083AC2F30A316FEA01516FEA11518A
:1012E00044EA5202DA8099807EE773460029EDD104
:1012F000FF228EF806204BF60152AEF804200C4C6B
:101300004AF6AA2294F800C01946C91B49414A432B
:10131000120D83F806C0227066E74BF60152BBE758
:101320004107002000ED00E0110100104C050020F5
:10133000860900208605002000F8FFFFF0B5EFF3D6
:101340000585EDB2EFF3108C72B62649D1E8CF2FA8
:101350000123002AFAD1C1E8423F002AF6D1BFF3A7
:101360005F8F214E40F0010EB4684AF6AA2354F86C
:1013700025701E4A0446A41A644163431B0D774539
:101380005BB21BD092F906409C421CD092F91240ED
:101390009C4223D092F91E409C4221D092F92A40CF
:1013A0009C4208BF03240FD0114A00241578137003
:1013B0008571C1E88F4F8CF31088F0BDB2680D4C79
:1013C00042F82540F0E7002404EB440402EB8402D9
:1013D000FF2494714BF601549480E5E70124F3E770
:1013E0000224F1E74107002000ED00E04C05002059
:1013F0008609002011010010014B0B440360704767
:10140000380700202DE9F041134D144FBD4221D281
:101410004FF0FF082C460CE0FFF718FD0146284668
:10142000FFF7EAFFA6F80480BFF35F8FBC4211D23A
:101430002546236826460834002BEDD1FFF706FD2C
:1014400001462846FFF7D8FF86F80480BFF35F8F78
:10145000BC42EDD3BDE8F081AC050020B40500200E
:101460000D4B1A68EFF3108172B6D2E8CFCF01208E
:10147000BCF1000FF9D1C2E84C0FBCF1000FF4D160
:10148000BFF35F8F00221B68C3E88F2F81F31088A2
:1014900040BF002000217047C0080020000000006D
:1014A0002DE9F04F2DED028B85B0EFF30583DBB214
:1014B000103B9A0818BF01224FF0010103F003000E
:1014C00008BFAD4DAD4B18BFAD4D00EB820253F8D8
:1014D000226001FA00FB05F541539FEDA58B0190B9
:1014E000C3F804B02EE0B388190440F19280B379B8
:1014F000002B40F0DC80B6F90820002AC0F21B81E6
:10150000736902EB420203EBC203D3E90247B7F16E
:10151000FF3F08BFB4F1FF3F0DD0019B05EB8301F6
:10152000AB6A0A69D21AE31A934203D32B6A13EA0D
:101530000B0F00D10C61284600F02EFBA042B941F0
:10154000C0F2F980B6F90830C5F83CB0002B009322
:10155000C9DBD6F8149003EB430A284609EBCA0707
:10156000D7E9024800F018FBA04271EB0801BADB92
:10157000B8F1000FC0F2C180D7E90431814A93422B
:1015800000F0EB807A88B6F9080092B242EA004097
:10159000984702460B4652EA030100F0AE80002B4A
:1015A00080F2CF80B4EB020E68EB030839F93A30D1
:1015B000C7E902E8002B96DB716903EB430201EBFC
:1015C000C202D2E90270BE4578EB000C4FEA43023A
:1015D00089DBB4462CF8083F0BE031F93230A446E1
:1015E000002B0DDB03EB430001EBC0005A00D0E9F8
:1015F0000270BE451A4478EB000001EBC204ECDA3D
:1016000029F83A30009BACF80030B38819043FF554
:101610006EAF3369EFF3108272B6D3E8CF0F0121BA
:101620000028FAD1C3E8401F0028F6D1BFF35F8F2E
:101630004FF6FF74B0880023316900B2B480C1E86E
:101640008F3F82F310889842FFF651AF0746A946B4
:10165000746906F1080807EB470E04EBCE03D3E9E3
:101660000205B6F90830C446002B13DBB2460097DA
:1016700004E034F936309446002B09DB03EB4306D3
:1016800004EBC602D2E90271B84275EB0101F0DA4F
:101690005646009FACF8007034F93E7024F83E3096
:1016A000002FD8DAB3794D46002B3FF424AF002346
:1016B000B371B6F9083006F1080E5A1C3BD01A4631
:1016C000746903E08646591C3FF417AF03EB4301EE
:1016D00004EBC10047889C463F0434F93130F1D512
:1016E000944580ED028BEED0AEF80030328924F8BC
:1016F00031206246A6F808C0E5E739F83A30338170
:101700003369EFF3108272B6D3E8CF0F01210028BE
:10171000FAD1C3E8401F0028F6D1BFF35F8F73886A
:10172000316929F83A30009B73800023C1E88F3F6C
:1017300082F31088D7E640BF05B0BDEC028BBDE850
:10174000F08F2846CDE9022300F026FA029A039B87
:1017500010EB020E43EB010828E708460B690291E3
:1017600098470028C9D00299D1E9002313E700BFA8
:10177000FFFFFFFFFFFFFFFF00000B40D807002027
:1017800000800B40A11400102DE9F84F364C25695C
:101790002DB1BDE8F84F0A213448FFF72DBEDFF820
:1017A000E4800321404600F0E5F90326C4F80C80EC
:1017B000FFF74CFB4FF0504C2D4B26700344236138
:1017C000DCF800300F216370636961801D834FF086
:1017D0000405A3F878504FF00505A3F890504FF09A
:1017E0000605A3F8A8504FF007050E2108274FF66D
:1017F000FF724FF00A0EA3F8C0504FF001094FF0EE
:101800000C0C4FF0020B4FF0090A0D204FF00B05A6
:10181000A3F868111749A280A3F808E1A160A3F812
:1018200048B0A3F8F0A0A3F82051A3F838C1A3F85A
:101830005001A3F83090A3F86060A3F8D8701A8024
:101840000D4B3046C8F820700C49DC60FFF754FBA4
:1018500049463046FFF73AFB094B0A211F6403480B
:10186000BDE8F84FFFF7C8BD94050020C008002070
:1018700038070020FFFF1000D8070020A114001037
:1018800000200B4000000B400146F0B50069EFF36B
:10189000108772B6D0E8CF5F0124002DFAD1C0E8DE
:1018A000454F002DF6D1BFF35F8FB1F902E04C69CF
:1018B0000EEB4E0CBEF1000F4FEACC0504EBCC0C46
:1018C0003DDB605B002648800869C0E88F6F87F3C6
:1018D0001088BCF80200CCE902230130C0F30E00EE
:1018E000012838BF0120059BACF80200CCF810306D
:1018F000069B40EA0E40CCF814300B69EFF31082DF
:1019000072B6D3E8CFCF0127BCF1000FF9D1C3E8FD
:101910004C7FBCF1000FF4D1BFF35F8F8B88635312
:10192000A1F804E00B69C3E88F6F82F310880122ED
:10193000CB68097803F501538A405A60F0BD002353
:101940000A69C2E88F3F87F310884FF0FF30F0BD7F
:1019500003464089B0EB214F37DD58690A1402EB8A
:10196000420210B500EBC2001C69EFF3108C72B696
:10197000D4E8CFEF0122BEF1000FF9D1C4E84E2F19
:10198000BEF1000FF4D1BFF35F8F428889B292B2EB
:101990008A4207D000221B69C3E88F2F8CF310887E
:1019A000002010BD42F4004242800121002218694B
:1019B0009971C0E88F2F8CF310881C78DA6808467C
:1019C00002F50153A140596010BD0020704700BFCF
:1019D0002DE9F041861F41F1FF35B04271EB05035F
:1019E00038BF002682B038BF354604460F4600F0A7
:1019F000DBF8301A65EB0103012873F1000306DA06
:101A00002046394602B0BDE8F04100F0D7B800F0FA
:101A1000CBF8864265EB010100290ADB0021174B58
:101A20003246009316482B460191FFF72DFF002800
:101A3000E6DB4FF0000C1348134A436A9D4204D87A
:101A4000816AB142DCD29D42DAD11368EFF3108192
:101A500072B6D3E8CF8F5FF0010EB8F1000FF8D166
:101A6000C3E848EFB8F1000FF3D1BFF35F8F1368FD
:101A7000C3E88FCF81F3108820BFDEE76114001028
:101A80009405002000000B40C008002010B504465B
:101A900000F08AF84FF47A734FF0FF3C6FF0004289
:101AA000E4FB0301BDE81040844572EB01033CBF39
:101AB00060461146FFF78CBF2DE9F04306460D4600
:101AC00083B0EFF30584E4B23CB1274B586AA842D7
:101AD0001CD2002003B0BDE8F083244FD7F80C904F
:101AE00097F80080484600F057F808F1040859F8C4
:101AF00028301B1A301A65EB0101984271F1000180
:101B000011DB20BF184B586AA842E2D39B6AB3424C
:101B100003D3012003B0BDE8F083401B18BF0120B0
:101B200003B0BDE8F08300F03FF8864265EB0101A9
:101B30000029CADB0E4B3846CDE9003432462B462D
:101B4000FFF7A2FE011EC0DD074B5A6AAA4208D366
:101B50009B6AB34203D30548FFF7FAFEB5E7AA42F2
:101B6000F9D120BFF7E700BF00000B40940500202B
:101B70006114001010B4054B054C064AA04214BF76
:101B80001846581C5DF8044BFFF7E6B86C070020B8
:101B900000800B40082B00100346416A0A46986AF1
:101BA000596A8A42FAD17047034B596A0A46986AC1
:101BB000596A9142FAD1704700000B40074A536AB4
:101BC0009942FCD8994207D1044B02E05A6A9142EB
:101BD00002D19A6A8242F9D3704700BF00000B40DD
:101BE00000EB400C4FEA8C0C0CF1804C0CF5803C67
:101BF000F0B51646DCF80420051FB2F5803F38BF6B
:101C00004FF48032EDB238BFCCF80420012D0CF532
:101C1000405228D94FF400641460234C54F820201B
:101C2000B2B9DCF80020012D82EA461202F0E0028F
:101C30000CF58056326028D94FF4006144F820300A
:101C40004FF480330CF500521160CCF80430F0BD35
:101C50006769B7FBF2FE0EF1010E0EEB4E0EBEF100
:101C6000030EFCD2DDE70129D4D103241460DCF893
:101C70000820D207FBD5DCF800200B4C82EA461284
:101C800002F0E0020CF5805632600122DCF80050D0
:101C90004D4005F00305356002FA01F1DCF808203B
:101CA0000A42FBD0C8E700BF70070020014B53F881
:101CB000200070477007002070B4039D04682D0356
:101CC00045EA03451B4B002CB3FBF1F3B2FBF3F6E3
:101CD0001FDB194A194B90420CBF4FF400424FF4DE
:101CE0008042174C1A6003F580531A60A36832EAE9
:101CF0000303FBD1212200F54053043301608660C9
:101D00001A600268002AFCDA0822C5601A6070BCFA
:101D10007047036803F03F038B42DAD18368C3F353
:101D20000B03B342D5D1C36803F4EE23AB42D0D149
:101D3000EDE700BF001BB700008005400020024017
:101D400000000240012300EB4000800000F18040D1
:101D500000F5841041600360704700BF0023DB8AF8
:101D6000002242E800F2520201D410211847042157
:101D7000184700BF034AD2F82838002BFBD0BFF326
:101D80005F8F704700000E400021044B044ABFF3F0
:101D90005F8F43F8041B9342F9D170470C080E4043
:101DA0002C080E4010B44FF48D704FF42A64064A8C
:101DB000064B07491460D06019605368002BFCDAA9
:101DC0005DF8044B704700BF0080044000A0044051
:101DD00000B0FA00704700BF08B50148FEF788FF61
:101DE0002C2B001038B5054C054DAC4204D254F8EC
:101DF000043B9847AC42FAD338BD00BF50290010CD
:101E00009029001010B40748074C084B084A0949AC
:101E100004601A608B6832EA0303FBD15DF8044B5F
:101E2000704700BF002002407F3BEFEF00300240D0
:101E3000F6FFF30300000240044BDB6CB3F5004FE8
:101E400003D14FF48022024BDA6470470000115036
:101E5000002011504FF0E022044BD2F8881D0B43B4
:101E6000C2F8883D10EE3004704700BF0303300015
:101E70006FF06041044B054A19609368DB4333F00F
:101E80006043FAD1704700BF0030024000000240BA
:101E900010B545F25320FFF761FFBDE8104003463F
:101EA0000420184710B545F25320FFF757FFBDE84F
:101EB0001040034601201847FEF7DCBF70B51749F4
:101EC000174C184E641AA510442D2A4628BF4422E8
:101ED0003046920000F08AFCB4F5867F1AD86B1C5D
:101EE000442BC5F14401104A88BF012110D8B4F534
:101EF000867F0DD03319480803EBC0001A605A6082
:101F000008338342FAD1CB0704D521F001010D44F7
:101F100046F82520054B9E6070BD00BF00000010F4
:101F200010010010000000201101001000ED00E081
:101F30000023F0B52B4C83B0C4F88430FFF732FF98
:101F40000122294BDA63636C012BFCD10321264A61
:101F5000244B11639D6B012DFCD1052302271E46E6
:101F600000242946214A22480097FFF7A5FE29466A
:101F70003346204A20480096FFF79EFE3946224607
:101F800004201E4BFFF72CFE2946224630461C4BF0
:101F9000FFF726FE2246082021461A4BFFF720FEB7
:101FA000224609202146174BFFF71AFE224606203B
:101FB0002146134BFFF714FE114B22460720214602
:101FC000FFF70EFE0420FFF771FE0F4BA3FB003559
:101FD000AD0CE0B229460134FFF7B4FE062CF8D16F
:101FE00003B0F0BD0000014000300140002F6859EF
:101FF00000000540008C864700800540001BB700AC
:1020000080D1F008006CDC0283DE1B430022002933
:1020100080F2A980404261EB4101B1B3B1FA81F392
:10202000083B16D4994010FA03FCC3F1200320FAB0
:1020300003F040EA0100A2EB0302C2F195021CEB9F
:102040000C0C40EBC25040F0004020D0FE2A16D2CB
:10205000704703F1210311FA03FC5CEA000CC3F1A1
:10206000210321FA03F0A3EB020202F1B50240EBD7
:10207000C25040F000400AD0FE2A38BF70474FF0EF
:102080000040A8BFCFF68070704711460AE028BF15
:1020900020F00100FE2A38BF7047F0E7002880F2E8
:1020A00033804042B0FA80F3083B0CD4984001EBF7
:1020B0000302C2F1950200EBC25040F00040FE2A3C
:1020C00038BF704713E003F1210310FA03FCC3F19A
:1020D000210320FA03F0A3EB010202F1950240EB89
:1020E000C25040F0004008D0FE2A38BF70474FF081
:1020F0000040A8BF40F0FF40704728BF20F001001B
:10210000FE2A38BF7047F2E720B3B0FA80F3083BED
:102110000AD4984001EB0302C2F1950200EBC250D1
:10212000FE2A38BF704711E003F1210310FA03FCC7
:10213000C3F1210320FA03F0A3EB010202F195029F
:1021400040EBC25007D0FE2A38BF7047ACBF4FF0FB
:10215000FF400020704728BF20F00100FE2A38BF52
:102160007047F3E7002289B3B1FA81F3083B14D436
:10217000994010FA03FCC3F1200320FA03F040EA6F
:102180000100A2EB0302C2F195021CEB0C0C40EB28
:10219000C2501ED0FE2A14D2704703F1210311FA57
:1021A00003FC5CEA000CC3F1210321FA03F0A3EB6A
:1021B000020202F1B50240EBC2500AD0FE2A38BF3B
:1021C0007047ACBF4FF0FF40002070471146FFF74B
:1021D0009BBF28BF20F00100FE2A38BF7047F0E700
:1021E00000B9704700F000B910B5094B84B01C6805
:1021F0004CB1034600914FF0FF3203A90548A047B8
:10220000012004B010BD00F031F9204604B010BD2B
:10221000B4070020E121001000BEFDE708B5FFF77C
:10222000FBFF00BF38B5064D064CFFF7DBFDAC42A7
:1022300004D254F8043B9847AC42FAD338BD00BFEF
:102240009429001090290010036808461146184789
:10225000437D2DE9F047074689461646002B40D0BE
:10226000002A39DD002109F1FF3515F8012F037D22
:102270000A2A0846DFF8788001F101040ED0A64250
:102280001BD02B782146A3F10D03B3FA83F315F885
:10229000012F5B090A2A01F10104F0D1002BEED1D4
:1022A0008842A1EB0001484418DB022140463B680C
:1022B0009847A64207D02046E3E7864203DD311A5D
:1022C0003B6848449847B14419F8013CA3F10D0319
:1022D000B3FA83F35B093B75BDE8F0873B68984729
:1022E000E3E748463B681146BDE8F047184700BFA2
:1022F000D02B00102DE9F04782B00D46924699464A
:102300000746FFF751FC4FF0FF366FF000442F4AAD
:10231000821841F10003964274EB03013CBF324640
:1023200023462B4800F010FB6B1C804603D1384637
:1023300000F0D2FA0546274B274E1C68274BB9F10F
:10234000000F18BF1E46B4B1BAF1000F1AD1DFF862
:10235000909001E0246974B12368002BFAD0D9F879
:1023600000300BB1A342F5D120462A463946B0478A
:102370002469002CF0D1B8F1000F1FD1284602B01B
:10238000BDE8F0874FF00A0ADFF8549002E02469B4
:10239000002CF0D02368002BF9D0D9F800300BB115
:1023A000A342F4D120462A463946B04720460122AE
:1023B0000DF107018DF807A0B047E8E7044800F0E9
:1023C000BFFA284602B0BDE8F08700BF40420F00C8
:1023D000AC050020AC07002049220010512200105B
:1023E000B007002000207047F0B583B006468DF896
:1023F0000700FFF7D9FB4FF0FF356FF00044174A95
:10240000821841F10003954274EB03013CBF23465F
:102410002A46134800F098FA124B07461C689CB1F4
:10242000114D01E024697CB12368002BFAD02B68A0
:102430000BB1A342F6D1204601220DF10701FFF7AF
:1024400007FF2469002CEFD117B9304603B0F0BD67
:10245000034800F075FA304603B0F0BD40420F006B
:10246000AC050020AC070020B007002038B50446BA
:1024700000F032FA012305461A4620462946FFF7A6
:1024800039FF084B1C682CB163682BB1984724694D
:10249000002CF9D1284638BD2469002CF4D12846F7
:1024A00038BD00BFAC0700202DE9F84F384B064679
:1024B00098420CBF4FF480234FF400230D46354F54
:1024C000354C364A3B602360946833EA0404FBD100
:1024D000B1460620FFF7EAFB022259F8041F4FEA33
:1024E000452E4FEAD55B704509F5405774EB0B0359
:1024F00001EA02013A6011D34FEA955CAB0201E0B8
:102500005346C4460232B2F5807F07D01EEB030A61
:102510004BEB0C08984274EB0C0CF1D24FF4807327
:10252000C2EB02249E46013B30D0B0FBF4FC654573
:10253000A4EB0204F6D20EFB02FE1B02022432615F
:1025400032460325D6F800C009F5005983EA0C038A
:1025500003F47F4306F5805CCCF80030C9F8001026
:1025600071683C6052F8243B214083F0070303F07C
:10257000CF0302F50052CCF80030B0FBFEF0C9F8F2
:1025800000101560C9F80040BDE8F88F9646D5E701
:1025900000000840002002400030024000000240DD
:1025A00010B5054C82B001460F2300220094034869
:1025B000FEF7FEFB02B010BDD42B001084090020F2
:1025C0002DE9F04789460546FEF7AAFB012399F855
:1025D000042099F905C005F12F4EDFF8D8800EF5DB
:1025E000600E93404FEA1E5EBCF1000F58F82E704B
:1025F00003F1FF3346DBC2F120018C45644631DC38
:1026000003FA0CF139422DD16646D5F868A199F844
:102610000710BAF1000F2CD0C9072CD4BCF1000F61
:1026200001DB664527D1B3401F423CD1D9F80010E9
:1026300082B1B44601EB420931F8022B0CF1120AC7
:10264000B2F5005F38BF921989450CF1010C45F8CD
:102650002A20F1D13B4348F82E30FEF773FB204689
:10266000BDE8F0874FF0FF34FEF76CFB2046BDE875
:10267000F0874907D2D56FF00A04FEF763FB2046C6
:10268000BDE8F087D2F120040DD403FA04F13942F9
:10269000264603D1B9E739422646B6D0013C661C2E
:1026A00003FA04F1F7D16FF00804FEF74BFB204664
:1026B000BDE8F087580700202DE9F041D0F86841C7
:1026C0009DF81860121B1F2A38D84EF29F044EF254
:1026D00080054FF4003801EB410C002E18BF254651
:1026E00000EBCC0404F5435400EBCC0C052BDCF8D8
:1026F000DC704FEA410EDCF8CC60C4F80C800CD9D9
:102700005401053B44F0A0540532052BCCF8DC40C5
:1027100002F01F02CCF8D850F2D8714400EBC1018E
:102720000020520142EA8363C1F8DC30C1F8D8507E
:10273000C1F8DC70C1F8CC60BDE8F0816FF0040036
:10274000FAE700BFF0B5012504688D4024EA0504CE
:102750000460B3B3D3E901561F68DC6801EB4103A1
:1027600000EBC303C3F8C8704FEA410CC3F8D06054
:10277000C3F8CC50C3F8DC400CEB01034FF001353B
:1027800000EBC30C4FF0004600EBC30E01230EF527
:10279000865E0C1D01F108078D40CEF8106003FA2B
:1027A00004F4CEF8106002F01F028560BB4000F513
:1027B000005004600EF1100E03600020CCF8D82009
:1027C000F0BD4FF480374FF440264FF4F83501EB5D
:1027D000410400EBC404C4F8C8704FEA410CC4F8CB
:1027E000D060C4F8CC50C4F8DC30C5E7844641EA78
:1027F000000313F0030349D1403A23D30B6803606D
:102800004B6843608B688360CB68C3600B6903616E
:102810004B6943618B698361CB69C3610B6A036256
:102820004B6A43628B6A8362CB6AC3620B6B03633E
:102830004B6B43638B6B8363CB6BC3634030403123
:10284000403ADBD230320BD30B6803604B684360F5
:102850008B688360CB68C36010301031103AF3D2BC
:102860000C3205D351F8043B40F8043B043AF9D24A
:10287000043208D0D2071CBF11F8013B00F8013B1D
:1028800001D30B8803806046704700BF082A13D32A
:102890008B07B1D010F00303AED0C3F10403D21AFA
:1028A000DB071CBF11F8013B00F8013BA4D331F852
:1028B000023B20F8023B9FE7043AD9D3013A11F8D2
:1028C000013B00F8013BF9D20B7803704B78437061
:1028D0008B7883706046704720F0030110F003008E
:1028E000C0F1000051F8043B00F1040C4FEACC0C9D
:1028F0006FF000021CBF22FA0CF213434FF0010CE0
:102900004CEA0C2C4CEA0C4CA3EB0C0222EA03021E
:1029100012EACC1204BF51F8043B0430F4D0C2F1E7
:10292000000102EA0102B2FA82F2C2F11F0200EBD8
:10293000D2007047F8B500BF5FF800F02902002010
:102940005FF800F0ED0100205FF800F08101002049
:10295000911E0010051E0010391E0010311F0010BE
:10296000711E0010891D0010B91E0010751D001089
:1029700005140010BD1E001089170010D51D001091
:10298000A51E0010551E0010650E00108D0E0010C3
:042990001102001020
:102994000600000007000000080000000900000015
:1029A4000A0000000B000000B429001009FF010018
:1029B400A0802FE04170661042B3020142B042A2EF
:1029C400020100000C0000000D0000000E000000D9
:1029D4000F000000140000001500000000070E099D
:1029E4001C1B1215383F363124232A2D70777E792B
:1029F4006C6B6265484F464154535A5DE0E7EEE91B
:102A0400FCFBF2F5D8DFD6D1C4C3CACD90979E990A
:102A14008C8B8285A8AFA6A1B4B3BABDC7C0C9CEFA
:102A2400DBDCD5D2FFF8F1F6E3E4EDEAB7B0B9BEEA
:102A3400ABACA5A28F88818693949D9A2720292EDA
:102A44003B3C35321F18111603040D0A5750595ECA
:102A54004B4C45426F68616673747D7A898E8780BA
:102A640095929B9CB1B6BFB8ADAAA3A4F9FEF7F0AA
:102A7400E5E2EBECC1C6CFC8DDDAD3D4696E67609A
:102A840075727B7C51565F584D4A4344191E17108A
:102A940005020B0C21262F283D3A33344E4940477A
:102AA40052555C5B7671787F6A6D64633E3930376A
:102AB40022252C2B0601080F1A1D1413AEA9A0A75A
:102AC400B2B5BCBB9691989F8A8D8483DED9D0D74A
:102AD400C2C5CCCBE6E1E8EFFAFDF4F3E82A001036
:102AE40006FF0100202027EA27EA01404306208050
:102AF4000A2A2A2A2050414E4943202A2A2A0A0017
:102B04000A000000486172647761726520616C613B
:102B1400726D20256420616C726561647920636C38
:102B240061696D65640000004861726420617373BB
:102B34006572740052656C6561736500626F6F74D1
:102B4400325F77323571303830000000322E322E49
:102B5400300000007069636F320000007069636FB9
:102B64005F6163747561746F727300004465632000
:102B7400313720323032350006005250D3F07542DE
:102B8400382B001006005250E182887F402B001041
:102B940006005250ABB36053502B00100600525045
:102BA400BBFF3CB6582B001006005250861C030293
:102BB400602B0010060052505422A29D702B00106E
:102BC40005005250DE65F468D03000100D0A000094
:102BD4004E6F20444D41206368616E6E656C7320B6
:102BE40061726520617661696C61626C65000000E8
:082BF400F8FBFF7F0100000067
:102BFC007C2B0010882B0010942B0010A02B0010A5
:0C2C0C00AC2B0010B82B0010C42B0010E3
:102C18004FF050412DE9F0410027044616461D4665
:102C2800D1F8008009E02368C3E88F7F8CF310880F
:102C38003046294600F004FAF0B92168EFF3108C09
:102C480072B6D1E8CF2F0123002AFAD1C1E8423F5A
:102C5800002AF6D1BFF35F8F94F904E0BEF1000FAC
:102C6800E1DA0023226884F80480C2E88F3F8CF3FD
:102C780010880120BDE8F0810020BDE8F08100BF88
:102C880030B501460468EFF3108C72B6D4E8CFEF84
:102C98000125BEF1000FF9D1C4E84E5FBEF1000F67
:102CA800F4D1BFF35F8F90F90440002C11DB0021B1
:102CB8000568C5E88F1F8CF310884FF0504C9CF9BD
:102CC80000C0A44501D1084630BDBDE83040FFF73B
:102CD8009FBF4FF05040006800230A680871C2E89F
:102CE8008F3F8CF31088012030BD00BF0368EFF3DD
:102CF800108272B6D3E8CFCF0121BCF1000FF9D111
:102D0800C3E84C1FBCF1000FF4D1BFF35F8F4FF045
:102D1800FF0C0023016880F804C0C1E88F3F82F3EC
:102D2800108840BF704700BF53B94AB9002908BF8F
:102D380000281CBF4FF0FF314FF0FF3000F07EB984
:102D4800ADF1080C6DE904CE00F006F8DDF804E0FA
:102D5800DDE9022304B070472DE9F04F099D0C46C8
:102D6800002B4DD18A420F4684469646B2FA82F32A
:102D780060D94BB102FA03FEC3F120029F4000FA6A
:102D880003FC20FA02F217434FEA1E461FFA8EF49C
:102D98004FEA1C42B7FBF6F106FB117701FB04F082
:102DA80042EA0742904208D91EEB020201F1FF37BE
:102DB80002D2904200F22D813946121A1FFA8CFC79
:102DC800B2FBF6F006FB102200FB04F44CEA024CBE
:102DD800644508D91EEB0C0C00F1FF3202D26445A1
:102DE80000F21A81104640EA0140ACEB040C0021C5
:102DF80025B12CFA03F30022C5E90032BDE8F08FB3
:102E08008B4205D90DB1C5E9000100210846F5E757
:102E1800B3FA83F100294DD1A342C0F0F280904269
:102E280080F0EF80064623460846002DE6D0C5E927
:102E38000063E3E7002B40F0A2808A1A4FEA1E479E
:102E48001FFA8EF60121B2FBF7F407FB14204FEAB4
:102E58001C4242EA004206FB04F090420FD91EEBE6
:102E6800020204F1FF382CBF4FF001094FF00009AE
:102E7800904203D9B9F1000F00F0C8804446121AF5
:102E88001FFA8CFCB2FBF7F007FB102200FB06F6DA
:102E98004CEA024C664508D91EEB0C0C00F1FF32D7
:102EA80002D2664500F2BB801046ACEB060C40EA45
:102EB80004409DE7C1F120068B4004FA01FE22FA86
:102EC80006F720FA06FCF4408A401F434EEA0C033A
:102ED80000FA01FE4FEA17484FEA13491FFA87FC28
:102EE800B4FBF8F008FB104449EA044400FB0CF971
:102EF800A1450ED93C1900F1FF3A2CBF4FF0010B48
:102F08004FF0000BA14503D9BBF1000F00F09380EF
:102F18005046A4EB09041FFA83F9B4FBF8F308FB45
:102F2800134403FB0CFC49EA0444A44506D93C19A4
:102F380003F1FF3801D2A4457AD8434643EA00405A
:102F4800A4EB0C04A0FB02984445CC46434602D3AC
:102F580006D1CE4504D20138B9EB020C68EB070361
:102F68005DB1BEEB0C0264EB030404FA06F622FA28
:102F780001F3CC401E43C5E9006400213EE702FA94
:102F880003FEC3F1200104FA03F200FA03FCCC406B
:102F98004FEA1E4720FA01F11FFA8EF6B4FBF7F04C
:102FA8000A4307FB1044110C41EA044100FB06F4F4
:102FB8008C420ED91EEB010100F1FF382CBF4FF0F7
:102FC80001094FF000098C4202D9B9F1000F2CD049
:102FD8004046091B92B2B1FBF7F407FB141142EA11
:102FE800014204FB06F1914207D91EEB020204F1EB
:102FF800FF3801D2914215D84446521A44EA00419A
:1030080021E7861A64EB030301200EE7023C7244B1
:1030180035E702397244D0E6F4440238E3E6F44472
:10302800023842E7023C7244E7E702387144D0E7CD
:10303800023B3C4482E702383C446AE7704700BFE1
:103048005FF800F0B91A001010000000000000003E
:103058000000010000000000000000000000020065
:103068000000000000000000000003000000000055
:10307800000000000000FF000000000001B54868E3
:1030880001318E460047704609380149884701BD1D
:103098003D130010000000000000000000000000C8
:1030A8000000000000000000B8050020000000003B
:0430B8000000000014
:1030BC00D3DEFFFFFE010000FF0100007CD0FFFF0C
:0430CC00793512AB95
:040000051000014D99
:00000001FF
